{
  "contractName": "PixelsMetavers",
  "abi": [
    {
      "inputs": [],
      "stateMutability": "nonpayable",
      "type": "constructor"
    },
    {
      "inputs": [
        {
          "internalType": "bytes32",
          "name": "",
          "type": "bytes32"
        }
      ],
      "name": "baseInfo",
      "outputs": [
        {
          "internalType": "string",
          "name": "data",
          "type": "string"
        },
        {
          "internalType": "string",
          "name": "category",
          "type": "string"
        },
        {
          "internalType": "string",
          "name": "decode",
          "type": "string"
        },
        {
          "internalType": "string",
          "name": "name",
          "type": "string"
        },
        {
          "internalType": "uint256",
          "name": "userId",
          "type": "uint256"
        }
      ],
      "stateMutability": "view",
      "type": "function",
      "constant": true
    },
    {
      "inputs": [
        {
          "internalType": "address",
          "name": "",
          "type": "address"
        },
        {
          "internalType": "uint256",
          "name": "",
          "type": "uint256"
        }
      ],
      "name": "collection",
      "outputs": [
        {
          "internalType": "uint256",
          "name": "",
          "type": "uint256"
        }
      ],
      "stateMutability": "view",
      "type": "function",
      "constant": true
    },
    {
      "inputs": [
        {
          "internalType": "uint256",
          "name": "",
          "type": "uint256"
        },
        {
          "internalType": "uint256",
          "name": "",
          "type": "uint256"
        }
      ],
      "name": "composes",
      "outputs": [
        {
          "internalType": "uint256",
          "name": "",
          "type": "uint256"
        }
      ],
      "stateMutability": "view",
      "type": "function",
      "constant": true
    },
    {
      "inputs": [
        {
          "internalType": "uint256",
          "name": "",
          "type": "uint256"
        }
      ],
      "name": "material",
      "outputs": [
        {
          "internalType": "uint256",
          "name": "id",
          "type": "uint256"
        },
        {
          "internalType": "uint256",
          "name": "compose",
          "type": "uint256"
        },
        {
          "internalType": "string",
          "name": "time",
          "type": "string"
        },
        {
          "internalType": "string",
          "name": "position",
          "type": "string"
        },
        {
          "internalType": "string",
          "name": "zIndex",
          "type": "string"
        },
        {
          "internalType": "address",
          "name": "owner",
          "type": "address"
        },
        {
          "internalType": "bytes32",
          "name": "data",
          "type": "bytes32"
        }
      ],
      "stateMutability": "view",
      "type": "function",
      "constant": true
    },
    {
      "inputs": [
        {
          "internalType": "address",
          "name": "",
          "type": "address"
        }
      ],
      "name": "user",
      "outputs": [
        {
          "internalType": "uint256",
          "name": "id",
          "type": "uint256"
        },
        {
          "internalType": "uint256",
          "name": "avater",
          "type": "uint256"
        },
        {
          "internalType": "string",
          "name": "role",
          "type": "string"
        },
        {
          "internalType": "string",
          "name": "other",
          "type": "string"
        }
      ],
      "stateMutability": "view",
      "type": "function",
      "constant": true
    },
    {
      "inputs": [],
      "name": "register",
      "outputs": [],
      "stateMutability": "nonpayable",
      "type": "function"
    },
    {
      "inputs": [
        {
          "internalType": "string",
          "name": "other",
          "type": "string"
        }
      ],
      "name": "setConfig",
      "outputs": [],
      "stateMutability": "nonpayable",
      "type": "function"
    },
    {
      "inputs": [
        {
          "internalType": "string",
          "name": "role",
          "type": "string"
        }
      ],
      "name": "setRole",
      "outputs": [],
      "stateMutability": "nonpayable",
      "type": "function"
    },
    {
      "inputs": [
        {
          "internalType": "uint256",
          "name": "id",
          "type": "uint256"
        }
      ],
      "name": "setAvater",
      "outputs": [],
      "stateMutability": "nonpayable",
      "type": "function"
    },
    {
      "inputs": [
        {
          "internalType": "address",
          "name": "to",
          "type": "address"
        }
      ],
      "name": "resetUser",
      "outputs": [],
      "stateMutability": "nonpayable",
      "type": "function"
    },
    {
      "inputs": [
        {
          "internalType": "uint256",
          "name": "id",
          "type": "uint256"
        },
        {
          "internalType": "string",
          "name": "time",
          "type": "string"
        },
        {
          "internalType": "string",
          "name": "position",
          "type": "string"
        },
        {
          "internalType": "string",
          "name": "zIndex",
          "type": "string"
        }
      ],
      "name": "setConfigMaterial",
      "outputs": [],
      "stateMutability": "nonpayable",
      "type": "function"
    },
    {
      "inputs": [],
      "name": "getMaterialLength",
      "outputs": [
        {
          "internalType": "uint256",
          "name": "",
          "type": "uint256"
        }
      ],
      "stateMutability": "view",
      "type": "function",
      "constant": true
    },
    {
      "inputs": [
        {
          "internalType": "uint256",
          "name": "id",
          "type": "uint256"
        }
      ],
      "name": "getMaterial",
      "outputs": [
        {
          "components": [
            {
              "components": [
                {
                  "internalType": "uint256",
                  "name": "id",
                  "type": "uint256"
                },
                {
                  "internalType": "uint256",
                  "name": "compose",
                  "type": "uint256"
                },
                {
                  "internalType": "string",
                  "name": "time",
                  "type": "string"
                },
                {
                  "internalType": "string",
                  "name": "position",
                  "type": "string"
                },
                {
                  "internalType": "string",
                  "name": "zIndex",
                  "type": "string"
                },
                {
                  "internalType": "address",
                  "name": "owner",
                  "type": "address"
                },
                {
                  "internalType": "bytes32",
                  "name": "data",
                  "type": "bytes32"
                }
              ],
              "internalType": "struct PixelsMetavers.Material",
              "name": "material",
              "type": "tuple"
            },
            {
              "components": [
                {
                  "internalType": "string",
                  "name": "data",
                  "type": "string"
                },
                {
                  "internalType": "string",
                  "name": "category",
                  "type": "string"
                },
                {
                  "internalType": "string",
                  "name": "decode",
                  "type": "string"
                },
                {
                  "internalType": "string",
                  "name": "name",
                  "type": "string"
                },
                {
                  "internalType": "uint256",
                  "name": "userId",
                  "type": "uint256"
                }
              ],
              "internalType": "struct PixelsMetavers.BaseInfo",
              "name": "baseInfo",
              "type": "tuple"
            },
            {
              "internalType": "uint256[]",
              "name": "composes",
              "type": "uint256[]"
            }
          ],
          "internalType": "struct PixelsMetavers.MaterialInfo",
          "name": "",
          "type": "tuple"
        }
      ],
      "stateMutability": "view",
      "type": "function",
      "constant": true
    },
    {
      "inputs": [
        {
          "internalType": "string",
          "name": "name",
          "type": "string"
        },
        {
          "internalType": "string",
          "name": "category",
          "type": "string"
        },
        {
          "internalType": "string",
          "name": "data",
          "type": "string"
        },
        {
          "internalType": "string",
          "name": "decode",
          "type": "string"
        },
        {
          "internalType": "uint256",
          "name": "num",
          "type": "uint256"
        }
      ],
      "name": "make",
      "outputs": [],
      "stateMutability": "nonpayable",
      "type": "function"
    },
    {
      "inputs": [
        {
          "internalType": "uint256",
          "name": "id",
          "type": "uint256"
        },
        {
          "internalType": "uint256",
          "name": "num",
          "type": "uint256"
        }
      ],
      "name": "reMake",
      "outputs": [],
      "stateMutability": "nonpayable",
      "type": "function"
    },
    {
      "inputs": [
        {
          "internalType": "uint256",
          "name": "id",
          "type": "uint256"
        }
      ],
      "name": "collect",
      "outputs": [],
      "stateMutability": "nonpayable",
      "type": "function"
    },
    {
      "inputs": [
        {
          "internalType": "uint256",
          "name": "id",
          "type": "uint256"
        },
        {
          "internalType": "uint256",
          "name": "index",
          "type": "uint256"
        }
      ],
      "name": "cancelCollect",
      "outputs": [],
      "stateMutability": "nonpayable",
      "type": "function"
    },
    {
      "inputs": [
        {
          "internalType": "address",
          "name": "from",
          "type": "address"
        }
      ],
      "name": "getCollection",
      "outputs": [
        {
          "internalType": "uint256[]",
          "name": "",
          "type": "uint256[]"
        }
      ],
      "stateMutability": "view",
      "type": "function",
      "constant": true
    },
    {
      "inputs": [
        {
          "internalType": "uint256",
          "name": "id",
          "type": "uint256"
        }
      ],
      "name": "getCompose",
      "outputs": [
        {
          "internalType": "uint256[]",
          "name": "",
          "type": "uint256[]"
        }
      ],
      "stateMutability": "view",
      "type": "function",
      "constant": true
    },
    {
      "inputs": [
        {
          "internalType": "uint256[]",
          "name": "ids",
          "type": "uint256[]"
        }
      ],
      "name": "compose",
      "outputs": [],
      "stateMutability": "nonpayable",
      "type": "function"
    },
    {
      "inputs": [
        {
          "internalType": "uint256",
          "name": "id",
          "type": "uint256"
        }
      ],
      "name": "cancelCompose",
      "outputs": [],
      "stateMutability": "nonpayable",
      "type": "function"
    },
    {
      "inputs": [
        {
          "internalType": "uint256",
          "name": "ids",
          "type": "uint256"
        },
        {
          "internalType": "uint256",
          "name": "id",
          "type": "uint256"
        }
      ],
      "name": "subjion",
      "outputs": [],
      "stateMutability": "nonpayable",
      "type": "function"
    },
    {
      "inputs": [
        {
          "internalType": "uint256",
          "name": "ids",
          "type": "uint256"
        },
        {
          "internalType": "uint256",
          "name": "id",
          "type": "uint256"
        },
        {
          "internalType": "uint256",
          "name": "index",
          "type": "uint256"
        }
      ],
      "name": "subtract",
      "outputs": [],
      "stateMutability": "nonpayable",
      "type": "function"
    },
    {
      "inputs": [
        {
          "internalType": "address",
          "name": "pmt721",
          "type": "address"
        }
      ],
      "name": "setPMT721",
      "outputs": [],
      "stateMutability": "nonpayable",
      "type": "function"
    }
  ],
  "bytecode": "0x60a0604052600160075534801561001557600080fd5b503373ffffffffffffffffffffffffffffffffffffffff1660808173ffffffffffffffffffffffffffffffffffffffff1660601b8152505060805160601c615dc96200006c60003960006123580152615dc96000f3fe608060405234801561001057600080fd5b50600436106101585760003560e01c806386ad9770116100c3578063ce3f865f1161007c578063ce3f865f146103b6578063cfb20619146103d2578063d095a65b146103ee578063d11db0101461041e578063da6d89091461043a578063e40de8871461046a57610158565b806386ad9770146102c65780638e0cfbc2146102e4578063a55c732714610300578063a683e76914610330578063a6f1c98014610364578063c8a000e11461038057610158565b806354f79db41161011557806354f79db41461020757806366008bde14610223578063749aa9371461023f5780637ce569961461025b5780637f9b8dd41461027757806381e7e20e1461029357610158565b80630ae59f3b1461015d57806311719fed1461018d5780631aa3a008146101a957806326dabbfb146101b3578063343959b4146101cf5780633cadff09146101eb575b600080fd5b61017760048036038101906101729190614af9565b61049a565b6040516101849190615989565b60405180910390f35b6101a760048036038101906101a29190614ddd565b6104cb565b005b6101b1610de9565b005b6101cd60048036038101906101c89190614b35565b610f13565b005b6101e960048036038101906101e49190614ad0565b6114bb565b005b61020560048036038101906102009190614ddd565b6118a5565b005b610221600480360381019061021c9190614ce0565b611b70565b005b61023d60048036038101906102389190614c09565b6120f0565b005b61025960048036038101906102549190614ad0565b612356565b005b61027560048036038101906102709190614ce0565b612427565b005b610291600480360381019061028c9190614e19565b612734565b005b6102ad60048036038101906102a89190614ad0565b612ba3565b6040516102bd94939291906159a4565b60405180910390f35b6102ce612ce3565b6040516102db9190615989565b60405180910390f35b6102fe60048036038101906102f99190614bc8565b612d89565b005b61031a60048036038101906103159190614ddd565b612e6a565b6040516103279190615989565b60405180910390f35b61034a60048036038101906103459190614b9f565b612e9b565b60405161035b9594939291906156f8565b60405180910390f35b61037e60048036038101906103799190614d32565b6130f1565b005b61039a60048036038101906103959190614ce0565b61343b565b6040516103ad97969594939291906159f7565b60405180910390f35b6103d060048036038101906103cb9190614ce0565b613635565b005b6103ec60048036038101906103e79190614ddd565b613a48565b005b61040860048036038101906104039190614ce0565b613df1565b60405161041591906156d6565b60405180910390f35b61043860048036038101906104339190614bc8565b613e5c565b005b610454600480360381019061044f9190614ce0565b613f3d565b6040516104619190615967565b60405180910390f35b610484600480360381019061047f9190614ad0565b614494565b60405161049191906156d6565b60405180910390f35b600560205281600052604060002081815481106104b657600080fd5b90600052602060002001600091509150505481565b33826000600360008381526020019081526020016000206040518060e0016040529081600082015481526020016001820154815260200160028201805461051190615c1e565b80601f016020809104026020016040519081016040528092919081815260200182805461053d90615c1e565b801561058a5780601f1061055f5761010080835404028352916020019161058a565b820191906000526020600020905b81548152906001019060200180831161056d57829003601f168201915b505050505081526020016003820180546105a390615c1e565b80601f01602080910402602001604051908101604052809291908181526020018280546105cf90615c1e565b801561061c5780601f106105f15761010080835404028352916020019161061c565b820191906000526020600020905b8154815290600101906020018083116105ff57829003601f168201915b5050505050815260200160048201805461063590615c1e565b80601f016020809104026020016040519081016040528092919081815260200182805461066190615c1e565b80156106ae5780601f10610683576101008083540402835291602001916106ae565b820191906000526020600020905b81548152906001019060200180831161069157829003601f168201915b505050505081526020016005820160009054906101000a900473ffffffffffffffffffffffffffffffffffffffff1673ffffffffffffffffffffffffffffffffffffffff1673ffffffffffffffffffffffffffffffffffffffff16815260200160068201548152505090508060a0015173ffffffffffffffffffffffffffffffffffffffff168373ffffffffffffffffffffffffffffffffffffffff161461078b576040517f08c379a0000000000000000000000000000000000000000000000000000000008152600401610782906158a7565b60405180910390fd5b33846000600360008381526020019081526020016000206040518060e001604052908160008201548152602001600182015481526020016002820180546107d190615c1e565b80601f01602080910402602001604051908101604052809291908181526020018280546107fd90615c1e565b801561084a5780601f1061081f5761010080835404028352916020019161084a565b820191906000526020600020905b81548152906001019060200180831161082d57829003601f168201915b5050505050815260200160038201805461086390615c1e565b80601f016020809104026020016040519081016040528092919081815260200182805461088f90615c1e565b80156108dc5780601f106108b1576101008083540402835291602001916108dc565b820191906000526020600020905b8154815290600101906020018083116108bf57829003601f168201915b505050505081526020016004820180546108f590615c1e565b80601f016020809104026020016040519081016040528092919081815260200182805461092190615c1e565b801561096e5780601f106109435761010080835404028352916020019161096e565b820191906000526020600020905b81548152906001019060200180831161095157829003601f168201915b505050505081526020016005820160009054906101000a900473ffffffffffffffffffffffffffffffffffffffff1673ffffffffffffffffffffffffffffffffffffffff1673ffffffffffffffffffffffffffffffffffffffff16815260200160068201548152505090508060a0015173ffffffffffffffffffffffffffffffffffffffff168373ffffffffffffffffffffffffffffffffffffffff1614610a4b576040517f08c379a0000000000000000000000000000000000000000000000000000000008152600401610a42906158a7565b60405180910390fd5b6000600460008a8152602001908152602001600020805480602002602001604051908101604052809291908181526020018280548015610aaa57602002820191906000526020600020905b815481526020019060010190808311610a96575b505050505090506001815111610af5576040517f08c379a0000000000000000000000000000000000000000000000000000000008152600401610aec906158c7565b60405180910390fd5b6000600360008a81526020019081526020016000206040518060e00160405290816000820154815260200160018201548152602001600282018054610b3990615c1e565b80601f0160208091040260200160405190810160405280929190818152602001828054610b6590615c1e565b8015610bb25780601f10610b8757610100808354040283529160200191610bb2565b820191906000526020600020905b815481529060010190602001808311610b9557829003601f168201915b50505050508152602001600382018054610bcb90615c1e565b80601f0160208091040260200160405190810160405280929190818152602001828054610bf790615c1e565b8015610c445780601f10610c1957610100808354040283529160200191610c44565b820191906000526020600020905b815481529060010190602001808311610c2757829003601f168201915b50505050508152602001600482018054610c5d90615c1e565b80601f0160208091040260200160405190810160405280929190818152602001828054610c8990615c1e565b8015610cd65780601f10610cab57610100808354040283529160200191610cd6565b820191906000526020600020905b815481529060010190602001808311610cb957829003601f168201915b505050505081526020016005820160009054906101000a900473ffffffffffffffffffffffffffffffffffffffff1673ffffffffffffffffffffffffffffffffffffffff1673ffffffffffffffffffffffffffffffffffffffff16815260200160068201548152505090506000816020015114610d88576040517f08c379a0000000000000000000000000000000000000000000000000000000008152600401610d7f90615847565b60405180910390fd5b89600360008b815260200190815260200160002060010181905550600460008b815260200190815260200160002089908060018154018082558091505060019003906000526020600020016000909190919091505550505050505050505050565b6000600260003373ffffffffffffffffffffffffffffffffffffffff1673ffffffffffffffffffffffffffffffffffffffff1681526020019081526020016000206000015414610e6e576040517f08c379a0000000000000000000000000000000000000000000000000000000008152600401610e6590615787565b60405180910390fd5b620fa0006001541115610eb6576040517f08c379a0000000000000000000000000000000000000000000000000000000008152600401610ead906157e7565b60405180910390fd5b600160008154610ec590615c50565b919050819055600260003373ffffffffffffffffffffffffffffffffffffffff1673ffffffffffffffffffffffffffffffffffffffff16815260200190815260200160002060000181905550565b336000600260008373ffffffffffffffffffffffffffffffffffffffff1673ffffffffffffffffffffffffffffffffffffffff1681526020019081526020016000206000015411610f99576040517f08c379a0000000000000000000000000000000000000000000000000000000008152600401610f90906157c7565b60405180910390fd5b600160075414610fde576040517f08c379a0000000000000000000000000000000000000000000000000000000008152600401610fd590615907565b60405180910390fd5b6000600781905550611013604051602001610ff89061566f565b6040516020818303038152906040528051906020012061452b565b60008060009054906101000a900473ffffffffffffffffffffffffffffffffffffffff1673ffffffffffffffffffffffffffffffffffffffff16631c75cfb46040518163ffffffff1660e01b815260040160206040518083038186803b15801561107c57600080fd5b505afa158015611090573d6000803e3d6000fd5b505050506040513d601f19601f820116820180604052508101906110b49190614d09565b9050600083519050600181116110ff576040517f08c379a00000000000000000000000000000000000000000000000000000000081526004016110f6906158c7565b60405180910390fd5b60005b81811015611484576000858281518110611145577f4e487b7100000000000000000000000000000000000000000000000000000000600052603260045260246000fd5b602002602001015190506000600360008381526020019081526020016000206040518060e0016040529081600082015481526020016001820154815260200160028201805461119390615c1e565b80601f01602080910402602001604051908101604052809291908181526020018280546111bf90615c1e565b801561120c5780601f106111e15761010080835404028352916020019161120c565b820191906000526020600020905b8154815290600101906020018083116111ef57829003601f168201915b5050505050815260200160038201805461122590615c1e565b80601f016020809104026020016040519081016040528092919081815260200182805461125190615c1e565b801561129e5780601f106112735761010080835404028352916020019161129e565b820191906000526020600020905b81548152906001019060200180831161128157829003601f168201915b505050505081526020016004820180546112b790615c1e565b80601f01602080910402602001604051908101604052809291908181526020018280546112e390615c1e565b80156113305780601f1061130557610100808354040283529160200191611330565b820191906000526020600020905b81548152906001019060200180831161131357829003601f168201915b505050505081526020016005820160009054906101000a900473ffffffffffffffffffffffffffffffffffffffff1673ffffffffffffffffffffffffffffffffffffffff1673ffffffffffffffffffffffffffffffffffffffff16815260200160068201548152505090508060a0015173ffffffffffffffffffffffffffffffffffffffff163373ffffffffffffffffffffffffffffffffffffffff161461140d576040517f08c379a0000000000000000000000000000000000000000000000000000000008152600401611404906158e7565b60405180910390fd5b6000816020015114611454576040517f08c379a000000000000000000000000000000000000000000000000000000000815260040161144b90615807565b60405180910390fd5b8460036000848152602001908152602001600020600101819055505050808061147c90615c50565b915050611102565b50836004600084815260200190815260200160002090805190602001906114ac9291906147a6565b50505060016007819055505050565b336000600260008373ffffffffffffffffffffffffffffffffffffffff1673ffffffffffffffffffffffffffffffffffffffff1681526020019081526020016000206000015411611541576040517f08c379a0000000000000000000000000000000000000000000000000000000008152600401611538906157c7565b60405180910390fd5b6000600260008473ffffffffffffffffffffffffffffffffffffffff1673ffffffffffffffffffffffffffffffffffffffff16815260200190815260200160002060000154146115c6576040517f08c379a00000000000000000000000000000000000000000000000000000000081526004016115bd90615927565b60405180910390fd5b6000600260003373ffffffffffffffffffffffffffffffffffffffff1673ffffffffffffffffffffffffffffffffffffffff168152602001908152602001600020604051806080016040529081600082015481526020016001820154815260200160028201805461163690615c1e565b80601f016020809104026020016040519081016040528092919081815260200182805461166290615c1e565b80156116af5780601f10611684576101008083540402835291602001916116af565b820191906000526020600020905b81548152906001019060200180831161169257829003601f168201915b505050505081526020016003820180546116c890615c1e565b80601f01602080910402602001604051908101604052809291908181526020018280546116f490615c1e565b80156117415780601f1061171657610100808354040283529160200191611741565b820191906000526020600020905b81548152906001019060200180831161172457829003601f168201915b50505050508152505090508060000151600260008573ffffffffffffffffffffffffffffffffffffffff1673ffffffffffffffffffffffffffffffffffffffff168152602001908152602001600020600001819055508060400151600260008573ffffffffffffffffffffffffffffffffffffffff1673ffffffffffffffffffffffffffffffffffffffff16815260200190815260200160002060020190805190602001906117f19291906147f3565b506000600260003373ffffffffffffffffffffffffffffffffffffffff1673ffffffffffffffffffffffffffffffffffffffff1681526020019081526020016000206000018190555060405180602001604052806000815250600260003373ffffffffffffffffffffffffffffffffffffffff1673ffffffffffffffffffffffffffffffffffffffff168152602001908152602001600020600201908051906020019061189f9291906147f3565b50505050565b8160008054906101000a900473ffffffffffffffffffffffffffffffffffffffff1673ffffffffffffffffffffffffffffffffffffffff1663342de179826040518263ffffffff1660e01b81526004016118ff9190615989565b60206040518083038186803b15801561191757600080fd5b505afa15801561192b573d6000803e3d6000fd5b505050506040513d601f19601f8201168201806040525081019061194f9190614b76565b61198e576040517f08c379a000000000000000000000000000000000000000000000000000000000815260040161198590615827565b60405180910390fd5b6000600560003373ffffffffffffffffffffffffffffffffffffffff1673ffffffffffffffffffffffffffffffffffffffff168152602001908152602001600020805480602002602001604051908101604052809291908181526020018280548015611a1957602002820191906000526020600020905b815481526020019060010190808311611a05575b5050505050905080518310611a63576040517f08c379a0000000000000000000000000000000000000000000000000000000008152600401611a5a90615867565b60405180910390fd5b83818481518110611a9d577f4e487b7100000000000000000000000000000000000000000000000000000000600052603260045260246000fd5b602002602001015114611ae5576040517f08c379a0000000000000000000000000000000000000000000000000000000008152600401611adc906157a7565b60405180910390fd5b600560003373ffffffffffffffffffffffffffffffffffffffff1673ffffffffffffffffffffffffffffffffffffffff1681526020019081526020016000208381548110611b5c577f4e487b7100000000000000000000000000000000000000000000000000000000600052603260045260246000fd5b906000526020600020016000905550505050565b33816000600360008381526020019081526020016000206040518060e00160405290816000820154815260200160018201548152602001600282018054611bb690615c1e565b80601f0160208091040260200160405190810160405280929190818152602001828054611be290615c1e565b8015611c2f5780601f10611c0457610100808354040283529160200191611c2f565b820191906000526020600020905b815481529060010190602001808311611c1257829003601f168201915b50505050508152602001600382018054611c4890615c1e565b80601f0160208091040260200160405190810160405280929190818152602001828054611c7490615c1e565b8015611cc15780601f10611c9657610100808354040283529160200191611cc1565b820191906000526020600020905b815481529060010190602001808311611ca457829003601f168201915b50505050508152602001600482018054611cda90615c1e565b80601f0160208091040260200160405190810160405280929190818152602001828054611d0690615c1e565b8015611d535780601f10611d2857610100808354040283529160200191611d53565b820191906000526020600020905b815481529060010190602001808311611d3657829003601f168201915b505050505081526020016005820160009054906101000a900473ffffffffffffffffffffffffffffffffffffffff1673ffffffffffffffffffffffffffffffffffffffff1673ffffffffffffffffffffffffffffffffffffffff16815260200160068201548152505090508060a0015173ffffffffffffffffffffffffffffffffffffffff168373ffffffffffffffffffffffffffffffffffffffff1614611e30576040517f08c379a0000000000000000000000000000000000000000000000000000000008152600401611e27906158a7565b60405180910390fd5b600160075414611e75576040517f08c379a0000000000000000000000000000000000000000000000000000000008152600401611e6c90615907565b60405180910390fd5b6000600781905550600060046000868152602001908152602001600020805480602002602001604051908101604052809291908181526020018280548015611edc57602002820191906000526020600020905b815481526020019060010190808311611ec8575b5050505050905060008151905060018111611f2c576040517f08c379a0000000000000000000000000000000000000000000000000000000008152600401611f23906158c7565b60405180910390fd5b60005b81811015611fa657600060036000858481518110611f76577f4e487b7100000000000000000000000000000000000000000000000000000000600052603260045260246000fd5b60200260200101518152602001908152602001600020600101819055508080611f9e90615c50565b915050611f2f565b5060008054906101000a900473ffffffffffffffffffffffffffffffffffffffff1673ffffffffffffffffffffffffffffffffffffffff166342842e0e3330896040518463ffffffff1660e01b81526004016120049392919061569f565b600060405180830381600087803b15801561201e57600080fd5b505af1158015612032573d6000803e3d6000fd5b5050505060008054906101000a900473ffffffffffffffffffffffffffffffffffffffff1673ffffffffffffffffffffffffffffffffffffffff166342966c68876040518263ffffffff1660e01b815260040161208f9190615989565b600060405180830381600087803b1580156120a957600080fd5b505af11580156120bd573d6000803e3d6000fd5b505050506004600087815260200190815260200160002060006120e09190614879565b5050600160078190555050505050565b336000600260008373ffffffffffffffffffffffffffffffffffffffff1673ffffffffffffffffffffffffffffffffffffffff1681526020019081526020016000206000015411612176576040517f08c379a000000000000000000000000000000000000000000000000000000000815260040161216d906157c7565b60405180910390fd5b6000846040516020016121899190615658565b6040516020818303038152906040528051906020012090506040516020016121b09061566f565b60405160208183030381529060405280519060200120811415612208576040517f08c379a00000000000000000000000000000000000000000000000000000000081526004016121ff90615947565b60405180910390fd5b60005b8381101561222f5761221c8261452b565b808061222790615c50565b91505061220b565b5060006006600083815260200190815260200160002060040154141561234d576040518060a00160405280868152602001878152602001858152602001888152602001600260003373ffffffffffffffffffffffffffffffffffffffff1673ffffffffffffffffffffffffffffffffffffffff168152602001908152602001600020600001548152506006600083815260200190815260200160002060008201518160000190805190602001906122e79291906147f3565b5060208201518160010190805190602001906123049291906147f3565b5060408201518160020190805190602001906123219291906147f3565b50606082015181600301908051906020019061233e9291906147f3565b50608082015181600401559050505b50505050505050565b7f000000000000000000000000000000000000000000000000000000000000000073ffffffffffffffffffffffffffffffffffffffff163373ffffffffffffffffffffffffffffffffffffffff16146123e4576040517f08c379a00000000000000000000000000000000000000000000000000000000081526004016123db90615887565b60405180910390fd5b806000806101000a81548173ffffffffffffffffffffffffffffffffffffffff021916908373ffffffffffffffffffffffffffffffffffffffff16021790555050565b33816000600360008381526020019081526020016000206040518060e0016040529081600082015481526020016001820154815260200160028201805461246d90615c1e565b80601f016020809104026020016040519081016040528092919081815260200182805461249990615c1e565b80156124e65780601f106124bb576101008083540402835291602001916124e6565b820191906000526020600020905b8154815290600101906020018083116124c957829003601f168201915b505050505081526020016003820180546124ff90615c1e565b80601f016020809104026020016040519081016040528092919081815260200182805461252b90615c1e565b80156125785780601f1061254d57610100808354040283529160200191612578565b820191906000526020600020905b81548152906001019060200180831161255b57829003601f168201915b5050505050815260200160048201805461259190615c1e565b80601f01602080910402602001604051908101604052809291908181526020018280546125bd90615c1e565b801561260a5780601f106125df5761010080835404028352916020019161260a565b820191906000526020600020905b8154815290600101906020018083116125ed57829003601f168201915b505050505081526020016005820160009054906101000a900473ffffffffffffffffffffffffffffffffffffffff1673ffffffffffffffffffffffffffffffffffffffff1673ffffffffffffffffffffffffffffffffffffffff16815260200160068201548152505090508060a0015173ffffffffffffffffffffffffffffffffffffffff168373ffffffffffffffffffffffffffffffffffffffff16146126e7576040517f08c379a00000000000000000000000000000000000000000000000000000000081526004016126de906158a7565b60405180910390fd5b83600260003373ffffffffffffffffffffffffffffffffffffffff1673ffffffffffffffffffffffffffffffffffffffff1681526020019081526020016000206001018190555050505050565b33836000600360008381526020019081526020016000206040518060e0016040529081600082015481526020016001820154815260200160028201805461277a90615c1e565b80601f01602080910402602001604051908101604052809291908181526020018280546127a690615c1e565b80156127f35780601f106127c8576101008083540402835291602001916127f3565b820191906000526020600020905b8154815290600101906020018083116127d657829003601f168201915b5050505050815260200160038201805461280c90615c1e565b80601f016020809104026020016040519081016040528092919081815260200182805461283890615c1e565b80156128855780601f1061285a57610100808354040283529160200191612885565b820191906000526020600020905b81548152906001019060200180831161286857829003601f168201915b5050505050815260200160048201805461289e90615c1e565b80601f01602080910402602001604051908101604052809291908181526020018280546128ca90615c1e565b80156129175780601f106128ec57610100808354040283529160200191612917565b820191906000526020600020905b8154815290600101906020018083116128fa57829003601f168201915b505050505081526020016005820160009054906101000a900473ffffffffffffffffffffffffffffffffffffffff1673ffffffffffffffffffffffffffffffffffffffff1673ffffffffffffffffffffffffffffffffffffffff16815260200160068201548152505090508060a0015173ffffffffffffffffffffffffffffffffffffffff168373ffffffffffffffffffffffffffffffffffffffff16146129f4576040517f08c379a00000000000000000000000000000000000000000000000000000000081526004016129eb906158a7565b60405180910390fd5b600060046000888152602001908152602001600020805480602002602001604051908101604052809291908181526020018280548015612a5357602002820191906000526020600020905b815481526020019060010190808311612a3f575b50505050509050600081519050858111612aa2576040517f08c379a0000000000000000000000000000000000000000000000000000000008152600401612a99906158c7565b60405180910390fd5b86828781518110612adc577f4e487b7100000000000000000000000000000000000000000000000000000000600052603260045260246000fd5b602002602001015114612b24576040517f08c379a0000000000000000000000000000000000000000000000000000000008152600401612b1b906157a7565b60405180910390fd5b60006003600089815260200190815260200160002060010181905550600460008981526020019081526020016000208681548110612b8b577f4e487b7100000000000000000000000000000000000000000000000000000000600052603260045260246000fd5b90600052602060002001600090555050505050505050565b6002602052806000526040600020600091509050806000015490806001015490806002018054612bd290615c1e565b80601f0160208091040260200160405190810160405280929190818152602001828054612bfe90615c1e565b8015612c4b5780601f10612c2057610100808354040283529160200191612c4b565b820191906000526020600020905b815481529060010190602001808311612c2e57829003601f168201915b505050505090806003018054612c6090615c1e565b80601f0160208091040260200160405190810160405280929190818152602001828054612c8c90615c1e565b8015612cd95780601f10612cae57610100808354040283529160200191612cd9565b820191906000526020600020905b815481529060010190602001808311612cbc57829003601f168201915b5050505050905084565b60008060009054906101000a900473ffffffffffffffffffffffffffffffffffffffff1673ffffffffffffffffffffffffffffffffffffffff16631c75cfb46040518163ffffffff1660e01b815260040160206040518083038186803b158015612d4c57600080fd5b505afa158015612d60573d6000803e3d6000fd5b505050506040513d601f19601f82011682018060405250810190612d849190614d09565b905090565b336000600260008373ffffffffffffffffffffffffffffffffffffffff1673ffffffffffffffffffffffffffffffffffffffff1681526020019081526020016000206000015411612e0f576040517f08c379a0000000000000000000000000000000000000000000000000000000008152600401612e06906157c7565b60405180910390fd5b81600260003373ffffffffffffffffffffffffffffffffffffffff1673ffffffffffffffffffffffffffffffffffffffff1681526020019081526020016000206002019080519060200190612e659291906147f3565b505050565b60046020528160005260406000208181548110612e8657600080fd5b90600052602060002001600091509150505481565b6006602052806000526040600020600091509050806000018054612ebe90615c1e565b80601f0160208091040260200160405190810160405280929190818152602001828054612eea90615c1e565b8015612f375780601f10612f0c57610100808354040283529160200191612f37565b820191906000526020600020905b815481529060010190602001808311612f1a57829003601f168201915b505050505090806001018054612f4c90615c1e565b80601f0160208091040260200160405190810160405280929190818152602001828054612f7890615c1e565b8015612fc55780601f10612f9a57610100808354040283529160200191612fc5565b820191906000526020600020905b815481529060010190602001808311612fa857829003601f168201915b505050505090806002018054612fda90615c1e565b80601f016020809104026020016040519081016040528092919081815260200182805461300690615c1e565b80156130535780601f1061302857610100808354040283529160200191613053565b820191906000526020600020905b81548152906001019060200180831161303657829003601f168201915b50505050509080600301805461306890615c1e565b80601f016020809104026020016040519081016040528092919081815260200182805461309490615c1e565b80156130e15780601f106130b6576101008083540402835291602001916130e1565b820191906000526020600020905b8154815290600101906020018083116130c457829003601f168201915b5050505050908060040154905085565b33846000600360008381526020019081526020016000206040518060e0016040529081600082015481526020016001820154815260200160028201805461313790615c1e565b80601f016020809104026020016040519081016040528092919081815260200182805461316390615c1e565b80156131b05780601f10613185576101008083540402835291602001916131b0565b820191906000526020600020905b81548152906001019060200180831161319357829003601f168201915b505050505081526020016003820180546131c990615c1e565b80601f01602080910402602001604051908101604052809291908181526020018280546131f590615c1e565b80156132425780601f1061321757610100808354040283529160200191613242565b820191906000526020600020905b81548152906001019060200180831161322557829003601f168201915b5050505050815260200160048201805461325b90615c1e565b80601f016020809104026020016040519081016040528092919081815260200182805461328790615c1e565b80156132d45780601f106132a9576101008083540402835291602001916132d4565b820191906000526020600020905b8154815290600101906020018083116132b757829003601f168201915b505050505081526020016005820160009054906101000a900473ffffffffffffffffffffffffffffffffffffffff1673ffffffffffffffffffffffffffffffffffffffff1673ffffffffffffffffffffffffffffffffffffffff16815260200160068201548152505090508060a0015173ffffffffffffffffffffffffffffffffffffffff168373ffffffffffffffffffffffffffffffffffffffff16146133b1576040517f08c379a00000000000000000000000000000000000000000000000000000000081526004016133a8906158a7565b60405180910390fd5b856003600089815260200190815260200160002060020190805190602001906133db9291906147f3565b50846003600089815260200190815260200160002060030190805190602001906134069291906147f3565b50836003600089815260200190815260200160002060040190805190602001906134319291906147f3565b5050505050505050565b600360205280600052604060002060009150905080600001549080600101549080600201805461346a90615c1e565b80601f016020809104026020016040519081016040528092919081815260200182805461349690615c1e565b80156134e35780601f106134b8576101008083540402835291602001916134e3565b820191906000526020600020905b8154815290600101906020018083116134c657829003601f168201915b5050505050908060030180546134f890615c1e565b80601f016020809104026020016040519081016040528092919081815260200182805461352490615c1e565b80156135715780601f1061354657610100808354040283529160200191613571565b820191906000526020600020905b81548152906001019060200180831161355457829003601f168201915b50505050509080600401805461358690615c1e565b80601f01602080910402602001604051908101604052809291908181526020018280546135b290615c1e565b80156135ff5780601f106135d4576101008083540402835291602001916135ff565b820191906000526020600020905b8154815290600101906020018083116135e257829003601f168201915b5050505050908060050160009054906101000a900473ffffffffffffffffffffffffffffffffffffffff16908060060154905087565b8060008054906101000a900473ffffffffffffffffffffffffffffffffffffffff1673ffffffffffffffffffffffffffffffffffffffff1663342de179826040518263ffffffff1660e01b815260040161368f9190615989565b60206040518083038186803b1580156136a757600080fd5b505afa1580156136bb573d6000803e3d6000fd5b505050506040513d601f19601f820116820180604052508101906136df9190614b76565b61371e576040517f08c379a000000000000000000000000000000000000000000000000000000000815260040161371590615827565b60405180910390fd5b6000600360008481526020019081526020016000206040518060e0016040529081600082015481526020016001820154815260200160028201805461376290615c1e565b80601f016020809104026020016040519081016040528092919081815260200182805461378e90615c1e565b80156137db5780601f106137b0576101008083540402835291602001916137db565b820191906000526020600020905b8154815290600101906020018083116137be57829003601f168201915b505050505081526020016003820180546137f490615c1e565b80601f016020809104026020016040519081016040528092919081815260200182805461382090615c1e565b801561386d5780601f106138425761010080835404028352916020019161386d565b820191906000526020600020905b81548152906001019060200180831161385057829003601f168201915b5050505050815260200160048201805461388690615c1e565b80601f01602080910402602001604051908101604052809291908181526020018280546138b290615c1e565b80156138ff5780601f106138d4576101008083540402835291602001916138ff565b820191906000526020600020905b8154815290600101906020018083116138e257829003601f168201915b505050505081526020016005820160009054906101000a900473ffffffffffffffffffffffffffffffffffffffff1673ffffffffffffffffffffffffffffffffffffffff1673ffffffffffffffffffffffffffffffffffffffff16815260200160068201548152505090503373ffffffffffffffffffffffffffffffffffffffff168160a0015173ffffffffffffffffffffffffffffffffffffffff1614156139dd576040517f08c379a00000000000000000000000000000000000000000000000000000000081526004016139d490615767565b60405180910390fd5b600560003373ffffffffffffffffffffffffffffffffffffffff1673ffffffffffffffffffffffffffffffffffffffff168152602001908152602001600020839080600181540180825580915050600190039060005260206000200160009091909190915055505050565b33826000600360008381526020019081526020016000206040518060e00160405290816000820154815260200160018201548152602001600282018054613a8e90615c1e565b80601f0160208091040260200160405190810160405280929190818152602001828054613aba90615c1e565b8015613b075780601f10613adc57610100808354040283529160200191613b07565b820191906000526020600020905b815481529060010190602001808311613aea57829003601f168201915b50505050508152602001600382018054613b2090615c1e565b80601f0160208091040260200160405190810160405280929190818152602001828054613b4c90615c1e565b8015613b995780601f10613b6e57610100808354040283529160200191613b99565b820191906000526020600020905b815481529060010190602001808311613b7c57829003601f168201915b50505050508152602001600482018054613bb290615c1e565b80601f0160208091040260200160405190810160405280929190818152602001828054613bde90615c1e565b8015613c2b5780601f10613c0057610100808354040283529160200191613c2b565b820191906000526020600020905b815481529060010190602001808311613c0e57829003601f168201915b505050505081526020016005820160009054906101000a900473ffffffffffffffffffffffffffffffffffffffff1673ffffffffffffffffffffffffffffffffffffffff1673ffffffffffffffffffffffffffffffffffffffff16815260200160068201548152505090508060a0015173ffffffffffffffffffffffffffffffffffffffff168373ffffffffffffffffffffffffffffffffffffffff1614613d08576040517f08c379a0000000000000000000000000000000000000000000000000000000008152600401613cff906158a7565b60405180910390fd5b6000600360008781526020019081526020016000209050600260003373ffffffffffffffffffffffffffffffffffffffff1673ffffffffffffffffffffffffffffffffffffffff1681526020019081526020016000206000015460066000836006015481526020019081526020016000206004015414613dbd576040517f08c379a0000000000000000000000000000000000000000000000000000000008152600401613db490615887565b60405180910390fd5b60005b85811015613de857613dd5826006015461452b565b8080613de090615c50565b915050613dc0565b50505050505050565b606060046000838152602001908152602001600020805480602002602001604051908101604052809291908181526020018280548015613e5057602002820191906000526020600020905b815481526020019060010190808311613e3c575b50505050509050919050565b336000600260008373ffffffffffffffffffffffffffffffffffffffff1673ffffffffffffffffffffffffffffffffffffffff1681526020019081526020016000206000015411613ee2576040517f08c379a0000000000000000000000000000000000000000000000000000000008152600401613ed9906157c7565b60405180910390fd5b81600260003373ffffffffffffffffffffffffffffffffffffffff1673ffffffffffffffffffffffffffffffffffffffff1681526020019081526020016000206003019080519060200190613f389291906147f3565b505050565b613f4561489a565b6000600360008481526020019081526020016000209050600060066000836006015481526020019081526020016000206040518060a0016040529081600082018054613f9090615c1e565b80601f0160208091040260200160405190810160405280929190818152602001828054613fbc90615c1e565b80156140095780601f10613fde57610100808354040283529160200191614009565b820191906000526020600020905b815481529060010190602001808311613fec57829003601f168201915b5050505050815260200160018201805461402290615c1e565b80601f016020809104026020016040519081016040528092919081815260200182805461404e90615c1e565b801561409b5780601f106140705761010080835404028352916020019161409b565b820191906000526020600020905b81548152906001019060200180831161407e57829003601f168201915b505050505081526020016002820180546140b490615c1e565b80601f01602080910402602001604051908101604052809291908181526020018280546140e090615c1e565b801561412d5780601f106141025761010080835404028352916020019161412d565b820191906000526020600020905b81548152906001019060200180831161411057829003601f168201915b5050505050815260200160038201805461414690615c1e565b80601f016020809104026020016040519081016040528092919081815260200182805461417290615c1e565b80156141bf5780601f10614194576101008083540402835291602001916141bf565b820191906000526020600020905b8154815290600101906020018083116141a257829003601f168201915b50505050508152602001600482015481525050905060006004600086815260200190815260200160002080548060200260200160405190810160405280929190818152602001828054801561423357602002820191906000526020600020905b81548152602001906001019080831161421f575b505050505090506040518060600160405280846040518060e0016040529081600082015481526020016001820154815260200160028201805461427590615c1e565b80601f01602080910402602001604051908101604052809291908181526020018280546142a190615c1e565b80156142ee5780601f106142c3576101008083540402835291602001916142ee565b820191906000526020600020905b8154815290600101906020018083116142d157829003601f168201915b5050505050815260200160038201805461430790615c1e565b80601f016020809104026020016040519081016040528092919081815260200182805461433390615c1e565b80156143805780601f1061435557610100808354040283529160200191614380565b820191906000526020600020905b81548152906001019060200180831161436357829003601f168201915b5050505050815260200160048201805461439990615c1e565b80601f01602080910402602001604051908101604052809291908181526020018280546143c590615c1e565b80156144125780601f106143e757610100808354040283529160200191614412565b820191906000526020600020905b8154815290600101906020018083116143f557829003601f168201915b505050505081526020016005820160009054906101000a900473ffffffffffffffffffffffffffffffffffffffff1673ffffffffffffffffffffffffffffffffffffffff1673ffffffffffffffffffffffffffffffffffffffff1681526020016006820154815250508152602001838152602001828152509350505050919050565b6060600560008373ffffffffffffffffffffffffffffffffffffffff1673ffffffffffffffffffffffffffffffffffffffff16815260200190815260200160002080548060200260200160405190810160405280929190818152602001828054801561451f57602002820191906000526020600020905b81548152602001906001019080831161450b575b50505050509050919050565b60008054906101000a900473ffffffffffffffffffffffffffffffffffffffff1673ffffffffffffffffffffffffffffffffffffffff16636a627842336040518263ffffffff1660e01b81526004016145849190615684565b600060405180830381600087803b15801561459e57600080fd5b505af11580156145b2573d6000803e3d6000fd5b5050505060008060009054906101000a900473ffffffffffffffffffffffffffffffffffffffff1673ffffffffffffffffffffffffffffffffffffffff16631c75cfb46040518163ffffffff1660e01b815260040160206040518083038186803b15801561461f57600080fd5b505afa158015614633573d6000803e3d6000fd5b505050506040513d601f19601f820116820180604052508101906146579190614d09565b90506040518060e00160405280828152602001600081526020016040518060200160405280600081525081526020016040518060200160405280600081525081526020016040518060200160405280600081525081526020013373ffffffffffffffffffffffffffffffffffffffff1681526020018381525060036000838152602001908152602001600020600082015181600001556020820151816001015560408201518160020190805190602001906147139291906147f3565b5060608201518160030190805190602001906147309291906147f3565b50608082015181600401908051906020019061474d9291906147f3565b5060a08201518160050160006101000a81548173ffffffffffffffffffffffffffffffffffffffff021916908373ffffffffffffffffffffffffffffffffffffffff16021790555060c082015181600601559050505050565b8280548282559060005260206000209081019282156147e2579160200282015b828111156147e15782518255916020019190600101906147c6565b5b5090506147ef91906148c7565b5090565b8280546147ff90615c1e565b90600052602060002090601f0160209004810192826148215760008555614868565b82601f1061483a57805160ff1916838001178555614868565b82800160010185558215614868579182015b8281111561486757825182559160200191906001019061484c565b5b50905061487591906148c7565b5090565b508054600082559060005260206000209081019061489791906148c7565b50565b60405180606001604052806148ad6148e4565b81526020016148ba61493a565b8152602001606081525090565b5b808211156148e05760008160009055506001016148c8565b5090565b6040518060e001604052806000815260200160008152602001606081526020016060815260200160608152602001600073ffffffffffffffffffffffffffffffffffffffff168152602001600080191681525090565b6040518060a0016040528060608152602001606081526020016060815260200160608152602001600081525090565b600061497c61497784615aac565b615a7b565b9050808382526020820190508285602086028201111561499b57600080fd5b60005b858110156149cb57816149b18882614aa6565b84526020840193506020830192505060018101905061499e565b5050509392505050565b60006149e86149e384615ad8565b615a7b565b905082815260208101848484011115614a0057600080fd5b614a0b848285615bdc565b509392505050565b600081359050614a2281615d37565b92915050565b600082601f830112614a3957600080fd5b8135614a49848260208601614969565b91505092915050565b600081519050614a6181615d4e565b92915050565b600081359050614a7681615d65565b92915050565b600082601f830112614a8d57600080fd5b8135614a9d8482602086016149d5565b91505092915050565b600081359050614ab581615d7c565b92915050565b600081519050614aca81615d7c565b92915050565b600060208284031215614ae257600080fd5b6000614af084828501614a13565b91505092915050565b60008060408385031215614b0c57600080fd5b6000614b1a85828601614a13565b9250506020614b2b85828601614aa6565b9150509250929050565b600060208284031215614b4757600080fd5b600082013567ffffffffffffffff811115614b6157600080fd5b614b6d84828501614a28565b91505092915050565b600060208284031215614b8857600080fd5b6000614b9684828501614a52565b91505092915050565b600060208284031215614bb157600080fd5b6000614bbf84828501614a67565b91505092915050565b600060208284031215614bda57600080fd5b600082013567ffffffffffffffff811115614bf457600080fd5b614c0084828501614a7c565b91505092915050565b600080600080600060a08688031215614c2157600080fd5b600086013567ffffffffffffffff811115614c3b57600080fd5b614c4788828901614a7c565b955050602086013567ffffffffffffffff811115614c6457600080fd5b614c7088828901614a7c565b945050604086013567ffffffffffffffff811115614c8d57600080fd5b614c9988828901614a7c565b935050606086013567ffffffffffffffff811115614cb657600080fd5b614cc288828901614a7c565b9250506080614cd388828901614aa6565b9150509295509295909350565b600060208284031215614cf257600080fd5b6000614d0084828501614aa6565b91505092915050565b600060208284031215614d1b57600080fd5b6000614d2984828501614abb565b91505092915050565b60008060008060808587031215614d4857600080fd5b6000614d5687828801614aa6565b945050602085013567ffffffffffffffff811115614d7357600080fd5b614d7f87828801614a7c565b935050604085013567ffffffffffffffff811115614d9c57600080fd5b614da887828801614a7c565b925050606085013567ffffffffffffffff811115614dc557600080fd5b614dd187828801614a7c565b91505092959194509250565b60008060408385031215614df057600080fd5b6000614dfe85828601614aa6565b9250506020614e0f85828601614aa6565b9150509250929050565b600080600060608486031215614e2e57600080fd5b6000614e3c86828701614aa6565b9350506020614e4d86828701614aa6565b9250506040614e5e86828701614aa6565b9150509250925092565b6000614e74838361563a565b60208301905092915050565b614e8981615b8a565b82525050565b614e9881615b8a565b82525050565b6000614ea982615b18565b614eb38185615b3b565b9350614ebe83615b08565b8060005b83811015614eef578151614ed68882614e68565b9750614ee183615b2e565b925050600181019050614ec2565b5085935050505092915050565b6000614f0782615b18565b614f118185615b4c565b9350614f1c83615b08565b8060005b83811015614f4d578151614f348882614e68565b9750614f3f83615b2e565b925050600181019050614f20565b5085935050505092915050565b614f6381615ba8565b82525050565b614f7281615ba8565b82525050565b6000614f8382615b23565b614f8d8185615b5d565b9350614f9d818560208601615beb565b614fa681615d26565b840191505092915050565b6000614fbc82615b23565b614fc68185615b6e565b9350614fd6818560208601615beb565b614fdf81615d26565b840191505092915050565b6000614ff582615b23565b614fff8185615b7f565b935061500f818560208601615beb565b80840191505092915050565b6000615028601283615b6e565b91507f5468697320796f7572206d6174657269616c00000000000000000000000000006000830152602082019050919050565b6000615068602083615b6e565b91507f596f752061726520616c7265616479206120706c6174666f726d2075736572216000830152602082019050919050565b60006150a8601983615b6e565b91507f5468697320696e6465782069736e6f742069642076616c7565000000000000006000830152602082019050919050565b60006150e8601483615b6e565b91507f4f6e6c7920557365722043616e20446f204974210000000000000000000000006000830152602082019050919050565b6000615128603d83615b6e565b91507f546865206e756d626572206861732065786365656465642074686520746f746160008301527f6c20706f70756c6174696f6e206f662074686520756e697665727365210000006020830152604082019050919050565b600061518e601a83615b6e565b91507f5468652063757272656e74206974656d20636f6d706f736564210000000000006000830152602082019050919050565b60006151ce601b83615b6e565b91507f5468652070726f6475637420646f6573206e6f742065786973742100000000006000830152602082019050919050565b600061520e600e83615b6e565b91507f546865206964207375626a696f6e0000000000000000000000000000000000006000830152602082019050919050565b600061524e601483615b6e565b91507f4e6f74207468697320696e6465782076616c75650000000000000000000000006000830152602082019050919050565b600061528e601583615b6e565b91507f4f6e6c79204f776e65722043616e20446f2049742100000000000000000000006000830152602082019050919050565b60006152ce601d83615b6e565b91507f5468652063757272656e74206974656d206973206e6f7420796f7572210000006000830152602082019050919050565b600061530e601283615b6e565b91507f546865206964206e6f20636f6d706f73656400000000000000000000000000006000830152602082019050919050565b600061534e602383615b6e565b91507f5468652063757272656e74206974656d206973206e6f7420796f75722061737360008301527f65742100000000000000000000000000000000000000000000000000000000006020830152604082019050919050565b60006153b4600083615b7f565b9150600082019050919050565b60006153ce600683615b6e565b91507f4c4f434b454400000000000000000000000000000000000000000000000000006000830152602082019050919050565b600061540e602983615b6e565b91507f5468697320616464726573732061726520616c7265616479206120706c61746660008301527f6f726d20757365722100000000000000000000000000000000000000000000006020830152604082019050919050565b6000615474601283615b6e565b91507f446174612063616e6e6f7420656d7074792100000000000000000000000000006000830152602082019050919050565b600060a08301600083015184820360008601526154c48282614f78565b915050602083015184820360208601526154de8282614f78565b915050604083015184820360408601526154f88282614f78565b915050606083015184820360608601526155128282614f78565b9150506080830151615527608086018261563a565b508091505092915050565b6000606083016000830151848203600086015261554f8282615590565b9150506020830151848203602086015261556982826154a7565b915050604083015184820360408601526155838282614e9e565b9150508091505092915050565b600060e0830160008301516155a8600086018261563a565b5060208301516155bb602086018261563a565b50604083015184820360408601526155d38282614f78565b915050606083015184820360608601526155ed8282614f78565b915050608083015184820360808601526156078282614f78565b91505060a083015161561c60a0860182614e80565b5060c083015161562f60c0860182614f5a565b508091505092915050565b61564381615bd2565b82525050565b61565281615bd2565b82525050565b60006156648284614fea565b915081905092915050565b600061567a826153a7565b9150819050919050565b60006020820190506156996000830184614e8f565b92915050565b60006060820190506156b46000830186614e8f565b6156c16020830185614e8f565b6156ce6040830184615649565b949350505050565b600060208201905081810360008301526156f08184614efc565b905092915050565b600060a08201905081810360008301526157128188614fb1565b905081810360208301526157268187614fb1565b9050818103604083015261573a8186614fb1565b9050818103606083015261574e8185614fb1565b905061575d6080830184615649565b9695505050505050565b600060208201905081810360008301526157808161501b565b9050919050565b600060208201905081810360008301526157a08161505b565b9050919050565b600060208201905081810360008301526157c08161509b565b9050919050565b600060208201905081810360008301526157e0816150db565b9050919050565b600060208201905081810360008301526158008161511b565b9050919050565b6000602082019050818103600083015261582081615181565b9050919050565b60006020820190508181036000830152615840816151c1565b9050919050565b6000602082019050818103600083015261586081615201565b9050919050565b6000602082019050818103600083015261588081615241565b9050919050565b600060208201905081810360008301526158a081615281565b9050919050565b600060208201905081810360008301526158c0816152c1565b9050919050565b600060208201905081810360008301526158e081615301565b9050919050565b6000602082019050818103600083015261590081615341565b9050919050565b60006020820190508181036000830152615920816153c1565b9050919050565b6000602082019050818103600083015261594081615401565b9050919050565b6000602082019050818103600083015261596081615467565b9050919050565b600060208201905081810360008301526159818184615532565b905092915050565b600060208201905061599e6000830184615649565b92915050565b60006080820190506159b96000830187615649565b6159c66020830186615649565b81810360408301526159d88185614fb1565b905081810360608301526159ec8184614fb1565b905095945050505050565b600060e082019050615a0c600083018a615649565b615a196020830189615649565b8181036040830152615a2b8188614fb1565b90508181036060830152615a3f8187614fb1565b90508181036080830152615a538186614fb1565b9050615a6260a0830185614e8f565b615a6f60c0830184614f69565b98975050505050505050565b6000604051905081810181811067ffffffffffffffff82111715615aa257615aa1615cf7565b5b8060405250919050565b600067ffffffffffffffff821115615ac757615ac6615cf7565b5b602082029050602081019050919050565b600067ffffffffffffffff821115615af357615af2615cf7565b5b601f19601f8301169050602081019050919050565b6000819050602082019050919050565b600081519050919050565b600081519050919050565b6000602082019050919050565b600082825260208201905092915050565b600082825260208201905092915050565b600082825260208201905092915050565b600082825260208201905092915050565b600081905092915050565b6000615b9582615bb2565b9050919050565b60008115159050919050565b6000819050919050565b600073ffffffffffffffffffffffffffffffffffffffff82169050919050565b6000819050919050565b82818337600083830152505050565b60005b83811015615c09578082015181840152602081019050615bee565b83811115615c18576000848401525b50505050565b60006002820490506001821680615c3657607f821691505b60208210811415615c4a57615c49615cc8565b5b50919050565b6000615c5b82615bd2565b91507fffffffffffffffffffffffffffffffffffffffffffffffffffffffffffffffff821415615c8e57615c8d615c99565b5b600182019050919050565b7f4e487b7100000000000000000000000000000000000000000000000000000000600052601160045260246000fd5b7f4e487b7100000000000000000000000000000000000000000000000000000000600052602260045260246000fd5b7f4e487b7100000000000000000000000000000000000000000000000000000000600052604160045260246000fd5b6000601f19601f8301169050919050565b615d4081615b8a565b8114615d4b57600080fd5b50565b615d5781615b9c565b8114615d6257600080fd5b50565b615d6e81615ba8565b8114615d7957600080fd5b50565b615d8581615bd2565b8114615d9057600080fd5b5056fea26469706673582212207d899b625dc10eed0765cb6a6ae22838454a8348d7f29e7222c7afafec87628564736f6c63430008000033",
  "immutableReferences": {
    "207": [
      {
        "length": 32,
        "start": 9048
      }
    ]
  },
  "source": "// SPDX-License-Identifier: GPL-3.0\npragma solidity ^0.8.0;\n\nimport \"./IPMT721.sol\";\n\ncontract PixelsMetavers {\n    IPMT721 private PMT721;\n    address private immutable _owner;\n\n    uint256 amount;\n\n    struct User {\n        uint256 id;\n        uint256 avater;\n        string role;\n        string other;\n    }\n    mapping(address => User) public user;\n\n    struct Material {\n        uint256 id;\n        uint256 compose;\n        string time;\n        string position;\n        string zIndex;\n        address owner;\n        bytes32 data;\n    }\n    mapping(uint256 => Material) public material;\n    mapping(uint256 => uint256[]) public composes;\n    mapping(address => uint256[]) public collection;\n\n    struct BaseInfo {\n        string data;\n        string category;\n        string decode;\n        string name;\n        uint256 userId;\n    }\n    mapping(bytes32 => BaseInfo) public baseInfo;\n\n    struct MaterialInfo {\n        Material material;\n        BaseInfo baseInfo;\n        uint256[] composes;\n    }\n\n    uint256 private unlocked = 1;\n    modifier lock() {\n        require(unlocked == 1, \"LOCKED\");\n        unlocked = 0;\n        _;\n        unlocked = 1;\n    }\n\n    modifier MustExist(uint256 id) {\n        require(IPMT721(PMT721).exits(id), \"The product does not exist!\");\n        _;\n    }\n\n    modifier MustUser(address u) {\n        require(user[u].id > 0, \"Only User Can Do It!\");\n        _;\n    }\n\n    modifier MustOwner(address sender, uint256 id) {\n        Material memory m = material[id];\n        require(sender == m.owner, \"The current item is not your!\");\n        _;\n    }\n\n    constructor() {\n        _owner = msg.sender;\n    }\n\n    // 73617\n    function register() public {\n        require(user[msg.sender].id == 0, \"You are already a platform user!\");\n        require(\n            amount <= 1024000,\n            \"The number has exceeded the total population of the universe!\"\n        );\n        user[msg.sender].id = ++amount;\n    }\n\n    // 132457\n    function setConfig(string memory other) public MustUser(msg.sender) {\n        user[msg.sender].other = other;\n    }\n\n    // 47731\n    function setRole(string memory role) public MustUser(msg.sender) {\n        user[msg.sender].role = role;\n    }\n\n    // 70903\n    function setAvater(uint256 id) public MustOwner(msg.sender, id) {\n        user[msg.sender].avater = id;\n    }\n\n    // 206067\n    function resetUser(address to) public MustUser(msg.sender) {\n        require(user[to].id == 0, \"This address are already a platform user!\");\n        User memory u = user[msg.sender];\n        user[to].id = u.id;\n        user[to].role = u.role;\n        user[msg.sender].id = 0;\n        user[msg.sender].role = \"\";\n    }\n\n    function setConfigMaterial(\n        uint256 id,\n        string memory time,\n        string memory position,\n        string memory zIndex\n    ) public MustOwner(msg.sender, id) {\n        material[id].time = time;\n        material[id].position = position;\n        material[id].zIndex = zIndex;\n    }\n\n    function getMaterialLength() public view returns (uint256) {\n        return IPMT721(PMT721).currentID();\n    }\n\n    function getMaterial(uint256 id) public view returns (MaterialInfo memory) {\n        Material storage m = material[id];\n        BaseInfo memory b = baseInfo[m.data];\n        uint256[] memory c = composes[id];\n        return MaterialInfo(m, b, c);\n    }\n\n    // 356245\n    function make(\n        string memory name,\n        string memory category,\n        string memory data,\n        string memory decode,\n        uint256 num\n    ) public MustUser(msg.sender) {\n        bytes32 d = keccak256(abi.encodePacked(data));\n        require(d != keccak256(abi.encodePacked(\"\")), \"Data cannot empty!\");\n\n        for (uint256 i; i < num; i++) {\n            _make(d);\n        }\n\n        if (baseInfo[d].userId == 0) {\n            baseInfo[d] = BaseInfo(\n                data,\n                category,\n                decode,\n                name,\n                user[msg.sender].id\n            );\n        }\n    }\n\n    function reMake(uint256 id, uint256 num) public MustOwner(msg.sender, id) {\n        Material storage m = material[id];\n        require(\n            baseInfo[m.data].userId == user[msg.sender].id,\n            \"Only Owner Can Do It!\"\n        );\n        for (uint256 i; i < num; i++) {\n            _make(m.data);\n        }\n    }\n\n    function _make(bytes32 data) private {\n        IPMT721(PMT721).mint(msg.sender);\n        uint256 id = IPMT721(PMT721).currentID();\n        material[id] = Material(id, 0, \"\", \"\", \"\", msg.sender, data);\n    }\n\n    //\n    function collect(uint256 id) public MustExist(id) {\n        Material memory m = material[id];\n        require(m.owner != msg.sender, \"This your material\");\n        collection[msg.sender].push(id);\n    }\n\n    function cancelCollect(uint256 id, uint256 index) public MustExist(id) {\n        uint256[] memory c = collection[msg.sender];\n        require(index < c.length, \"Not this index value\");\n        require(c[index] == id, \"This index isnot id value\");\n        delete collection[msg.sender][index];\n    }\n\n    function getCollection(address from)\n        public\n        view\n        returns (uint256[] memory)\n    {\n        return collection[from];\n    }\n\n    function getCompose(uint256 id) public view returns (uint256[] memory) {\n        return composes[id];\n    }\n\n    function compose(uint256[] memory ids) public MustUser(msg.sender) lock {\n        _make(keccak256(abi.encodePacked(\"\")));\n        uint256 curID = IPMT721(PMT721).currentID();\n        uint256 len = ids.length;\n        require(len > 1, \"The id no composed\");\n        for (uint256 i; i < len; i++) {\n            uint256 id = ids[i];\n            Material memory m = material[id];\n            require(\n                msg.sender == m.owner,\n                \"The current item is not your asset!\"\n            );\n            require(m.compose == 0, \"The current item composed!\");\n            material[id].compose = curID;\n        }\n        composes[curID] = ids;\n    }\n\n    function cancelCompose(uint256 id) public MustOwner(msg.sender, id) lock {\n        uint256[] memory c = composes[id];\n        uint256 len = c.length;\n        require(len > 1, \"The id no composed\");\n        for (uint256 i; i < len; i++) {\n            material[c[i]].compose = 0;\n        }\n        IPMT721(PMT721).safeTransferFrom(msg.sender, address(this), id);\n        IPMT721(PMT721).burn(id);\n        delete composes[id];\n    }\n\n    function subjion(uint256 ids, uint256 id)\n        public\n        MustOwner(msg.sender, ids)\n        MustOwner(msg.sender, id)\n    {\n        uint256[] memory c = composes[ids];\n        require(c.length > 1, \"The id no composed\");\n        Material memory m = material[id];\n        require(m.compose == 0, \"The id subjion\");\n        material[id].compose = ids;\n        composes[ids].push(id);\n    }\n\n    function subtract(\n        uint256 ids,\n        uint256 id,\n        uint256 index\n    ) public MustOwner(msg.sender, ids) {\n        uint256[] memory c = composes[ids];\n        uint256 len = c.length;\n        require(len > index, \"The id no composed\");\n        require(c[index] == id, \"This index isnot id value\");\n        material[id].compose = 0;\n        delete composes[ids][index];\n    }\n\n    function setPMT721(address pmt721) public {\n        require(msg.sender == _owner, \"Only Owner Can Do It!\");\n        PMT721 = IPMT721(pmt721);\n    }\n\n    function _transfer(\n        address from,\n        address to,\n        uint256 id\n    ) private {\n        Material memory m = material[id];\n        require(m.compose == 0, \"This material composed!\");\n        if (to == address(0)) {\n            delete material[id];\n        }\n        if (from != address(0)) {\n            material[id].owner = to;\n        }\n    }\n\n    function _testTransfer(\n        address from,\n        address to,\n        uint256 id\n    ) internal {\n        Material memory m = material[id];\n        require(m.compose == 0, \"This material composed!\");\n        if (to == address(0)) {\n            delete material[id];\n        }\n        if (from != address(0)) {\n            material[id].owner = to;\n        }\n    }\n}\n",
  "sourcePath": "/Users/xiangzhengfeng/Desktop/mine/project/pixels-metaverse/contracts/PixelsMetavers.sol",
  "compiler": {
    "name": "solc",
    "version": "0.8.0+commit.c7dfd78e.Emscripten.clang"
  },
  "schemaVersion": "3.3.4",
  "updatedAt": "2021-12-28T12:52:38.882Z",
  "networkType": "ethereum",
  "devdoc": {
    "kind": "dev",
    "methods": {},
    "version": 1
  },
  "userdoc": {
    "kind": "user",
    "methods": {},
    "version": 1
  }
}