{
  "contractName": "PixelsMetavers",
  "abi": [
    {
      "inputs": [],
      "stateMutability": "nonpayable",
      "type": "constructor"
    },
    {
      "inputs": [
        {
          "internalType": "bytes32",
          "name": "",
          "type": "bytes32"
        }
      ],
      "name": "baseInfo",
      "outputs": [
        {
          "internalType": "string",
          "name": "data",
          "type": "string"
        },
        {
          "internalType": "string",
          "name": "category",
          "type": "string"
        },
        {
          "internalType": "string",
          "name": "decode",
          "type": "string"
        },
        {
          "internalType": "string",
          "name": "name",
          "type": "string"
        },
        {
          "internalType": "uint256",
          "name": "userId",
          "type": "uint256"
        }
      ],
      "stateMutability": "view",
      "type": "function",
      "constant": true
    },
    {
      "inputs": [
        {
          "internalType": "address",
          "name": "",
          "type": "address"
        },
        {
          "internalType": "uint256",
          "name": "",
          "type": "uint256"
        }
      ],
      "name": "collection",
      "outputs": [
        {
          "internalType": "uint256",
          "name": "",
          "type": "uint256"
        }
      ],
      "stateMutability": "view",
      "type": "function",
      "constant": true
    },
    {
      "inputs": [
        {
          "internalType": "uint256",
          "name": "",
          "type": "uint256"
        },
        {
          "internalType": "uint256",
          "name": "",
          "type": "uint256"
        }
      ],
      "name": "composes",
      "outputs": [
        {
          "internalType": "uint256",
          "name": "",
          "type": "uint256"
        }
      ],
      "stateMutability": "view",
      "type": "function",
      "constant": true
    },
    {
      "inputs": [
        {
          "internalType": "uint256",
          "name": "",
          "type": "uint256"
        }
      ],
      "name": "material",
      "outputs": [
        {
          "internalType": "uint256",
          "name": "id",
          "type": "uint256"
        },
        {
          "internalType": "uint256",
          "name": "compose",
          "type": "uint256"
        },
        {
          "internalType": "string",
          "name": "time",
          "type": "string"
        },
        {
          "internalType": "string",
          "name": "position",
          "type": "string"
        },
        {
          "internalType": "string",
          "name": "zIndex",
          "type": "string"
        },
        {
          "internalType": "address",
          "name": "owner",
          "type": "address"
        },
        {
          "internalType": "bytes32",
          "name": "data",
          "type": "bytes32"
        }
      ],
      "stateMutability": "view",
      "type": "function",
      "constant": true
    },
    {
      "inputs": [
        {
          "internalType": "address",
          "name": "",
          "type": "address"
        }
      ],
      "name": "user",
      "outputs": [
        {
          "internalType": "uint256",
          "name": "id",
          "type": "uint256"
        },
        {
          "internalType": "uint256",
          "name": "avater",
          "type": "uint256"
        },
        {
          "internalType": "string",
          "name": "role",
          "type": "string"
        },
        {
          "internalType": "string",
          "name": "other",
          "type": "string"
        }
      ],
      "stateMutability": "view",
      "type": "function",
      "constant": true
    },
    {
      "inputs": [],
      "name": "register",
      "outputs": [],
      "stateMutability": "nonpayable",
      "type": "function"
    },
    {
      "inputs": [
        {
          "internalType": "string",
          "name": "role",
          "type": "string"
        }
      ],
      "name": "setRole",
      "outputs": [],
      "stateMutability": "nonpayable",
      "type": "function"
    },
    {
      "inputs": [
        {
          "internalType": "uint256",
          "name": "id",
          "type": "uint256"
        }
      ],
      "name": "setAvater",
      "outputs": [],
      "stateMutability": "nonpayable",
      "type": "function"
    },
    {
      "inputs": [
        {
          "internalType": "address",
          "name": "to",
          "type": "address"
        }
      ],
      "name": "resetUser",
      "outputs": [],
      "stateMutability": "nonpayable",
      "type": "function"
    },
    {
      "inputs": [],
      "name": "getMaterialLength",
      "outputs": [
        {
          "internalType": "uint256",
          "name": "",
          "type": "uint256"
        }
      ],
      "stateMutability": "view",
      "type": "function",
      "constant": true
    },
    {
      "inputs": [
        {
          "internalType": "uint256",
          "name": "id",
          "type": "uint256"
        }
      ],
      "name": "getMaterial",
      "outputs": [
        {
          "components": [
            {
              "components": [
                {
                  "internalType": "uint256",
                  "name": "id",
                  "type": "uint256"
                },
                {
                  "internalType": "uint256",
                  "name": "compose",
                  "type": "uint256"
                },
                {
                  "internalType": "string",
                  "name": "time",
                  "type": "string"
                },
                {
                  "internalType": "string",
                  "name": "position",
                  "type": "string"
                },
                {
                  "internalType": "string",
                  "name": "zIndex",
                  "type": "string"
                },
                {
                  "internalType": "address",
                  "name": "owner",
                  "type": "address"
                },
                {
                  "internalType": "bytes32",
                  "name": "data",
                  "type": "bytes32"
                }
              ],
              "internalType": "struct PixelsMetavers.Material",
              "name": "material",
              "type": "tuple"
            },
            {
              "components": [
                {
                  "internalType": "string",
                  "name": "data",
                  "type": "string"
                },
                {
                  "internalType": "string",
                  "name": "category",
                  "type": "string"
                },
                {
                  "internalType": "string",
                  "name": "decode",
                  "type": "string"
                },
                {
                  "internalType": "string",
                  "name": "name",
                  "type": "string"
                },
                {
                  "internalType": "uint256",
                  "name": "userId",
                  "type": "uint256"
                }
              ],
              "internalType": "struct PixelsMetavers.BaseInfo",
              "name": "baseInfo",
              "type": "tuple"
            },
            {
              "internalType": "uint256[]",
              "name": "composes",
              "type": "uint256[]"
            }
          ],
          "internalType": "struct PixelsMetavers.MaterialInfo",
          "name": "",
          "type": "tuple"
        }
      ],
      "stateMutability": "view",
      "type": "function",
      "constant": true
    },
    {
      "inputs": [
        {
          "internalType": "string",
          "name": "name",
          "type": "string"
        },
        {
          "internalType": "string",
          "name": "category",
          "type": "string"
        },
        {
          "internalType": "string",
          "name": "data",
          "type": "string"
        },
        {
          "internalType": "string",
          "name": "decode",
          "type": "string"
        },
        {
          "internalType": "uint256",
          "name": "num",
          "type": "uint256"
        }
      ],
      "name": "make",
      "outputs": [],
      "stateMutability": "nonpayable",
      "type": "function"
    },
    {
      "inputs": [
        {
          "internalType": "uint256",
          "name": "id",
          "type": "uint256"
        },
        {
          "internalType": "uint256",
          "name": "num",
          "type": "uint256"
        }
      ],
      "name": "reMake",
      "outputs": [],
      "stateMutability": "nonpayable",
      "type": "function"
    },
    {
      "inputs": [
        {
          "internalType": "uint256",
          "name": "id",
          "type": "uint256"
        }
      ],
      "name": "collect",
      "outputs": [],
      "stateMutability": "payable",
      "type": "function",
      "payable": true
    },
    {
      "inputs": [
        {
          "internalType": "uint256",
          "name": "id",
          "type": "uint256"
        },
        {
          "internalType": "uint256",
          "name": "index",
          "type": "uint256"
        }
      ],
      "name": "cancelCollect",
      "outputs": [],
      "stateMutability": "nonpayable",
      "type": "function"
    },
    {
      "inputs": [
        {
          "internalType": "uint256[]",
          "name": "ids",
          "type": "uint256[]"
        }
      ],
      "name": "compose",
      "outputs": [],
      "stateMutability": "nonpayable",
      "type": "function"
    },
    {
      "inputs": [
        {
          "internalType": "uint256",
          "name": "id",
          "type": "uint256"
        }
      ],
      "name": "cancelCompose",
      "outputs": [],
      "stateMutability": "nonpayable",
      "type": "function"
    },
    {
      "inputs": [
        {
          "internalType": "uint256",
          "name": "id",
          "type": "uint256"
        },
        {
          "internalType": "string",
          "name": "time",
          "type": "string"
        },
        {
          "internalType": "string",
          "name": "position",
          "type": "string"
        },
        {
          "internalType": "string",
          "name": "zIndex",
          "type": "string"
        }
      ],
      "name": "setConfig",
      "outputs": [],
      "stateMutability": "nonpayable",
      "type": "function"
    },
    {
      "inputs": [
        {
          "internalType": "string",
          "name": "other",
          "type": "string"
        }
      ],
      "name": "setConfig",
      "outputs": [],
      "stateMutability": "nonpayable",
      "type": "function"
    },
    {
      "inputs": [
        {
          "internalType": "uint256",
          "name": "ids",
          "type": "uint256"
        },
        {
          "internalType": "uint256",
          "name": "id",
          "type": "uint256"
        }
      ],
      "name": "subjion",
      "outputs": [],
      "stateMutability": "nonpayable",
      "type": "function"
    },
    {
      "inputs": [
        {
          "internalType": "uint256",
          "name": "ids",
          "type": "uint256"
        },
        {
          "internalType": "uint256",
          "name": "index",
          "type": "uint256"
        }
      ],
      "name": "subtract",
      "outputs": [],
      "stateMutability": "nonpayable",
      "type": "function"
    },
    {
      "inputs": [
        {
          "internalType": "address",
          "name": "pmt721",
          "type": "address"
        }
      ],
      "name": "setPMT721",
      "outputs": [],
      "stateMutability": "nonpayable",
      "type": "function"
    },
    {
      "inputs": [
        {
          "internalType": "address",
          "name": "from",
          "type": "address"
        },
        {
          "internalType": "address",
          "name": "to",
          "type": "address"
        },
        {
          "internalType": "uint256",
          "name": "id",
          "type": "uint256"
        }
      ],
      "name": "transfer",
      "outputs": [],
      "stateMutability": "nonpayable",
      "type": "function"
    }
  ],
  "bytecode": "0x60a060405234801561001057600080fd5b503373ffffffffffffffffffffffffffffffffffffffff1660808173ffffffffffffffffffffffffffffffffffffffff1660601b8152505060805160601c615d266200006760003960006127b60152615d266000f3fe6080604052600436106101405760003560e01c80637ce56996116100b6578063beabacc81161006f578063beabacc814610445578063c8a000e11461046e578063ce3f865f146104b1578063cfb20619146104cd578063d11db010146104f6578063da6d89091461051f57610140565b80637ce569961461030a57806381e7e20e1461033357806386ad9770146103735780638e0cfbc21461039e578063a55c7327146103c7578063a683e7691461040457610140565b80633cadff09116101085780633cadff09146102145780633ef5e4451461023d57806354f79db41461026657806363823bf21461028f57806366008bde146102b8578063749aa937146102e157610140565b80630ae59f3b1461014557806311719fed146101825780631aa3a008146101ab57806326dabbfb146101c2578063343959b4146101eb575b600080fd5b34801561015157600080fd5b5061016c60048036038101906101679190614b96565b61055c565b60405161017991906158f7565b60405180910390f35b34801561018e57600080fd5b506101a960048036038101906101a49190614e7a565b61058d565b005b3480156101b757600080fd5b506101c0610eab565b005b3480156101ce57600080fd5b506101e960048036038101906101e49190614bd2565b610fdb565b005b3480156101f757600080fd5b50610212600480360381019061020d9190614b1e565b61152d565b005b34801561022057600080fd5b5061023b60048036038101906102369190614e7a565b61186b565b005b34801561024957600080fd5b50610264600480360381019061025f9190614e7a565b611a64565b005b34801561027257600080fd5b5061028d60048036038101906102889190614d7d565b611e98565b005b34801561029b57600080fd5b506102b660048036038101906102b19190614dcf565b6121cb565b005b3480156102c457600080fd5b506102df60048036038101906102da9190614ca6565b612515565b005b3480156102ed57600080fd5b5061030860048036038101906103039190614b1e565b6127b4565b005b34801561031657600080fd5b50610331600480360381019061032c9190614d7d565b612885565b005b34801561033f57600080fd5b5061035a60048036038101906103559190614b1e565b612b92565b60405161036a9493929190615912565b60405180910390f35b34801561037f57600080fd5b50610388612cd2565b60405161039591906158f7565b60405180910390f35b3480156103aa57600080fd5b506103c560048036038101906103c09190614c65565b612d78565b005b3480156103d357600080fd5b506103ee60048036038101906103e99190614e7a565b612e59565b6040516103fb91906158f7565b60405180910390f35b34801561041057600080fd5b5061042b60048036038101906104269190614c3c565b612e8a565b60405161043c959493929190615686565b60405180910390f35b34801561045157600080fd5b5061046c60048036038101906104679190614b47565b6130e0565b005b34801561047a57600080fd5b5061049560048036038101906104909190614d7d565b6134be565b6040516104a89796959493929190615965565b60405180910390f35b6104cb60048036038101906104c69190614d7d565b6136b8565b005b3480156104d957600080fd5b506104f460048036038101906104ef9190614e7a565b613acb565b005b34801561050257600080fd5b5061051d60048036038101906105189190614c65565b613e74565b005b34801561052b57600080fd5b5061054660048036038101906105419190614d7d565b613f55565b60405161055391906158d5565b60405180910390f35b6005602052816000526040600020818154811061057857600080fd5b90600052602060002001600091509150505481565b33826000600360008381526020019081526020016000206040518060e001604052908160008201548152602001600182015481526020016002820180546105d390615b7b565b80601f01602080910402602001604051908101604052809291908181526020018280546105ff90615b7b565b801561064c5780601f106106215761010080835404028352916020019161064c565b820191906000526020600020905b81548152906001019060200180831161062f57829003601f168201915b5050505050815260200160038201805461066590615b7b565b80601f016020809104026020016040519081016040528092919081815260200182805461069190615b7b565b80156106de5780601f106106b3576101008083540402835291602001916106de565b820191906000526020600020905b8154815290600101906020018083116106c157829003601f168201915b505050505081526020016004820180546106f790615b7b565b80601f016020809104026020016040519081016040528092919081815260200182805461072390615b7b565b80156107705780601f1061074557610100808354040283529160200191610770565b820191906000526020600020905b81548152906001019060200180831161075357829003601f168201915b505050505081526020016005820160009054906101000a900473ffffffffffffffffffffffffffffffffffffffff1673ffffffffffffffffffffffffffffffffffffffff1673ffffffffffffffffffffffffffffffffffffffff16815260200160068201548152505090508060a0015173ffffffffffffffffffffffffffffffffffffffff168373ffffffffffffffffffffffffffffffffffffffff161461084d576040517f08c379a000000000000000000000000000000000000000000000000000000000815260040161084490615835565b60405180910390fd5b33846000600360008381526020019081526020016000206040518060e0016040529081600082015481526020016001820154815260200160028201805461089390615b7b565b80601f01602080910402602001604051908101604052809291908181526020018280546108bf90615b7b565b801561090c5780601f106108e15761010080835404028352916020019161090c565b820191906000526020600020905b8154815290600101906020018083116108ef57829003601f168201915b5050505050815260200160038201805461092590615b7b565b80601f016020809104026020016040519081016040528092919081815260200182805461095190615b7b565b801561099e5780601f106109735761010080835404028352916020019161099e565b820191906000526020600020905b81548152906001019060200180831161098157829003601f168201915b505050505081526020016004820180546109b790615b7b565b80601f01602080910402602001604051908101604052809291908181526020018280546109e390615b7b565b8015610a305780601f10610a0557610100808354040283529160200191610a30565b820191906000526020600020905b815481529060010190602001808311610a1357829003601f168201915b505050505081526020016005820160009054906101000a900473ffffffffffffffffffffffffffffffffffffffff1673ffffffffffffffffffffffffffffffffffffffff1673ffffffffffffffffffffffffffffffffffffffff16815260200160068201548152505090508060a0015173ffffffffffffffffffffffffffffffffffffffff168373ffffffffffffffffffffffffffffffffffffffff1614610b0d576040517f08c379a0000000000000000000000000000000000000000000000000000000008152600401610b0490615835565b60405180910390fd5b6000600460008a8152602001908152602001600020805480602002602001604051908101604052809291908181526020018280548015610b6c57602002820191906000526020600020905b815481526020019060010190808311610b58575b505050505090506001815111610bb7576040517f08c379a0000000000000000000000000000000000000000000000000000000008152600401610bae90615855565b60405180910390fd5b6000600360008a81526020019081526020016000206040518060e00160405290816000820154815260200160018201548152602001600282018054610bfb90615b7b565b80601f0160208091040260200160405190810160405280929190818152602001828054610c2790615b7b565b8015610c745780601f10610c4957610100808354040283529160200191610c74565b820191906000526020600020905b815481529060010190602001808311610c5757829003601f168201915b50505050508152602001600382018054610c8d90615b7b565b80601f0160208091040260200160405190810160405280929190818152602001828054610cb990615b7b565b8015610d065780601f10610cdb57610100808354040283529160200191610d06565b820191906000526020600020905b815481529060010190602001808311610ce957829003601f168201915b50505050508152602001600482018054610d1f90615b7b565b80601f0160208091040260200160405190810160405280929190818152602001828054610d4b90615b7b565b8015610d985780601f10610d6d57610100808354040283529160200191610d98565b820191906000526020600020905b815481529060010190602001808311610d7b57829003601f168201915b505050505081526020016005820160009054906101000a900473ffffffffffffffffffffffffffffffffffffffff1673ffffffffffffffffffffffffffffffffffffffff1673ffffffffffffffffffffffffffffffffffffffff16815260200160068201548152505090506000816020015114610e4a576040517f08c379a0000000000000000000000000000000000000000000000000000000008152600401610e41906157d5565b60405180910390fd5b89600360008b815260200190815260200160002060010181905550600460008b815260200190815260200160002089908060018154018082558091505060019003906000526020600020016000909190919091505550505050505050505050565b6000600260003373ffffffffffffffffffffffffffffffffffffffff1673ffffffffffffffffffffffffffffffffffffffff1681526020019081526020016000206000015414610f30576040517f08c379a0000000000000000000000000000000000000000000000000000000008152600401610f2790615735565b60405180910390fd5b629c40006001541115610f78576040517f08c379a0000000000000000000000000000000000000000000000000000000008152600401610f6f90615775565b60405180910390fd5b60016000815480929190610f8b90615bad565b9190505550600154600260003373ffffffffffffffffffffffffffffffffffffffff1673ffffffffffffffffffffffffffffffffffffffff16815260200190815260200160002060000181905550565b336000600260008373ffffffffffffffffffffffffffffffffffffffff1673ffffffffffffffffffffffffffffffffffffffff1681526020019081526020016000206000015411611061576040517f08c379a000000000000000000000000000000000000000000000000000000000815260040161105890615755565b60405180910390fd5b61108e6040516020016110739061561f565b604051602081830303815290604052805190602001206144ac565b60008060009054906101000a900473ffffffffffffffffffffffffffffffffffffffff1673ffffffffffffffffffffffffffffffffffffffff16631c75cfb46040518163ffffffff1660e01b815260040160206040518083038186803b1580156110f757600080fd5b505afa15801561110b573d6000803e3d6000fd5b505050506040513d601f19601f8201168201806040525081019061112f9190614da6565b905060005b83518110156114ff576000848281518110611178577f4e487b7100000000000000000000000000000000000000000000000000000000600052603260045260246000fd5b602002602001015190506000600360008381526020019081526020016000206040518060e001604052908160008201548152602001600182015481526020016002820180546111c690615b7b565b80601f01602080910402602001604051908101604052809291908181526020018280546111f290615b7b565b801561123f5780601f106112145761010080835404028352916020019161123f565b820191906000526020600020905b81548152906001019060200180831161122257829003601f168201915b5050505050815260200160038201805461125890615b7b565b80601f016020809104026020016040519081016040528092919081815260200182805461128490615b7b565b80156112d15780601f106112a6576101008083540402835291602001916112d1565b820191906000526020600020905b8154815290600101906020018083116112b457829003601f168201915b505050505081526020016004820180546112ea90615b7b565b80601f016020809104026020016040519081016040528092919081815260200182805461131690615b7b565b80156113635780601f1061133857610100808354040283529160200191611363565b820191906000526020600020905b81548152906001019060200180831161134657829003601f168201915b505050505081526020016005820160009054906101000a900473ffffffffffffffffffffffffffffffffffffffff1673ffffffffffffffffffffffffffffffffffffffff1673ffffffffffffffffffffffffffffffffffffffff16815260200160068201548152505090508060a0015173ffffffffffffffffffffffffffffffffffffffff163373ffffffffffffffffffffffffffffffffffffffff1614611440576040517f08c379a000000000000000000000000000000000000000000000000000000000815260040161143790615875565b60405180910390fd5b83600360008481526020019081526020016000206001018190555060008054906101000a900473ffffffffffffffffffffffffffffffffffffffff1673ffffffffffffffffffffffffffffffffffffffff166342842e0e3330856040518463ffffffff1660e01b81526004016114b89392919061564f565b600060405180830381600087803b1580156114d257600080fd5b505af11580156114e6573d6000803e3d6000fd5b50505050505080806114f790615bad565b915050611134565b5082600460008381526020019081526020016000209080519060200190611527929190614727565b50505050565b336000600260008373ffffffffffffffffffffffffffffffffffffffff1673ffffffffffffffffffffffffffffffffffffffff16815260200190815260200160002060000154116115b3576040517f08c379a00000000000000000000000000000000000000000000000000000000081526004016115aa90615755565b60405180910390fd5b6000600260008473ffffffffffffffffffffffffffffffffffffffff1673ffffffffffffffffffffffffffffffffffffffff1681526020019081526020016000206000015414611638576040517f08c379a000000000000000000000000000000000000000000000000000000000815260040161162f90615895565b60405180910390fd5b600260003373ffffffffffffffffffffffffffffffffffffffff1673ffffffffffffffffffffffffffffffffffffffff168152602001908152602001600020600260008473ffffffffffffffffffffffffffffffffffffffff1673ffffffffffffffffffffffffffffffffffffffff168152602001908152602001600020600082015481600001556001820154816001015560028201816002019080546116de90615b7b565b6116e9929190614774565b5060038201816003019080546116fe90615b7b565b611709929190614774565b509050506000600260008473ffffffffffffffffffffffffffffffffffffffff1673ffffffffffffffffffffffffffffffffffffffff16815260200190815260200160002060010181905550604051806080016040528060008152602001600260003373ffffffffffffffffffffffffffffffffffffffff1673ffffffffffffffffffffffffffffffffffffffff16815260200190815260200160002060010154815260200160405180602001604052806000815250815260200160405180602001604052806000815250815250600260003373ffffffffffffffffffffffffffffffffffffffff1673ffffffffffffffffffffffffffffffffffffffff16815260200190815260200160002060008201518160000155602082015181600101556040820151816002019080519060200190611846929190614801565b506060820151816003019080519060200190611863929190614801565b509050505050565b8160008054906101000a900473ffffffffffffffffffffffffffffffffffffffff1673ffffffffffffffffffffffffffffffffffffffff1663342de179826040518263ffffffff1660e01b81526004016118c591906158f7565b60206040518083038186803b1580156118dd57600080fd5b505afa1580156118f1573d6000803e3d6000fd5b505050506040513d601f19601f820116820180604052508101906119159190614c13565b611954576040517f08c379a000000000000000000000000000000000000000000000000000000000815260040161194b906157b5565b60405180910390fd5b600560003373ffffffffffffffffffffffffffffffffffffffff1673ffffffffffffffffffffffffffffffffffffffff1681526020019081526020016000208054905082106119d8576040517f08c379a00000000000000000000000000000000000000000000000000000000081526004016119cf906157f5565b60405180910390fd5b6000600560003373ffffffffffffffffffffffffffffffffffffffff1673ffffffffffffffffffffffffffffffffffffffff1681526020019081526020016000208381548110611a51577f4e487b7100000000000000000000000000000000000000000000000000000000600052603260045260246000fd5b9060005260206000200181905550505050565b33826000600360008381526020019081526020016000206040518060e00160405290816000820154815260200160018201548152602001600282018054611aaa90615b7b565b80601f0160208091040260200160405190810160405280929190818152602001828054611ad690615b7b565b8015611b235780601f10611af857610100808354040283529160200191611b23565b820191906000526020600020905b815481529060010190602001808311611b0657829003601f168201915b50505050508152602001600382018054611b3c90615b7b565b80601f0160208091040260200160405190810160405280929190818152602001828054611b6890615b7b565b8015611bb55780601f10611b8a57610100808354040283529160200191611bb5565b820191906000526020600020905b815481529060010190602001808311611b9857829003601f168201915b50505050508152602001600482018054611bce90615b7b565b80601f0160208091040260200160405190810160405280929190818152602001828054611bfa90615b7b565b8015611c475780601f10611c1c57610100808354040283529160200191611c47565b820191906000526020600020905b815481529060010190602001808311611c2a57829003601f168201915b505050505081526020016005820160009054906101000a900473ffffffffffffffffffffffffffffffffffffffff1673ffffffffffffffffffffffffffffffffffffffff1673ffffffffffffffffffffffffffffffffffffffff16815260200160068201548152505090508060a0015173ffffffffffffffffffffffffffffffffffffffff168373ffffffffffffffffffffffffffffffffffffffff1614611d24576040517f08c379a0000000000000000000000000000000000000000000000000000000008152600401611d1b90615835565b60405180910390fd5b600060046000878152602001908152602001600020805480602002602001604051908101604052809291908181526020018280548015611d8357602002820191906000526020600020905b815481526020019060010190808311611d6f575b50505050509050600081519050858111611dd2576040517f08c379a0000000000000000000000000000000000000000000000000000000008152600401611dc990615855565b60405180910390fd5b6000828781518110611e0d577f4e487b7100000000000000000000000000000000000000000000000000000000600052603260045260246000fd5b60200260200101519050600060036000838152602001908152602001600020600101819055506000600460008a81526020019081526020016000208881548110611e80577f4e487b7100000000000000000000000000000000000000000000000000000000600052603260045260246000fd5b90600052602060002001819055505050505050505050565b600060046000838152602001908152602001600020805480602002602001604051908101604052809291908181526020018280548015611ef757602002820191906000526020600020905b815481526020019060010190808311611ee3575b5050505050905060008151905060018111611f47576040517f08c379a0000000000000000000000000000000000000000000000000000000008152600401611f3e90615855565b60405180910390fd5b60005b81811015612096576000838281518110611f8d577f4e487b7100000000000000000000000000000000000000000000000000000000600052603260045260246000fd5b60200260200101519050600060036000868581518110611fd6577f4e487b7100000000000000000000000000000000000000000000000000000000600052603260045260246000fd5b602002602001015181526020019081526020016000206001018190555060008054906101000a900473ffffffffffffffffffffffffffffffffffffffff1673ffffffffffffffffffffffffffffffffffffffff166342842e0e3033846040518463ffffffff1660e01b81526004016120509392919061564f565b600060405180830381600087803b15801561206a57600080fd5b505af115801561207e573d6000803e3d6000fd5b5050505050808061208e90615bad565b915050611f4a565b506004600084815260200190815260200160002060006120b69190614887565b6003600084815260200190815260200160002060008082016000905560018201600090556002820160006120ea91906148a8565b6003820160006120fa91906148a8565b60048201600061210a91906148a8565b6005820160006101000a81549073ffffffffffffffffffffffffffffffffffffffff02191690556006820160009055505060008054906101000a900473ffffffffffffffffffffffffffffffffffffffff1673ffffffffffffffffffffffffffffffffffffffff166342966c68846040518263ffffffff1660e01b815260040161219491906158f7565b600060405180830381600087803b1580156121ae57600080fd5b505af11580156121c2573d6000803e3d6000fd5b50505050505050565b33846000600360008381526020019081526020016000206040518060e0016040529081600082015481526020016001820154815260200160028201805461221190615b7b565b80601f016020809104026020016040519081016040528092919081815260200182805461223d90615b7b565b801561228a5780601f1061225f5761010080835404028352916020019161228a565b820191906000526020600020905b81548152906001019060200180831161226d57829003601f168201915b505050505081526020016003820180546122a390615b7b565b80601f01602080910402602001604051908101604052809291908181526020018280546122cf90615b7b565b801561231c5780601f106122f15761010080835404028352916020019161231c565b820191906000526020600020905b8154815290600101906020018083116122ff57829003601f168201915b5050505050815260200160048201805461233590615b7b565b80601f016020809104026020016040519081016040528092919081815260200182805461236190615b7b565b80156123ae5780601f10612383576101008083540402835291602001916123ae565b820191906000526020600020905b81548152906001019060200180831161239157829003601f168201915b505050505081526020016005820160009054906101000a900473ffffffffffffffffffffffffffffffffffffffff1673ffffffffffffffffffffffffffffffffffffffff1673ffffffffffffffffffffffffffffffffffffffff16815260200160068201548152505090508060a0015173ffffffffffffffffffffffffffffffffffffffff168373ffffffffffffffffffffffffffffffffffffffff161461248b576040517f08c379a000000000000000000000000000000000000000000000000000000000815260040161248290615835565b60405180910390fd5b856003600089815260200190815260200160002060020190805190602001906124b5929190614801565b50846003600089815260200190815260200160002060030190805190602001906124e0929190614801565b508360036000898152602001908152602001600020600401908051906020019061250b929190614801565b5050505050505050565b336000600260008373ffffffffffffffffffffffffffffffffffffffff1673ffffffffffffffffffffffffffffffffffffffff168152602001908152602001600020600001541161259b576040517f08c379a000000000000000000000000000000000000000000000000000000000815260040161259290615755565b60405180910390fd5b6000846040516020016125ae9190615608565b6040516020818303038152906040528051906020012090506040516020016125d59061561f565b6040516020818303038152906040528051906020012081141561262d576040517f08c379a0000000000000000000000000000000000000000000000000000000008152600401612624906158b5565b60405180910390fd5b6000600660008381526020019081526020016000206004015414612686576040517f08c379a000000000000000000000000000000000000000000000000000000000815260040161267d906156f5565b60405180910390fd5b60005b838110156126ad5761269a826144ac565b80806126a590615bad565b915050612689565b506040518060a00160405280868152602001878152602001858152602001888152602001600260003373ffffffffffffffffffffffffffffffffffffffff1673ffffffffffffffffffffffffffffffffffffffff16815260200190815260200160002060000154815250600660008381526020019081526020016000206000820151816000019080519060200190612746929190614801565b506020820151816001019080519060200190612763929190614801565b506040820151816002019080519060200190612780929190614801565b50606082015181600301908051906020019061279d929190614801565b506080820151816004015590505050505050505050565b7f000000000000000000000000000000000000000000000000000000000000000073ffffffffffffffffffffffffffffffffffffffff163373ffffffffffffffffffffffffffffffffffffffff1614612842576040517f08c379a000000000000000000000000000000000000000000000000000000000815260040161283990615815565b60405180910390fd5b806000806101000a81548173ffffffffffffffffffffffffffffffffffffffff021916908373ffffffffffffffffffffffffffffffffffffffff16021790555050565b33816000600360008381526020019081526020016000206040518060e001604052908160008201548152602001600182015481526020016002820180546128cb90615b7b565b80601f01602080910402602001604051908101604052809291908181526020018280546128f790615b7b565b80156129445780601f1061291957610100808354040283529160200191612944565b820191906000526020600020905b81548152906001019060200180831161292757829003601f168201915b5050505050815260200160038201805461295d90615b7b565b80601f016020809104026020016040519081016040528092919081815260200182805461298990615b7b565b80156129d65780601f106129ab576101008083540402835291602001916129d6565b820191906000526020600020905b8154815290600101906020018083116129b957829003601f168201915b505050505081526020016004820180546129ef90615b7b565b80601f0160208091040260200160405190810160405280929190818152602001828054612a1b90615b7b565b8015612a685780601f10612a3d57610100808354040283529160200191612a68565b820191906000526020600020905b815481529060010190602001808311612a4b57829003601f168201915b505050505081526020016005820160009054906101000a900473ffffffffffffffffffffffffffffffffffffffff1673ffffffffffffffffffffffffffffffffffffffff1673ffffffffffffffffffffffffffffffffffffffff16815260200160068201548152505090508060a0015173ffffffffffffffffffffffffffffffffffffffff168373ffffffffffffffffffffffffffffffffffffffff1614612b45576040517f08c379a0000000000000000000000000000000000000000000000000000000008152600401612b3c90615835565b60405180910390fd5b83600260003373ffffffffffffffffffffffffffffffffffffffff1673ffffffffffffffffffffffffffffffffffffffff1681526020019081526020016000206001018190555050505050565b6002602052806000526040600020600091509050806000015490806001015490806002018054612bc190615b7b565b80601f0160208091040260200160405190810160405280929190818152602001828054612bed90615b7b565b8015612c3a5780601f10612c0f57610100808354040283529160200191612c3a565b820191906000526020600020905b815481529060010190602001808311612c1d57829003601f168201915b505050505090806003018054612c4f90615b7b565b80601f0160208091040260200160405190810160405280929190818152602001828054612c7b90615b7b565b8015612cc85780601f10612c9d57610100808354040283529160200191612cc8565b820191906000526020600020905b815481529060010190602001808311612cab57829003601f168201915b5050505050905084565b60008060009054906101000a900473ffffffffffffffffffffffffffffffffffffffff1673ffffffffffffffffffffffffffffffffffffffff16631c75cfb46040518163ffffffff1660e01b815260040160206040518083038186803b158015612d3b57600080fd5b505afa158015612d4f573d6000803e3d6000fd5b505050506040513d601f19601f82011682018060405250810190612d739190614da6565b905090565b336000600260008373ffffffffffffffffffffffffffffffffffffffff1673ffffffffffffffffffffffffffffffffffffffff1681526020019081526020016000206000015411612dfe576040517f08c379a0000000000000000000000000000000000000000000000000000000008152600401612df590615755565b60405180910390fd5b81600260003373ffffffffffffffffffffffffffffffffffffffff1673ffffffffffffffffffffffffffffffffffffffff1681526020019081526020016000206002019080519060200190612e54929190614801565b505050565b60046020528160005260406000208181548110612e7557600080fd5b90600052602060002001600091509150505481565b6006602052806000526040600020600091509050806000018054612ead90615b7b565b80601f0160208091040260200160405190810160405280929190818152602001828054612ed990615b7b565b8015612f265780601f10612efb57610100808354040283529160200191612f26565b820191906000526020600020905b815481529060010190602001808311612f0957829003601f168201915b505050505090806001018054612f3b90615b7b565b80601f0160208091040260200160405190810160405280929190818152602001828054612f6790615b7b565b8015612fb45780601f10612f8957610100808354040283529160200191612fb4565b820191906000526020600020905b815481529060010190602001808311612f9757829003601f168201915b505050505090806002018054612fc990615b7b565b80601f0160208091040260200160405190810160405280929190818152602001828054612ff590615b7b565b80156130425780601f1061301757610100808354040283529160200191613042565b820191906000526020600020905b81548152906001019060200180831161302557829003601f168201915b50505050509080600301805461305790615b7b565b80601f016020809104026020016040519081016040528092919081815260200182805461308390615b7b565b80156130d05780601f106130a5576101008083540402835291602001916130d0565b820191906000526020600020905b8154815290600101906020018083116130b357829003601f168201915b5050505050908060040154905085565b6000600360008381526020019081526020016000206040518060e0016040529081600082015481526020016001820154815260200160028201805461312490615b7b565b80601f016020809104026020016040519081016040528092919081815260200182805461315090615b7b565b801561319d5780601f106131725761010080835404028352916020019161319d565b820191906000526020600020905b81548152906001019060200180831161318057829003601f168201915b505050505081526020016003820180546131b690615b7b565b80601f01602080910402602001604051908101604052809291908181526020018280546131e290615b7b565b801561322f5780601f106132045761010080835404028352916020019161322f565b820191906000526020600020905b81548152906001019060200180831161321257829003601f168201915b5050505050815260200160048201805461324890615b7b565b80601f016020809104026020016040519081016040528092919081815260200182805461327490615b7b565b80156132c15780601f10613296576101008083540402835291602001916132c1565b820191906000526020600020905b8154815290600101906020018083116132a457829003601f168201915b505050505081526020016005820160009054906101000a900473ffffffffffffffffffffffffffffffffffffffff1673ffffffffffffffffffffffffffffffffffffffff1673ffffffffffffffffffffffffffffffffffffffff16815260200160068201548152505090506000816020015114613373576040517f08c379a000000000000000000000000000000000000000000000000000000000815260040161336a90615795565b60405180910390fd5b600073ffffffffffffffffffffffffffffffffffffffff168373ffffffffffffffffffffffffffffffffffffffff16141561342e576003600083815260200190815260200160002060008082016000905560018201600090556002820160006133dc91906148a8565b6003820160006133ec91906148a8565b6004820160006133fc91906148a8565b6005820160006101000a81549073ffffffffffffffffffffffffffffffffffffffff0219169055600682016000905550505b600073ffffffffffffffffffffffffffffffffffffffff168473ffffffffffffffffffffffffffffffffffffffff16146134b857826003600084815260200190815260200160002060050160006101000a81548173ffffffffffffffffffffffffffffffffffffffff021916908373ffffffffffffffffffffffffffffffffffffffff1602179055505b50505050565b60036020528060005260406000206000915090508060000154908060010154908060020180546134ed90615b7b565b80601f016020809104026020016040519081016040528092919081815260200182805461351990615b7b565b80156135665780601f1061353b57610100808354040283529160200191613566565b820191906000526020600020905b81548152906001019060200180831161354957829003601f168201915b50505050509080600301805461357b90615b7b565b80601f01602080910402602001604051908101604052809291908181526020018280546135a790615b7b565b80156135f45780601f106135c9576101008083540402835291602001916135f4565b820191906000526020600020905b8154815290600101906020018083116135d757829003601f168201915b50505050509080600401805461360990615b7b565b80601f016020809104026020016040519081016040528092919081815260200182805461363590615b7b565b80156136825780601f1061365757610100808354040283529160200191613682565b820191906000526020600020905b81548152906001019060200180831161366557829003601f168201915b5050505050908060050160009054906101000a900473ffffffffffffffffffffffffffffffffffffffff16908060060154905087565b8060008054906101000a900473ffffffffffffffffffffffffffffffffffffffff1673ffffffffffffffffffffffffffffffffffffffff1663342de179826040518263ffffffff1660e01b815260040161371291906158f7565b60206040518083038186803b15801561372a57600080fd5b505afa15801561373e573d6000803e3d6000fd5b505050506040513d601f19601f820116820180604052508101906137629190614c13565b6137a1576040517f08c379a0000000000000000000000000000000000000000000000000000000008152600401613798906157b5565b60405180910390fd5b6000600360008481526020019081526020016000206040518060e001604052908160008201548152602001600182015481526020016002820180546137e590615b7b565b80601f016020809104026020016040519081016040528092919081815260200182805461381190615b7b565b801561385e5780601f106138335761010080835404028352916020019161385e565b820191906000526020600020905b81548152906001019060200180831161384157829003601f168201915b5050505050815260200160038201805461387790615b7b565b80601f01602080910402602001604051908101604052809291908181526020018280546138a390615b7b565b80156138f05780601f106138c5576101008083540402835291602001916138f0565b820191906000526020600020905b8154815290600101906020018083116138d357829003601f168201915b5050505050815260200160048201805461390990615b7b565b80601f016020809104026020016040519081016040528092919081815260200182805461393590615b7b565b80156139825780601f1061395757610100808354040283529160200191613982565b820191906000526020600020905b81548152906001019060200180831161396557829003601f168201915b505050505081526020016005820160009054906101000a900473ffffffffffffffffffffffffffffffffffffffff1673ffffffffffffffffffffffffffffffffffffffff1673ffffffffffffffffffffffffffffffffffffffff16815260200160068201548152505090503373ffffffffffffffffffffffffffffffffffffffff168160a0015173ffffffffffffffffffffffffffffffffffffffff161415613a60576040517f08c379a0000000000000000000000000000000000000000000000000000000008152600401613a5790615715565b60405180910390fd5b600560003373ffffffffffffffffffffffffffffffffffffffff1673ffffffffffffffffffffffffffffffffffffffff168152602001908152602001600020839080600181540180825580915050600190039060005260206000200160009091909190915055505050565b33826000600360008381526020019081526020016000206040518060e00160405290816000820154815260200160018201548152602001600282018054613b1190615b7b565b80601f0160208091040260200160405190810160405280929190818152602001828054613b3d90615b7b565b8015613b8a5780601f10613b5f57610100808354040283529160200191613b8a565b820191906000526020600020905b815481529060010190602001808311613b6d57829003601f168201915b50505050508152602001600382018054613ba390615b7b565b80601f0160208091040260200160405190810160405280929190818152602001828054613bcf90615b7b565b8015613c1c5780601f10613bf157610100808354040283529160200191613c1c565b820191906000526020600020905b815481529060010190602001808311613bff57829003601f168201915b50505050508152602001600482018054613c3590615b7b565b80601f0160208091040260200160405190810160405280929190818152602001828054613c6190615b7b565b8015613cae5780601f10613c8357610100808354040283529160200191613cae565b820191906000526020600020905b815481529060010190602001808311613c9157829003601f168201915b505050505081526020016005820160009054906101000a900473ffffffffffffffffffffffffffffffffffffffff1673ffffffffffffffffffffffffffffffffffffffff1673ffffffffffffffffffffffffffffffffffffffff16815260200160068201548152505090508060a0015173ffffffffffffffffffffffffffffffffffffffff168373ffffffffffffffffffffffffffffffffffffffff1614613d8b576040517f08c379a0000000000000000000000000000000000000000000000000000000008152600401613d8290615835565b60405180910390fd5b6000600360008781526020019081526020016000209050600260003373ffffffffffffffffffffffffffffffffffffffff1673ffffffffffffffffffffffffffffffffffffffff1681526020019081526020016000206000015460066000836006015481526020019081526020016000206004015414613e40576040517f08c379a0000000000000000000000000000000000000000000000000000000008152600401613e3790615815565b60405180910390fd5b60005b85811015613e6b57613e5882600601546144ac565b8080613e6390615bad565b915050613e43565b50505050505050565b336000600260008373ffffffffffffffffffffffffffffffffffffffff1673ffffffffffffffffffffffffffffffffffffffff1681526020019081526020016000206000015411613efa576040517f08c379a0000000000000000000000000000000000000000000000000000000008152600401613ef190615755565b60405180910390fd5b81600260003373ffffffffffffffffffffffffffffffffffffffff1673ffffffffffffffffffffffffffffffffffffffff1681526020019081526020016000206003019080519060200190613f50929190614801565b505050565b613f5d6148e8565b6000600360008481526020019081526020016000209050600060066000836006015481526020019081526020016000206040518060a0016040529081600082018054613fa890615b7b565b80601f0160208091040260200160405190810160405280929190818152602001828054613fd490615b7b565b80156140215780601f10613ff657610100808354040283529160200191614021565b820191906000526020600020905b81548152906001019060200180831161400457829003601f168201915b5050505050815260200160018201805461403a90615b7b565b80601f016020809104026020016040519081016040528092919081815260200182805461406690615b7b565b80156140b35780601f10614088576101008083540402835291602001916140b3565b820191906000526020600020905b81548152906001019060200180831161409657829003601f168201915b505050505081526020016002820180546140cc90615b7b565b80601f01602080910402602001604051908101604052809291908181526020018280546140f890615b7b565b80156141455780601f1061411a57610100808354040283529160200191614145565b820191906000526020600020905b81548152906001019060200180831161412857829003601f168201915b5050505050815260200160038201805461415e90615b7b565b80601f016020809104026020016040519081016040528092919081815260200182805461418a90615b7b565b80156141d75780601f106141ac576101008083540402835291602001916141d7565b820191906000526020600020905b8154815290600101906020018083116141ba57829003601f168201915b50505050508152602001600482015481525050905060006004600086815260200190815260200160002080548060200260200160405190810160405280929190818152602001828054801561424b57602002820191906000526020600020905b815481526020019060010190808311614237575b505050505090506040518060600160405280846040518060e0016040529081600082015481526020016001820154815260200160028201805461428d90615b7b565b80601f01602080910402602001604051908101604052809291908181526020018280546142b990615b7b565b80156143065780601f106142db57610100808354040283529160200191614306565b820191906000526020600020905b8154815290600101906020018083116142e957829003601f168201915b5050505050815260200160038201805461431f90615b7b565b80601f016020809104026020016040519081016040528092919081815260200182805461434b90615b7b565b80156143985780601f1061436d57610100808354040283529160200191614398565b820191906000526020600020905b81548152906001019060200180831161437b57829003601f168201915b505050505081526020016004820180546143b190615b7b565b80601f01602080910402602001604051908101604052809291908181526020018280546143dd90615b7b565b801561442a5780601f106143ff5761010080835404028352916020019161442a565b820191906000526020600020905b81548152906001019060200180831161440d57829003601f168201915b505050505081526020016005820160009054906101000a900473ffffffffffffffffffffffffffffffffffffffff1673ffffffffffffffffffffffffffffffffffffffff1673ffffffffffffffffffffffffffffffffffffffff1681526020016006820154815250508152602001838152602001828152509350505050919050565b60008054906101000a900473ffffffffffffffffffffffffffffffffffffffff1673ffffffffffffffffffffffffffffffffffffffff16636a627842336040518263ffffffff1660e01b81526004016145059190615634565b600060405180830381600087803b15801561451f57600080fd5b505af1158015614533573d6000803e3d6000fd5b5050505060008060009054906101000a900473ffffffffffffffffffffffffffffffffffffffff1673ffffffffffffffffffffffffffffffffffffffff16631c75cfb46040518163ffffffff1660e01b815260040160206040518083038186803b1580156145a057600080fd5b505afa1580156145b4573d6000803e3d6000fd5b505050506040513d601f19601f820116820180604052508101906145d89190614da6565b90506040518060e00160405280828152602001600081526020016040518060200160405280600081525081526020016040518060200160405280600081525081526020016040518060200160405280600081525081526020013373ffffffffffffffffffffffffffffffffffffffff168152602001838152506003600083815260200190815260200160002060008201518160000155602082015181600101556040820151816002019080519060200190614694929190614801565b5060608201518160030190805190602001906146b1929190614801565b5060808201518160040190805190602001906146ce929190614801565b5060a08201518160050160006101000a81548173ffffffffffffffffffffffffffffffffffffffff021916908373ffffffffffffffffffffffffffffffffffffffff16021790555060c082015181600601559050505050565b828054828255906000526020600020908101928215614763579160200282015b82811115614762578251825591602001919060010190614747565b5b5090506147709190614915565b5090565b82805461478090615b7b565b90600052602060002090601f0160209004810192826147a257600085556147f0565b82601f106147b357805485556147f0565b828001600101855582156147f057600052602060002091601f016020900482015b828111156147ef5782548255916001019190600101906147d4565b5b5090506147fd9190614915565b5090565b82805461480d90615b7b565b90600052602060002090601f01602090048101928261482f5760008555614876565b82601f1061484857805160ff1916838001178555614876565b82800160010185558215614876579182015b8281111561487557825182559160200191906001019061485a565b5b5090506148839190614915565b5090565b50805460008255906000526020600020908101906148a59190614915565b50565b5080546148b490615b7b565b6000825580601f106148c657506148e5565b601f0160209004906000526020600020908101906148e49190614915565b5b50565b60405180606001604052806148fb614932565b8152602001614908614988565b8152602001606081525090565b5b8082111561492e576000816000905550600101614916565b5090565b6040518060e001604052806000815260200160008152602001606081526020016060815260200160608152602001600073ffffffffffffffffffffffffffffffffffffffff168152602001600080191681525090565b6040518060a0016040528060608152602001606081526020016060815260200160608152602001600081525090565b60006149ca6149c584615a1a565b6159e9565b905080838252602082019050828560208602820111156149e957600080fd5b60005b85811015614a1957816149ff8882614af4565b8452602084019350602083019250506001810190506149ec565b5050509392505050565b6000614a36614a3184615a46565b6159e9565b905082815260208101848484011115614a4e57600080fd5b614a59848285615b39565b509392505050565b600081359050614a7081615c94565b92915050565b600082601f830112614a8757600080fd5b8135614a978482602086016149b7565b91505092915050565b600081519050614aaf81615cab565b92915050565b600081359050614ac481615cc2565b92915050565b600082601f830112614adb57600080fd5b8135614aeb848260208601614a23565b91505092915050565b600081359050614b0381615cd9565b92915050565b600081519050614b1881615cd9565b92915050565b600060208284031215614b3057600080fd5b6000614b3e84828501614a61565b91505092915050565b600080600060608486031215614b5c57600080fd5b6000614b6a86828701614a61565b9350506020614b7b86828701614a61565b9250506040614b8c86828701614af4565b9150509250925092565b60008060408385031215614ba957600080fd5b6000614bb785828601614a61565b9250506020614bc885828601614af4565b9150509250929050565b600060208284031215614be457600080fd5b600082013567ffffffffffffffff811115614bfe57600080fd5b614c0a84828501614a76565b91505092915050565b600060208284031215614c2557600080fd5b6000614c3384828501614aa0565b91505092915050565b600060208284031215614c4e57600080fd5b6000614c5c84828501614ab5565b91505092915050565b600060208284031215614c7757600080fd5b600082013567ffffffffffffffff811115614c9157600080fd5b614c9d84828501614aca565b91505092915050565b600080600080600060a08688031215614cbe57600080fd5b600086013567ffffffffffffffff811115614cd857600080fd5b614ce488828901614aca565b955050602086013567ffffffffffffffff811115614d0157600080fd5b614d0d88828901614aca565b945050604086013567ffffffffffffffff811115614d2a57600080fd5b614d3688828901614aca565b935050606086013567ffffffffffffffff811115614d5357600080fd5b614d5f88828901614aca565b9250506080614d7088828901614af4565b9150509295509295909350565b600060208284031215614d8f57600080fd5b6000614d9d84828501614af4565b91505092915050565b600060208284031215614db857600080fd5b6000614dc684828501614b09565b91505092915050565b60008060008060808587031215614de557600080fd5b6000614df387828801614af4565b945050602085013567ffffffffffffffff811115614e1057600080fd5b614e1c87828801614aca565b935050604085013567ffffffffffffffff811115614e3957600080fd5b614e4587828801614aca565b925050606085013567ffffffffffffffff811115614e6257600080fd5b614e6e87828801614aca565b91505092959194509250565b60008060408385031215614e8d57600080fd5b6000614e9b85828601614af4565b9250506020614eac85828601614af4565b9150509250929050565b6000614ec283836155ea565b60208301905092915050565b614ed781615ae7565b82525050565b614ee681615ae7565b82525050565b6000614ef782615a86565b614f018185615aa9565b9350614f0c83615a76565b8060005b83811015614f3d578151614f248882614eb6565b9750614f2f83615a9c565b925050600181019050614f10565b5085935050505092915050565b614f5381615b05565b82525050565b614f6281615b05565b82525050565b6000614f7382615a91565b614f7d8185615aba565b9350614f8d818560208601615b48565b614f9681615c83565b840191505092915050565b6000614fac82615a91565b614fb68185615acb565b9350614fc6818560208601615b48565b614fcf81615c83565b840191505092915050565b6000614fe582615a91565b614fef8185615adc565b9350614fff818560208601615b48565b80840191505092915050565b6000615018601583615acb565b91507f4f6e6c79204d616b65204f6e63652054696d65732100000000000000000000006000830152602082019050919050565b6000615058601283615acb565b91507f5468697320796f7572206d6174657269616c00000000000000000000000000006000830152602082019050919050565b6000615098602083615acb565b91507f596f752061726520616c7265616479206120706c6174666f726d2075736572216000830152602082019050919050565b60006150d8601483615acb565b91507f4f6e6c7920557365722043616e20446f204974210000000000000000000000006000830152602082019050919050565b6000615118603d83615acb565b91507f546865206e756d626572206861732065786365656465642074686520746f746160008301527f6c20706f70756c6174696f6e206f662074686520756e697665727365210000006020830152604082019050919050565b600061517e601783615acb565b91507f54686973206d6174657269616c20636f6d706f736564210000000000000000006000830152602082019050919050565b60006151be601b83615acb565b91507f5468652070726f6475637420646f6573206e6f742065786973742100000000006000830152602082019050919050565b60006151fe600e83615acb565b91507f546865206964207375626a696f6e0000000000000000000000000000000000006000830152602082019050919050565b600061523e601483615acb565b91507f4e6f74207468697320696e6465782076616c75650000000000000000000000006000830152602082019050919050565b600061527e601583615acb565b91507f4f6e6c79204f776e65722043616e20446f2049742100000000000000000000006000830152602082019050919050565b60006152be601d83615acb565b91507f5468652063757272656e74206974656d206973206e6f7420796f7572210000006000830152602082019050919050565b60006152fe601283615acb565b91507f546865206964206e6f20636f6d706f73656400000000000000000000000000006000830152602082019050919050565b600061533e602383615acb565b91507f5468652063757272656e74206974656d206973206e6f7420796f75722061737360008301527f65742100000000000000000000000000000000000000000000000000000000006020830152604082019050919050565b60006153a4600083615adc565b9150600082019050919050565b60006153be602983615acb565b91507f5468697320616464726573732061726520616c7265616479206120706c61746660008301527f6f726d20757365722100000000000000000000000000000000000000000000006020830152604082019050919050565b6000615424601283615acb565b91507f446174612063616e6e6f7420656d7074792100000000000000000000000000006000830152602082019050919050565b600060a08301600083015184820360008601526154748282614f68565b9150506020830151848203602086015261548e8282614f68565b915050604083015184820360408601526154a88282614f68565b915050606083015184820360608601526154c28282614f68565b91505060808301516154d760808601826155ea565b508091505092915050565b600060608301600083015184820360008601526154ff8282615540565b915050602083015184820360208601526155198282615457565b915050604083015184820360408601526155338282614eec565b9150508091505092915050565b600060e08301600083015161555860008601826155ea565b50602083015161556b60208601826155ea565b50604083015184820360408601526155838282614f68565b9150506060830151848203606086015261559d8282614f68565b915050608083015184820360808601526155b78282614f68565b91505060a08301516155cc60a0860182614ece565b5060c08301516155df60c0860182614f4a565b508091505092915050565b6155f381615b2f565b82525050565b61560281615b2f565b82525050565b60006156148284614fda565b915081905092915050565b600061562a82615397565b9150819050919050565b60006020820190506156496000830184614edd565b92915050565b60006060820190506156646000830186614edd565b6156716020830185614edd565b61567e60408301846155f9565b949350505050565b600060a08201905081810360008301526156a08188614fa1565b905081810360208301526156b48187614fa1565b905081810360408301526156c88186614fa1565b905081810360608301526156dc8185614fa1565b90506156eb60808301846155f9565b9695505050505050565b6000602082019050818103600083015261570e8161500b565b9050919050565b6000602082019050818103600083015261572e8161504b565b9050919050565b6000602082019050818103600083015261574e8161508b565b9050919050565b6000602082019050818103600083015261576e816150cb565b9050919050565b6000602082019050818103600083015261578e8161510b565b9050919050565b600060208201905081810360008301526157ae81615171565b9050919050565b600060208201905081810360008301526157ce816151b1565b9050919050565b600060208201905081810360008301526157ee816151f1565b9050919050565b6000602082019050818103600083015261580e81615231565b9050919050565b6000602082019050818103600083015261582e81615271565b9050919050565b6000602082019050818103600083015261584e816152b1565b9050919050565b6000602082019050818103600083015261586e816152f1565b9050919050565b6000602082019050818103600083015261588e81615331565b9050919050565b600060208201905081810360008301526158ae816153b1565b9050919050565b600060208201905081810360008301526158ce81615417565b9050919050565b600060208201905081810360008301526158ef81846154e2565b905092915050565b600060208201905061590c60008301846155f9565b92915050565b600060808201905061592760008301876155f9565b61593460208301866155f9565b81810360408301526159468185614fa1565b9050818103606083015261595a8184614fa1565b905095945050505050565b600060e08201905061597a600083018a6155f9565b61598760208301896155f9565b81810360408301526159998188614fa1565b905081810360608301526159ad8187614fa1565b905081810360808301526159c18186614fa1565b90506159d060a0830185614edd565b6159dd60c0830184614f59565b98975050505050505050565b6000604051905081810181811067ffffffffffffffff82111715615a1057615a0f615c54565b5b8060405250919050565b600067ffffffffffffffff821115615a3557615a34615c54565b5b602082029050602081019050919050565b600067ffffffffffffffff821115615a6157615a60615c54565b5b601f19601f8301169050602081019050919050565b6000819050602082019050919050565b600081519050919050565b600081519050919050565b6000602082019050919050565b600082825260208201905092915050565b600082825260208201905092915050565b600082825260208201905092915050565b600081905092915050565b6000615af282615b0f565b9050919050565b60008115159050919050565b6000819050919050565b600073ffffffffffffffffffffffffffffffffffffffff82169050919050565b6000819050919050565b82818337600083830152505050565b60005b83811015615b66578082015181840152602081019050615b4b565b83811115615b75576000848401525b50505050565b60006002820490506001821680615b9357607f821691505b60208210811415615ba757615ba6615c25565b5b50919050565b6000615bb882615b2f565b91507fffffffffffffffffffffffffffffffffffffffffffffffffffffffffffffffff821415615beb57615bea615bf6565b5b600182019050919050565b7f4e487b7100000000000000000000000000000000000000000000000000000000600052601160045260246000fd5b7f4e487b7100000000000000000000000000000000000000000000000000000000600052602260045260246000fd5b7f4e487b7100000000000000000000000000000000000000000000000000000000600052604160045260246000fd5b6000601f19601f8301169050919050565b615c9d81615ae7565b8114615ca857600080fd5b50565b615cb481615af9565b8114615cbf57600080fd5b50565b615ccb81615b05565b8114615cd657600080fd5b50565b615ce281615b2f565b8114615ced57600080fd5b5056fea2646970667358221220dba1355815a2a7d4df1ddfb88c2c9d90acefc6c746c16bde6dd130e931881bf564736f6c63430008000033",
  "immutableReferences": {
    "192": [
      {
        "length": 32,
        "start": 10166
      }
    ]
  },
  "source": "// SPDX-License-Identifier: GPL-3.0\npragma solidity ^0.8.0;\n\nimport \"./IPMT721.sol\";\n\ncontract PixelsMetavers {\n    IPMT721 private PMT721;\n    address private immutable _owner;\n\n    uint256 amount;\n\n    struct User {\n        uint256 id;\n        uint256 avater;\n        string role;\n        string other;\n    }\n    mapping(address => User) public user;\n\n    struct Material {\n        uint256 id;\n        uint256 compose;\n        string time;\n        string position;\n        string zIndex;\n        address owner;\n        bytes32 data;\n    }\n    mapping(uint256 => Material) public material;\n    mapping(uint256 => uint256[]) public composes; // \n    mapping(address => uint256[]) public collection; //\n\n    struct BaseInfo {\n        string data;\n        string category;\n        string decode; // \n        string name;\n        uint256 userId;\n    }\n    mapping(bytes32 => BaseInfo) public baseInfo;\n\n    struct MaterialInfo {\n        Material material;\n        BaseInfo baseInfo;\n        uint256[] composes;\n    }\n\n    modifier MustExist(uint256 id) {\n        require(IPMT721(PMT721).exits(id), \"The product does not exist!\");\n        _;\n    }\n\n    modifier MustUser(address u) {\n        require(user[u].id > 0, \"Only User Can Do It!\");\n        _;\n    }\n\n    modifier MustOwner(address sender, uint256 id) {\n        Material memory m = material[id];\n        require(sender == m.owner, \"The current item is not your!\");\n        _;\n    }\n\n    constructor() {\n        _owner = msg.sender;\n    }\n\n    //118008 ropsten 97333 local \n    function register() public {\n        require(user[msg.sender].id == 0, \"You are already a platform user!\");\n        require(\n            amount <= 10240000,\n            \"The number has exceeded the total population of the universe!\"\n        );\n        amount++;\n        user[msg.sender].id = amount;\n    }\n\n    //47900  bgColor: '#c18686', gridColor: '#472a2a'  132457 \n    function setConfig(string memory other) public MustUser(msg.sender) {\n        user[msg.sender].other = other;\n    }\n\n    //   47731\n    function setRole(string memory role) public MustUser(msg.sender) {\n        user[msg.sender].role = role;\n    }\n\n    //   70903\n    function setAvater(uint256 id) public MustOwner(msg.sender, id) {\n        user[msg.sender].avater = id;\n    }\n\n    //   206067\n    function resetUser(address to) public MustUser(msg.sender) {\n        require(user[to].id == 0, \"This address are already a platform user!\");\n        user[to] = user[msg.sender];\n        user[to].avater = 0;\n        user[msg.sender] = User(0, user[msg.sender].avater, \"\", \"\");\n    }\n\n    // \n    function getMaterialLength() public view returns (uint256) {\n        return IPMT721(PMT721).currentID();\n    }\n\n    // \n    function getMaterial(uint256 id) public view returns (MaterialInfo memory) {\n        Material storage m = material[id];\n        BaseInfo memory b = baseInfo[m.data];\n        uint256[] memory c = composes[id];\n        return MaterialInfo(m, b, c);\n    }\n\n    //  356245\n    function make(\n        string memory name,\n        string memory category,\n        string memory data,\n        string memory decode,\n        uint256 num\n    ) public MustUser(msg.sender) {\n        bytes32 d = keccak256(abi.encodePacked(data));\n        require(d != keccak256(abi.encodePacked(\"\")), \"Data cannot empty!\");\n        require(baseInfo[d].userId == 0, \"Only Make Once Times!\");\n\n        for (uint256 i; i < num; i++) {\n            _make(d);\n        }\n        baseInfo[d] = BaseInfo(\n            data,\n            category,\n            decode,\n            name,\n            user[msg.sender].id\n        );\n    }\n\n    function reMake(uint256 id, uint256 num) public MustOwner(msg.sender, id) {\n        Material storage m = material[id];\n        require(\n            baseInfo[m.data].userId == user[msg.sender].id,\n            \"Only Owner Can Do It!\"\n        );\n        for (uint256 i; i < num; i++) {\n            _make(m.data);\n        }\n    }\n\n    function _make(bytes32 data) private {\n        IPMT721(PMT721).mint(msg.sender);\n        uint256 id = IPMT721(PMT721).currentID();\n        material[id] = Material(id, 0, \"\", \"\", \"\", msg.sender, data);\n    }\n\n    //\n    function collect(uint256 id) public payable MustExist(id) {\n        Material memory m = material[id];\n        require(m.owner != msg.sender, \"This your material\");\n        collection[msg.sender].push(id);\n    }\n\n    function cancelCollect(uint256 id, uint256 index) public MustExist(id) {\n        require(index < collection[msg.sender].length, \"Not this index value\");\n        collection[msg.sender][index] = 0;\n    }\n\n    function compose(uint256[] memory ids) public MustUser(msg.sender) {\n        _make(keccak256(abi.encodePacked(\"\")));\n        uint256 curID = IPMT721(PMT721).currentID();\n        for (uint256 i; i < ids.length; i++) {\n            uint256 id = ids[i];\n            Material memory m = material[id];\n            require(\n                msg.sender == m.owner,\n                \"The current item is not your asset!\"\n            );\n            material[id].compose = curID;\n            IPMT721(PMT721).safeTransferFrom(msg.sender, address(this), id);\n        }\n        composes[curID] = ids;\n    }\n\n    function cancelCompose(uint256 id) public {\n        uint256[] memory c = composes[id];\n        uint256 len = c.length;\n        require(len > 1, \"The id no composed\");\n        for (uint256 i; i < len; i++) {\n            uint256 idd = c[i];\n            material[c[i]].compose = 0;\n            IPMT721(PMT721).safeTransferFrom(address(this), msg.sender, idd);\n        }\n        delete composes[id];\n        delete material[id];\n        IPMT721(PMT721).burn(id);\n    }\n\n    function setConfig(\n        uint256 id,\n        string memory time,\n        string memory position,\n        string memory zIndex\n    ) public MustOwner(msg.sender, id) {\n        material[id].time = time;\n        material[id].position = position;\n        material[id].zIndex = zIndex;\n    }\n\n    function subjion(uint256 ids, uint256 id)\n        public\n        MustOwner(msg.sender, ids)\n        MustOwner(msg.sender, id)\n    {\n        uint256[] memory c = composes[ids];\n        require(c.length > 1, \"The id no composed\");\n        Material memory m = material[id];\n        require(m.compose == 0, \"The id subjion\");\n        material[id].compose = ids;\n        composes[ids].push(id);\n    }\n\n    function subtract(uint256 ids, uint256 index)\n        public\n        MustOwner(msg.sender, ids)\n    {\n        uint256[] memory c = composes[ids];\n        uint256 len = c.length;\n        require(len > index, \"The id no composed\");\n        uint256 id = c[index];\n        material[id].compose = 0;\n        composes[ids][index] = 0;\n    }\n\n    function setPMT721(address pmt721) public {\n        require(msg.sender == _owner, \"Only Owner Can Do It!\");\n        PMT721 = IPMT721(pmt721);\n    }\n\n    function transfer(\n        address from,\n        address to,\n        uint256 id\n    ) public {\n        Material memory m = material[id];\n        require(m.compose == 0, \"This material composed!\");\n        if (to == address(0)) {\n            delete material[id];\n        }\n        if (from != address(0)) {\n            material[id].owner = to;\n        }\n    }\n}\n",
  "sourcePath": "/Users/xiangzhengfeng/Desktop/mine/project/pixels-metaverse/contracts/PixelsMetavers.sol",
  "compiler": {
    "name": "solc",
    "version": "0.8.0+commit.c7dfd78e.Emscripten.clang"
  },
  "schemaVersion": "3.3.4",
  "updatedAt": "2021-12-26T06:47:40.177Z",
  "networkType": "ethereum",
  "devdoc": {
    "kind": "dev",
    "methods": {},
    "version": 1
  },
  "userdoc": {
    "kind": "user",
    "methods": {},
    "version": 1
  }
}