{
  "contractName": "PixelsMetavers",
  "abi": [
    {
      "inputs": [],
      "stateMutability": "nonpayable",
      "type": "constructor"
    },
    {
      "anonymous": false,
      "inputs": [
        {
          "indexed": true,
          "internalType": "address",
          "name": "owner",
          "type": "address"
        },
        {
          "indexed": true,
          "internalType": "uint256",
          "name": "id",
          "type": "uint256"
        }
      ],
      "name": "ComposeEvent",
      "type": "event"
    },
    {
      "inputs": [
        {
          "internalType": "bytes32",
          "name": "",
          "type": "bytes32"
        }
      ],
      "name": "baseInfo",
      "outputs": [
        {
          "internalType": "string",
          "name": "data",
          "type": "string"
        },
        {
          "internalType": "string",
          "name": "category",
          "type": "string"
        },
        {
          "internalType": "string",
          "name": "decode",
          "type": "string"
        },
        {
          "internalType": "string",
          "name": "name",
          "type": "string"
        },
        {
          "internalType": "uint256",
          "name": "userId",
          "type": "uint256"
        }
      ],
      "stateMutability": "view",
      "type": "function",
      "constant": true
    },
    {
      "inputs": [
        {
          "internalType": "address",
          "name": "",
          "type": "address"
        },
        {
          "internalType": "uint256",
          "name": "",
          "type": "uint256"
        }
      ],
      "name": "collection",
      "outputs": [
        {
          "internalType": "uint256",
          "name": "",
          "type": "uint256"
        }
      ],
      "stateMutability": "view",
      "type": "function",
      "constant": true
    },
    {
      "inputs": [
        {
          "internalType": "uint256",
          "name": "",
          "type": "uint256"
        },
        {
          "internalType": "uint256",
          "name": "",
          "type": "uint256"
        }
      ],
      "name": "composes",
      "outputs": [
        {
          "internalType": "uint256",
          "name": "",
          "type": "uint256"
        }
      ],
      "stateMutability": "view",
      "type": "function",
      "constant": true
    },
    {
      "inputs": [
        {
          "internalType": "uint256",
          "name": "",
          "type": "uint256"
        }
      ],
      "name": "material",
      "outputs": [
        {
          "internalType": "uint256",
          "name": "id",
          "type": "uint256"
        },
        {
          "internalType": "uint256",
          "name": "compose",
          "type": "uint256"
        },
        {
          "internalType": "string",
          "name": "time",
          "type": "string"
        },
        {
          "internalType": "string",
          "name": "position",
          "type": "string"
        },
        {
          "internalType": "string",
          "name": "zIndex",
          "type": "string"
        },
        {
          "internalType": "address",
          "name": "owner",
          "type": "address"
        },
        {
          "internalType": "bytes32",
          "name": "data",
          "type": "bytes32"
        }
      ],
      "stateMutability": "view",
      "type": "function",
      "constant": true
    },
    {
      "inputs": [
        {
          "internalType": "address",
          "name": "",
          "type": "address"
        }
      ],
      "name": "user",
      "outputs": [
        {
          "internalType": "uint256",
          "name": "id",
          "type": "uint256"
        },
        {
          "internalType": "uint256",
          "name": "avater",
          "type": "uint256"
        },
        {
          "internalType": "string",
          "name": "role",
          "type": "string"
        },
        {
          "internalType": "string",
          "name": "other",
          "type": "string"
        }
      ],
      "stateMutability": "view",
      "type": "function",
      "constant": true
    },
    {
      "inputs": [],
      "name": "register",
      "outputs": [],
      "stateMutability": "nonpayable",
      "type": "function"
    },
    {
      "inputs": [
        {
          "internalType": "string",
          "name": "role",
          "type": "string"
        },
        {
          "internalType": "uint256",
          "name": "id",
          "type": "uint256"
        },
        {
          "internalType": "string",
          "name": "other",
          "type": "string"
        }
      ],
      "name": "setConfig",
      "outputs": [],
      "stateMutability": "nonpayable",
      "type": "function"
    },
    {
      "inputs": [
        {
          "internalType": "uint256",
          "name": "id",
          "type": "uint256"
        },
        {
          "internalType": "string",
          "name": "time",
          "type": "string"
        },
        {
          "internalType": "string",
          "name": "position",
          "type": "string"
        },
        {
          "internalType": "string",
          "name": "zIndex",
          "type": "string"
        }
      ],
      "name": "setConfigMaterial",
      "outputs": [],
      "stateMutability": "nonpayable",
      "type": "function"
    },
    {
      "inputs": [],
      "name": "getMaterialLength",
      "outputs": [
        {
          "internalType": "uint256",
          "name": "",
          "type": "uint256"
        }
      ],
      "stateMutability": "view",
      "type": "function",
      "constant": true
    },
    {
      "inputs": [
        {
          "internalType": "uint256",
          "name": "id",
          "type": "uint256"
        }
      ],
      "name": "getMaterial",
      "outputs": [
        {
          "components": [
            {
              "components": [
                {
                  "internalType": "uint256",
                  "name": "id",
                  "type": "uint256"
                },
                {
                  "internalType": "uint256",
                  "name": "compose",
                  "type": "uint256"
                },
                {
                  "internalType": "string",
                  "name": "time",
                  "type": "string"
                },
                {
                  "internalType": "string",
                  "name": "position",
                  "type": "string"
                },
                {
                  "internalType": "string",
                  "name": "zIndex",
                  "type": "string"
                },
                {
                  "internalType": "address",
                  "name": "owner",
                  "type": "address"
                },
                {
                  "internalType": "bytes32",
                  "name": "data",
                  "type": "bytes32"
                }
              ],
              "internalType": "struct PixelsMetavers.Material",
              "name": "material",
              "type": "tuple"
            },
            {
              "components": [
                {
                  "internalType": "string",
                  "name": "data",
                  "type": "string"
                },
                {
                  "internalType": "string",
                  "name": "category",
                  "type": "string"
                },
                {
                  "internalType": "string",
                  "name": "decode",
                  "type": "string"
                },
                {
                  "internalType": "string",
                  "name": "name",
                  "type": "string"
                },
                {
                  "internalType": "uint256",
                  "name": "userId",
                  "type": "uint256"
                }
              ],
              "internalType": "struct PixelsMetavers.BaseInfo",
              "name": "baseInfo",
              "type": "tuple"
            },
            {
              "internalType": "uint256[]",
              "name": "composes",
              "type": "uint256[]"
            }
          ],
          "internalType": "struct PixelsMetavers.MaterialInfo",
          "name": "",
          "type": "tuple"
        }
      ],
      "stateMutability": "view",
      "type": "function",
      "constant": true
    },
    {
      "inputs": [
        {
          "internalType": "string",
          "name": "name",
          "type": "string"
        },
        {
          "internalType": "string",
          "name": "category",
          "type": "string"
        },
        {
          "internalType": "string",
          "name": "data",
          "type": "string"
        },
        {
          "internalType": "string",
          "name": "decode",
          "type": "string"
        },
        {
          "internalType": "uint256",
          "name": "num",
          "type": "uint256"
        }
      ],
      "name": "make",
      "outputs": [],
      "stateMutability": "nonpayable",
      "type": "function"
    },
    {
      "inputs": [
        {
          "internalType": "uint256",
          "name": "id",
          "type": "uint256"
        },
        {
          "internalType": "uint256",
          "name": "num",
          "type": "uint256"
        }
      ],
      "name": "reMake",
      "outputs": [],
      "stateMutability": "nonpayable",
      "type": "function"
    },
    {
      "inputs": [
        {
          "internalType": "uint256",
          "name": "id",
          "type": "uint256"
        }
      ],
      "name": "collect",
      "outputs": [],
      "stateMutability": "nonpayable",
      "type": "function"
    },
    {
      "inputs": [
        {
          "internalType": "uint256",
          "name": "id",
          "type": "uint256"
        },
        {
          "internalType": "uint256",
          "name": "index",
          "type": "uint256"
        }
      ],
      "name": "cancelCollect",
      "outputs": [],
      "stateMutability": "nonpayable",
      "type": "function"
    },
    {
      "inputs": [
        {
          "internalType": "address",
          "name": "from",
          "type": "address"
        }
      ],
      "name": "getCollection",
      "outputs": [
        {
          "internalType": "uint256[]",
          "name": "",
          "type": "uint256[]"
        }
      ],
      "stateMutability": "view",
      "type": "function",
      "constant": true
    },
    {
      "inputs": [
        {
          "internalType": "uint256",
          "name": "id",
          "type": "uint256"
        }
      ],
      "name": "getCompose",
      "outputs": [
        {
          "internalType": "uint256[]",
          "name": "",
          "type": "uint256[]"
        }
      ],
      "stateMutability": "view",
      "type": "function",
      "constant": true
    },
    {
      "inputs": [
        {
          "internalType": "uint256[]",
          "name": "ids",
          "type": "uint256[]"
        },
        {
          "internalType": "string",
          "name": "name",
          "type": "string"
        },
        {
          "internalType": "string",
          "name": "category",
          "type": "string"
        },
        {
          "internalType": "string",
          "name": "data",
          "type": "string"
        },
        {
          "internalType": "string",
          "name": "decode",
          "type": "string"
        }
      ],
      "name": "compose",
      "outputs": [],
      "stateMutability": "nonpayable",
      "type": "function"
    },
    {
      "inputs": [
        {
          "internalType": "uint256",
          "name": "ids",
          "type": "uint256"
        }
      ],
      "name": "cancelCompose",
      "outputs": [],
      "stateMutability": "nonpayable",
      "type": "function"
    },
    {
      "inputs": [
        {
          "internalType": "uint256",
          "name": "ids",
          "type": "uint256"
        },
        {
          "internalType": "uint256[]",
          "name": "idList",
          "type": "uint256[]"
        }
      ],
      "name": "addition",
      "outputs": [],
      "stateMutability": "nonpayable",
      "type": "function"
    },
    {
      "inputs": [
        {
          "internalType": "uint256",
          "name": "ids",
          "type": "uint256"
        },
        {
          "internalType": "uint256",
          "name": "id",
          "type": "uint256"
        },
        {
          "internalType": "uint256",
          "name": "index",
          "type": "uint256"
        }
      ],
      "name": "subtract",
      "outputs": [],
      "stateMutability": "nonpayable",
      "type": "function"
    },
    {
      "inputs": [
        {
          "internalType": "address",
          "name": "pmt721",
          "type": "address"
        }
      ],
      "name": "setPMT721",
      "outputs": [],
      "stateMutability": "nonpayable",
      "type": "function"
    },
    {
      "inputs": [
        {
          "internalType": "address",
          "name": "from",
          "type": "address"
        },
        {
          "internalType": "address",
          "name": "to",
          "type": "address"
        },
        {
          "internalType": "uint256",
          "name": "id",
          "type": "uint256"
        }
      ],
      "name": "handleTransfer",
      "outputs": [],
      "stateMutability": "nonpayable",
      "type": "function"
    }
  ],
  "bytecode": "0x60a060405234801561001057600080fd5b503373ffffffffffffffffffffffffffffffffffffffff1660808173ffffffffffffffffffffffffffffffffffffffff1660601b8152505060805160601c615f2d6200006760003960006121350152615f2d6000f3fe608060405234801561001057600080fd5b50600436106101425760003560e01c806386ad9770116100b8578063c8a000e11161007c578063c8a000e11461034e578063ce3f865f14610384578063cfb20619146103a0578063d095a65b146103bc578063da6d8909146103ec578063e40de8871461041c57610142565b806386ad977014610294578063a55c7327146102b2578063a683e769146102e2578063a6f1c98014610316578063b0934b111461033257610142565b806354f79db41161010a57806354f79db4146101d557806360f24ff3146101f157806366008bde1461020d578063749aa937146102295780637f9b8dd41461024557806381e7e20e1461026157610142565b8063095c4fef146101475780630ae59f3b146101635780631aa3a008146101935780633cadff091461019d57806346197c9a146101b9575b600080fd5b610161600480360381019061015c9190615110565b61044c565b005b61017d600480360381019061017891906150d4565b61084e565b60405161018a9190615a8d565b60405180910390f35b61019b61087f565b005b6101b760048036038101906101b291906154f8565b6109a9565b005b6101d360048036038101906101ce9190615085565b610c74565b005b6101ef60048036038101906101ea91906153a7565b6110e7565b005b61020b600480360381019061020691906153f9565b611819565b005b61022760048036038101906102229190615251565b611ecc565b005b610243600480360381019061023e919061505c565b612133565b005b61025f600480360381019061025a9190615534565b612204565b005b61027b6004803603810190610276919061505c565b612909565b60405161028b9493929190615aa8565b60405180910390f35b61029c612a49565b6040516102a99190615a8d565b60405180910390f35b6102cc60048036038101906102c791906154f8565b612aef565b6040516102d99190615a8d565b60405180910390f35b6102fc60048036038101906102f79190615228565b612b20565b60405161030d9594939291906159dc565b60405180910390f35b610330600480360381019061032b919061544d565b612d76565b005b61034c60048036038101906103479190615328565b6130c0565b005b610368600480360381019061036391906153a7565b6131ba565b60405161037b9796959493929190615afb565b60405180910390f35b61039e600480360381019061039991906153a7565b6133b4565b005b6103ba60048036038101906103b591906154f8565b6137c7565b005b6103d660048036038101906103d191906153a7565b613b71565b6040516103e391906159ba565b60405180910390f35b610406600480360381019061040191906153a7565b613bdc565b6040516104139190615a6b565b60405180910390f35b6104366004803603810190610431919061505c565b614133565b60405161044391906159ba565b60405180910390f35b336000600260008373ffffffffffffffffffffffffffffffffffffffff1673ffffffffffffffffffffffffffffffffffffffff16815260200190815260200160002060000154116104d2576040517f08c379a00000000000000000000000000000000000000000000000000000000081526004016104c990615a4b565b60405180910390fd5b6000865190506001811161051b576040517f08c379a000000000000000000000000000000000000000000000000000000000815260040161051290615a4b565b60405180910390fd5b60008060009054906101000a900473ffffffffffffffffffffffffffffffffffffffff1673ffffffffffffffffffffffffffffffffffffffff16631c75cfb46040518163ffffffff1660e01b815260040160206040518083038186803b15801561058457600080fd5b505afa158015610598573d6000803e3d6000fd5b505050506040513d601f19601f820116820180604052508101906105bc91906153d0565b905060006001826105cd9190615c8e565b905060006001836105de9190615c8e565b6040516020016105ee9190615984565b604051602081830303815290604052805190602001209050600060066000838152602001908152602001600020600401541461065f576040517f08c379a000000000000000000000000000000000000000000000000000000000815260040161065690615a4b565b60405180910390fd5b61066981336141ca565b60005b848110156106d85760008b82815181106106af577f4e487b7100000000000000000000000000000000000000000000000000000000600052603260045260246000fd5b602002602001015190506106c4848233614446565b5080806106d090615daa565b91505061066c565b5089600460008481526020019081526020016000209080519060200190610700929190614cf2565b506040518060a001604052808881526020018981526020018781526020018a8152602001600260003373ffffffffffffffffffffffffffffffffffffffff1673ffffffffffffffffffffffffffffffffffffffff16815260200190815260200160002060000154815250600660008381526020019081526020016000206000820151816000019080519060200190610799929190614d3f565b5060208201518160010190805190602001906107b6929190614d3f565b5060408201518160020190805190602001906107d3929190614d3f565b5060608201518160030190805190602001906107f0929190614d3f565b5060808201518160040155905050813373ffffffffffffffffffffffffffffffffffffffff167f0c27b09bf948dd198249e0040f4a2ebec1aefbfa12000f76101ca8d1b4b5701060405160405180910390a350505050505050505050565b6005602052816000526040600020818154811061086a57600080fd5b90600052602060002001600091509150505481565b6000600260003373ffffffffffffffffffffffffffffffffffffffff1673ffffffffffffffffffffffffffffffffffffffff1681526020019081526020016000206000015414610904576040517f08c379a00000000000000000000000000000000000000000000000000000000081526004016108fb90615a4b565b60405180910390fd5b620fa000600154111561094c576040517f08c379a000000000000000000000000000000000000000000000000000000000815260040161094390615a4b565b60405180910390fd5b60016000815461095b90615daa565b919050819055600260003373ffffffffffffffffffffffffffffffffffffffff1673ffffffffffffffffffffffffffffffffffffffff16815260200190815260200160002060000181905550565b8160008054906101000a900473ffffffffffffffffffffffffffffffffffffffff1673ffffffffffffffffffffffffffffffffffffffff1663342de179826040518263ffffffff1660e01b8152600401610a039190615a8d565b60206040518083038186803b158015610a1b57600080fd5b505afa158015610a2f573d6000803e3d6000fd5b505050506040513d601f19601f82011682018060405250810190610a5391906151ff565b610a92576040517f08c379a0000000000000000000000000000000000000000000000000000000008152600401610a8990615a4b565b60405180910390fd5b6000600560003373ffffffffffffffffffffffffffffffffffffffff1673ffffffffffffffffffffffffffffffffffffffff168152602001908152602001600020805480602002602001604051908101604052809291908181526020018280548015610b1d57602002820191906000526020600020905b815481526020019060010190808311610b09575b5050505050905080518310610b67576040517f08c379a0000000000000000000000000000000000000000000000000000000008152600401610b5e90615a4b565b60405180910390fd5b83818481518110610ba1577f4e487b7100000000000000000000000000000000000000000000000000000000600052603260045260246000fd5b602002602001015114610be9576040517f08c379a0000000000000000000000000000000000000000000000000000000008152600401610be090615a4b565b60405180910390fd5b600560003373ffffffffffffffffffffffffffffffffffffffff1673ffffffffffffffffffffffffffffffffffffffff1681526020019081526020016000208381548110610c60577f4e487b7100000000000000000000000000000000000000000000000000000000600052603260045260246000fd5b906000526020600020016000905550505050565b806000600360008381526020019081526020016000206040518060e00160405290816000820154815260200160018201548152602001600282018054610cb990615d78565b80601f0160208091040260200160405190810160405280929190818152602001828054610ce590615d78565b8015610d325780601f10610d0757610100808354040283529160200191610d32565b820191906000526020600020905b815481529060010190602001808311610d1557829003601f168201915b50505050508152602001600382018054610d4b90615d78565b80601f0160208091040260200160405190810160405280929190818152602001828054610d7790615d78565b8015610dc45780601f10610d9957610100808354040283529160200191610dc4565b820191906000526020600020905b815481529060010190602001808311610da757829003601f168201915b50505050508152602001600482018054610ddd90615d78565b80601f0160208091040260200160405190810160405280929190818152602001828054610e0990615d78565b8015610e565780601f10610e2b57610100808354040283529160200191610e56565b820191906000526020600020905b815481529060010190602001808311610e3957829003601f168201915b505050505081526020016005820160009054906101000a900473ffffffffffffffffffffffffffffffffffffffff1673ffffffffffffffffffffffffffffffffffffffff1673ffffffffffffffffffffffffffffffffffffffff16815260200160068201548152505090506000816020015114610f08576040517f08c379a0000000000000000000000000000000000000000000000000000000008152600401610eff90615a4b565b60405180910390fd5b60008054906101000a900473ffffffffffffffffffffffffffffffffffffffff1673ffffffffffffffffffffffffffffffffffffffff163373ffffffffffffffffffffffffffffffffffffffff1614610f96576040517f08c379a0000000000000000000000000000000000000000000000000000000008152600401610f8d90615a4b565b60405180910390fd5b600073ffffffffffffffffffffffffffffffffffffffff168473ffffffffffffffffffffffffffffffffffffffff16141561105557600360008481526020019081526020016000206000808201600090556001820160009055600282016000610fff9190614dc5565b60038201600061100f9190614dc5565b60048201600061101f9190614dc5565b6005820160006101000a81549073ffffffffffffffffffffffffffffffffffffffff0219169055600682016000905550506110e0565b600073ffffffffffffffffffffffffffffffffffffffff168573ffffffffffffffffffffffffffffffffffffffff16146110df57836003600085815260200190815260200160002060050160006101000a81548173ffffffffffffffffffffffffffffffffffffffff021916908373ffffffffffffffffffffffffffffffffffffffff1602179055505b5b5050505050565b33816000600360008381526020019081526020016000206040518060e0016040529081600082015481526020016001820154815260200160028201805461112d90615d78565b80601f016020809104026020016040519081016040528092919081815260200182805461115990615d78565b80156111a65780601f1061117b576101008083540402835291602001916111a6565b820191906000526020600020905b81548152906001019060200180831161118957829003601f168201915b505050505081526020016003820180546111bf90615d78565b80601f01602080910402602001604051908101604052809291908181526020018280546111eb90615d78565b80156112385780601f1061120d57610100808354040283529160200191611238565b820191906000526020600020905b81548152906001019060200180831161121b57829003601f168201915b5050505050815260200160048201805461125190615d78565b80601f016020809104026020016040519081016040528092919081815260200182805461127d90615d78565b80156112ca5780601f1061129f576101008083540402835291602001916112ca565b820191906000526020600020905b8154815290600101906020018083116112ad57829003601f168201915b505050505081526020016005820160009054906101000a900473ffffffffffffffffffffffffffffffffffffffff1673ffffffffffffffffffffffffffffffffffffffff1673ffffffffffffffffffffffffffffffffffffffff16815260200160068201548152505090508060a0015173ffffffffffffffffffffffffffffffffffffffff168373ffffffffffffffffffffffffffffffffffffffff16146113a7576040517f08c379a000000000000000000000000000000000000000000000000000000000815260040161139e90615a4b565b60405180910390fd5b836000600360008381526020019081526020016000206040518060e001604052908160008201548152602001600182015481526020016002820180546113ec90615d78565b80601f016020809104026020016040519081016040528092919081815260200182805461141890615d78565b80156114655780601f1061143a57610100808354040283529160200191611465565b820191906000526020600020905b81548152906001019060200180831161144857829003601f168201915b5050505050815260200160038201805461147e90615d78565b80601f01602080910402602001604051908101604052809291908181526020018280546114aa90615d78565b80156114f75780601f106114cc576101008083540402835291602001916114f7565b820191906000526020600020905b8154815290600101906020018083116114da57829003601f168201915b5050505050815260200160048201805461151090615d78565b80601f016020809104026020016040519081016040528092919081815260200182805461153c90615d78565b80156115895780601f1061155e57610100808354040283529160200191611589565b820191906000526020600020905b81548152906001019060200180831161156c57829003601f168201915b505050505081526020016005820160009054906101000a900473ffffffffffffffffffffffffffffffffffffffff1673ffffffffffffffffffffffffffffffffffffffff1673ffffffffffffffffffffffffffffffffffffffff1681526020016006820154815250509050600081602001511461163b576040517f08c379a000000000000000000000000000000000000000000000000000000000815260040161163290615a4b565b60405180910390fd5b60006004600088815260200190815260200160002080548060200260200160405190810160405280929190818152602001828054801561169a57602002820191906000526020600020905b815481526020019060010190808311611686575b50505050509050600081519050600181116116ea576040517f08c379a00000000000000000000000000000000000000000000000000000000081526004016116e190615a4b565b60405180910390fd5b60005b8181101561176457600060036000858481518110611734577f4e487b7100000000000000000000000000000000000000000000000000000000600052603260045260246000fd5b6020026020010151815260200190815260200160002060010181905550808061175c90615daa565b9150506116ed565b5060008054906101000a900473ffffffffffffffffffffffffffffffffffffffff1673ffffffffffffffffffffffffffffffffffffffff166342966c68896040518263ffffffff1660e01b81526004016117be9190615a8d565b600060405180830381600087803b1580156117d857600080fd5b505af11580156117ec573d6000803e3d6000fd5b5050505060046000898152602001908152602001600020600061180f9190614e05565b5050505050505050565b33826000600360008381526020019081526020016000206040518060e0016040529081600082015481526020016001820154815260200160028201805461185f90615d78565b80601f016020809104026020016040519081016040528092919081815260200182805461188b90615d78565b80156118d85780601f106118ad576101008083540402835291602001916118d8565b820191906000526020600020905b8154815290600101906020018083116118bb57829003601f168201915b505050505081526020016003820180546118f190615d78565b80601f016020809104026020016040519081016040528092919081815260200182805461191d90615d78565b801561196a5780601f1061193f5761010080835404028352916020019161196a565b820191906000526020600020905b81548152906001019060200180831161194d57829003601f168201915b5050505050815260200160048201805461198390615d78565b80601f01602080910402602001604051908101604052809291908181526020018280546119af90615d78565b80156119fc5780601f106119d1576101008083540402835291602001916119fc565b820191906000526020600020905b8154815290600101906020018083116119df57829003601f168201915b505050505081526020016005820160009054906101000a900473ffffffffffffffffffffffffffffffffffffffff1673ffffffffffffffffffffffffffffffffffffffff1673ffffffffffffffffffffffffffffffffffffffff16815260200160068201548152505090508060a0015173ffffffffffffffffffffffffffffffffffffffff168373ffffffffffffffffffffffffffffffffffffffff1614611ad9576040517f08c379a0000000000000000000000000000000000000000000000000000000008152600401611ad090615a4b565b60405180910390fd5b846000600360008381526020019081526020016000206040518060e00160405290816000820154815260200160018201548152602001600282018054611b1e90615d78565b80601f0160208091040260200160405190810160405280929190818152602001828054611b4a90615d78565b8015611b975780601f10611b6c57610100808354040283529160200191611b97565b820191906000526020600020905b815481529060010190602001808311611b7a57829003601f168201915b50505050508152602001600382018054611bb090615d78565b80601f0160208091040260200160405190810160405280929190818152602001828054611bdc90615d78565b8015611c295780601f10611bfe57610100808354040283529160200191611c29565b820191906000526020600020905b815481529060010190602001808311611c0c57829003601f168201915b50505050508152602001600482018054611c4290615d78565b80601f0160208091040260200160405190810160405280929190818152602001828054611c6e90615d78565b8015611cbb5780601f10611c9057610100808354040283529160200191611cbb565b820191906000526020600020905b815481529060010190602001808311611c9e57829003601f168201915b505050505081526020016005820160009054906101000a900473ffffffffffffffffffffffffffffffffffffffff1673ffffffffffffffffffffffffffffffffffffffff1673ffffffffffffffffffffffffffffffffffffffff16815260200160068201548152505090506000816020015114611d6d576040517f08c379a0000000000000000000000000000000000000000000000000000000008152600401611d6490615a4b565b60405180910390fd5b600060046000898152602001908152602001600020805480602002602001604051908101604052809291908181526020018280548015611dcc57602002820191906000526020600020905b815481526020019060010190808311611db8575b505050505090506001815111611e17576040517f08c379a0000000000000000000000000000000000000000000000000000000008152600401611e0e90615a4b565b60405180910390fd5b60005b8751811015611ec1576000888281518110611e5e577f4e487b7100000000000000000000000000000000000000000000000000000000600052603260045260246000fd5b60200260200101519050611e738a8233614446565b600460008b8152602001908152602001600020819080600181540180825580915050600190039060005260206000200160009091909190915055508080611eb990615daa565b915050611e1a565b505050505050505050565b336000600260008373ffffffffffffffffffffffffffffffffffffffff1673ffffffffffffffffffffffffffffffffffffffff1681526020019081526020016000206000015411611f52576040517f08c379a0000000000000000000000000000000000000000000000000000000008152600401611f4990615a4b565b60405180910390fd5b600084604051602001611f659190615958565b604051602081830303815290604052805190602001209050604051602001611f8c9061596f565b60405160208183030381529060405280519060200120811415611fe4576040517f08c379a0000000000000000000000000000000000000000000000000000000008152600401611fdb90615a4b565b60405180910390fd5b60005b8381101561200c57611ff982336141ca565b808061200490615daa565b915050611fe7565b5060006006600083815260200190815260200160002060040154141561212a576040518060a00160405280868152602001878152602001858152602001888152602001600260003373ffffffffffffffffffffffffffffffffffffffff1673ffffffffffffffffffffffffffffffffffffffff168152602001908152602001600020600001548152506006600083815260200190815260200160002060008201518160000190805190602001906120c4929190614d3f565b5060208201518160010190805190602001906120e1929190614d3f565b5060408201518160020190805190602001906120fe929190614d3f565b50606082015181600301908051906020019061211b929190614d3f565b50608082015181600401559050505b50505050505050565b7f000000000000000000000000000000000000000000000000000000000000000073ffffffffffffffffffffffffffffffffffffffff163373ffffffffffffffffffffffffffffffffffffffff16146121c1576040517f08c379a00000000000000000000000000000000000000000000000000000000081526004016121b890615a4b565b60405180910390fd5b806000806101000a81548173ffffffffffffffffffffffffffffffffffffffff021916908373ffffffffffffffffffffffffffffffffffffffff16021790555050565b33836000600360008381526020019081526020016000206040518060e0016040529081600082015481526020016001820154815260200160028201805461224a90615d78565b80601f016020809104026020016040519081016040528092919081815260200182805461227690615d78565b80156122c35780601f10612298576101008083540402835291602001916122c3565b820191906000526020600020905b8154815290600101906020018083116122a657829003601f168201915b505050505081526020016003820180546122dc90615d78565b80601f016020809104026020016040519081016040528092919081815260200182805461230890615d78565b80156123555780601f1061232a57610100808354040283529160200191612355565b820191906000526020600020905b81548152906001019060200180831161233857829003601f168201915b5050505050815260200160048201805461236e90615d78565b80601f016020809104026020016040519081016040528092919081815260200182805461239a90615d78565b80156123e75780601f106123bc576101008083540402835291602001916123e7565b820191906000526020600020905b8154815290600101906020018083116123ca57829003601f168201915b505050505081526020016005820160009054906101000a900473ffffffffffffffffffffffffffffffffffffffff1673ffffffffffffffffffffffffffffffffffffffff1673ffffffffffffffffffffffffffffffffffffffff16815260200160068201548152505090508060a0015173ffffffffffffffffffffffffffffffffffffffff168373ffffffffffffffffffffffffffffffffffffffff16146124c4576040517f08c379a00000000000000000000000000000000000000000000000000000000081526004016124bb90615a4b565b60405180910390fd5b856000600360008381526020019081526020016000206040518060e0016040529081600082015481526020016001820154815260200160028201805461250990615d78565b80601f016020809104026020016040519081016040528092919081815260200182805461253590615d78565b80156125825780601f1061255757610100808354040283529160200191612582565b820191906000526020600020905b81548152906001019060200180831161256557829003601f168201915b5050505050815260200160038201805461259b90615d78565b80601f01602080910402602001604051908101604052809291908181526020018280546125c790615d78565b80156126145780601f106125e957610100808354040283529160200191612614565b820191906000526020600020905b8154815290600101906020018083116125f757829003601f168201915b5050505050815260200160048201805461262d90615d78565b80601f016020809104026020016040519081016040528092919081815260200182805461265990615d78565b80156126a65780601f1061267b576101008083540402835291602001916126a6565b820191906000526020600020905b81548152906001019060200180831161268957829003601f168201915b505050505081526020016005820160009054906101000a900473ffffffffffffffffffffffffffffffffffffffff1673ffffffffffffffffffffffffffffffffffffffff1673ffffffffffffffffffffffffffffffffffffffff16815260200160068201548152505090506000816020015114612758576040517f08c379a000000000000000000000000000000000000000000000000000000000815260040161274f90615a4b565b60405180910390fd5b6000600460008a81526020019081526020016000208054806020026020016040519081016040528092919081815260200182805480156127b757602002820191906000526020600020905b8154815260200190600101908083116127a3575b50505050509050600081519050878111612806576040517f08c379a00000000000000000000000000000000000000000000000000000000081526004016127fd90615a4b565b60405180910390fd5b88828981518110612840577f4e487b7100000000000000000000000000000000000000000000000000000000600052603260045260246000fd5b602002602001015114612888576040517f08c379a000000000000000000000000000000000000000000000000000000000815260040161287f90615a4b565b60405180910390fd5b6000600360008b815260200190815260200160002060010181905550600460008b815260200190815260200160002088815481106128ef577f4e487b7100000000000000000000000000000000000000000000000000000000600052603260045260246000fd5b906000526020600020016000905550505050505050505050565b600260205280600052604060002060009150905080600001549080600101549080600201805461293890615d78565b80601f016020809104026020016040519081016040528092919081815260200182805461296490615d78565b80156129b15780601f10612986576101008083540402835291602001916129b1565b820191906000526020600020905b81548152906001019060200180831161299457829003601f168201915b5050505050908060030180546129c690615d78565b80601f01602080910402602001604051908101604052809291908181526020018280546129f290615d78565b8015612a3f5780601f10612a1457610100808354040283529160200191612a3f565b820191906000526020600020905b815481529060010190602001808311612a2257829003601f168201915b5050505050905084565b60008060009054906101000a900473ffffffffffffffffffffffffffffffffffffffff1673ffffffffffffffffffffffffffffffffffffffff16631c75cfb46040518163ffffffff1660e01b815260040160206040518083038186803b158015612ab257600080fd5b505afa158015612ac6573d6000803e3d6000fd5b505050506040513d601f19601f82011682018060405250810190612aea91906153d0565b905090565b60046020528160005260406000208181548110612b0b57600080fd5b90600052602060002001600091509150505481565b6006602052806000526040600020600091509050806000018054612b4390615d78565b80601f0160208091040260200160405190810160405280929190818152602001828054612b6f90615d78565b8015612bbc5780601f10612b9157610100808354040283529160200191612bbc565b820191906000526020600020905b815481529060010190602001808311612b9f57829003601f168201915b505050505090806001018054612bd190615d78565b80601f0160208091040260200160405190810160405280929190818152602001828054612bfd90615d78565b8015612c4a5780601f10612c1f57610100808354040283529160200191612c4a565b820191906000526020600020905b815481529060010190602001808311612c2d57829003601f168201915b505050505090806002018054612c5f90615d78565b80601f0160208091040260200160405190810160405280929190818152602001828054612c8b90615d78565b8015612cd85780601f10612cad57610100808354040283529160200191612cd8565b820191906000526020600020905b815481529060010190602001808311612cbb57829003601f168201915b505050505090806003018054612ced90615d78565b80601f0160208091040260200160405190810160405280929190818152602001828054612d1990615d78565b8015612d665780601f10612d3b57610100808354040283529160200191612d66565b820191906000526020600020905b815481529060010190602001808311612d4957829003601f168201915b5050505050908060040154905085565b33846000600360008381526020019081526020016000206040518060e00160405290816000820154815260200160018201548152602001600282018054612dbc90615d78565b80601f0160208091040260200160405190810160405280929190818152602001828054612de890615d78565b8015612e355780601f10612e0a57610100808354040283529160200191612e35565b820191906000526020600020905b815481529060010190602001808311612e1857829003601f168201915b50505050508152602001600382018054612e4e90615d78565b80601f0160208091040260200160405190810160405280929190818152602001828054612e7a90615d78565b8015612ec75780601f10612e9c57610100808354040283529160200191612ec7565b820191906000526020600020905b815481529060010190602001808311612eaa57829003601f168201915b50505050508152602001600482018054612ee090615d78565b80601f0160208091040260200160405190810160405280929190818152602001828054612f0c90615d78565b8015612f595780601f10612f2e57610100808354040283529160200191612f59565b820191906000526020600020905b815481529060010190602001808311612f3c57829003601f168201915b505050505081526020016005820160009054906101000a900473ffffffffffffffffffffffffffffffffffffffff1673ffffffffffffffffffffffffffffffffffffffff1673ffffffffffffffffffffffffffffffffffffffff16815260200160068201548152505090508060a0015173ffffffffffffffffffffffffffffffffffffffff168373ffffffffffffffffffffffffffffffffffffffff1614613036576040517f08c379a000000000000000000000000000000000000000000000000000000000815260040161302d90615a4b565b60405180910390fd5b85600360008981526020019081526020016000206002019080519060200190613060929190614d3f565b508460036000898152602001908152602001600020600301908051906020019061308b929190614d3f565b50836003600089815260200190815260200160002060040190805190602001906130b6929190614d3f565b5050505050505050565b80600260003373ffffffffffffffffffffffffffffffffffffffff1673ffffffffffffffffffffffffffffffffffffffff1681526020019081526020016000206003019080519060200190613116929190614d3f565b5082600260003373ffffffffffffffffffffffffffffffffffffffff1673ffffffffffffffffffffffffffffffffffffffff168152602001908152602001600020600201908051906020019061316d929190614d3f565b5081600260003373ffffffffffffffffffffffffffffffffffffffff1673ffffffffffffffffffffffffffffffffffffffff16815260200190815260200160002060010181905550505050565b60036020528060005260406000206000915090508060000154908060010154908060020180546131e990615d78565b80601f016020809104026020016040519081016040528092919081815260200182805461321590615d78565b80156132625780601f1061323757610100808354040283529160200191613262565b820191906000526020600020905b81548152906001019060200180831161324557829003601f168201915b50505050509080600301805461327790615d78565b80601f01602080910402602001604051908101604052809291908181526020018280546132a390615d78565b80156132f05780601f106132c5576101008083540402835291602001916132f0565b820191906000526020600020905b8154815290600101906020018083116132d357829003601f168201915b50505050509080600401805461330590615d78565b80601f016020809104026020016040519081016040528092919081815260200182805461333190615d78565b801561337e5780601f106133535761010080835404028352916020019161337e565b820191906000526020600020905b81548152906001019060200180831161336157829003601f168201915b5050505050908060050160009054906101000a900473ffffffffffffffffffffffffffffffffffffffff16908060060154905087565b8060008054906101000a900473ffffffffffffffffffffffffffffffffffffffff1673ffffffffffffffffffffffffffffffffffffffff1663342de179826040518263ffffffff1660e01b815260040161340e9190615a8d565b60206040518083038186803b15801561342657600080fd5b505afa15801561343a573d6000803e3d6000fd5b505050506040513d601f19601f8201168201806040525081019061345e91906151ff565b61349d576040517f08c379a000000000000000000000000000000000000000000000000000000000815260040161349490615a4b565b60405180910390fd5b6000600360008481526020019081526020016000206040518060e001604052908160008201548152602001600182015481526020016002820180546134e190615d78565b80601f016020809104026020016040519081016040528092919081815260200182805461350d90615d78565b801561355a5780601f1061352f5761010080835404028352916020019161355a565b820191906000526020600020905b81548152906001019060200180831161353d57829003601f168201915b5050505050815260200160038201805461357390615d78565b80601f016020809104026020016040519081016040528092919081815260200182805461359f90615d78565b80156135ec5780601f106135c1576101008083540402835291602001916135ec565b820191906000526020600020905b8154815290600101906020018083116135cf57829003601f168201915b5050505050815260200160048201805461360590615d78565b80601f016020809104026020016040519081016040528092919081815260200182805461363190615d78565b801561367e5780601f106136535761010080835404028352916020019161367e565b820191906000526020600020905b81548152906001019060200180831161366157829003601f168201915b505050505081526020016005820160009054906101000a900473ffffffffffffffffffffffffffffffffffffffff1673ffffffffffffffffffffffffffffffffffffffff1673ffffffffffffffffffffffffffffffffffffffff16815260200160068201548152505090503373ffffffffffffffffffffffffffffffffffffffff168160a0015173ffffffffffffffffffffffffffffffffffffffff16141561375c576040517f08c379a000000000000000000000000000000000000000000000000000000000815260040161375390615a4b565b60405180910390fd5b600560003373ffffffffffffffffffffffffffffffffffffffff1673ffffffffffffffffffffffffffffffffffffffff168152602001908152602001600020839080600181540180825580915050600190039060005260206000200160009091909190915055505050565b33826000600360008381526020019081526020016000206040518060e0016040529081600082015481526020016001820154815260200160028201805461380d90615d78565b80601f016020809104026020016040519081016040528092919081815260200182805461383990615d78565b80156138865780601f1061385b57610100808354040283529160200191613886565b820191906000526020600020905b81548152906001019060200180831161386957829003601f168201915b5050505050815260200160038201805461389f90615d78565b80601f01602080910402602001604051908101604052809291908181526020018280546138cb90615d78565b80156139185780601f106138ed57610100808354040283529160200191613918565b820191906000526020600020905b8154815290600101906020018083116138fb57829003601f168201915b5050505050815260200160048201805461393190615d78565b80601f016020809104026020016040519081016040528092919081815260200182805461395d90615d78565b80156139aa5780601f1061397f576101008083540402835291602001916139aa565b820191906000526020600020905b81548152906001019060200180831161398d57829003601f168201915b505050505081526020016005820160009054906101000a900473ffffffffffffffffffffffffffffffffffffffff1673ffffffffffffffffffffffffffffffffffffffff1673ffffffffffffffffffffffffffffffffffffffff16815260200160068201548152505090508060a0015173ffffffffffffffffffffffffffffffffffffffff168373ffffffffffffffffffffffffffffffffffffffff1614613a87576040517f08c379a0000000000000000000000000000000000000000000000000000000008152600401613a7e90615a4b565b60405180910390fd5b6000600360008781526020019081526020016000209050600260003373ffffffffffffffffffffffffffffffffffffffff1673ffffffffffffffffffffffffffffffffffffffff1681526020019081526020016000206000015460066000836006015481526020019081526020016000206004015414613b3c576040517f08c379a0000000000000000000000000000000000000000000000000000000008152600401613b3390615a4b565b60405180910390fd5b60005b85811015613b6857613b558260060154336141ca565b8080613b6090615daa565b915050613b3f565b50505050505050565b606060046000838152602001908152602001600020805480602002602001604051908101604052809291908181526020018280548015613bd057602002820191906000526020600020905b815481526020019060010190808311613bbc575b50505050509050919050565b613be4614e26565b6000600360008481526020019081526020016000209050600060066000836006015481526020019081526020016000206040518060a0016040529081600082018054613c2f90615d78565b80601f0160208091040260200160405190810160405280929190818152602001828054613c5b90615d78565b8015613ca85780601f10613c7d57610100808354040283529160200191613ca8565b820191906000526020600020905b815481529060010190602001808311613c8b57829003601f168201915b50505050508152602001600182018054613cc190615d78565b80601f0160208091040260200160405190810160405280929190818152602001828054613ced90615d78565b8015613d3a5780601f10613d0f57610100808354040283529160200191613d3a565b820191906000526020600020905b815481529060010190602001808311613d1d57829003601f168201915b50505050508152602001600282018054613d5390615d78565b80601f0160208091040260200160405190810160405280929190818152602001828054613d7f90615d78565b8015613dcc5780601f10613da157610100808354040283529160200191613dcc565b820191906000526020600020905b815481529060010190602001808311613daf57829003601f168201915b50505050508152602001600382018054613de590615d78565b80601f0160208091040260200160405190810160405280929190818152602001828054613e1190615d78565b8015613e5e5780601f10613e3357610100808354040283529160200191613e5e565b820191906000526020600020905b815481529060010190602001808311613e4157829003601f168201915b505050505081526020016004820154815250509050600060046000868152602001908152602001600020805480602002602001604051908101604052809291908181526020018280548015613ed257602002820191906000526020600020905b815481526020019060010190808311613ebe575b505050505090506040518060600160405280846040518060e00160405290816000820154815260200160018201548152602001600282018054613f1490615d78565b80601f0160208091040260200160405190810160405280929190818152602001828054613f4090615d78565b8015613f8d5780601f10613f6257610100808354040283529160200191613f8d565b820191906000526020600020905b815481529060010190602001808311613f7057829003601f168201915b50505050508152602001600382018054613fa690615d78565b80601f0160208091040260200160405190810160405280929190818152602001828054613fd290615d78565b801561401f5780601f10613ff45761010080835404028352916020019161401f565b820191906000526020600020905b81548152906001019060200180831161400257829003601f168201915b5050505050815260200160048201805461403890615d78565b80601f016020809104026020016040519081016040528092919081815260200182805461406490615d78565b80156140b15780601f10614086576101008083540402835291602001916140b1565b820191906000526020600020905b81548152906001019060200180831161409457829003601f168201915b505050505081526020016005820160009054906101000a900473ffffffffffffffffffffffffffffffffffffffff1673ffffffffffffffffffffffffffffffffffffffff1673ffffffffffffffffffffffffffffffffffffffff1681526020016006820154815250508152602001838152602001828152509350505050919050565b6060600560008373ffffffffffffffffffffffffffffffffffffffff1673ffffffffffffffffffffffffffffffffffffffff1681526020019081526020016000208054806020026020016040519081016040528092919081815260200182805480156141be57602002820191906000526020600020905b8154815260200190600101908083116141aa575b50505050509050919050565b60008054906101000a900473ffffffffffffffffffffffffffffffffffffffff1673ffffffffffffffffffffffffffffffffffffffff16636a627842826040518263ffffffff1660e01b8152600401614223919061599f565b600060405180830381600087803b15801561423d57600080fd5b505af1158015614251573d6000803e3d6000fd5b5050505060008060009054906101000a900473ffffffffffffffffffffffffffffffffffffffff1673ffffffffffffffffffffffffffffffffffffffff16631c75cfb46040518163ffffffff1660e01b815260040160206040518083038186803b1580156142be57600080fd5b505afa1580156142d2573d6000803e3d6000fd5b505050506040513d601f19601f820116820180604052508101906142f691906153d0565b90506040518060e00160405280828152602001600081526020016040518060200160405280600081525081526020016040518060200160405280600081525081526020016040518060200160405280600081525081526020018373ffffffffffffffffffffffffffffffffffffffff1681526020018481525060036000838152602001908152602001600020600082015181600001556020820151816001015560408201518160020190805190602001906143b2929190614d3f565b5060608201518160030190805190602001906143cf929190614d3f565b5060808201518160040190805190602001906143ec929190614d3f565b5060a08201518160050160006101000a81548173ffffffffffffffffffffffffffffffffffffffff021916908373ffffffffffffffffffffffffffffffffffffffff16021790555060c08201518160060155905050505050565b80836000600360008381526020019081526020016000206040518060e0016040529081600082015481526020016001820154815260200160028201805461448c90615d78565b80601f01602080910402602001604051908101604052809291908181526020018280546144b890615d78565b80156145055780601f106144da57610100808354040283529160200191614505565b820191906000526020600020905b8154815290600101906020018083116144e857829003601f168201915b5050505050815260200160038201805461451e90615d78565b80601f016020809104026020016040519081016040528092919081815260200182805461454a90615d78565b80156145975780601f1061456c57610100808354040283529160200191614597565b820191906000526020600020905b81548152906001019060200180831161457a57829003601f168201915b505050505081526020016004820180546145b090615d78565b80601f01602080910402602001604051908101604052809291908181526020018280546145dc90615d78565b80156146295780601f106145fe57610100808354040283529160200191614629565b820191906000526020600020905b81548152906001019060200180831161460c57829003601f168201915b505050505081526020016005820160009054906101000a900473ffffffffffffffffffffffffffffffffffffffff1673ffffffffffffffffffffffffffffffffffffffff1673ffffffffffffffffffffffffffffffffffffffff16815260200160068201548152505090508060a0015173ffffffffffffffffffffffffffffffffffffffff168373ffffffffffffffffffffffffffffffffffffffff1614614706576040517f08c379a00000000000000000000000000000000000000000000000000000000081526004016146fd90615a4b565b60405180910390fd5b83856000600360008381526020019081526020016000206040518060e0016040529081600082015481526020016001820154815260200160028201805461474c90615d78565b80601f016020809104026020016040519081016040528092919081815260200182805461477890615d78565b80156147c55780601f1061479a576101008083540402835291602001916147c5565b820191906000526020600020905b8154815290600101906020018083116147a857829003601f168201915b505050505081526020016003820180546147de90615d78565b80601f016020809104026020016040519081016040528092919081815260200182805461480a90615d78565b80156148575780601f1061482c57610100808354040283529160200191614857565b820191906000526020600020905b81548152906001019060200180831161483a57829003601f168201915b5050505050815260200160048201805461487090615d78565b80601f016020809104026020016040519081016040528092919081815260200182805461489c90615d78565b80156148e95780601f106148be576101008083540402835291602001916148e9565b820191906000526020600020905b8154815290600101906020018083116148cc57829003601f168201915b505050505081526020016005820160009054906101000a900473ffffffffffffffffffffffffffffffffffffffff1673ffffffffffffffffffffffffffffffffffffffff1673ffffffffffffffffffffffffffffffffffffffff16815260200160068201548152505090508060a0015173ffffffffffffffffffffffffffffffffffffffff168373ffffffffffffffffffffffffffffffffffffffff16146149c6576040517f08c379a00000000000000000000000000000000000000000000000000000000081526004016149bd90615a4b565b60405180910390fd5b6000600360008a81526020019081526020016000206040518060e00160405290816000820154815260200160018201548152602001600282018054614a0a90615d78565b80601f0160208091040260200160405190810160405280929190818152602001828054614a3690615d78565b8015614a835780601f10614a5857610100808354040283529160200191614a83565b820191906000526020600020905b815481529060010190602001808311614a6657829003601f168201915b50505050508152602001600382018054614a9c90615d78565b80601f0160208091040260200160405190810160405280929190818152602001828054614ac890615d78565b8015614b155780601f10614aea57610100808354040283529160200191614b15565b820191906000526020600020905b815481529060010190602001808311614af857829003601f168201915b50505050508152602001600482018054614b2e90615d78565b80601f0160208091040260200160405190810160405280929190818152602001828054614b5a90615d78565b8015614ba75780601f10614b7c57610100808354040283529160200191614ba7565b820191906000526020600020905b815481529060010190602001808311614b8a57829003601f168201915b505050505081526020016005820160009054906101000a900473ffffffffffffffffffffffffffffffffffffffff1673ffffffffffffffffffffffffffffffffffffffff1673ffffffffffffffffffffffffffffffffffffffff16815260200160068201548152505090508060a0015173ffffffffffffffffffffffffffffffffffffffff168873ffffffffffffffffffffffffffffffffffffffff1614614c84576040517f08c379a0000000000000000000000000000000000000000000000000000000008152600401614c7b90615a4b565b60405180910390fd5b6000816020015114614ccb576040517f08c379a0000000000000000000000000000000000000000000000000000000008152600401614cc290615a4b565b60405180910390fd5b89600360008b81526020019081526020016000206001018190555050505050505050505050565b828054828255906000526020600020908101928215614d2e579160200282015b82811115614d2d578251825591602001919060010190614d12565b5b509050614d3b9190614e53565b5090565b828054614d4b90615d78565b90600052602060002090601f016020900481019282614d6d5760008555614db4565b82601f10614d8657805160ff1916838001178555614db4565b82800160010185558215614db4579182015b82811115614db3578251825591602001919060010190614d98565b5b509050614dc19190614e53565b5090565b508054614dd190615d78565b6000825580601f10614de35750614e02565b601f016020900490600052602060002090810190614e019190614e53565b5b50565b5080546000825590600052602060002090810190614e239190614e53565b50565b6040518060600160405280614e39614e70565b8152602001614e46614ec6565b8152602001606081525090565b5b80821115614e6c576000816000905550600101614e54565b5090565b6040518060e001604052806000815260200160008152602001606081526020016060815260200160608152602001600073ffffffffffffffffffffffffffffffffffffffff168152602001600080191681525090565b6040518060a0016040528060608152602001606081526020016060815260200160608152602001600081525090565b6000614f08614f0384615bb0565b615b7f565b90508083825260208201905082856020860282011115614f2757600080fd5b60005b85811015614f575781614f3d8882615032565b845260208401935060208301925050600181019050614f2a565b5050509392505050565b6000614f74614f6f84615bdc565b615b7f565b905082815260208101848484011115614f8c57600080fd5b614f97848285615d36565b509392505050565b600081359050614fae81615e9b565b92915050565b600082601f830112614fc557600080fd5b8135614fd5848260208601614ef5565b91505092915050565b600081519050614fed81615eb2565b92915050565b60008135905061500281615ec9565b92915050565b600082601f83011261501957600080fd5b8135615029848260208601614f61565b91505092915050565b60008135905061504181615ee0565b92915050565b60008151905061505681615ee0565b92915050565b60006020828403121561506e57600080fd5b600061507c84828501614f9f565b91505092915050565b60008060006060848603121561509a57600080fd5b60006150a886828701614f9f565b93505060206150b986828701614f9f565b92505060406150ca86828701615032565b9150509250925092565b600080604083850312156150e757600080fd5b60006150f585828601614f9f565b925050602061510685828601615032565b9150509250929050565b600080600080600060a0868803121561512857600080fd5b600086013567ffffffffffffffff81111561514257600080fd5b61514e88828901614fb4565b955050602086013567ffffffffffffffff81111561516b57600080fd5b61517788828901615008565b945050604086013567ffffffffffffffff81111561519457600080fd5b6151a088828901615008565b935050606086013567ffffffffffffffff8111156151bd57600080fd5b6151c988828901615008565b925050608086013567ffffffffffffffff8111156151e657600080fd5b6151f288828901615008565b9150509295509295909350565b60006020828403121561521157600080fd5b600061521f84828501614fde565b91505092915050565b60006020828403121561523a57600080fd5b600061524884828501614ff3565b91505092915050565b600080600080600060a0868803121561526957600080fd5b600086013567ffffffffffffffff81111561528357600080fd5b61528f88828901615008565b955050602086013567ffffffffffffffff8111156152ac57600080fd5b6152b888828901615008565b945050604086013567ffffffffffffffff8111156152d557600080fd5b6152e188828901615008565b935050606086013567ffffffffffffffff8111156152fe57600080fd5b61530a88828901615008565b925050608061531b88828901615032565b9150509295509295909350565b60008060006060848603121561533d57600080fd5b600084013567ffffffffffffffff81111561535757600080fd5b61536386828701615008565b935050602061537486828701615032565b925050604084013567ffffffffffffffff81111561539157600080fd5b61539d86828701615008565b9150509250925092565b6000602082840312156153b957600080fd5b60006153c784828501615032565b91505092915050565b6000602082840312156153e257600080fd5b60006153f084828501615047565b91505092915050565b6000806040838503121561540c57600080fd5b600061541a85828601615032565b925050602083013567ffffffffffffffff81111561543757600080fd5b61544385828601614fb4565b9150509250929050565b6000806000806080858703121561546357600080fd5b600061547187828801615032565b945050602085013567ffffffffffffffff81111561548e57600080fd5b61549a87828801615008565b935050604085013567ffffffffffffffff8111156154b757600080fd5b6154c387828801615008565b925050606085013567ffffffffffffffff8111156154e057600080fd5b6154ec87828801615008565b91505092959194509250565b6000806040838503121561550b57600080fd5b600061551985828601615032565b925050602061552a85828601615032565b9150509250929050565b60008060006060848603121561554957600080fd5b600061555786828701615032565b935050602061556886828701615032565b925050604061557986828701615032565b9150509250925092565b600061558f8383615923565b60208301905092915050565b6155a481615ce4565b82525050565b6155b381615ce4565b82525050565b60006155c482615c1c565b6155ce8185615c3f565b93506155d983615c0c565b8060005b8381101561560a5781516155f18882615583565b97506155fc83615c32565b9250506001810190506155dd565b5085935050505092915050565b600061562282615c1c565b61562c8185615c50565b935061563783615c0c565b8060005b8381101561566857815161564f8882615583565b975061565a83615c32565b92505060018101905061563b565b5085935050505092915050565b61567e81615d02565b82525050565b61568d81615d02565b82525050565b600061569e82615c27565b6156a88185615c61565b93506156b8818560208601615d45565b6156c181615e8a565b840191505092915050565b60006156d782615c27565b6156e18185615c72565b93506156f1818560208601615d45565b6156fa81615e8a565b840191505092915050565b600061571082615c27565b61571a8185615c83565b935061572a818560208601615d45565b80840191505092915050565b6000615743600583615c72565b91507f6572726f720000000000000000000000000000000000000000000000000000006000830152602082019050919050565b6000615783600083615c83565b9150600082019050919050565b600060a08301600083015184820360008601526157ad8282615693565b915050602083015184820360208601526157c78282615693565b915050604083015184820360408601526157e18282615693565b915050606083015184820360608601526157fb8282615693565b91505060808301516158106080860182615923565b508091505092915050565b600060608301600083015184820360008601526158388282615879565b915050602083015184820360208601526158528282615790565b9150506040830151848203604086015261586c82826155b9565b9150508091505092915050565b600060e0830160008301516158916000860182615923565b5060208301516158a46020860182615923565b50604083015184820360408601526158bc8282615693565b915050606083015184820360608601526158d68282615693565b915050608083015184820360808601526158f08282615693565b91505060a083015161590560a086018261559b565b5060c083015161591860c0860182615675565b508091505092915050565b61592c81615d2c565b82525050565b61593b81615d2c565b82525050565b61595261594d82615d2c565b615df3565b82525050565b60006159648284615705565b915081905092915050565b600061597a82615776565b9150819050919050565b60006159908284615941565b60208201915081905092915050565b60006020820190506159b460008301846155aa565b92915050565b600060208201905081810360008301526159d48184615617565b905092915050565b600060a08201905081810360008301526159f681886156cc565b90508181036020830152615a0a81876156cc565b90508181036040830152615a1e81866156cc565b90508181036060830152615a3281856156cc565b9050615a416080830184615932565b9695505050505050565b60006020820190508181036000830152615a6481615736565b9050919050565b60006020820190508181036000830152615a85818461581b565b905092915050565b6000602082019050615aa26000830184615932565b92915050565b6000608082019050615abd6000830187615932565b615aca6020830186615932565b8181036040830152615adc81856156cc565b90508181036060830152615af081846156cc565b905095945050505050565b600060e082019050615b10600083018a615932565b615b1d6020830189615932565b8181036040830152615b2f81886156cc565b90508181036060830152615b4381876156cc565b90508181036080830152615b5781866156cc565b9050615b6660a08301856155aa565b615b7360c0830184615684565b98975050505050505050565b6000604051905081810181811067ffffffffffffffff82111715615ba657615ba5615e5b565b5b8060405250919050565b600067ffffffffffffffff821115615bcb57615bca615e5b565b5b602082029050602081019050919050565b600067ffffffffffffffff821115615bf757615bf6615e5b565b5b601f19601f8301169050602081019050919050565b6000819050602082019050919050565b600081519050919050565b600081519050919050565b6000602082019050919050565b600082825260208201905092915050565b600082825260208201905092915050565b600082825260208201905092915050565b600082825260208201905092915050565b600081905092915050565b6000615c9982615d2c565b9150615ca483615d2c565b9250827fffffffffffffffffffffffffffffffffffffffffffffffffffffffffffffffff03821115615cd957615cd8615dfd565b5b828201905092915050565b6000615cef82615d0c565b9050919050565b60008115159050919050565b6000819050919050565b600073ffffffffffffffffffffffffffffffffffffffff82169050919050565b6000819050919050565b82818337600083830152505050565b60005b83811015615d63578082015181840152602081019050615d48565b83811115615d72576000848401525b50505050565b60006002820490506001821680615d9057607f821691505b60208210811415615da457615da3615e2c565b5b50919050565b6000615db582615d2c565b91507fffffffffffffffffffffffffffffffffffffffffffffffffffffffffffffffff821415615de857615de7615dfd565b5b600182019050919050565b6000819050919050565b7f4e487b7100000000000000000000000000000000000000000000000000000000600052601160045260246000fd5b7f4e487b7100000000000000000000000000000000000000000000000000000000600052602260045260246000fd5b7f4e487b7100000000000000000000000000000000000000000000000000000000600052604160045260246000fd5b6000601f19601f8301169050919050565b615ea481615ce4565b8114615eaf57600080fd5b50565b615ebb81615cf6565b8114615ec657600080fd5b50565b615ed281615d02565b8114615edd57600080fd5b50565b615ee981615d2c565b8114615ef457600080fd5b5056fea264697066735822122045c815e47db8f56e022a403e96cda1f9dddd8b3a4d77afa2d586f999dd5fa7e464736f6c63430008000033",
  "immutableReferences": {
    "36": [
      {
        "length": 32,
        "start": 8501
      }
    ]
  },
  "source": "// SPDX-License-Identifier: GPL-3.0\npragma solidity ^0.8.0;\n\nimport \"./IPMT721.sol\";\n\ncontract PixelsMetavers {\n    IPMT721 private PMT721;\n    address private immutable _owner;\n\n    uint256 amount;\n\n    struct User {\n        uint256 id;\n        uint256 avater;\n        string role;\n        string other;\n    }\n    mapping(address => User) public user;\n\n    struct Material {\n        uint256 id;\n        uint256 compose;\n        string time;\n        string position;\n        string zIndex;\n        address owner;\n        bytes32 data;\n    }\n    mapping(uint256 => Material) public material;\n    mapping(uint256 => uint256[]) public composes;\n    mapping(address => uint256[]) public collection;\n\n    struct BaseInfo {\n        string data;\n        string category;\n        string decode;\n        string name;\n        uint256 userId;\n    }\n    mapping(bytes32 => BaseInfo) public baseInfo;\n\n    struct MaterialInfo {\n        Material material;\n        BaseInfo baseInfo;\n        uint256[] composes;\n    }\n\n    event ComposeEvent(address indexed owner, uint256 indexed id);\n\n    modifier Exist(uint256 id) {\n        require(IPMT721(PMT721).exits(id), \"error\");\n        _;\n    }\n\n    modifier IsUser(address u) {\n        require(user[u].id > 0, \"error\");\n        _;\n    }\n\n    modifier IsOwner(address sender, uint256 id) {\n        Material memory m = material[id];\n        require(sender == m.owner, \"error\");\n        _;\n    }\n\n    modifier NoCompose(uint256 id) {\n        Material memory m = material[id];\n        require(m.compose == 0, \"error\");\n        _;\n    }\n\n    constructor() {\n        _owner = msg.sender;\n    }\n\n    function register() public {\n        require(user[msg.sender].id == 0, \"error\");\n        require(amount <= 1024000, \"error\");\n        user[msg.sender].id = ++amount;\n    }\n\n    function setConfig(\n        string memory role,\n        uint256 id,\n        string memory other\n    ) public {\n        user[msg.sender].other = other;\n        user[msg.sender].role = role;\n        user[msg.sender].avater = id;\n    }\n\n/*     function resetUser(address to) public IsUser(msg.sender) {\n        require(user[to].id == 0, \"error\");\n        User memory u = user[msg.sender];\n        user[to].id = u.id;\n        user[to].role = u.role;\n        user[msg.sender].id = 0;\n        user[msg.sender].role = \"\";\n    } */\n\n    function setConfigMaterial(\n        uint256 id,\n        string memory time,\n        string memory position,\n        string memory zIndex\n    ) public IsOwner(msg.sender, id) {\n        material[id].time = time;\n        material[id].position = position;\n        material[id].zIndex = zIndex;\n    }\n\n    function getMaterialLength() public view returns (uint256) {\n        return IPMT721(PMT721).currentID();\n    }\n\n    function getMaterial(uint256 id) public view returns (MaterialInfo memory) {\n        Material storage m = material[id];\n        BaseInfo memory b = baseInfo[m.data];\n        uint256[] memory c = composes[id];\n        return MaterialInfo(m, b, c);\n    }\n\n    function make(\n        string memory name,\n        string memory category,\n        string memory data,\n        string memory decode,\n        uint256 num\n    ) public IsUser(msg.sender) {\n        bytes32 d = keccak256(abi.encodePacked(data));\n        require(d != keccak256(abi.encodePacked(\"\")), \"error\");\n\n        for (uint256 i; i < num; i++) {\n            _make(d, msg.sender);\n        }\n\n        if (baseInfo[d].userId == 0) {\n            baseInfo[d] = BaseInfo(\n                data,\n                category,\n                decode,\n                name,\n                user[msg.sender].id\n            );\n        }\n    }\n\n    function reMake(uint256 id, uint256 num) public IsOwner(msg.sender, id) {\n        Material storage m = material[id];\n        require(baseInfo[m.data].userId == user[msg.sender].id, \"error\");\n        for (uint256 i; i < num; i++) {\n            _make(m.data, msg.sender);\n        }\n    }\n\n    function _make(bytes32 data, address _sender) private {\n        IPMT721(PMT721).mint(_sender);\n        uint256 id = IPMT721(PMT721).currentID();\n        material[id] = Material(id, 0, \"\", \"\", \"\", _sender, data);\n    }\n\n    function collect(uint256 id) public Exist(id) {\n        Material memory m = material[id];\n        require(m.owner != msg.sender, \"error\");\n        collection[msg.sender].push(id);\n    }\n\n    function cancelCollect(uint256 id, uint256 index) public Exist(id) {\n        uint256[] memory c = collection[msg.sender];\n        require(index < c.length, \"error\");\n        require(c[index] == id, \"error\");\n        delete collection[msg.sender][index];\n    }\n\n    function getCollection(address from)\n        public\n        view\n        returns (uint256[] memory)\n    {\n        return collection[from];\n    }\n\n    function getCompose(uint256 id) public view returns (uint256[] memory) {\n        return composes[id];\n    }\n\n    function compose(\n        uint256[] memory ids,\n        string memory name,\n        string memory category,\n        string memory data,\n        string memory decode\n    ) public IsUser(msg.sender) {\n        uint256 len = ids.length;\n        require(len > 1, \"error\");\n        uint256 curID = IPMT721(PMT721).currentID();\n        uint256 nextID = curID + 1;\n        bytes32 d = keccak256(abi.encodePacked(curID + 1));\n        require(baseInfo[d].userId == 0, \"error\");\n        _make(d, msg.sender);\n        for (uint256 i; i < len; i++) {\n            uint256 id = ids[i];\n            _compose(nextID, id, msg.sender);\n        }\n        composes[nextID] = ids;\n        baseInfo[d] = BaseInfo(\n            data,\n            category,\n            decode,\n            name,\n            user[msg.sender].id\n        );\n        emit ComposeEvent(msg.sender, nextID);\n    }\n\n    function cancelCompose(uint256 ids)\n        public\n        IsOwner(msg.sender, ids)\n        NoCompose(ids)\n    {\n        uint256[] memory c = composes[ids];\n        uint256 len = c.length;\n        require(len > 1, \"error\");\n        for (uint256 i; i < len; i++) {\n            material[c[i]].compose = 0;\n        }\n        IPMT721(PMT721).burn(ids);\n        delete composes[ids];\n    }\n\n    function addition(uint256 ids, uint256[] memory idList)\n        public\n        IsOwner(msg.sender, ids)\n        NoCompose(ids)\n    {\n        uint256[] memory c = composes[ids];\n        require(c.length > 1, \"error\");\n        for (uint256 i; i < idList.length; i++) {\n            uint256 id = idList[i];\n            _compose(ids, id, msg.sender);\n            composes[ids].push(id);\n        }\n    }\n\n    function _compose(\n        uint256 ids,\n        uint256 id,\n        address _sender\n    ) private IsOwner(_sender, ids) IsOwner(_sender, id) {\n        Material memory m = material[id];\n        require(_sender == m.owner, \"error\");\n        require(m.compose == 0, \"error\");\n        material[id].compose = ids;\n    }\n\n    function subtract(\n        uint256 ids,\n        uint256 id,\n        uint256 index\n    ) public IsOwner(msg.sender, ids) NoCompose(ids) {\n        uint256[] memory c = composes[ids];\n        uint256 len = c.length;\n        require(len > index, \"error\");\n        require(c[index] == id, \"error\");\n        material[id].compose = 0;\n        delete composes[ids][index];\n    }\n\n    function setPMT721(address pmt721) public {\n        require(msg.sender == _owner, \"error\");\n        PMT721 = IPMT721(pmt721);\n    }\n\n    function handleTransfer(\n        address from,\n        address to,\n        uint256 id\n    ) public NoCompose(id) {\n        require(msg.sender == address(PMT721), \"error\");\n        if (to == address(0)) {\n            delete material[id];\n        } else if (from != address(0)) {\n            material[id].owner = to;\n        }\n    }\n}\n",
  "sourcePath": "/Users/xiangzhengfeng/Desktop/mine/project/pixels-metaverse-xiang/contracts/PixelsMetavers.sol",
  "compiler": {
    "name": "solc",
    "version": "0.8.0+commit.c7dfd78e.Emscripten.clang"
  },
  "schemaVersion": "3.3.4",
  "updatedAt": "2022-01-07T03:15:56.445Z",
  "networkType": "ethereum",
  "devdoc": {
    "kind": "dev",
    "methods": {},
    "version": 1
  },
  "userdoc": {
    "kind": "user",
    "methods": {},
    "version": 1
  }
}