{
  "contractName": "PixelsMetavers",
  "abi": [
    {
      "inputs": [],
      "stateMutability": "nonpayable",
      "type": "constructor"
    },
    {
      "anonymous": false,
      "inputs": [
        {
          "indexed": true,
          "internalType": "address",
          "name": "owner",
          "type": "address"
        },
        {
          "indexed": true,
          "internalType": "uint256",
          "name": "id",
          "type": "uint256"
        }
      ],
      "name": "ComposeEvent",
      "type": "event"
    },
    {
      "inputs": [],
      "name": "amount",
      "outputs": [
        {
          "internalType": "uint256",
          "name": "",
          "type": "uint256"
        }
      ],
      "stateMutability": "view",
      "type": "function",
      "constant": true
    },
    {
      "inputs": [
        {
          "internalType": "bytes32",
          "name": "",
          "type": "bytes32"
        }
      ],
      "name": "baseInfo",
      "outputs": [
        {
          "internalType": "string",
          "name": "data",
          "type": "string"
        },
        {
          "internalType": "string",
          "name": "category",
          "type": "string"
        },
        {
          "internalType": "string",
          "name": "decode",
          "type": "string"
        },
        {
          "internalType": "string",
          "name": "name",
          "type": "string"
        },
        {
          "internalType": "uint256",
          "name": "userId",
          "type": "uint256"
        }
      ],
      "stateMutability": "view",
      "type": "function",
      "constant": true
    },
    {
      "inputs": [
        {
          "internalType": "address",
          "name": "",
          "type": "address"
        },
        {
          "internalType": "uint256",
          "name": "",
          "type": "uint256"
        }
      ],
      "name": "collection",
      "outputs": [
        {
          "internalType": "uint256",
          "name": "",
          "type": "uint256"
        }
      ],
      "stateMutability": "view",
      "type": "function",
      "constant": true
    },
    {
      "inputs": [
        {
          "internalType": "uint256",
          "name": "",
          "type": "uint256"
        },
        {
          "internalType": "uint256",
          "name": "",
          "type": "uint256"
        }
      ],
      "name": "composes",
      "outputs": [
        {
          "internalType": "uint256",
          "name": "",
          "type": "uint256"
        }
      ],
      "stateMutability": "view",
      "type": "function",
      "constant": true
    },
    {
      "inputs": [
        {
          "internalType": "uint256",
          "name": "",
          "type": "uint256"
        }
      ],
      "name": "material",
      "outputs": [
        {
          "internalType": "uint256",
          "name": "id",
          "type": "uint256"
        },
        {
          "internalType": "uint256",
          "name": "compose",
          "type": "uint256"
        },
        {
          "internalType": "string",
          "name": "time",
          "type": "string"
        },
        {
          "internalType": "string",
          "name": "position",
          "type": "string"
        },
        {
          "internalType": "string",
          "name": "zIndex",
          "type": "string"
        },
        {
          "internalType": "address",
          "name": "owner",
          "type": "address"
        },
        {
          "internalType": "bytes32",
          "name": "data",
          "type": "bytes32"
        }
      ],
      "stateMutability": "view",
      "type": "function",
      "constant": true
    },
    {
      "inputs": [
        {
          "internalType": "address",
          "name": "",
          "type": "address"
        }
      ],
      "name": "user",
      "outputs": [
        {
          "internalType": "uint256",
          "name": "id",
          "type": "uint256"
        },
        {
          "internalType": "uint256",
          "name": "avater",
          "type": "uint256"
        },
        {
          "internalType": "string",
          "name": "role",
          "type": "string"
        },
        {
          "internalType": "string",
          "name": "other",
          "type": "string"
        }
      ],
      "stateMutability": "view",
      "type": "function",
      "constant": true
    },
    {
      "inputs": [],
      "name": "register",
      "outputs": [],
      "stateMutability": "nonpayable",
      "type": "function"
    },
    {
      "inputs": [
        {
          "internalType": "string",
          "name": "role",
          "type": "string"
        },
        {
          "internalType": "uint256",
          "name": "id",
          "type": "uint256"
        },
        {
          "internalType": "string",
          "name": "other",
          "type": "string"
        }
      ],
      "name": "setConfig",
      "outputs": [],
      "stateMutability": "nonpayable",
      "type": "function"
    },
    {
      "inputs": [],
      "name": "getMaterialLength",
      "outputs": [
        {
          "internalType": "uint256",
          "name": "",
          "type": "uint256"
        }
      ],
      "stateMutability": "view",
      "type": "function",
      "constant": true
    },
    {
      "inputs": [
        {
          "internalType": "uint256",
          "name": "id",
          "type": "uint256"
        }
      ],
      "name": "getMaterial",
      "outputs": [
        {
          "components": [
            {
              "components": [
                {
                  "internalType": "uint256",
                  "name": "id",
                  "type": "uint256"
                },
                {
                  "internalType": "uint256",
                  "name": "compose",
                  "type": "uint256"
                },
                {
                  "internalType": "string",
                  "name": "time",
                  "type": "string"
                },
                {
                  "internalType": "string",
                  "name": "position",
                  "type": "string"
                },
                {
                  "internalType": "string",
                  "name": "zIndex",
                  "type": "string"
                },
                {
                  "internalType": "address",
                  "name": "owner",
                  "type": "address"
                },
                {
                  "internalType": "bytes32",
                  "name": "data",
                  "type": "bytes32"
                }
              ],
              "internalType": "struct PixelsMetavers.Material",
              "name": "material",
              "type": "tuple"
            },
            {
              "components": [
                {
                  "internalType": "string",
                  "name": "data",
                  "type": "string"
                },
                {
                  "internalType": "string",
                  "name": "category",
                  "type": "string"
                },
                {
                  "internalType": "string",
                  "name": "decode",
                  "type": "string"
                },
                {
                  "internalType": "string",
                  "name": "name",
                  "type": "string"
                },
                {
                  "internalType": "uint256",
                  "name": "userId",
                  "type": "uint256"
                }
              ],
              "internalType": "struct PixelsMetavers.BaseInfo",
              "name": "baseInfo",
              "type": "tuple"
            },
            {
              "internalType": "uint256[]",
              "name": "composes",
              "type": "uint256[]"
            }
          ],
          "internalType": "struct PixelsMetavers.MaterialInfo",
          "name": "",
          "type": "tuple"
        }
      ],
      "stateMutability": "view",
      "type": "function",
      "constant": true
    },
    {
      "inputs": [
        {
          "internalType": "string",
          "name": "name",
          "type": "string"
        },
        {
          "internalType": "string",
          "name": "category",
          "type": "string"
        },
        {
          "internalType": "string",
          "name": "data",
          "type": "string"
        },
        {
          "internalType": "string",
          "name": "decode",
          "type": "string"
        },
        {
          "internalType": "uint256",
          "name": "num",
          "type": "uint256"
        }
      ],
      "name": "make",
      "outputs": [],
      "stateMutability": "nonpayable",
      "type": "function"
    },
    {
      "inputs": [
        {
          "internalType": "uint256",
          "name": "id",
          "type": "uint256"
        },
        {
          "internalType": "uint256",
          "name": "num",
          "type": "uint256"
        }
      ],
      "name": "reMake",
      "outputs": [],
      "stateMutability": "nonpayable",
      "type": "function"
    },
    {
      "inputs": [
        {
          "internalType": "uint256",
          "name": "id",
          "type": "uint256"
        }
      ],
      "name": "collect",
      "outputs": [],
      "stateMutability": "nonpayable",
      "type": "function"
    },
    {
      "inputs": [
        {
          "internalType": "uint256",
          "name": "id",
          "type": "uint256"
        },
        {
          "internalType": "uint256",
          "name": "index",
          "type": "uint256"
        }
      ],
      "name": "cancelCollect",
      "outputs": [],
      "stateMutability": "nonpayable",
      "type": "function"
    },
    {
      "inputs": [
        {
          "internalType": "address",
          "name": "from",
          "type": "address"
        }
      ],
      "name": "getCollection",
      "outputs": [
        {
          "internalType": "uint256[]",
          "name": "",
          "type": "uint256[]"
        }
      ],
      "stateMutability": "view",
      "type": "function",
      "constant": true
    },
    {
      "inputs": [
        {
          "internalType": "uint256",
          "name": "id",
          "type": "uint256"
        }
      ],
      "name": "getCompose",
      "outputs": [
        {
          "internalType": "uint256[]",
          "name": "",
          "type": "uint256[]"
        }
      ],
      "stateMutability": "view",
      "type": "function",
      "constant": true
    },
    {
      "inputs": [
        {
          "internalType": "uint256[]",
          "name": "ids",
          "type": "uint256[]"
        },
        {
          "internalType": "string",
          "name": "name",
          "type": "string"
        },
        {
          "internalType": "string",
          "name": "category",
          "type": "string"
        },
        {
          "internalType": "string",
          "name": "data",
          "type": "string"
        },
        {
          "internalType": "string",
          "name": "decode",
          "type": "string"
        }
      ],
      "name": "compose",
      "outputs": [],
      "stateMutability": "nonpayable",
      "type": "function"
    },
    {
      "inputs": [
        {
          "internalType": "uint256",
          "name": "ids",
          "type": "uint256"
        }
      ],
      "name": "cancelCompose",
      "outputs": [],
      "stateMutability": "nonpayable",
      "type": "function"
    },
    {
      "inputs": [
        {
          "internalType": "uint256",
          "name": "ids",
          "type": "uint256"
        },
        {
          "internalType": "uint256[]",
          "name": "idList",
          "type": "uint256[]"
        }
      ],
      "name": "addition",
      "outputs": [],
      "stateMutability": "nonpayable",
      "type": "function"
    },
    {
      "inputs": [
        {
          "internalType": "uint256",
          "name": "ids",
          "type": "uint256"
        },
        {
          "internalType": "uint256",
          "name": "id",
          "type": "uint256"
        },
        {
          "internalType": "uint256",
          "name": "index",
          "type": "uint256"
        }
      ],
      "name": "subtract",
      "outputs": [],
      "stateMutability": "nonpayable",
      "type": "function"
    },
    {
      "inputs": [
        {
          "internalType": "address",
          "name": "pmt721",
          "type": "address"
        }
      ],
      "name": "setPMT721",
      "outputs": [],
      "stateMutability": "nonpayable",
      "type": "function"
    },
    {
      "inputs": [
        {
          "internalType": "address",
          "name": "from",
          "type": "address"
        },
        {
          "internalType": "address",
          "name": "to",
          "type": "address"
        },
        {
          "internalType": "uint256",
          "name": "id",
          "type": "uint256"
        }
      ],
      "name": "handleTransfer",
      "outputs": [],
      "stateMutability": "nonpayable",
      "type": "function"
    }
  ],
  "bytecode": "0x60a060405234801561001057600080fd5b503373ffffffffffffffffffffffffffffffffffffffff1660808173ffffffffffffffffffffffffffffffffffffffff1660601b8152505060805160601c615e886200006760003960006121bc0152615e886000f3fe608060405234801561001057600080fd5b50600436106101425760003560e01c806386ad9770116100b8578063c8a000e11161007c578063c8a000e114610350578063ce3f865f14610386578063cfb20619146103a2578063d095a65b146103be578063da6d8909146103ee578063e40de8871461041e57610142565b806386ad977014610294578063a55c7327146102b2578063a683e769146102e2578063aa8c217c14610316578063b0934b111461033457610142565b806354f79db41161010a57806354f79db4146101d557806360f24ff3146101f157806366008bde1461020d578063749aa937146102295780637f9b8dd41461024557806381e7e20e1461026157610142565b8063095c4fef146101475780630ae59f3b146101635780631aa3a008146101935780633cadff091461019d57806346197c9a146101b9575b600080fd5b610161600480360381019061015c9190615116565b61044e565b005b61017d600480360381019061017891906150da565b610850565b60405161018a91906159e8565b60405180910390f35b61019b610881565b005b6101b760048036038101906101b29190615453565b6109ab565b005b6101d360048036038101906101ce919061508b565b610cfb565b005b6101ef60048036038101906101ea91906153ad565b61116e565b005b61020b600480360381019061020691906153ff565b6118a0565b005b61022760048036038101906102229190615257565b611f53565b005b610243600480360381019061023e9190615062565b6121ba565b005b61025f600480360381019061025a919061548f565b61228b565b005b61027b60048036038101906102769190615062565b612990565b60405161028b9493929190615a03565b60405180910390f35b61029c612ad0565b6040516102a991906159e8565b60405180910390f35b6102cc60048036038101906102c79190615453565b612b76565b6040516102d991906159e8565b60405180910390f35b6102fc60048036038101906102f7919061522e565b612ba7565b60405161030d959493929190615937565b60405180910390f35b61031e612dfd565b60405161032b91906159e8565b60405180910390f35b61034e6004803603810190610349919061532e565b612e03565b005b61036a600480360381019061036591906153ad565b6131c0565b60405161037d9796959493929190615a56565b60405180910390f35b6103a0600480360381019061039b91906153ad565b6133ba565b005b6103bc60048036038101906103b79190615453565b6137cd565b005b6103d860048036038101906103d391906153ad565b613b77565b6040516103e59190615915565b60405180910390f35b610408600480360381019061040391906153ad565b613be2565b60405161041591906159c6565b60405180910390f35b61043860048036038101906104339190615062565b614139565b6040516104459190615915565b60405180910390f35b336000600260008373ffffffffffffffffffffffffffffffffffffffff1673ffffffffffffffffffffffffffffffffffffffff16815260200190815260200160002060000154116104d4576040517f08c379a00000000000000000000000000000000000000000000000000000000081526004016104cb906159a6565b60405180910390fd5b6000865190506001811161051d576040517f08c379a0000000000000000000000000000000000000000000000000000000008152600401610514906159a6565b60405180910390fd5b60008060009054906101000a900473ffffffffffffffffffffffffffffffffffffffff1673ffffffffffffffffffffffffffffffffffffffff16631c75cfb46040518163ffffffff1660e01b815260040160206040518083038186803b15801561058657600080fd5b505afa15801561059a573d6000803e3d6000fd5b505050506040513d601f19601f820116820180604052508101906105be91906153d6565b905060006001826105cf9190615be9565b905060006001836105e09190615be9565b6040516020016105f091906158df565b6040516020818303038152906040528051906020012090506000600660008381526020019081526020016000206004015414610661576040517f08c379a0000000000000000000000000000000000000000000000000000000008152600401610658906159a6565b60405180910390fd5b61066b81336141d0565b60005b848110156106da5760008b82815181106106b1577f4e487b7100000000000000000000000000000000000000000000000000000000600052603260045260246000fd5b602002602001015190506106c684823361444c565b5080806106d290615d05565b91505061066e565b5089600460008481526020019081526020016000209080519060200190610702929190614cf8565b506040518060a001604052808881526020018981526020018781526020018a8152602001600260003373ffffffffffffffffffffffffffffffffffffffff1673ffffffffffffffffffffffffffffffffffffffff1681526020019081526020016000206000015481525060066000838152602001908152602001600020600082015181600001908051906020019061079b929190614d45565b5060208201518160010190805190602001906107b8929190614d45565b5060408201518160020190805190602001906107d5929190614d45565b5060608201518160030190805190602001906107f2929190614d45565b5060808201518160040155905050813373ffffffffffffffffffffffffffffffffffffffff167f0c27b09bf948dd198249e0040f4a2ebec1aefbfa12000f76101ca8d1b4b5701060405160405180910390a350505050505050505050565b6005602052816000526040600020818154811061086c57600080fd5b90600052602060002001600091509150505481565b6000600260003373ffffffffffffffffffffffffffffffffffffffff1673ffffffffffffffffffffffffffffffffffffffff1681526020019081526020016000206000015414610906576040517f08c379a00000000000000000000000000000000000000000000000000000000081526004016108fd906159a6565b60405180910390fd5b620fa000600154111561094e576040517f08c379a0000000000000000000000000000000000000000000000000000000008152600401610945906159a6565b60405180910390fd5b60016000815461095d90615d05565b919050819055600260003373ffffffffffffffffffffffffffffffffffffffff1673ffffffffffffffffffffffffffffffffffffffff16815260200190815260200160002060000181905550565b8160008054906101000a900473ffffffffffffffffffffffffffffffffffffffff1673ffffffffffffffffffffffffffffffffffffffff1663342de179826040518263ffffffff1660e01b8152600401610a0591906159e8565b60206040518083038186803b158015610a1d57600080fd5b505afa158015610a31573d6000803e3d6000fd5b505050506040513d601f19601f82011682018060405250810190610a559190615205565b610a94576040517f08c379a0000000000000000000000000000000000000000000000000000000008152600401610a8b906159a6565b60405180910390fd5b82600260003373ffffffffffffffffffffffffffffffffffffffff1673ffffffffffffffffffffffffffffffffffffffff168152602001908152602001600020600101541415610b19576040517f08c379a0000000000000000000000000000000000000000000000000000000008152600401610b10906159a6565b60405180910390fd5b6000600560003373ffffffffffffffffffffffffffffffffffffffff1673ffffffffffffffffffffffffffffffffffffffff168152602001908152602001600020805480602002602001604051908101604052809291908181526020018280548015610ba457602002820191906000526020600020905b815481526020019060010190808311610b90575b5050505050905080518310610bee576040517f08c379a0000000000000000000000000000000000000000000000000000000008152600401610be5906159a6565b60405180910390fd5b83818481518110610c28577f4e487b7100000000000000000000000000000000000000000000000000000000600052603260045260246000fd5b602002602001015114610c70576040517f08c379a0000000000000000000000000000000000000000000000000000000008152600401610c67906159a6565b60405180910390fd5b600560003373ffffffffffffffffffffffffffffffffffffffff1673ffffffffffffffffffffffffffffffffffffffff1681526020019081526020016000208381548110610ce7577f4e487b7100000000000000000000000000000000000000000000000000000000600052603260045260246000fd5b906000526020600020016000905550505050565b806000600360008381526020019081526020016000206040518060e00160405290816000820154815260200160018201548152602001600282018054610d4090615cd3565b80601f0160208091040260200160405190810160405280929190818152602001828054610d6c90615cd3565b8015610db95780601f10610d8e57610100808354040283529160200191610db9565b820191906000526020600020905b815481529060010190602001808311610d9c57829003601f168201915b50505050508152602001600382018054610dd290615cd3565b80601f0160208091040260200160405190810160405280929190818152602001828054610dfe90615cd3565b8015610e4b5780601f10610e2057610100808354040283529160200191610e4b565b820191906000526020600020905b815481529060010190602001808311610e2e57829003601f168201915b50505050508152602001600482018054610e6490615cd3565b80601f0160208091040260200160405190810160405280929190818152602001828054610e9090615cd3565b8015610edd5780601f10610eb257610100808354040283529160200191610edd565b820191906000526020600020905b815481529060010190602001808311610ec057829003601f168201915b505050505081526020016005820160009054906101000a900473ffffffffffffffffffffffffffffffffffffffff1673ffffffffffffffffffffffffffffffffffffffff1673ffffffffffffffffffffffffffffffffffffffff16815260200160068201548152505090506000816020015114610f8f576040517f08c379a0000000000000000000000000000000000000000000000000000000008152600401610f86906159a6565b60405180910390fd5b60008054906101000a900473ffffffffffffffffffffffffffffffffffffffff1673ffffffffffffffffffffffffffffffffffffffff163373ffffffffffffffffffffffffffffffffffffffff161461101d576040517f08c379a0000000000000000000000000000000000000000000000000000000008152600401611014906159a6565b60405180910390fd5b600073ffffffffffffffffffffffffffffffffffffffff168473ffffffffffffffffffffffffffffffffffffffff1614156110dc576003600084815260200190815260200160002060008082016000905560018201600090556002820160006110869190614dcb565b6003820160006110969190614dcb565b6004820160006110a69190614dcb565b6005820160006101000a81549073ffffffffffffffffffffffffffffffffffffffff021916905560068201600090555050611167565b600073ffffffffffffffffffffffffffffffffffffffff168573ffffffffffffffffffffffffffffffffffffffff161461116657836003600085815260200190815260200160002060050160006101000a81548173ffffffffffffffffffffffffffffffffffffffff021916908373ffffffffffffffffffffffffffffffffffffffff1602179055505b5b5050505050565b33816000600360008381526020019081526020016000206040518060e001604052908160008201548152602001600182015481526020016002820180546111b490615cd3565b80601f01602080910402602001604051908101604052809291908181526020018280546111e090615cd3565b801561122d5780601f106112025761010080835404028352916020019161122d565b820191906000526020600020905b81548152906001019060200180831161121057829003601f168201915b5050505050815260200160038201805461124690615cd3565b80601f016020809104026020016040519081016040528092919081815260200182805461127290615cd3565b80156112bf5780601f10611294576101008083540402835291602001916112bf565b820191906000526020600020905b8154815290600101906020018083116112a257829003601f168201915b505050505081526020016004820180546112d890615cd3565b80601f016020809104026020016040519081016040528092919081815260200182805461130490615cd3565b80156113515780601f1061132657610100808354040283529160200191611351565b820191906000526020600020905b81548152906001019060200180831161133457829003601f168201915b505050505081526020016005820160009054906101000a900473ffffffffffffffffffffffffffffffffffffffff1673ffffffffffffffffffffffffffffffffffffffff1673ffffffffffffffffffffffffffffffffffffffff16815260200160068201548152505090508060a0015173ffffffffffffffffffffffffffffffffffffffff168373ffffffffffffffffffffffffffffffffffffffff161461142e576040517f08c379a0000000000000000000000000000000000000000000000000000000008152600401611425906159a6565b60405180910390fd5b836000600360008381526020019081526020016000206040518060e0016040529081600082015481526020016001820154815260200160028201805461147390615cd3565b80601f016020809104026020016040519081016040528092919081815260200182805461149f90615cd3565b80156114ec5780601f106114c1576101008083540402835291602001916114ec565b820191906000526020600020905b8154815290600101906020018083116114cf57829003601f168201915b5050505050815260200160038201805461150590615cd3565b80601f016020809104026020016040519081016040528092919081815260200182805461153190615cd3565b801561157e5780601f106115535761010080835404028352916020019161157e565b820191906000526020600020905b81548152906001019060200180831161156157829003601f168201915b5050505050815260200160048201805461159790615cd3565b80601f01602080910402602001604051908101604052809291908181526020018280546115c390615cd3565b80156116105780601f106115e557610100808354040283529160200191611610565b820191906000526020600020905b8154815290600101906020018083116115f357829003601f168201915b505050505081526020016005820160009054906101000a900473ffffffffffffffffffffffffffffffffffffffff1673ffffffffffffffffffffffffffffffffffffffff1673ffffffffffffffffffffffffffffffffffffffff168152602001600682015481525050905060008160200151146116c2576040517f08c379a00000000000000000000000000000000000000000000000000000000081526004016116b9906159a6565b60405180910390fd5b60006004600088815260200190815260200160002080548060200260200160405190810160405280929190818152602001828054801561172157602002820191906000526020600020905b81548152602001906001019080831161170d575b5050505050905060008151905060018111611771576040517f08c379a0000000000000000000000000000000000000000000000000000000008152600401611768906159a6565b60405180910390fd5b60005b818110156117eb576000600360008584815181106117bb577f4e487b7100000000000000000000000000000000000000000000000000000000600052603260045260246000fd5b602002602001015181526020019081526020016000206001018190555080806117e390615d05565b915050611774565b5060008054906101000a900473ffffffffffffffffffffffffffffffffffffffff1673ffffffffffffffffffffffffffffffffffffffff166342966c68896040518263ffffffff1660e01b815260040161184591906159e8565b600060405180830381600087803b15801561185f57600080fd5b505af1158015611873573d6000803e3d6000fd5b505050506004600089815260200190815260200160002060006118969190614e0b565b5050505050505050565b33826000600360008381526020019081526020016000206040518060e001604052908160008201548152602001600182015481526020016002820180546118e690615cd3565b80601f016020809104026020016040519081016040528092919081815260200182805461191290615cd3565b801561195f5780601f106119345761010080835404028352916020019161195f565b820191906000526020600020905b81548152906001019060200180831161194257829003601f168201915b5050505050815260200160038201805461197890615cd3565b80601f01602080910402602001604051908101604052809291908181526020018280546119a490615cd3565b80156119f15780601f106119c6576101008083540402835291602001916119f1565b820191906000526020600020905b8154815290600101906020018083116119d457829003601f168201915b50505050508152602001600482018054611a0a90615cd3565b80601f0160208091040260200160405190810160405280929190818152602001828054611a3690615cd3565b8015611a835780601f10611a5857610100808354040283529160200191611a83565b820191906000526020600020905b815481529060010190602001808311611a6657829003601f168201915b505050505081526020016005820160009054906101000a900473ffffffffffffffffffffffffffffffffffffffff1673ffffffffffffffffffffffffffffffffffffffff1673ffffffffffffffffffffffffffffffffffffffff16815260200160068201548152505090508060a0015173ffffffffffffffffffffffffffffffffffffffff168373ffffffffffffffffffffffffffffffffffffffff1614611b60576040517f08c379a0000000000000000000000000000000000000000000000000000000008152600401611b57906159a6565b60405180910390fd5b846000600360008381526020019081526020016000206040518060e00160405290816000820154815260200160018201548152602001600282018054611ba590615cd3565b80601f0160208091040260200160405190810160405280929190818152602001828054611bd190615cd3565b8015611c1e5780601f10611bf357610100808354040283529160200191611c1e565b820191906000526020600020905b815481529060010190602001808311611c0157829003601f168201915b50505050508152602001600382018054611c3790615cd3565b80601f0160208091040260200160405190810160405280929190818152602001828054611c6390615cd3565b8015611cb05780601f10611c8557610100808354040283529160200191611cb0565b820191906000526020600020905b815481529060010190602001808311611c9357829003601f168201915b50505050508152602001600482018054611cc990615cd3565b80601f0160208091040260200160405190810160405280929190818152602001828054611cf590615cd3565b8015611d425780601f10611d1757610100808354040283529160200191611d42565b820191906000526020600020905b815481529060010190602001808311611d2557829003601f168201915b505050505081526020016005820160009054906101000a900473ffffffffffffffffffffffffffffffffffffffff1673ffffffffffffffffffffffffffffffffffffffff1673ffffffffffffffffffffffffffffffffffffffff16815260200160068201548152505090506000816020015114611df4576040517f08c379a0000000000000000000000000000000000000000000000000000000008152600401611deb906159a6565b60405180910390fd5b600060046000898152602001908152602001600020805480602002602001604051908101604052809291908181526020018280548015611e5357602002820191906000526020600020905b815481526020019060010190808311611e3f575b505050505090506001815111611e9e576040517f08c379a0000000000000000000000000000000000000000000000000000000008152600401611e95906159a6565b60405180910390fd5b60005b8751811015611f48576000888281518110611ee5577f4e487b7100000000000000000000000000000000000000000000000000000000600052603260045260246000fd5b60200260200101519050611efa8a823361444c565b600460008b8152602001908152602001600020819080600181540180825580915050600190039060005260206000200160009091909190915055508080611f4090615d05565b915050611ea1565b505050505050505050565b336000600260008373ffffffffffffffffffffffffffffffffffffffff1673ffffffffffffffffffffffffffffffffffffffff1681526020019081526020016000206000015411611fd9576040517f08c379a0000000000000000000000000000000000000000000000000000000008152600401611fd0906159a6565b60405180910390fd5b600084604051602001611fec91906158b3565b604051602081830303815290604052805190602001209050604051602001612013906158ca565b6040516020818303038152906040528051906020012081141561206b576040517f08c379a0000000000000000000000000000000000000000000000000000000008152600401612062906159a6565b60405180910390fd5b60005b838110156120935761208082336141d0565b808061208b90615d05565b91505061206e565b506000600660008381526020019081526020016000206004015414156121b1576040518060a00160405280868152602001878152602001858152602001888152602001600260003373ffffffffffffffffffffffffffffffffffffffff1673ffffffffffffffffffffffffffffffffffffffff1681526020019081526020016000206000015481525060066000838152602001908152602001600020600082015181600001908051906020019061214b929190614d45565b506020820151816001019080519060200190612168929190614d45565b506040820151816002019080519060200190612185929190614d45565b5060608201518160030190805190602001906121a2929190614d45565b50608082015181600401559050505b50505050505050565b7f000000000000000000000000000000000000000000000000000000000000000073ffffffffffffffffffffffffffffffffffffffff163373ffffffffffffffffffffffffffffffffffffffff1614612248576040517f08c379a000000000000000000000000000000000000000000000000000000000815260040161223f906159a6565b60405180910390fd5b806000806101000a81548173ffffffffffffffffffffffffffffffffffffffff021916908373ffffffffffffffffffffffffffffffffffffffff16021790555050565b33836000600360008381526020019081526020016000206040518060e001604052908160008201548152602001600182015481526020016002820180546122d190615cd3565b80601f01602080910402602001604051908101604052809291908181526020018280546122fd90615cd3565b801561234a5780601f1061231f5761010080835404028352916020019161234a565b820191906000526020600020905b81548152906001019060200180831161232d57829003601f168201915b5050505050815260200160038201805461236390615cd3565b80601f016020809104026020016040519081016040528092919081815260200182805461238f90615cd3565b80156123dc5780601f106123b1576101008083540402835291602001916123dc565b820191906000526020600020905b8154815290600101906020018083116123bf57829003601f168201915b505050505081526020016004820180546123f590615cd3565b80601f016020809104026020016040519081016040528092919081815260200182805461242190615cd3565b801561246e5780601f106124435761010080835404028352916020019161246e565b820191906000526020600020905b81548152906001019060200180831161245157829003601f168201915b505050505081526020016005820160009054906101000a900473ffffffffffffffffffffffffffffffffffffffff1673ffffffffffffffffffffffffffffffffffffffff1673ffffffffffffffffffffffffffffffffffffffff16815260200160068201548152505090508060a0015173ffffffffffffffffffffffffffffffffffffffff168373ffffffffffffffffffffffffffffffffffffffff161461254b576040517f08c379a0000000000000000000000000000000000000000000000000000000008152600401612542906159a6565b60405180910390fd5b856000600360008381526020019081526020016000206040518060e0016040529081600082015481526020016001820154815260200160028201805461259090615cd3565b80601f01602080910402602001604051908101604052809291908181526020018280546125bc90615cd3565b80156126095780601f106125de57610100808354040283529160200191612609565b820191906000526020600020905b8154815290600101906020018083116125ec57829003601f168201915b5050505050815260200160038201805461262290615cd3565b80601f016020809104026020016040519081016040528092919081815260200182805461264e90615cd3565b801561269b5780601f106126705761010080835404028352916020019161269b565b820191906000526020600020905b81548152906001019060200180831161267e57829003601f168201915b505050505081526020016004820180546126b490615cd3565b80601f01602080910402602001604051908101604052809291908181526020018280546126e090615cd3565b801561272d5780601f106127025761010080835404028352916020019161272d565b820191906000526020600020905b81548152906001019060200180831161271057829003601f168201915b505050505081526020016005820160009054906101000a900473ffffffffffffffffffffffffffffffffffffffff1673ffffffffffffffffffffffffffffffffffffffff1673ffffffffffffffffffffffffffffffffffffffff168152602001600682015481525050905060008160200151146127df576040517f08c379a00000000000000000000000000000000000000000000000000000000081526004016127d6906159a6565b60405180910390fd5b6000600460008a815260200190815260200160002080548060200260200160405190810160405280929190818152602001828054801561283e57602002820191906000526020600020905b81548152602001906001019080831161282a575b5050505050905060008151905087811161288d576040517f08c379a0000000000000000000000000000000000000000000000000000000008152600401612884906159a6565b60405180910390fd5b888289815181106128c7577f4e487b7100000000000000000000000000000000000000000000000000000000600052603260045260246000fd5b60200260200101511461290f576040517f08c379a0000000000000000000000000000000000000000000000000000000008152600401612906906159a6565b60405180910390fd5b6000600360008b815260200190815260200160002060010181905550600460008b81526020019081526020016000208881548110612976577f4e487b7100000000000000000000000000000000000000000000000000000000600052603260045260246000fd5b906000526020600020016000905550505050505050505050565b60026020528060005260406000206000915090508060000154908060010154908060020180546129bf90615cd3565b80601f01602080910402602001604051908101604052809291908181526020018280546129eb90615cd3565b8015612a385780601f10612a0d57610100808354040283529160200191612a38565b820191906000526020600020905b815481529060010190602001808311612a1b57829003601f168201915b505050505090806003018054612a4d90615cd3565b80601f0160208091040260200160405190810160405280929190818152602001828054612a7990615cd3565b8015612ac65780601f10612a9b57610100808354040283529160200191612ac6565b820191906000526020600020905b815481529060010190602001808311612aa957829003601f168201915b5050505050905084565b60008060009054906101000a900473ffffffffffffffffffffffffffffffffffffffff1673ffffffffffffffffffffffffffffffffffffffff16631c75cfb46040518163ffffffff1660e01b815260040160206040518083038186803b158015612b3957600080fd5b505afa158015612b4d573d6000803e3d6000fd5b505050506040513d601f19601f82011682018060405250810190612b7191906153d6565b905090565b60046020528160005260406000208181548110612b9257600080fd5b90600052602060002001600091509150505481565b6006602052806000526040600020600091509050806000018054612bca90615cd3565b80601f0160208091040260200160405190810160405280929190818152602001828054612bf690615cd3565b8015612c435780601f10612c1857610100808354040283529160200191612c43565b820191906000526020600020905b815481529060010190602001808311612c2657829003601f168201915b505050505090806001018054612c5890615cd3565b80601f0160208091040260200160405190810160405280929190818152602001828054612c8490615cd3565b8015612cd15780601f10612ca657610100808354040283529160200191612cd1565b820191906000526020600020905b815481529060010190602001808311612cb457829003601f168201915b505050505090806002018054612ce690615cd3565b80601f0160208091040260200160405190810160405280929190818152602001828054612d1290615cd3565b8015612d5f5780601f10612d3457610100808354040283529160200191612d5f565b820191906000526020600020905b815481529060010190602001808311612d4257829003601f168201915b505050505090806003018054612d7490615cd3565b80601f0160208091040260200160405190810160405280929190818152602001828054612da090615cd3565b8015612ded5780601f10612dc257610100808354040283529160200191612ded565b820191906000526020600020905b815481529060010190602001808311612dd057829003601f168201915b5050505050908060040154905085565b60015481565b33826000600360008381526020019081526020016000206040518060e00160405290816000820154815260200160018201548152602001600282018054612e4990615cd3565b80601f0160208091040260200160405190810160405280929190818152602001828054612e7590615cd3565b8015612ec25780601f10612e9757610100808354040283529160200191612ec2565b820191906000526020600020905b815481529060010190602001808311612ea557829003601f168201915b50505050508152602001600382018054612edb90615cd3565b80601f0160208091040260200160405190810160405280929190818152602001828054612f0790615cd3565b8015612f545780601f10612f2957610100808354040283529160200191612f54565b820191906000526020600020905b815481529060010190602001808311612f3757829003601f168201915b50505050508152602001600482018054612f6d90615cd3565b80601f0160208091040260200160405190810160405280929190818152602001828054612f9990615cd3565b8015612fe65780601f10612fbb57610100808354040283529160200191612fe6565b820191906000526020600020905b815481529060010190602001808311612fc957829003601f168201915b505050505081526020016005820160009054906101000a900473ffffffffffffffffffffffffffffffffffffffff1673ffffffffffffffffffffffffffffffffffffffff1673ffffffffffffffffffffffffffffffffffffffff16815260200160068201548152505090508060a0015173ffffffffffffffffffffffffffffffffffffffff168373ffffffffffffffffffffffffffffffffffffffff16146130c3576040517f08c379a00000000000000000000000000000000000000000000000000000000081526004016130ba906159a6565b60405180910390fd5b83600260003373ffffffffffffffffffffffffffffffffffffffff1673ffffffffffffffffffffffffffffffffffffffff1681526020019081526020016000206003019080519060200190613119929190614d45565b5085600260003373ffffffffffffffffffffffffffffffffffffffff1673ffffffffffffffffffffffffffffffffffffffff1681526020019081526020016000206002019080519060200190613170929190614d45565b5084600260003373ffffffffffffffffffffffffffffffffffffffff1673ffffffffffffffffffffffffffffffffffffffff16815260200190815260200160002060010181905550505050505050565b60036020528060005260406000206000915090508060000154908060010154908060020180546131ef90615cd3565b80601f016020809104026020016040519081016040528092919081815260200182805461321b90615cd3565b80156132685780601f1061323d57610100808354040283529160200191613268565b820191906000526020600020905b81548152906001019060200180831161324b57829003601f168201915b50505050509080600301805461327d90615cd3565b80601f01602080910402602001604051908101604052809291908181526020018280546132a990615cd3565b80156132f65780601f106132cb576101008083540402835291602001916132f6565b820191906000526020600020905b8154815290600101906020018083116132d957829003601f168201915b50505050509080600401805461330b90615cd3565b80601f016020809104026020016040519081016040528092919081815260200182805461333790615cd3565b80156133845780601f1061335957610100808354040283529160200191613384565b820191906000526020600020905b81548152906001019060200180831161336757829003601f168201915b5050505050908060050160009054906101000a900473ffffffffffffffffffffffffffffffffffffffff16908060060154905087565b8060008054906101000a900473ffffffffffffffffffffffffffffffffffffffff1673ffffffffffffffffffffffffffffffffffffffff1663342de179826040518263ffffffff1660e01b815260040161341491906159e8565b60206040518083038186803b15801561342c57600080fd5b505afa158015613440573d6000803e3d6000fd5b505050506040513d601f19601f820116820180604052508101906134649190615205565b6134a3576040517f08c379a000000000000000000000000000000000000000000000000000000000815260040161349a906159a6565b60405180910390fd5b6000600360008481526020019081526020016000206040518060e001604052908160008201548152602001600182015481526020016002820180546134e790615cd3565b80601f016020809104026020016040519081016040528092919081815260200182805461351390615cd3565b80156135605780601f1061353557610100808354040283529160200191613560565b820191906000526020600020905b81548152906001019060200180831161354357829003601f168201915b5050505050815260200160038201805461357990615cd3565b80601f01602080910402602001604051908101604052809291908181526020018280546135a590615cd3565b80156135f25780601f106135c7576101008083540402835291602001916135f2565b820191906000526020600020905b8154815290600101906020018083116135d557829003601f168201915b5050505050815260200160048201805461360b90615cd3565b80601f016020809104026020016040519081016040528092919081815260200182805461363790615cd3565b80156136845780601f1061365957610100808354040283529160200191613684565b820191906000526020600020905b81548152906001019060200180831161366757829003601f168201915b505050505081526020016005820160009054906101000a900473ffffffffffffffffffffffffffffffffffffffff1673ffffffffffffffffffffffffffffffffffffffff1673ffffffffffffffffffffffffffffffffffffffff16815260200160068201548152505090503373ffffffffffffffffffffffffffffffffffffffff168160a0015173ffffffffffffffffffffffffffffffffffffffff161415613762576040517f08c379a0000000000000000000000000000000000000000000000000000000008152600401613759906159a6565b60405180910390fd5b600560003373ffffffffffffffffffffffffffffffffffffffff1673ffffffffffffffffffffffffffffffffffffffff168152602001908152602001600020839080600181540180825580915050600190039060005260206000200160009091909190915055505050565b33826000600360008381526020019081526020016000206040518060e0016040529081600082015481526020016001820154815260200160028201805461381390615cd3565b80601f016020809104026020016040519081016040528092919081815260200182805461383f90615cd3565b801561388c5780601f106138615761010080835404028352916020019161388c565b820191906000526020600020905b81548152906001019060200180831161386f57829003601f168201915b505050505081526020016003820180546138a590615cd3565b80601f01602080910402602001604051908101604052809291908181526020018280546138d190615cd3565b801561391e5780601f106138f35761010080835404028352916020019161391e565b820191906000526020600020905b81548152906001019060200180831161390157829003601f168201915b5050505050815260200160048201805461393790615cd3565b80601f016020809104026020016040519081016040528092919081815260200182805461396390615cd3565b80156139b05780601f10613985576101008083540402835291602001916139b0565b820191906000526020600020905b81548152906001019060200180831161399357829003601f168201915b505050505081526020016005820160009054906101000a900473ffffffffffffffffffffffffffffffffffffffff1673ffffffffffffffffffffffffffffffffffffffff1673ffffffffffffffffffffffffffffffffffffffff16815260200160068201548152505090508060a0015173ffffffffffffffffffffffffffffffffffffffff168373ffffffffffffffffffffffffffffffffffffffff1614613a8d576040517f08c379a0000000000000000000000000000000000000000000000000000000008152600401613a84906159a6565b60405180910390fd5b6000600360008781526020019081526020016000209050600260003373ffffffffffffffffffffffffffffffffffffffff1673ffffffffffffffffffffffffffffffffffffffff1681526020019081526020016000206000015460066000836006015481526020019081526020016000206004015414613b42576040517f08c379a0000000000000000000000000000000000000000000000000000000008152600401613b39906159a6565b60405180910390fd5b60005b85811015613b6e57613b5b8260060154336141d0565b8080613b6690615d05565b915050613b45565b50505050505050565b606060046000838152602001908152602001600020805480602002602001604051908101604052809291908181526020018280548015613bd657602002820191906000526020600020905b815481526020019060010190808311613bc2575b50505050509050919050565b613bea614e2c565b6000600360008481526020019081526020016000209050600060066000836006015481526020019081526020016000206040518060a0016040529081600082018054613c3590615cd3565b80601f0160208091040260200160405190810160405280929190818152602001828054613c6190615cd3565b8015613cae5780601f10613c8357610100808354040283529160200191613cae565b820191906000526020600020905b815481529060010190602001808311613c9157829003601f168201915b50505050508152602001600182018054613cc790615cd3565b80601f0160208091040260200160405190810160405280929190818152602001828054613cf390615cd3565b8015613d405780601f10613d1557610100808354040283529160200191613d40565b820191906000526020600020905b815481529060010190602001808311613d2357829003601f168201915b50505050508152602001600282018054613d5990615cd3565b80601f0160208091040260200160405190810160405280929190818152602001828054613d8590615cd3565b8015613dd25780601f10613da757610100808354040283529160200191613dd2565b820191906000526020600020905b815481529060010190602001808311613db557829003601f168201915b50505050508152602001600382018054613deb90615cd3565b80601f0160208091040260200160405190810160405280929190818152602001828054613e1790615cd3565b8015613e645780601f10613e3957610100808354040283529160200191613e64565b820191906000526020600020905b815481529060010190602001808311613e4757829003601f168201915b505050505081526020016004820154815250509050600060046000868152602001908152602001600020805480602002602001604051908101604052809291908181526020018280548015613ed857602002820191906000526020600020905b815481526020019060010190808311613ec4575b505050505090506040518060600160405280846040518060e00160405290816000820154815260200160018201548152602001600282018054613f1a90615cd3565b80601f0160208091040260200160405190810160405280929190818152602001828054613f4690615cd3565b8015613f935780601f10613f6857610100808354040283529160200191613f93565b820191906000526020600020905b815481529060010190602001808311613f7657829003601f168201915b50505050508152602001600382018054613fac90615cd3565b80601f0160208091040260200160405190810160405280929190818152602001828054613fd890615cd3565b80156140255780601f10613ffa57610100808354040283529160200191614025565b820191906000526020600020905b81548152906001019060200180831161400857829003601f168201915b5050505050815260200160048201805461403e90615cd3565b80601f016020809104026020016040519081016040528092919081815260200182805461406a90615cd3565b80156140b75780601f1061408c576101008083540402835291602001916140b7565b820191906000526020600020905b81548152906001019060200180831161409a57829003601f168201915b505050505081526020016005820160009054906101000a900473ffffffffffffffffffffffffffffffffffffffff1673ffffffffffffffffffffffffffffffffffffffff1673ffffffffffffffffffffffffffffffffffffffff1681526020016006820154815250508152602001838152602001828152509350505050919050565b6060600560008373ffffffffffffffffffffffffffffffffffffffff1673ffffffffffffffffffffffffffffffffffffffff1681526020019081526020016000208054806020026020016040519081016040528092919081815260200182805480156141c457602002820191906000526020600020905b8154815260200190600101908083116141b0575b50505050509050919050565b60008054906101000a900473ffffffffffffffffffffffffffffffffffffffff1673ffffffffffffffffffffffffffffffffffffffff16636a627842826040518263ffffffff1660e01b815260040161422991906158fa565b600060405180830381600087803b15801561424357600080fd5b505af1158015614257573d6000803e3d6000fd5b5050505060008060009054906101000a900473ffffffffffffffffffffffffffffffffffffffff1673ffffffffffffffffffffffffffffffffffffffff16631c75cfb46040518163ffffffff1660e01b815260040160206040518083038186803b1580156142c457600080fd5b505afa1580156142d8573d6000803e3d6000fd5b505050506040513d601f19601f820116820180604052508101906142fc91906153d6565b90506040518060e00160405280828152602001600081526020016040518060200160405280600081525081526020016040518060200160405280600081525081526020016040518060200160405280600081525081526020018373ffffffffffffffffffffffffffffffffffffffff1681526020018481525060036000838152602001908152602001600020600082015181600001556020820151816001015560408201518160020190805190602001906143b8929190614d45565b5060608201518160030190805190602001906143d5929190614d45565b5060808201518160040190805190602001906143f2929190614d45565b5060a08201518160050160006101000a81548173ffffffffffffffffffffffffffffffffffffffff021916908373ffffffffffffffffffffffffffffffffffffffff16021790555060c08201518160060155905050505050565b80836000600360008381526020019081526020016000206040518060e0016040529081600082015481526020016001820154815260200160028201805461449290615cd3565b80601f01602080910402602001604051908101604052809291908181526020018280546144be90615cd3565b801561450b5780601f106144e05761010080835404028352916020019161450b565b820191906000526020600020905b8154815290600101906020018083116144ee57829003601f168201915b5050505050815260200160038201805461452490615cd3565b80601f016020809104026020016040519081016040528092919081815260200182805461455090615cd3565b801561459d5780601f106145725761010080835404028352916020019161459d565b820191906000526020600020905b81548152906001019060200180831161458057829003601f168201915b505050505081526020016004820180546145b690615cd3565b80601f01602080910402602001604051908101604052809291908181526020018280546145e290615cd3565b801561462f5780601f106146045761010080835404028352916020019161462f565b820191906000526020600020905b81548152906001019060200180831161461257829003601f168201915b505050505081526020016005820160009054906101000a900473ffffffffffffffffffffffffffffffffffffffff1673ffffffffffffffffffffffffffffffffffffffff1673ffffffffffffffffffffffffffffffffffffffff16815260200160068201548152505090508060a0015173ffffffffffffffffffffffffffffffffffffffff168373ffffffffffffffffffffffffffffffffffffffff161461470c576040517f08c379a0000000000000000000000000000000000000000000000000000000008152600401614703906159a6565b60405180910390fd5b83856000600360008381526020019081526020016000206040518060e0016040529081600082015481526020016001820154815260200160028201805461475290615cd3565b80601f016020809104026020016040519081016040528092919081815260200182805461477e90615cd3565b80156147cb5780601f106147a0576101008083540402835291602001916147cb565b820191906000526020600020905b8154815290600101906020018083116147ae57829003601f168201915b505050505081526020016003820180546147e490615cd3565b80601f016020809104026020016040519081016040528092919081815260200182805461481090615cd3565b801561485d5780601f106148325761010080835404028352916020019161485d565b820191906000526020600020905b81548152906001019060200180831161484057829003601f168201915b5050505050815260200160048201805461487690615cd3565b80601f01602080910402602001604051908101604052809291908181526020018280546148a290615cd3565b80156148ef5780601f106148c4576101008083540402835291602001916148ef565b820191906000526020600020905b8154815290600101906020018083116148d257829003601f168201915b505050505081526020016005820160009054906101000a900473ffffffffffffffffffffffffffffffffffffffff1673ffffffffffffffffffffffffffffffffffffffff1673ffffffffffffffffffffffffffffffffffffffff16815260200160068201548152505090508060a0015173ffffffffffffffffffffffffffffffffffffffff168373ffffffffffffffffffffffffffffffffffffffff16146149cc576040517f08c379a00000000000000000000000000000000000000000000000000000000081526004016149c3906159a6565b60405180910390fd5b6000600360008a81526020019081526020016000206040518060e00160405290816000820154815260200160018201548152602001600282018054614a1090615cd3565b80601f0160208091040260200160405190810160405280929190818152602001828054614a3c90615cd3565b8015614a895780601f10614a5e57610100808354040283529160200191614a89565b820191906000526020600020905b815481529060010190602001808311614a6c57829003601f168201915b50505050508152602001600382018054614aa290615cd3565b80601f0160208091040260200160405190810160405280929190818152602001828054614ace90615cd3565b8015614b1b5780601f10614af057610100808354040283529160200191614b1b565b820191906000526020600020905b815481529060010190602001808311614afe57829003601f168201915b50505050508152602001600482018054614b3490615cd3565b80601f0160208091040260200160405190810160405280929190818152602001828054614b6090615cd3565b8015614bad5780601f10614b8257610100808354040283529160200191614bad565b820191906000526020600020905b815481529060010190602001808311614b9057829003601f168201915b505050505081526020016005820160009054906101000a900473ffffffffffffffffffffffffffffffffffffffff1673ffffffffffffffffffffffffffffffffffffffff1673ffffffffffffffffffffffffffffffffffffffff16815260200160068201548152505090508060a0015173ffffffffffffffffffffffffffffffffffffffff168873ffffffffffffffffffffffffffffffffffffffff1614614c8a576040517f08c379a0000000000000000000000000000000000000000000000000000000008152600401614c81906159a6565b60405180910390fd5b6000816020015114614cd1576040517f08c379a0000000000000000000000000000000000000000000000000000000008152600401614cc8906159a6565b60405180910390fd5b89600360008b81526020019081526020016000206001018190555050505050505050505050565b828054828255906000526020600020908101928215614d34579160200282015b82811115614d33578251825591602001919060010190614d18565b5b509050614d419190614e59565b5090565b828054614d5190615cd3565b90600052602060002090601f016020900481019282614d735760008555614dba565b82601f10614d8c57805160ff1916838001178555614dba565b82800160010185558215614dba579182015b82811115614db9578251825591602001919060010190614d9e565b5b509050614dc79190614e59565b5090565b508054614dd790615cd3565b6000825580601f10614de95750614e08565b601f016020900490600052602060002090810190614e079190614e59565b5b50565b5080546000825590600052602060002090810190614e299190614e59565b50565b6040518060600160405280614e3f614e76565b8152602001614e4c614ecc565b8152602001606081525090565b5b80821115614e72576000816000905550600101614e5a565b5090565b6040518060e001604052806000815260200160008152602001606081526020016060815260200160608152602001600073ffffffffffffffffffffffffffffffffffffffff168152602001600080191681525090565b6040518060a0016040528060608152602001606081526020016060815260200160608152602001600081525090565b6000614f0e614f0984615b0b565b615ada565b90508083825260208201905082856020860282011115614f2d57600080fd5b60005b85811015614f5d5781614f438882615038565b845260208401935060208301925050600181019050614f30565b5050509392505050565b6000614f7a614f7584615b37565b615ada565b905082815260208101848484011115614f9257600080fd5b614f9d848285615c91565b509392505050565b600081359050614fb481615df6565b92915050565b600082601f830112614fcb57600080fd5b8135614fdb848260208601614efb565b91505092915050565b600081519050614ff381615e0d565b92915050565b60008135905061500881615e24565b92915050565b600082601f83011261501f57600080fd5b813561502f848260208601614f67565b91505092915050565b60008135905061504781615e3b565b92915050565b60008151905061505c81615e3b565b92915050565b60006020828403121561507457600080fd5b600061508284828501614fa5565b91505092915050565b6000806000606084860312156150a057600080fd5b60006150ae86828701614fa5565b93505060206150bf86828701614fa5565b92505060406150d086828701615038565b9150509250925092565b600080604083850312156150ed57600080fd5b60006150fb85828601614fa5565b925050602061510c85828601615038565b9150509250929050565b600080600080600060a0868803121561512e57600080fd5b600086013567ffffffffffffffff81111561514857600080fd5b61515488828901614fba565b955050602086013567ffffffffffffffff81111561517157600080fd5b61517d8882890161500e565b945050604086013567ffffffffffffffff81111561519a57600080fd5b6151a68882890161500e565b935050606086013567ffffffffffffffff8111156151c357600080fd5b6151cf8882890161500e565b925050608086013567ffffffffffffffff8111156151ec57600080fd5b6151f88882890161500e565b9150509295509295909350565b60006020828403121561521757600080fd5b600061522584828501614fe4565b91505092915050565b60006020828403121561524057600080fd5b600061524e84828501614ff9565b91505092915050565b600080600080600060a0868803121561526f57600080fd5b600086013567ffffffffffffffff81111561528957600080fd5b6152958882890161500e565b955050602086013567ffffffffffffffff8111156152b257600080fd5b6152be8882890161500e565b945050604086013567ffffffffffffffff8111156152db57600080fd5b6152e78882890161500e565b935050606086013567ffffffffffffffff81111561530457600080fd5b6153108882890161500e565b925050608061532188828901615038565b9150509295509295909350565b60008060006060848603121561534357600080fd5b600084013567ffffffffffffffff81111561535d57600080fd5b6153698682870161500e565b935050602061537a86828701615038565b925050604084013567ffffffffffffffff81111561539757600080fd5b6153a38682870161500e565b9150509250925092565b6000602082840312156153bf57600080fd5b60006153cd84828501615038565b91505092915050565b6000602082840312156153e857600080fd5b60006153f68482850161504d565b91505092915050565b6000806040838503121561541257600080fd5b600061542085828601615038565b925050602083013567ffffffffffffffff81111561543d57600080fd5b61544985828601614fba565b9150509250929050565b6000806040838503121561546657600080fd5b600061547485828601615038565b925050602061548585828601615038565b9150509250929050565b6000806000606084860312156154a457600080fd5b60006154b286828701615038565b93505060206154c386828701615038565b92505060406154d486828701615038565b9150509250925092565b60006154ea838361587e565b60208301905092915050565b6154ff81615c3f565b82525050565b61550e81615c3f565b82525050565b600061551f82615b77565b6155298185615b9a565b935061553483615b67565b8060005b8381101561556557815161554c88826154de565b975061555783615b8d565b925050600181019050615538565b5085935050505092915050565b600061557d82615b77565b6155878185615bab565b935061559283615b67565b8060005b838110156155c35781516155aa88826154de565b97506155b583615b8d565b925050600181019050615596565b5085935050505092915050565b6155d981615c5d565b82525050565b6155e881615c5d565b82525050565b60006155f982615b82565b6156038185615bbc565b9350615613818560208601615ca0565b61561c81615de5565b840191505092915050565b600061563282615b82565b61563c8185615bcd565b935061564c818560208601615ca0565b61565581615de5565b840191505092915050565b600061566b82615b82565b6156758185615bde565b9350615685818560208601615ca0565b80840191505092915050565b600061569e600583615bcd565b91507f6572726f720000000000000000000000000000000000000000000000000000006000830152602082019050919050565b60006156de600083615bde565b9150600082019050919050565b600060a083016000830151848203600086015261570882826155ee565b9150506020830151848203602086015261572282826155ee565b9150506040830151848203604086015261573c82826155ee565b9150506060830151848203606086015261575682826155ee565b915050608083015161576b608086018261587e565b508091505092915050565b6000606083016000830151848203600086015261579382826157d4565b915050602083015184820360208601526157ad82826156eb565b915050604083015184820360408601526157c78282615514565b9150508091505092915050565b600060e0830160008301516157ec600086018261587e565b5060208301516157ff602086018261587e565b506040830151848203604086015261581782826155ee565b9150506060830151848203606086015261583182826155ee565b9150506080830151848203608086015261584b82826155ee565b91505060a083015161586060a08601826154f6565b5060c083015161587360c08601826155d0565b508091505092915050565b61588781615c87565b82525050565b61589681615c87565b82525050565b6158ad6158a882615c87565b615d4e565b82525050565b60006158bf8284615660565b915081905092915050565b60006158d5826156d1565b9150819050919050565b60006158eb828461589c565b60208201915081905092915050565b600060208201905061590f6000830184615505565b92915050565b6000602082019050818103600083015261592f8184615572565b905092915050565b600060a08201905081810360008301526159518188615627565b905081810360208301526159658187615627565b905081810360408301526159798186615627565b9050818103606083015261598d8185615627565b905061599c608083018461588d565b9695505050505050565b600060208201905081810360008301526159bf81615691565b9050919050565b600060208201905081810360008301526159e08184615776565b905092915050565b60006020820190506159fd600083018461588d565b92915050565b6000608082019050615a18600083018761588d565b615a25602083018661588d565b8181036040830152615a378185615627565b90508181036060830152615a4b8184615627565b905095945050505050565b600060e082019050615a6b600083018a61588d565b615a78602083018961588d565b8181036040830152615a8a8188615627565b90508181036060830152615a9e8187615627565b90508181036080830152615ab28186615627565b9050615ac160a0830185615505565b615ace60c08301846155df565b98975050505050505050565b6000604051905081810181811067ffffffffffffffff82111715615b0157615b00615db6565b5b8060405250919050565b600067ffffffffffffffff821115615b2657615b25615db6565b5b602082029050602081019050919050565b600067ffffffffffffffff821115615b5257615b51615db6565b5b601f19601f8301169050602081019050919050565b6000819050602082019050919050565b600081519050919050565b600081519050919050565b6000602082019050919050565b600082825260208201905092915050565b600082825260208201905092915050565b600082825260208201905092915050565b600082825260208201905092915050565b600081905092915050565b6000615bf482615c87565b9150615bff83615c87565b9250827fffffffffffffffffffffffffffffffffffffffffffffffffffffffffffffffff03821115615c3457615c33615d58565b5b828201905092915050565b6000615c4a82615c67565b9050919050565b60008115159050919050565b6000819050919050565b600073ffffffffffffffffffffffffffffffffffffffff82169050919050565b6000819050919050565b82818337600083830152505050565b60005b83811015615cbe578082015181840152602081019050615ca3565b83811115615ccd576000848401525b50505050565b60006002820490506001821680615ceb57607f821691505b60208210811415615cff57615cfe615d87565b5b50919050565b6000615d1082615c87565b91507fffffffffffffffffffffffffffffffffffffffffffffffffffffffffffffffff821415615d4357615d42615d58565b5b600182019050919050565b6000819050919050565b7f4e487b7100000000000000000000000000000000000000000000000000000000600052601160045260246000fd5b7f4e487b7100000000000000000000000000000000000000000000000000000000600052602260045260246000fd5b7f4e487b7100000000000000000000000000000000000000000000000000000000600052604160045260246000fd5b6000601f19601f8301169050919050565b615dff81615c3f565b8114615e0a57600080fd5b50565b615e1681615c51565b8114615e2157600080fd5b50565b615e2d81615c5d565b8114615e3857600080fd5b50565b615e4481615c87565b8114615e4f57600080fd5b5056fea2646970667358221220604bdc7dd6c9d263dee06756e3342cbaeaf8c30980d78d4e3d59bcf5e450c30f64736f6c63430008000033",
  "immutableReferences": {
    "36": [
      {
        "length": 32,
        "start": 8636
      }
    ]
  },
  "source": "// SPDX-License-Identifier: GPL-3.0\npragma solidity ^0.8.0;\n\nimport \"./IPMT721.sol\";\n\ncontract PixelsMetavers {\n    IPMT721 private PMT721;\n    address private immutable _owner;\n\n    uint256 public amount;\n\n    struct User {\n        uint256 id;\n        uint256 avater;\n        string role;\n        string other;\n    }\n    mapping(address => User) public user;\n\n    struct Material {\n        uint256 id;\n        uint256 compose;\n        string time;\n        string position;\n        string zIndex;\n        address owner;\n        bytes32 data;\n    }\n    mapping(uint256 => Material) public material;\n    mapping(uint256 => uint256[]) public composes;\n    mapping(address => uint256[]) public collection;\n\n    struct BaseInfo {\n        string data;\n        string category;\n        string decode;\n        string name;\n        uint256 userId;\n    }\n    mapping(bytes32 => BaseInfo) public baseInfo;\n\n    struct MaterialInfo {\n        Material material;\n        BaseInfo baseInfo;\n        uint256[] composes;\n    }\n\n    event ComposeEvent(address indexed owner, uint256 indexed id);\n\n    modifier Exist(uint256 id) {\n        require(IPMT721(PMT721).exits(id), \"error\");\n        _;\n    }\n\n    modifier IsUser(address u) {\n        require(user[u].id > 0, \"error\");\n        _;\n    }\n\n    modifier IsOwner(address sender, uint256 id) {\n        Material memory m = material[id];\n        require(sender == m.owner, \"error\");\n        _;\n    }\n\n    modifier NoCompose(uint256 id) {\n        Material memory m = material[id];\n        require(m.compose == 0, \"error\");\n        _;\n    }\n\n    constructor() {\n        _owner = msg.sender;\n    }\n\n    function register() public {\n        require(user[msg.sender].id == 0, \"error\");\n        require(amount <= 1024000, \"error\");\n        user[msg.sender].id = ++amount;\n    }\n\n    function setConfig(\n        string memory role,\n        uint256 id,\n        string memory other\n    ) public IsOwner(msg.sender, id) {\n        user[msg.sender].other = other;\n        user[msg.sender].role = role;\n        user[msg.sender].avater = id;\n    }\n\n    /*     function resetUser(address to) public IsUser(msg.sender) {\n        require(user[to].id == 0, \"error\");\n        User memory u = user[msg.sender];\n        user[to].id = u.id;\n        user[to].role = u.role;\n        user[msg.sender].id = 0;\n        user[msg.sender].role = \"\";\n    } */\n\n    /* function setConfigMaterial(\n        uint256 id,\n        string memory time,\n        string memory position,\n        string memory zIndex\n    ) public IsOwner(msg.sender, id) {\n        material[id].time = time;\n        material[id].position = position;\n        material[id].zIndex = zIndex;\n    } */\n\n    function getMaterialLength() public view returns (uint256) {\n        return IPMT721(PMT721).currentID();\n    }\n\n    function getMaterial(uint256 id) public view returns (MaterialInfo memory) {\n        Material storage m = material[id];\n        BaseInfo memory b = baseInfo[m.data];\n        uint256[] memory c = composes[id];\n        return MaterialInfo(m, b, c);\n    }\n\n    function make(\n        string memory name,\n        string memory category,\n        string memory data,\n        string memory decode,\n        uint256 num\n    ) public IsUser(msg.sender) {\n        bytes32 d = keccak256(abi.encodePacked(data));\n        require(d != keccak256(abi.encodePacked(\"\")), \"error\");\n\n        for (uint256 i; i < num; i++) {\n            _make(d, msg.sender);\n        }\n\n        if (baseInfo[d].userId == 0) {\n            baseInfo[d] = BaseInfo(\n                data,\n                category,\n                decode,\n                name,\n                user[msg.sender].id\n            );\n        }\n    }\n\n    function reMake(uint256 id, uint256 num) public IsOwner(msg.sender, id) {\n        Material storage m = material[id];\n        require(baseInfo[m.data].userId == user[msg.sender].id, \"error\");\n        for (uint256 i; i < num; i++) {\n            _make(m.data, msg.sender);\n        }\n    }\n\n    function _make(bytes32 data, address _sender) private {\n        IPMT721(PMT721).mint(_sender);\n        uint256 id = IPMT721(PMT721).currentID();\n        material[id] = Material(id, 0, \"\", \"\", \"\", _sender, data);\n    }\n\n    function collect(uint256 id) public Exist(id) {\n        Material memory m = material[id];\n        require(m.owner != msg.sender, \"error\");\n        collection[msg.sender].push(id);\n    }\n\n    function cancelCollect(uint256 id, uint256 index) public Exist(id) {\n        require(user[msg.sender].avater != id, \"error\");\n        uint256[] memory c = collection[msg.sender];\n        require(index < c.length, \"error\");\n        require(c[index] == id, \"error\");\n        delete collection[msg.sender][index];\n    }\n\n    function getCollection(address from)\n        public\n        view\n        returns (uint256[] memory)\n    {\n        return collection[from];\n    }\n\n    function getCompose(uint256 id) public view returns (uint256[] memory) {\n        return composes[id];\n    }\n\n    function compose(\n        uint256[] memory ids,\n        string memory name,\n        string memory category,\n        string memory data,\n        string memory decode\n    ) public IsUser(msg.sender) {\n        uint256 len = ids.length;\n        require(len > 1, \"error\");\n        uint256 curID = IPMT721(PMT721).currentID();\n        uint256 nextID = curID + 1;\n        bytes32 d = keccak256(abi.encodePacked(curID + 1));\n        require(baseInfo[d].userId == 0, \"error\");\n        _make(d, msg.sender);\n        for (uint256 i; i < len; i++) {\n            uint256 id = ids[i];\n            _compose(nextID, id, msg.sender);\n        }\n        composes[nextID] = ids;\n        baseInfo[d] = BaseInfo(\n            data,\n            category,\n            decode,\n            name,\n            user[msg.sender].id\n        );\n        emit ComposeEvent(msg.sender, nextID);\n    }\n\n    function cancelCompose(uint256 ids)\n        public\n        IsOwner(msg.sender, ids)\n        NoCompose(ids)\n    {\n        uint256[] memory c = composes[ids];\n        uint256 len = c.length;\n        require(len > 1, \"error\");\n        for (uint256 i; i < len; i++) {\n            material[c[i]].compose = 0;\n        }\n        IPMT721(PMT721).burn(ids);\n        delete composes[ids];\n    }\n\n    function addition(uint256 ids, uint256[] memory idList)\n        public\n        IsOwner(msg.sender, ids)\n        NoCompose(ids)\n    {\n        uint256[] memory c = composes[ids];\n        require(c.length > 1, \"error\");\n        for (uint256 i; i < idList.length; i++) {\n            uint256 id = idList[i];\n            _compose(ids, id, msg.sender);\n            composes[ids].push(id);\n        }\n    }\n\n    function _compose(\n        uint256 ids,\n        uint256 id,\n        address _sender\n    ) private IsOwner(_sender, ids) IsOwner(_sender, id) {\n        Material memory m = material[id];\n        require(_sender == m.owner, \"error\");\n        require(m.compose == 0, \"error\");\n        material[id].compose = ids;\n    }\n\n    function subtract(\n        uint256 ids,\n        uint256 id,\n        uint256 index\n    ) public IsOwner(msg.sender, ids) NoCompose(ids) {\n        uint256[] memory c = composes[ids];\n        uint256 len = c.length;\n        require(len > index, \"error\");\n        require(c[index] == id, \"error\");\n        material[id].compose = 0;\n        delete composes[ids][index];\n    }\n\n    function setPMT721(address pmt721) public {\n        require(msg.sender == _owner, \"error\");\n        PMT721 = IPMT721(pmt721);\n    }\n\n    function handleTransfer(\n        address from,\n        address to,\n        uint256 id\n    ) public NoCompose(id) {\n        require(msg.sender == address(PMT721), \"error\");\n        if (to == address(0)) {\n            delete material[id];\n        } else if (from != address(0)) {\n            material[id].owner = to;\n        }\n    }\n}\n",
  "sourcePath": "/Users/xiangzhengfeng/Desktop/mine/project/pixels-metaverse-main/contracts/PixelsMetavers.sol",
  "compiler": {
    "name": "solc",
    "version": "0.8.0+commit.c7dfd78e.Emscripten.clang"
  },
  "schemaVersion": "3.3.4",
  "updatedAt": "2022-01-09T08:48:15.796Z",
  "networkType": "ethereum",
  "devdoc": {
    "kind": "dev",
    "methods": {},
    "version": 1
  },
  "userdoc": {
    "kind": "user",
    "methods": {},
    "version": 1
  }
}