{
  "contractName": "PixelsMetavers",
  "abi": [
    {
      "inputs": [],
      "stateMutability": "nonpayable",
      "type": "constructor"
    },
    {
      "inputs": [
        {
          "internalType": "bytes32",
          "name": "",
          "type": "bytes32"
        }
      ],
      "name": "baseInfo",
      "outputs": [
        {
          "internalType": "string",
          "name": "data",
          "type": "string"
        },
        {
          "internalType": "string",
          "name": "category",
          "type": "string"
        },
        {
          "internalType": "string",
          "name": "decode",
          "type": "string"
        },
        {
          "internalType": "string",
          "name": "name",
          "type": "string"
        },
        {
          "internalType": "uint256",
          "name": "userId",
          "type": "uint256"
        }
      ],
      "stateMutability": "view",
      "type": "function",
      "constant": true
    },
    {
      "inputs": [
        {
          "internalType": "address",
          "name": "",
          "type": "address"
        },
        {
          "internalType": "uint256",
          "name": "",
          "type": "uint256"
        }
      ],
      "name": "collection",
      "outputs": [
        {
          "internalType": "uint256",
          "name": "",
          "type": "uint256"
        }
      ],
      "stateMutability": "view",
      "type": "function",
      "constant": true
    },
    {
      "inputs": [
        {
          "internalType": "uint256",
          "name": "",
          "type": "uint256"
        },
        {
          "internalType": "uint256",
          "name": "",
          "type": "uint256"
        }
      ],
      "name": "composes",
      "outputs": [
        {
          "internalType": "uint256",
          "name": "",
          "type": "uint256"
        }
      ],
      "stateMutability": "view",
      "type": "function",
      "constant": true
    },
    {
      "inputs": [
        {
          "internalType": "uint256",
          "name": "",
          "type": "uint256"
        }
      ],
      "name": "material",
      "outputs": [
        {
          "internalType": "uint256",
          "name": "id",
          "type": "uint256"
        },
        {
          "internalType": "uint16",
          "name": "time",
          "type": "uint16"
        },
        {
          "internalType": "uint16",
          "name": "position",
          "type": "uint16"
        },
        {
          "internalType": "uint16",
          "name": "zIndex",
          "type": "uint16"
        },
        {
          "internalType": "uint16",
          "name": "isCompose",
          "type": "uint16"
        },
        {
          "internalType": "address",
          "name": "owner",
          "type": "address"
        },
        {
          "internalType": "bytes32",
          "name": "data",
          "type": "bytes32"
        }
      ],
      "stateMutability": "view",
      "type": "function",
      "constant": true
    },
    {
      "inputs": [
        {
          "internalType": "address",
          "name": "",
          "type": "address"
        }
      ],
      "name": "user",
      "outputs": [
        {
          "internalType": "uint256",
          "name": "id",
          "type": "uint256"
        },
        {
          "internalType": "uint256",
          "name": "avater",
          "type": "uint256"
        },
        {
          "internalType": "string",
          "name": "role",
          "type": "string"
        },
        {
          "internalType": "string",
          "name": "other",
          "type": "string"
        }
      ],
      "stateMutability": "view",
      "type": "function",
      "constant": true
    },
    {
      "inputs": [],
      "name": "register",
      "outputs": [],
      "stateMutability": "nonpayable",
      "type": "function"
    },
    {
      "inputs": [
        {
          "internalType": "string",
          "name": "other",
          "type": "string"
        }
      ],
      "name": "setConfig",
      "outputs": [],
      "stateMutability": "nonpayable",
      "type": "function"
    },
    {
      "inputs": [
        {
          "internalType": "string",
          "name": "role",
          "type": "string"
        }
      ],
      "name": "setRole",
      "outputs": [],
      "stateMutability": "nonpayable",
      "type": "function"
    },
    {
      "inputs": [
        {
          "internalType": "uint256",
          "name": "id",
          "type": "uint256"
        }
      ],
      "name": "setAvater",
      "outputs": [],
      "stateMutability": "nonpayable",
      "type": "function"
    },
    {
      "inputs": [
        {
          "internalType": "address",
          "name": "to",
          "type": "address"
        }
      ],
      "name": "resetUser",
      "outputs": [],
      "stateMutability": "nonpayable",
      "type": "function"
    },
    {
      "inputs": [],
      "name": "getMaterialLength",
      "outputs": [
        {
          "internalType": "uint256",
          "name": "",
          "type": "uint256"
        }
      ],
      "stateMutability": "view",
      "type": "function",
      "constant": true
    },
    {
      "inputs": [
        {
          "internalType": "uint256",
          "name": "id",
          "type": "uint256"
        }
      ],
      "name": "getMaterial",
      "outputs": [
        {
          "components": [
            {
              "components": [
                {
                  "internalType": "uint256",
                  "name": "id",
                  "type": "uint256"
                },
                {
                  "internalType": "uint16",
                  "name": "time",
                  "type": "uint16"
                },
                {
                  "internalType": "uint16",
                  "name": "position",
                  "type": "uint16"
                },
                {
                  "internalType": "uint16",
                  "name": "zIndex",
                  "type": "uint16"
                },
                {
                  "internalType": "uint16",
                  "name": "isCompose",
                  "type": "uint16"
                },
                {
                  "internalType": "address",
                  "name": "owner",
                  "type": "address"
                },
                {
                  "internalType": "bytes32",
                  "name": "data",
                  "type": "bytes32"
                }
              ],
              "internalType": "struct PixelsMetavers.Material",
              "name": "material",
              "type": "tuple"
            },
            {
              "components": [
                {
                  "internalType": "string",
                  "name": "data",
                  "type": "string"
                },
                {
                  "internalType": "string",
                  "name": "category",
                  "type": "string"
                },
                {
                  "internalType": "string",
                  "name": "decode",
                  "type": "string"
                },
                {
                  "internalType": "string",
                  "name": "name",
                  "type": "string"
                },
                {
                  "internalType": "uint256",
                  "name": "userId",
                  "type": "uint256"
                }
              ],
              "internalType": "struct PixelsMetavers.BaseInfo",
              "name": "baseInfo",
              "type": "tuple"
            }
          ],
          "internalType": "struct PixelsMetavers.MaterialInfo",
          "name": "",
          "type": "tuple"
        }
      ],
      "stateMutability": "view",
      "type": "function",
      "constant": true
    },
    {
      "inputs": [
        {
          "internalType": "string",
          "name": "name",
          "type": "string"
        },
        {
          "internalType": "string",
          "name": "category",
          "type": "string"
        },
        {
          "internalType": "string",
          "name": "data",
          "type": "string"
        },
        {
          "internalType": "string",
          "name": "decode",
          "type": "string"
        },
        {
          "internalType": "uint16",
          "name": "time",
          "type": "uint16"
        },
        {
          "internalType": "uint16",
          "name": "postion",
          "type": "uint16"
        },
        {
          "internalType": "uint16",
          "name": "zIndex",
          "type": "uint16"
        },
        {
          "internalType": "uint256",
          "name": "num",
          "type": "uint256"
        }
      ],
      "name": "make",
      "outputs": [],
      "stateMutability": "nonpayable",
      "type": "function"
    },
    {
      "inputs": [
        {
          "internalType": "uint256",
          "name": "id",
          "type": "uint256"
        },
        {
          "internalType": "uint256",
          "name": "num",
          "type": "uint256"
        }
      ],
      "name": "reMake",
      "outputs": [],
      "stateMutability": "nonpayable",
      "type": "function"
    },
    {
      "inputs": [
        {
          "internalType": "uint256",
          "name": "id",
          "type": "uint256"
        }
      ],
      "name": "collect",
      "outputs": [],
      "stateMutability": "payable",
      "type": "function",
      "payable": true
    },
    {
      "inputs": [
        {
          "internalType": "uint256",
          "name": "index",
          "type": "uint256"
        }
      ],
      "name": "cancelCollect",
      "outputs": [],
      "stateMutability": "nonpayable",
      "type": "function"
    },
    {
      "inputs": [
        {
          "internalType": "uint256[]",
          "name": "ids",
          "type": "uint256[]"
        }
      ],
      "name": "compose",
      "outputs": [],
      "stateMutability": "nonpayable",
      "type": "function"
    },
    {
      "inputs": [
        {
          "internalType": "uint256",
          "name": "id",
          "type": "uint256"
        }
      ],
      "name": "cancelCompose",
      "outputs": [],
      "stateMutability": "nonpayable",
      "type": "function"
    },
    {
      "inputs": [
        {
          "internalType": "uint256",
          "name": "id",
          "type": "uint256"
        },
        {
          "internalType": "uint16",
          "name": "time",
          "type": "uint16"
        }
      ],
      "name": "setTime",
      "outputs": [],
      "stateMutability": "nonpayable",
      "type": "function"
    },
    {
      "inputs": [
        {
          "internalType": "uint256",
          "name": "id",
          "type": "uint256"
        },
        {
          "internalType": "uint16",
          "name": "position",
          "type": "uint16"
        }
      ],
      "name": "setPosition",
      "outputs": [],
      "stateMutability": "nonpayable",
      "type": "function"
    },
    {
      "inputs": [
        {
          "internalType": "uint256",
          "name": "id",
          "type": "uint256"
        },
        {
          "internalType": "uint16",
          "name": "zIndex",
          "type": "uint16"
        }
      ],
      "name": "setZindex",
      "outputs": [],
      "stateMutability": "nonpayable",
      "type": "function"
    },
    {
      "inputs": [
        {
          "internalType": "uint256",
          "name": "ids",
          "type": "uint256"
        },
        {
          "internalType": "uint256",
          "name": "id",
          "type": "uint256"
        }
      ],
      "name": "subjion",
      "outputs": [],
      "stateMutability": "nonpayable",
      "type": "function"
    },
    {
      "inputs": [
        {
          "internalType": "uint256",
          "name": "ids",
          "type": "uint256"
        },
        {
          "internalType": "uint256",
          "name": "index",
          "type": "uint256"
        }
      ],
      "name": "subtract",
      "outputs": [],
      "stateMutability": "nonpayable",
      "type": "function"
    },
    {
      "inputs": [
        {
          "internalType": "address",
          "name": "pmt721",
          "type": "address"
        }
      ],
      "name": "setPMT721",
      "outputs": [],
      "stateMutability": "nonpayable",
      "type": "function"
    },
    {
      "inputs": [
        {
          "internalType": "address",
          "name": "from",
          "type": "address"
        },
        {
          "internalType": "address",
          "name": "to",
          "type": "address"
        },
        {
          "internalType": "uint256",
          "name": "tokenId",
          "type": "uint256"
        }
      ],
      "name": "transfer",
      "outputs": [],
      "stateMutability": "nonpayable",
      "type": "function"
    }
  ],
  "bytecode": "0x60a060405234801561001057600080fd5b503373ffffffffffffffffffffffffffffffffffffffff1660808173ffffffffffffffffffffffffffffffffffffffff1660601b8152505060805160601c615a1962000067600039600061298a0152615a196000f3fe6080604052600436106101665760003560e01c806386ad9770116100d1578063a683e7691161008a578063ce3f865f11610064578063ce3f865f14610529578063cfb2061914610545578063d11db0101461056e578063da6d89091461059757610166565b8063a683e7691461047c578063beabacc8146104bd578063c8a000e1146104e657610166565b806386ad9770146103705780638e0cfbc21461039b57806394dcc17e146103c4578063a55c7327146103ed578063a5bd62c61461042a578063a5d701a81461045357610166565b80633ef5e445116101235780633ef5e4451461026357806354f79db41461028c578063628bf07d146102b5578063749aa937146102de5780637ce569961461030757806381e7e20e1461033057610166565b80630ae59f3b1461016b57806311719fed146101a85780631aa3a008146101d157806326dabbfb146101e8578063310e4fa414610211578063343959b41461023a575b600080fd5b34801561017757600080fd5b50610192600480360381019061018d9190614b08565b6105d4565b60405161019f9190615609565b60405180910390f35b3480156101b457600080fd5b506101cf60048036038101906101ca9190614db8565b610605565b005b3480156101dd57600080fd5b506101e6610d58565b005b3480156101f457600080fd5b5061020f600480360381019061020a9190614b44565b610e88565b005b34801561021d57600080fd5b5061023860048036038101906102339190614d7c565b611462565b005b34801561024657600080fd5b50610261600480360381019061025c9190614a90565b611704565b005b34801561026f57600080fd5b5061028a60048036038101906102859190614db8565b6119b9565b005b34801561029857600080fd5b506102b360048036038101906102ae9190614d2a565b611dad565b005b3480156102c157600080fd5b506102dc60048036038101906102d79190614c18565b6124db565b005b3480156102ea57600080fd5b5061030560048036038101906103009190614a90565b612988565b005b34801561031357600080fd5b5061032e60048036038101906103299190614d2a565b612a59565b005b34801561033c57600080fd5b5061035760048036038101906103529190614a90565b612c14565b6040516103679493929190615693565b60405180910390f35b34801561037c57600080fd5b50610385612d54565b6040516103929190615609565b60405180910390f35b3480156103a757600080fd5b506103c260048036038101906103bd9190614bd7565b612dfa565b005b3480156103d057600080fd5b506103eb60048036038101906103e69190614d7c565b612edb565b005b3480156103f957600080fd5b50610414600480360381019061040f9190614db8565b61317d565b6040516104219190615609565b60405180910390f35b34801561043657600080fd5b50610451600480360381019061044c9190614d7c565b6131ae565b005b34801561045f57600080fd5b5061047a60048036038101906104759190614d2a565b613450565b005b34801561048857600080fd5b506104a3600480360381019061049e9190614bae565b613637565b6040516104b4959493929190615418565b60405180910390f35b3480156104c957600080fd5b506104e460048036038101906104df9190614ab9565b61388d565b005b3480156104f257600080fd5b5061050d60048036038101906105089190614d2a565b613af1565b6040516105209796959493929190615624565b60405180910390f35b610543600480360381019061053e9190614d2a565b613b8b565b005b34801561055157600080fd5b5061056c60048036038101906105679190614db8565b613cde565b005b34801561057a57600080fd5b5061059560048036038101906105909190614bd7565b614205565b005b3480156105a357600080fd5b506105be60048036038101906105b99190614d2a565b6142e6565b6040516105cb91906155e7565b60405180910390f35b600560205281600052604060002081815481106105f057600080fd5b90600052602060002001600091509150505481565b8160008054906101000a900473ffffffffffffffffffffffffffffffffffffffff1673ffffffffffffffffffffffffffffffffffffffff1663342de179826040518263ffffffff1660e01b815260040161065f9190615609565b60206040518083038186803b15801561067757600080fd5b505afa15801561068b573d6000803e3d6000fd5b505050506040513d601f19601f820116820180604052508101906106af9190614b85565b6106ee576040517f08c379a00000000000000000000000000000000000000000000000000000000081526004016106e590615527565b60405180910390fd5b8160008054906101000a900473ffffffffffffffffffffffffffffffffffffffff1673ffffffffffffffffffffffffffffffffffffffff1663342de179826040518263ffffffff1660e01b81526004016107489190615609565b60206040518083038186803b15801561076057600080fd5b505afa158015610774573d6000803e3d6000fd5b505050506040513d601f19601f820116820180604052508101906107989190614b85565b6107d7576040517f08c379a00000000000000000000000000000000000000000000000000000000081526004016107ce90615527565b60405180910390fd5b33846000600360008381526020019081526020016000206040518060e0016040529081600082015481526020016001820160009054906101000a900461ffff1661ffff1661ffff1681526020016001820160029054906101000a900461ffff1661ffff1661ffff1681526020016001820160049054906101000a900461ffff1661ffff1661ffff1681526020016001820160069054906101000a900461ffff1661ffff1661ffff1681526020016001820160089054906101000a900473ffffffffffffffffffffffffffffffffffffffff1673ffffffffffffffffffffffffffffffffffffffff1673ffffffffffffffffffffffffffffffffffffffff16815260200160028201548152505090508060a0015173ffffffffffffffffffffffffffffffffffffffff168373ffffffffffffffffffffffffffffffffffffffff1614610957576040517f08c379a000000000000000000000000000000000000000000000000000000000815260040161094e906155a7565b60405180910390fd5b33866000600360008381526020019081526020016000206040518060e0016040529081600082015481526020016001820160009054906101000a900461ffff1661ffff1661ffff1681526020016001820160029054906101000a900461ffff1661ffff1661ffff1681526020016001820160049054906101000a900461ffff1661ffff1661ffff1681526020016001820160069054906101000a900461ffff1661ffff1661ffff1681526020016001820160089054906101000a900473ffffffffffffffffffffffffffffffffffffffff1673ffffffffffffffffffffffffffffffffffffffff1673ffffffffffffffffffffffffffffffffffffffff16815260200160028201548152505090508060a0015173ffffffffffffffffffffffffffffffffffffffff168373ffffffffffffffffffffffffffffffffffffffff1614610ad7576040517f08c379a0000000000000000000000000000000000000000000000000000000008152600401610ace906155a7565b60405180910390fd5b6000600460008c8152602001908152602001600020805480602002602001604051908101604052809291908181526020018280548015610b3657602002820191906000526020600020905b815481526020019060010190808311610b22575b5050505050905060008151905060018111610b86576040517f08c379a0000000000000000000000000000000000000000000000000000000008152600401610b7d90615587565b60405180910390fd5b6000600360008d81526020019081526020016000206040518060e0016040529081600082015481526020016001820160009054906101000a900461ffff1661ffff1661ffff1681526020016001820160029054906101000a900461ffff1661ffff1661ffff1681526020016001820160049054906101000a900461ffff1661ffff1661ffff1681526020016001820160069054906101000a900461ffff1661ffff1661ffff1681526020016001820160089054906101000a900473ffffffffffffffffffffffffffffffffffffffff1673ffffffffffffffffffffffffffffffffffffffff1673ffffffffffffffffffffffffffffffffffffffff16815260200160028201548152505090506000816080015161ffff1614610cdd576040517f08c379a0000000000000000000000000000000000000000000000000000000008152600401610cd490615547565b60405180910390fd5b6001600360008e815260200190815260200160002060010160066101000a81548161ffff021916908361ffff160217905550600460008e81526020019081526020016000208c908060018154018082558091505060019003906000526020600020016000909190919091505550505050505050505050505050565b6000600260003373ffffffffffffffffffffffffffffffffffffffff1673ffffffffffffffffffffffffffffffffffffffff1681526020019081526020016000206000015414610ddd576040517f08c379a0000000000000000000000000000000000000000000000000000000008152600401610dd4906154a7565b60405180910390fd5b629c40006001541115610e25576040517f08c379a0000000000000000000000000000000000000000000000000000000008152600401610e1c906154e7565b60405180910390fd5b60016000815480929190610e389061587f565b9190505550600154600260003373ffffffffffffffffffffffffffffffffffffffff1673ffffffffffffffffffffffffffffffffffffffff16815260200190815260200160002060000181905550565b336000600260008373ffffffffffffffffffffffffffffffffffffffff1673ffffffffffffffffffffffffffffffffffffffff1681526020019081526020016000206000015411610f0e576040517f08c379a0000000000000000000000000000000000000000000000000000000008152600401610f05906154c7565b60405180910390fd5b60005b82518110156111b3576000838281518110610f55577f4e487b7100000000000000000000000000000000000000000000000000000000600052603260045260246000fd5b602002602001015190506000600360008381526020019081526020016000206040518060e0016040529081600082015481526020016001820160009054906101000a900461ffff1661ffff1661ffff1681526020016001820160029054906101000a900461ffff1661ffff1661ffff1681526020016001820160049054906101000a900461ffff1661ffff1661ffff1681526020016001820160069054906101000a900461ffff1661ffff1661ffff1681526020016001820160089054906101000a900473ffffffffffffffffffffffffffffffffffffffff1673ffffffffffffffffffffffffffffffffffffffff1673ffffffffffffffffffffffffffffffffffffffff16815260200160028201548152505090508060a0015173ffffffffffffffffffffffffffffffffffffffff163373ffffffffffffffffffffffffffffffffffffffff16146110dd576040517f08c379a00000000000000000000000000000000000000000000000000000000081526004016110d4906155a7565b60405180910390fd5b60016003600084815260200190815260200160002060010160066101000a81548161ffff021916908361ffff16021790555060008054906101000a900473ffffffffffffffffffffffffffffffffffffffff1673ffffffffffffffffffffffffffffffffffffffff166342842e0e3330856040518463ffffffff1660e01b815260040161116c939291906153e1565b600060405180830381600087803b15801561118657600080fd5b505af115801561119a573d6000803e3d6000fd5b50505050505080806111ab9061587f565b915050610f11565b5060008054906101000a900473ffffffffffffffffffffffffffffffffffffffff1673ffffffffffffffffffffffffffffffffffffffff16631249c58b6040518163ffffffff1660e01b8152600401600060405180830381600087803b15801561121c57600080fd5b505af1158015611230573d6000803e3d6000fd5b5050505060008060009054906101000a900473ffffffffffffffffffffffffffffffffffffffff1673ffffffffffffffffffffffffffffffffffffffff16631c75cfb46040518163ffffffff1660e01b815260040160206040518083038186803b15801561129d57600080fd5b505afa1580156112b1573d6000803e3d6000fd5b505050506040513d601f19601f820116820180604052508101906112d59190614d53565b90506040518060e00160405280828152602001600061ffff168152602001600061ffff168152602001600061ffff168152602001600061ffff1681526020013373ffffffffffffffffffffffffffffffffffffffff1681526020016000801916815250600360008381526020019081526020016000206000820151816000015560208201518160010160006101000a81548161ffff021916908361ffff16021790555060408201518160010160026101000a81548161ffff021916908361ffff16021790555060608201518160010160046101000a81548161ffff021916908361ffff16021790555060808201518160010160066101000a81548161ffff021916908361ffff16021790555060a08201518160010160086101000a81548173ffffffffffffffffffffffffffffffffffffffff021916908373ffffffffffffffffffffffffffffffffffffffff16021790555060c082015181600201559050508260046000838152602001908152602001600020908051906020019061145c92919061468a565b50505050565b8160008054906101000a900473ffffffffffffffffffffffffffffffffffffffff1673ffffffffffffffffffffffffffffffffffffffff1663342de179826040518263ffffffff1660e01b81526004016114bc9190615609565b60206040518083038186803b1580156114d457600080fd5b505afa1580156114e8573d6000803e3d6000fd5b505050506040513d601f19601f8201168201806040525081019061150c9190614b85565b61154b576040517f08c379a000000000000000000000000000000000000000000000000000000000815260040161154290615527565b60405180910390fd5b33836000600360008381526020019081526020016000206040518060e0016040529081600082015481526020016001820160009054906101000a900461ffff1661ffff1661ffff1681526020016001820160029054906101000a900461ffff1661ffff1661ffff1681526020016001820160049054906101000a900461ffff1661ffff1661ffff1681526020016001820160069054906101000a900461ffff1661ffff1661ffff1681526020016001820160089054906101000a900473ffffffffffffffffffffffffffffffffffffffff1673ffffffffffffffffffffffffffffffffffffffff1673ffffffffffffffffffffffffffffffffffffffff16815260200160028201548152505090508060a0015173ffffffffffffffffffffffffffffffffffffffff168373ffffffffffffffffffffffffffffffffffffffff16146116cb576040517f08c379a00000000000000000000000000000000000000000000000000000000081526004016116c2906155a7565b60405180910390fd5b846003600088815260200190815260200160002060010160026101000a81548161ffff021916908361ffff160217905550505050505050565b336000600260008373ffffffffffffffffffffffffffffffffffffffff1673ffffffffffffffffffffffffffffffffffffffff168152602001908152602001600020600001541161178a576040517f08c379a0000000000000000000000000000000000000000000000000000000008152600401611781906154c7565b60405180910390fd5b6000600260008473ffffffffffffffffffffffffffffffffffffffff1673ffffffffffffffffffffffffffffffffffffffff168152602001908152602001600020600001541461180f576040517f08c379a0000000000000000000000000000000000000000000000000000000008152600401611806906155c7565b60405180910390fd5b600260003373ffffffffffffffffffffffffffffffffffffffff1673ffffffffffffffffffffffffffffffffffffffff168152602001908152602001600020600260008473ffffffffffffffffffffffffffffffffffffffff1673ffffffffffffffffffffffffffffffffffffffff168152602001908152602001600020600082015481600001556001820154816001015560028201816002019080546118b59061584d565b6118c09291906146d7565b5060038201816003019080546118d59061584d565b6118e09291906146d7565b509050506040518060800160405280600081526020016000815260200160405180602001604052806000815250815260200160405180602001604052806000815250815250600260003373ffffffffffffffffffffffffffffffffffffffff1673ffffffffffffffffffffffffffffffffffffffff16815260200190815260200160002060008201518160000155602082015181600101556040820151816002019080519060200190611994929190614764565b5060608201518160030190805190602001906119b1929190614764565b509050505050565b8160008054906101000a900473ffffffffffffffffffffffffffffffffffffffff1673ffffffffffffffffffffffffffffffffffffffff1663342de179826040518263ffffffff1660e01b8152600401611a139190615609565b60206040518083038186803b158015611a2b57600080fd5b505afa158015611a3f573d6000803e3d6000fd5b505050506040513d601f19601f82011682018060405250810190611a639190614b85565b611aa2576040517f08c379a0000000000000000000000000000000000000000000000000000000008152600401611a9990615527565b60405180910390fd5b33836000600360008381526020019081526020016000206040518060e0016040529081600082015481526020016001820160009054906101000a900461ffff1661ffff1661ffff1681526020016001820160029054906101000a900461ffff1661ffff1661ffff1681526020016001820160049054906101000a900461ffff1661ffff1661ffff1681526020016001820160069054906101000a900461ffff1661ffff1661ffff1681526020016001820160089054906101000a900473ffffffffffffffffffffffffffffffffffffffff1673ffffffffffffffffffffffffffffffffffffffff1673ffffffffffffffffffffffffffffffffffffffff16815260200160028201548152505090508060a0015173ffffffffffffffffffffffffffffffffffffffff168373ffffffffffffffffffffffffffffffffffffffff1614611c22576040517f08c379a0000000000000000000000000000000000000000000000000000000008152600401611c19906155a7565b60405180910390fd5b600060046000888152602001908152602001600020805480602002602001604051908101604052809291908181526020018280548015611c8157602002820191906000526020600020905b815481526020019060010190808311611c6d575b50505050509050600081519050868111611cd0576040517f08c379a0000000000000000000000000000000000000000000000000000000008152600401611cc790615587565b60405180910390fd5b6000828881518110611d0b577f4e487b7100000000000000000000000000000000000000000000000000000000600052603260045260246000fd5b6020026020010151905060006003600083815260200190815260200160002060010160066101000a81548161ffff021916908361ffff1602179055506000600460008b81526020019081526020016000208981548110611d94577f4e487b7100000000000000000000000000000000000000000000000000000000600052603260045260246000fd5b9060005260206000200181905550505050505050505050565b336000600260008373ffffffffffffffffffffffffffffffffffffffff1673ffffffffffffffffffffffffffffffffffffffff1681526020019081526020016000206000015411611e33576040517f08c379a0000000000000000000000000000000000000000000000000000000008152600401611e2a906154c7565b60405180910390fd5b8160008054906101000a900473ffffffffffffffffffffffffffffffffffffffff1673ffffffffffffffffffffffffffffffffffffffff1663342de179826040518263ffffffff1660e01b8152600401611e8d9190615609565b60206040518083038186803b158015611ea557600080fd5b505afa158015611eb9573d6000803e3d6000fd5b505050506040513d601f19601f82011682018060405250810190611edd9190614b85565b611f1c576040517f08c379a0000000000000000000000000000000000000000000000000000000008152600401611f1390615527565b60405180910390fd5b33836000600360008381526020019081526020016000206040518060e0016040529081600082015481526020016001820160009054906101000a900461ffff1661ffff1661ffff1681526020016001820160029054906101000a900461ffff1661ffff1661ffff1681526020016001820160049054906101000a900461ffff1661ffff1661ffff1681526020016001820160069054906101000a900461ffff1661ffff1661ffff1681526020016001820160089054906101000a900473ffffffffffffffffffffffffffffffffffffffff1673ffffffffffffffffffffffffffffffffffffffff1673ffffffffffffffffffffffffffffffffffffffff16815260200160028201548152505090508060a0015173ffffffffffffffffffffffffffffffffffffffff168373ffffffffffffffffffffffffffffffffffffffff161461209c576040517f08c379a0000000000000000000000000000000000000000000000000000000008152600401612093906155a7565b60405180910390fd5b6000600460008881526020019081526020016000208054806020026020016040519081016040528092919081815260200182805480156120fb57602002820191906000526020600020905b8154815260200190600101908083116120e7575b505050505090506000815190506001811161214b576040517f08c379a000000000000000000000000000000000000000000000000000000000815260040161214290615587565b60405180910390fd5b60005b818110156122b0576000838281518110612191577f4e487b7100000000000000000000000000000000000000000000000000000000600052603260045260246000fd5b602002602001015190506000600360008685815181106121da577f4e487b7100000000000000000000000000000000000000000000000000000000600052603260045260246000fd5b6020026020010151815260200190815260200160002060010160066101000a81548161ffff021916908361ffff16021790555060008054906101000a900473ffffffffffffffffffffffffffffffffffffffff1673ffffffffffffffffffffffffffffffffffffffff166342842e0e3033846040518463ffffffff1660e01b815260040161226a939291906153e1565b600060405180830381600087803b15801561228457600080fd5b505af1158015612298573d6000803e3d6000fd5b505050505080806122a89061587f565b91505061214e565b506040518060200160405280600060ff16815250600460008a81526020019081526020016000209060016122e59291906147ea565b5060008054906101000a900473ffffffffffffffffffffffffffffffffffffffff1673ffffffffffffffffffffffffffffffffffffffff166342966c68896040518263ffffffff1660e01b815260040161233f9190615609565b600060405180830381600087803b15801561235957600080fd5b505af115801561236d573d6000803e3d6000fd5b505050506040518060e0016040528060008152602001600061ffff168152602001600061ffff168152602001600061ffff168152602001600061ffff168152602001600073ffffffffffffffffffffffffffffffffffffffff1681526020016000801916815250600360008a81526020019081526020016000206000820151816000015560208201518160010160006101000a81548161ffff021916908361ffff16021790555060408201518160010160026101000a81548161ffff021916908361ffff16021790555060608201518160010160046101000a81548161ffff021916908361ffff16021790555060808201518160010160066101000a81548161ffff021916908361ffff16021790555060a08201518160010160086101000a81548173ffffffffffffffffffffffffffffffffffffffff021916908373ffffffffffffffffffffffffffffffffffffffff16021790555060c082015181600201559050505050505050505050565b336000600260008373ffffffffffffffffffffffffffffffffffffffff1673ffffffffffffffffffffffffffffffffffffffff1681526020019081526020016000206000015411612561576040517f08c379a0000000000000000000000000000000000000000000000000000000008152600401612558906154c7565b60405180910390fd5b60008760405160200161257491906153ca565b60405160208183030381529060405280519060200120905060006006600083815260200190815260200160002060040154146125e5576040517f08c379a00000000000000000000000000000000000000000000000000000000081526004016125dc90615487565b60405180910390fd5b60005b8381101561287e5760008054906101000a900473ffffffffffffffffffffffffffffffffffffffff1673ffffffffffffffffffffffffffffffffffffffff16631249c58b6040518163ffffffff1660e01b8152600401600060405180830381600087803b15801561265857600080fd5b505af115801561266c573d6000803e3d6000fd5b5050505060008060009054906101000a900473ffffffffffffffffffffffffffffffffffffffff1673ffffffffffffffffffffffffffffffffffffffff16631c75cfb46040518163ffffffff1660e01b815260040160206040518083038186803b1580156126d957600080fd5b505afa1580156126ed573d6000803e3d6000fd5b505050506040513d601f19601f820116820180604052508101906127119190614d53565b90506040518060e001604052808281526020018961ffff1681526020018861ffff1681526020018761ffff168152602001600061ffff1681526020013373ffffffffffffffffffffffffffffffffffffffff16815260200184815250600360008381526020019081526020016000206000820151816000015560208201518160010160006101000a81548161ffff021916908361ffff16021790555060408201518160010160026101000a81548161ffff021916908361ffff16021790555060608201518160010160046101000a81548161ffff021916908361ffff16021790555060808201518160010160066101000a81548161ffff021916908361ffff16021790555060a08201518160010160086101000a81548173ffffffffffffffffffffffffffffffffffffffff021916908373ffffffffffffffffffffffffffffffffffffffff16021790555060c082015181600201559050505080806128769061587f565b9150506125e8565b506040518060a001604052808981526020018a81526020018881526020018b8152602001600260003373ffffffffffffffffffffffffffffffffffffffff1673ffffffffffffffffffffffffffffffffffffffff16815260200190815260200160002060000154815250600660008381526020019081526020016000206000820151816000019080519060200190612917929190614764565b506020820151816001019080519060200190612934929190614764565b506040820151816002019080519060200190612951929190614764565b50606082015181600301908051906020019061296e929190614764565b506080820151816004015590505050505050505050505050565b7f000000000000000000000000000000000000000000000000000000000000000073ffffffffffffffffffffffffffffffffffffffff163373ffffffffffffffffffffffffffffffffffffffff1614612a16576040517f08c379a0000000000000000000000000000000000000000000000000000000008152600401612a0d90615567565b60405180910390fd5b806000806101000a81548173ffffffffffffffffffffffffffffffffffffffff021916908373ffffffffffffffffffffffffffffffffffffffff16021790555050565b336000600260008373ffffffffffffffffffffffffffffffffffffffff1673ffffffffffffffffffffffffffffffffffffffff1681526020019081526020016000206000015411612adf576040517f08c379a0000000000000000000000000000000000000000000000000000000008152600401612ad6906154c7565b60405180910390fd5b8160008054906101000a900473ffffffffffffffffffffffffffffffffffffffff1673ffffffffffffffffffffffffffffffffffffffff1663342de179826040518263ffffffff1660e01b8152600401612b399190615609565b60206040518083038186803b158015612b5157600080fd5b505afa158015612b65573d6000803e3d6000fd5b505050506040513d601f19601f82011682018060405250810190612b899190614b85565b612bc8576040517f08c379a0000000000000000000000000000000000000000000000000000000008152600401612bbf90615527565b60405180910390fd5b82600260003373ffffffffffffffffffffffffffffffffffffffff1673ffffffffffffffffffffffffffffffffffffffff16815260200190815260200160002060010181905550505050565b6002602052806000526040600020600091509050806000015490806001015490806002018054612c439061584d565b80601f0160208091040260200160405190810160405280929190818152602001828054612c6f9061584d565b8015612cbc5780601f10612c9157610100808354040283529160200191612cbc565b820191906000526020600020905b815481529060010190602001808311612c9f57829003601f168201915b505050505090806003018054612cd19061584d565b80601f0160208091040260200160405190810160405280929190818152602001828054612cfd9061584d565b8015612d4a5780601f10612d1f57610100808354040283529160200191612d4a565b820191906000526020600020905b815481529060010190602001808311612d2d57829003601f168201915b5050505050905084565b60008060009054906101000a900473ffffffffffffffffffffffffffffffffffffffff1673ffffffffffffffffffffffffffffffffffffffff16631c75cfb46040518163ffffffff1660e01b815260040160206040518083038186803b158015612dbd57600080fd5b505afa158015612dd1573d6000803e3d6000fd5b505050506040513d601f19601f82011682018060405250810190612df59190614d53565b905090565b336000600260008373ffffffffffffffffffffffffffffffffffffffff1673ffffffffffffffffffffffffffffffffffffffff1681526020019081526020016000206000015411612e80576040517f08c379a0000000000000000000000000000000000000000000000000000000008152600401612e77906154c7565b60405180910390fd5b81600260003373ffffffffffffffffffffffffffffffffffffffff1673ffffffffffffffffffffffffffffffffffffffff1681526020019081526020016000206002019080519060200190612ed6929190614764565b505050565b8160008054906101000a900473ffffffffffffffffffffffffffffffffffffffff1673ffffffffffffffffffffffffffffffffffffffff1663342de179826040518263ffffffff1660e01b8152600401612f359190615609565b60206040518083038186803b158015612f4d57600080fd5b505afa158015612f61573d6000803e3d6000fd5b505050506040513d601f19601f82011682018060405250810190612f859190614b85565b612fc4576040517f08c379a0000000000000000000000000000000000000000000000000000000008152600401612fbb90615527565b60405180910390fd5b33836000600360008381526020019081526020016000206040518060e0016040529081600082015481526020016001820160009054906101000a900461ffff1661ffff1661ffff1681526020016001820160029054906101000a900461ffff1661ffff1661ffff1681526020016001820160049054906101000a900461ffff1661ffff1661ffff1681526020016001820160069054906101000a900461ffff1661ffff1661ffff1681526020016001820160089054906101000a900473ffffffffffffffffffffffffffffffffffffffff1673ffffffffffffffffffffffffffffffffffffffff1673ffffffffffffffffffffffffffffffffffffffff16815260200160028201548152505090508060a0015173ffffffffffffffffffffffffffffffffffffffff168373ffffffffffffffffffffffffffffffffffffffff1614613144576040517f08c379a000000000000000000000000000000000000000000000000000000000815260040161313b906155a7565b60405180910390fd5b846003600088815260200190815260200160002060010160006101000a81548161ffff021916908361ffff160217905550505050505050565b6004602052816000526040600020818154811061319957600080fd5b90600052602060002001600091509150505481565b8160008054906101000a900473ffffffffffffffffffffffffffffffffffffffff1673ffffffffffffffffffffffffffffffffffffffff1663342de179826040518263ffffffff1660e01b81526004016132089190615609565b60206040518083038186803b15801561322057600080fd5b505afa158015613234573d6000803e3d6000fd5b505050506040513d601f19601f820116820180604052508101906132589190614b85565b613297576040517f08c379a000000000000000000000000000000000000000000000000000000000815260040161328e90615527565b60405180910390fd5b33836000600360008381526020019081526020016000206040518060e0016040529081600082015481526020016001820160009054906101000a900461ffff1661ffff1661ffff1681526020016001820160029054906101000a900461ffff1661ffff1661ffff1681526020016001820160049054906101000a900461ffff1661ffff1661ffff1681526020016001820160069054906101000a900461ffff1661ffff1661ffff1681526020016001820160089054906101000a900473ffffffffffffffffffffffffffffffffffffffff1673ffffffffffffffffffffffffffffffffffffffff1673ffffffffffffffffffffffffffffffffffffffff16815260200160028201548152505090508060a0015173ffffffffffffffffffffffffffffffffffffffff168373ffffffffffffffffffffffffffffffffffffffff1614613417576040517f08c379a000000000000000000000000000000000000000000000000000000000815260040161340e906155a7565b60405180910390fd5b846003600088815260200190815260200160002060010160046101000a81548161ffff021916908361ffff160217905550505050505050565b336000600260008373ffffffffffffffffffffffffffffffffffffffff1673ffffffffffffffffffffffffffffffffffffffff16815260200190815260200160002060000154116134d6576040517f08c379a00000000000000000000000000000000000000000000000000000000081526004016134cd906154c7565b60405180910390fd5b6000600560003373ffffffffffffffffffffffffffffffffffffffff1673ffffffffffffffffffffffffffffffffffffffff16815260200190815260200160002080548060200260200160405190810160405280929190818152602001828054801561356157602002820191906000526020600020905b81548152602001906001019080831161354d575b50505050509050828151116135ab576040517f08c379a00000000000000000000000000000000000000000000000000000000081526004016135a290615507565b60405180910390fd5b6000600560003373ffffffffffffffffffffffffffffffffffffffff1673ffffffffffffffffffffffffffffffffffffffff1681526020019081526020016000208481548110613624577f4e487b7100000000000000000000000000000000000000000000000000000000600052603260045260246000fd5b9060005260206000200181905550505050565b600660205280600052604060002060009150905080600001805461365a9061584d565b80601f01602080910402602001604051908101604052809291908181526020018280546136869061584d565b80156136d35780601f106136a8576101008083540402835291602001916136d3565b820191906000526020600020905b8154815290600101906020018083116136b657829003601f168201915b5050505050908060010180546136e89061584d565b80601f01602080910402602001604051908101604052809291908181526020018280546137149061584d565b80156137615780601f1061373657610100808354040283529160200191613761565b820191906000526020600020905b81548152906001019060200180831161374457829003601f168201915b5050505050908060020180546137769061584d565b80601f01602080910402602001604051908101604052809291908181526020018280546137a29061584d565b80156137ef5780601f106137c4576101008083540402835291602001916137ef565b820191906000526020600020905b8154815290600101906020018083116137d257829003601f168201915b5050505050908060030180546138049061584d565b80601f01602080910402602001604051908101604052809291908181526020018280546138309061584d565b801561387d5780601f106138525761010080835404028352916020019161387d565b820191906000526020600020905b81548152906001019060200180831161386057829003601f168201915b5050505050908060040154905085565b6000600360008381526020019081526020016000206040518060e0016040529081600082015481526020016001820160009054906101000a900461ffff1661ffff1661ffff1681526020016001820160029054906101000a900461ffff1661ffff1661ffff1681526020016001820160049054906101000a900461ffff1661ffff1661ffff1681526020016001820160069054906101000a900461ffff1661ffff1661ffff1681526020016001820160089054906101000a900473ffffffffffffffffffffffffffffffffffffffff1673ffffffffffffffffffffffffffffffffffffffff1673ffffffffffffffffffffffffffffffffffffffff1681526020016002820154815250509050600073ffffffffffffffffffffffffffffffffffffffff168373ffffffffffffffffffffffffffffffffffffffff161415613a2457306003600084815260200190815260200160002060010160086101000a81548173ffffffffffffffffffffffffffffffffffffffff021916908373ffffffffffffffffffffffffffffffffffffffff1602179055505b8373ffffffffffffffffffffffffffffffffffffffff168160a0015173ffffffffffffffffffffffffffffffffffffffff16148015613a905750600073ffffffffffffffffffffffffffffffffffffffff168473ffffffffffffffffffffffffffffffffffffffff1614155b15613aeb57826003600084815260200190815260200160002060010160086101000a81548173ffffffffffffffffffffffffffffffffffffffff021916908373ffffffffffffffffffffffffffffffffffffffff1602179055505b50505050565b60036020528060005260406000206000915090508060000154908060010160009054906101000a900461ffff16908060010160029054906101000a900461ffff16908060010160049054906101000a900461ffff16908060010160069054906101000a900461ffff16908060010160089054906101000a900473ffffffffffffffffffffffffffffffffffffffff16908060020154905087565b8060008054906101000a900473ffffffffffffffffffffffffffffffffffffffff1673ffffffffffffffffffffffffffffffffffffffff1663342de179826040518263ffffffff1660e01b8152600401613be59190615609565b60206040518083038186803b158015613bfd57600080fd5b505afa158015613c11573d6000803e3d6000fd5b505050506040513d601f19601f82011682018060405250810190613c359190614b85565b613c74576040517f08c379a0000000000000000000000000000000000000000000000000000000008152600401613c6b90615527565b60405180910390fd5b600560003373ffffffffffffffffffffffffffffffffffffffff1673ffffffffffffffffffffffffffffffffffffffff1681526020019081526020016000208290806001815401808255809150506001900390600052602060002001600090919091909150555050565b336000600260008373ffffffffffffffffffffffffffffffffffffffff1673ffffffffffffffffffffffffffffffffffffffff1681526020019081526020016000206000015411613d64576040517f08c379a0000000000000000000000000000000000000000000000000000000008152600401613d5b906154c7565b60405180910390fd5b8260008054906101000a900473ffffffffffffffffffffffffffffffffffffffff1673ffffffffffffffffffffffffffffffffffffffff1663342de179826040518263ffffffff1660e01b8152600401613dbe9190615609565b60206040518083038186803b158015613dd657600080fd5b505afa158015613dea573d6000803e3d6000fd5b505050506040513d601f19601f82011682018060405250810190613e0e9190614b85565b613e4d576040517f08c379a0000000000000000000000000000000000000000000000000000000008152600401613e4490615527565b60405180910390fd5b600060036000868152602001908152602001600020905060008160020154604051602001613e7b91906153af565b604051602081830303815290604052805190602001209050600260003373ffffffffffffffffffffffffffffffffffffffff1673ffffffffffffffffffffffffffffffffffffffff16815260200190815260200160002060000154600660008381526020019081526020016000206004015414613f2d576040517f08c379a0000000000000000000000000000000000000000000000000000000008152600401613f2490615567565b60405180910390fd5b60005b858110156141fc5760008054906101000a900473ffffffffffffffffffffffffffffffffffffffff1673ffffffffffffffffffffffffffffffffffffffff16631249c58b6040518163ffffffff1660e01b8152600401600060405180830381600087803b158015613fa057600080fd5b505af1158015613fb4573d6000803e3d6000fd5b5050505060008060009054906101000a900473ffffffffffffffffffffffffffffffffffffffff1673ffffffffffffffffffffffffffffffffffffffff16631c75cfb46040518163ffffffff1660e01b815260040160206040518083038186803b15801561402157600080fd5b505afa158015614035573d6000803e3d6000fd5b505050506040513d601f19601f820116820180604052508101906140599190614d53565b90506040518060e001604052808281526020018560010160009054906101000a900461ffff1661ffff1681526020018560010160029054906101000a900461ffff1661ffff1681526020018560010160049054906101000a900461ffff1661ffff168152602001600061ffff1681526020013373ffffffffffffffffffffffffffffffffffffffff16815260200184815250600360008381526020019081526020016000206000820151816000015560208201518160010160006101000a81548161ffff021916908361ffff16021790555060408201518160010160026101000a81548161ffff021916908361ffff16021790555060608201518160010160046101000a81548161ffff021916908361ffff16021790555060808201518160010160066101000a81548161ffff021916908361ffff16021790555060a08201518160010160086101000a81548173ffffffffffffffffffffffffffffffffffffffff021916908373ffffffffffffffffffffffffffffffffffffffff16021790555060c082015181600201559050505080806141f49061587f565b915050613f30565b50505050505050565b336000600260008373ffffffffffffffffffffffffffffffffffffffff1673ffffffffffffffffffffffffffffffffffffffff168152602001908152602001600020600001541161428b576040517f08c379a0000000000000000000000000000000000000000000000000000000008152600401614282906154c7565b60405180910390fd5b81600260003373ffffffffffffffffffffffffffffffffffffffff1673ffffffffffffffffffffffffffffffffffffffff16815260200190815260200160002060030190805190602001906142e1929190614764565b505050565b6142ee61483c565b60006003600084815260200190815260200160002090506040518060400160405280826040518060e0016040529081600082015481526020016001820160009054906101000a900461ffff1661ffff1661ffff1681526020016001820160029054906101000a900461ffff1661ffff1661ffff1681526020016001820160049054906101000a900461ffff1661ffff1661ffff1681526020016001820160069054906101000a900461ffff1661ffff1661ffff1681526020016001820160089054906101000a900473ffffffffffffffffffffffffffffffffffffffff1673ffffffffffffffffffffffffffffffffffffffff1673ffffffffffffffffffffffffffffffffffffffff168152602001600282015481525050815260200160066000846002015481526020019081526020016000206040518060a001604052908160008201805461443d9061584d565b80601f01602080910402602001604051908101604052809291908181526020018280546144699061584d565b80156144b65780601f1061448b576101008083540402835291602001916144b6565b820191906000526020600020905b81548152906001019060200180831161449957829003601f168201915b505050505081526020016001820180546144cf9061584d565b80601f01602080910402602001604051908101604052809291908181526020018280546144fb9061584d565b80156145485780601f1061451d57610100808354040283529160200191614548565b820191906000526020600020905b81548152906001019060200180831161452b57829003601f168201915b505050505081526020016002820180546145619061584d565b80601f016020809104026020016040519081016040528092919081815260200182805461458d9061584d565b80156145da5780601f106145af576101008083540402835291602001916145da565b820191906000526020600020905b8154815290600101906020018083116145bd57829003601f168201915b505050505081526020016003820180546145f39061584d565b80601f016020809104026020016040519081016040528092919081815260200182805461461f9061584d565b801561466c5780601f106146415761010080835404028352916020019161466c565b820191906000526020600020905b81548152906001019060200180831161464f57829003601f168201915b50505050508152602001600482015481525050815250915050919050565b8280548282559060005260206000209081019282156146c6579160200282015b828111156146c55782518255916020019190600101906146aa565b5b5090506146d39190614862565b5090565b8280546146e39061584d565b90600052602060002090601f0160209004810192826147055760008555614753565b82601f106147165780548555614753565b8280016001018555821561475357600052602060002091601f016020900482015b82811115614752578254825591600101919060010190614737565b5b5090506147609190614862565b5090565b8280546147709061584d565b90600052602060002090601f01602090048101928261479257600085556147d9565b82601f106147ab57805160ff19168380011785556147d9565b828001600101855582156147d9579182015b828111156147d85782518255916020019190600101906147bd565b5b5090506147e69190614862565b5090565b82805482825590600052602060002090810192821561482b579160200282015b8281111561482a578251829060ff1690559160200191906001019061480a565b5b5090506148389190614862565b5090565b604051806040016040528061484f61487f565b815260200161485c6148e5565b81525090565b5b8082111561487b576000816000905550600101614863565b5090565b6040518060e0016040528060008152602001600061ffff168152602001600061ffff168152602001600061ffff168152602001600061ffff168152602001600073ffffffffffffffffffffffffffffffffffffffff168152602001600080191681525090565b6040518060a0016040528060608152602001606081526020016060815260200160608152602001600081525090565b600061492761492284615717565b6156e6565b9050808382526020820190508285602086028201111561494657600080fd5b60005b85811015614976578161495c8882614a66565b845260208401935060208301925050600181019050614949565b5050509392505050565b600061499361498e84615743565b6156e6565b9050828152602081018484840111156149ab57600080fd5b6149b684828561580b565b509392505050565b6000813590506149cd81615970565b92915050565b600082601f8301126149e457600080fd5b81356149f4848260208601614914565b91505092915050565b600081519050614a0c81615987565b92915050565b600081359050614a218161599e565b92915050565b600082601f830112614a3857600080fd5b8135614a48848260208601614980565b91505092915050565b600081359050614a60816159b5565b92915050565b600081359050614a75816159cc565b92915050565b600081519050614a8a816159cc565b92915050565b600060208284031215614aa257600080fd5b6000614ab0848285016149be565b91505092915050565b600080600060608486031215614ace57600080fd5b6000614adc868287016149be565b9350506020614aed868287016149be565b9250506040614afe86828701614a66565b9150509250925092565b60008060408385031215614b1b57600080fd5b6000614b29858286016149be565b9250506020614b3a85828601614a66565b9150509250929050565b600060208284031215614b5657600080fd5b600082013567ffffffffffffffff811115614b7057600080fd5b614b7c848285016149d3565b91505092915050565b600060208284031215614b9757600080fd5b6000614ba5848285016149fd565b91505092915050565b600060208284031215614bc057600080fd5b6000614bce84828501614a12565b91505092915050565b600060208284031215614be957600080fd5b600082013567ffffffffffffffff811115614c0357600080fd5b614c0f84828501614a27565b91505092915050565b600080600080600080600080610100898b031215614c3557600080fd5b600089013567ffffffffffffffff811115614c4f57600080fd5b614c5b8b828c01614a27565b985050602089013567ffffffffffffffff811115614c7857600080fd5b614c848b828c01614a27565b975050604089013567ffffffffffffffff811115614ca157600080fd5b614cad8b828c01614a27565b965050606089013567ffffffffffffffff811115614cca57600080fd5b614cd68b828c01614a27565b9550506080614ce78b828c01614a51565b94505060a0614cf88b828c01614a51565b93505060c0614d098b828c01614a51565b92505060e0614d1a8b828c01614a66565b9150509295985092959890939650565b600060208284031215614d3c57600080fd5b6000614d4a84828501614a66565b91505092915050565b600060208284031215614d6557600080fd5b6000614d7384828501614a7b565b91505092915050565b60008060408385031215614d8f57600080fd5b6000614d9d85828601614a66565b9250506020614dae85828601614a51565b9150509250929050565b60008060408385031215614dcb57600080fd5b6000614dd985828601614a66565b9250506020614dea85828601614a66565b9150509250929050565b614dfd816157ab565b82525050565b614e0c816157ab565b82525050565b614e1b816157c9565b82525050565b614e2a816157c9565b82525050565b614e41614e3c826157c9565b6158c8565b82525050565b6000614e5282615773565b614e5c818561577e565b9350614e6c81856020860161581a565b614e758161595f565b840191505092915050565b6000614e8b82615773565b614e95818561578f565b9350614ea581856020860161581a565b614eae8161595f565b840191505092915050565b6000614ec482615773565b614ece81856157a0565b9350614ede81856020860161581a565b80840191505092915050565b6000614ef760158361578f565b91507f4f6e6c79204d616b65204f6e63652054696d65732100000000000000000000006000830152602082019050919050565b6000614f3760208361578f565b91507f596f752061726520616c7265616479206120706c6174666f726d2075736572216000830152602082019050919050565b6000614f7760148361578f565b91507f4f6e6c7920557365722043616e20446f204974210000000000000000000000006000830152602082019050919050565b6000614fb7603d8361578f565b91507f546865206e756d626572206861732065786365656465642074686520746f746160008301527f6c20706f70756c6174696f6e206f662074686520756e697665727365210000006020830152604082019050919050565b600061501d600f8361578f565b91507f696e646578206e6f7420657869737400000000000000000000000000000000006000830152602082019050919050565b600061505d601b8361578f565b91507f5468652070726f6475637420646f6573206e6f742065786973742100000000006000830152602082019050919050565b600061509d600e8361578f565b91507f546865206964207375626a696f6e0000000000000000000000000000000000006000830152602082019050919050565b60006150dd60158361578f565b91507f4f6e6c79204f776e65722043616e20446f2049742100000000000000000000006000830152602082019050919050565b600061511d60128361578f565b91507f546865206964206e6f20636f6d706f73656400000000000000000000000000006000830152602082019050919050565b600061515d60238361578f565b91507f5468652063757272656e74206974656d206973206e6f7420796f75722061737360008301527f65742100000000000000000000000000000000000000000000000000000000006020830152604082019050919050565b60006151c360298361578f565b91507f5468697320616464726573732061726520616c7265616479206120706c61746660008301527f6f726d20757365722100000000000000000000000000000000000000000000006020830152604082019050919050565b600060a08301600083015184820360008601526152398282614e47565b915050602083015184820360208601526152538282614e47565b9150506040830151848203604086015261526d8282614e47565b915050606083015184820360608601526152878282614e47565b915050608083015161529c6080860182615391565b508091505092915050565b6000610100830160008301516152c060008601826152e5565b50602083015184820360e08601526152d8828261521c565b9150508091505092915050565b60e0820160008201516152fb6000850182615391565b50602082015161530e6020850182615373565b5060408201516153216040850182615373565b5060608201516153346060850182615373565b5060808201516153476080850182615373565b5060a082015161535a60a0850182614df4565b5060c082015161536d60c0850182614e12565b50505050565b61537c816157d3565b82525050565b61538b816157d3565b82525050565b61539a81615801565b82525050565b6153a981615801565b82525050565b60006153bb8284614e30565b60208201915081905092915050565b60006153d68284614eb9565b915081905092915050565b60006060820190506153f66000830186614e03565b6154036020830185614e03565b61541060408301846153a0565b949350505050565b600060a08201905081810360008301526154328188614e80565b905081810360208301526154468187614e80565b9050818103604083015261545a8186614e80565b9050818103606083015261546e8185614e80565b905061547d60808301846153a0565b9695505050505050565b600060208201905081810360008301526154a081614eea565b9050919050565b600060208201905081810360008301526154c081614f2a565b9050919050565b600060208201905081810360008301526154e081614f6a565b9050919050565b6000602082019050818103600083015261550081614faa565b9050919050565b6000602082019050818103600083015261552081615010565b9050919050565b6000602082019050818103600083015261554081615050565b9050919050565b6000602082019050818103600083015261556081615090565b9050919050565b60006020820190508181036000830152615580816150d0565b9050919050565b600060208201905081810360008301526155a081615110565b9050919050565b600060208201905081810360008301526155c081615150565b9050919050565b600060208201905081810360008301526155e0816151b6565b9050919050565b6000602082019050818103600083015261560181846152a7565b905092915050565b600060208201905061561e60008301846153a0565b92915050565b600060e082019050615639600083018a6153a0565b6156466020830189615382565b6156536040830188615382565b6156606060830187615382565b61566d6080830186615382565b61567a60a0830185614e03565b61568760c0830184614e21565b98975050505050505050565b60006080820190506156a860008301876153a0565b6156b560208301866153a0565b81810360408301526156c78185614e80565b905081810360608301526156db8184614e80565b905095945050505050565b6000604051905081810181811067ffffffffffffffff8211171561570d5761570c615930565b5b8060405250919050565b600067ffffffffffffffff82111561573257615731615930565b5b602082029050602081019050919050565b600067ffffffffffffffff82111561575e5761575d615930565b5b601f19601f8301169050602081019050919050565b600081519050919050565b600082825260208201905092915050565b600082825260208201905092915050565b600081905092915050565b60006157b6826157e1565b9050919050565b60008115159050919050565b6000819050919050565b600061ffff82169050919050565b600073ffffffffffffffffffffffffffffffffffffffff82169050919050565b6000819050919050565b82818337600083830152505050565b60005b8381101561583857808201518184015260208101905061581d565b83811115615847576000848401525b50505050565b6000600282049050600182168061586557607f821691505b6020821081141561587957615878615901565b5b50919050565b600061588a82615801565b91507fffffffffffffffffffffffffffffffffffffffffffffffffffffffffffffffff8214156158bd576158bc6158d2565b5b600182019050919050565b6000819050919050565b7f4e487b7100000000000000000000000000000000000000000000000000000000600052601160045260246000fd5b7f4e487b7100000000000000000000000000000000000000000000000000000000600052602260045260246000fd5b7f4e487b7100000000000000000000000000000000000000000000000000000000600052604160045260246000fd5b6000601f19601f8301169050919050565b615979816157ab565b811461598457600080fd5b50565b615990816157bd565b811461599b57600080fd5b50565b6159a7816157c9565b81146159b257600080fd5b50565b6159be816157d3565b81146159c957600080fd5b50565b6159d581615801565b81146159e057600080fd5b5056fea26469706673582212202418bd0271051893b8a1769c1e60adff3e30f732fb2d662026913cbca38616aa64736f6c63430008000033",
  "immutableReferences": {
    "978": [
      {
        "length": 32,
        "start": 10634
      }
    ]
  },
  "source": "// SPDX-License-Identifier: GPL-3.0\npragma solidity ^0.8.0;\n\nimport \"./IPMT721.sol\";\n\ncontract PixelsMetavers {\n    IPMT721 private PMT721;\n    address private immutable _owner;\n\n    uint256 amount;\n\n    struct User {\n        uint256 id;\n        uint256 avater;\n        string role;\n        string other;\n    }\n    mapping(address => User) public user;\n\n    struct Material {\n        uint256 id;\n        uint16 time;\n        uint16 position;\n        uint16 zIndex;\n        uint16 isCompose;\n        address owner;\n        bytes32 data;\n    }\n    mapping(uint256 => Material) public material;\n    mapping(uint256 => uint256[]) public composes; // \n    mapping(address => uint256[]) public collection; // \n\n    struct BaseInfo {\n        string data;\n        string category;\n        string decode; // \n        string name;\n        uint256 userId;\n    }\n    mapping(bytes32 => BaseInfo) public baseInfo;\n\n    struct MaterialInfo {\n        Material material;\n        BaseInfo baseInfo;\n    }\n\n    modifier MustExist(uint256 id) {\n        require(IPMT721(PMT721).exits(id), \"The product does not exist!\");\n        _;\n    }\n\n    modifier MustUser(address u) {\n        require(user[u].id > 0, \"Only User Can Do It!\");\n        _;\n    }\n\n    modifier MustOwner(address sender, uint256 id) {\n        Material memory m = material[id];\n        require(sender == m.owner, \"The current item is not your asset!\");\n        _;\n    }\n\n    constructor() {\n        _owner = msg.sender;\n    }\n\n    //118008 ropsten 118458 local\n    function register() public {\n        require(user[msg.sender].id == 0, \"You are already a platform user!\");\n        require(\n            amount <= 10240000,\n            \"The number has exceeded the total population of the universe!\"\n        );\n        amount++;\n        user[msg.sender].id = amount;\n    }\n\n    //65023 67528  bgColor: '#c18686', gridColor: '#472a2a'  132457\n    function setConfig(string memory other) public MustUser(msg.sender) {\n        user[msg.sender].other = other;\n    }\n\n    function setRole(string memory role) public MustUser(msg.sender) {\n        user[msg.sender].role = role;\n    }\n\n    function setAvater(uint256 id) public MustUser(msg.sender) MustExist(id) {\n        user[msg.sender].avater = id;\n    }\n\n    function resetUser(address to) public MustUser(msg.sender) {\n        require(user[to].id == 0, \"This address are already a platform user!\");\n        user[to] = user[msg.sender];\n        user[msg.sender] = User(0, 0, \"\", \"\");\n    }\n\n    function getMaterialLength() public view returns (uint256) {\n        return IPMT721(PMT721).currentID();\n    }\n\n    function getMaterial(uint256 id) public view returns (MaterialInfo memory) {\n        Material storage m = material[id];\n        return MaterialInfo(m, baseInfo[m.data]);\n    }\n\n    function make(\n        string memory name,\n        string memory category,\n        string memory data,\n        string memory decode,\n        uint16 time,\n        uint16 postion,\n        uint16 zIndex,\n        uint256 num\n    ) public MustUser(msg.sender) {\n        bytes32 d = keccak256(abi.encodePacked(data));\n        require(baseInfo[d].userId == 0, \"Only Make Once Times!\");\n\n        for (uint256 i; i < num; i++) {\n            IPMT721(PMT721).mint();\n            uint256 id = IPMT721(PMT721).currentID();\n            material[id] = Material(\n                id,\n                time,\n                postion,\n                zIndex,\n                0,\n                msg.sender,\n                d\n            );\n        }\n        baseInfo[d] = BaseInfo(\n            data,\n            category,\n            decode,\n            name,\n            user[msg.sender].id\n        );\n    }\n\n    function reMake(uint256 id, uint256 num)\n        public\n        MustUser(msg.sender)\n        MustExist(id)\n    {\n        Material storage m = material[id];\n        bytes32 d = keccak256(abi.encodePacked(m.data));\n        require(\n            baseInfo[d].userId == user[msg.sender].id,\n            \"Only Owner Can Do It!\"\n        );\n        for (uint256 i; i < num; i++) {\n            IPMT721(PMT721).mint();\n            uint256 currentID = IPMT721(PMT721).currentID();\n            material[currentID] = Material(\n                currentID,\n                m.time,\n                m.position,\n                m.zIndex,\n                0,\n                msg.sender,\n                d\n            );\n        }\n    }\n\n    // 158551\n    function collect(uint256 id) public payable MustExist(id) {\n        collection[msg.sender].push(id);\n    }\n\n    function cancelCollect(uint256 index) public MustUser(msg.sender) {\n        uint256[] memory c = collection[msg.sender];\n        require(c.length > index, \"index not exist\");\n        collection[msg.sender][index] = 0;\n    }\n\n    function compose(uint256[] memory ids) public MustUser(msg.sender) {\n        for (uint256 i; i < ids.length; i++) {\n            uint256 id = ids[i];\n            Material memory m = material[id];\n            require(\n                msg.sender == m.owner,\n                \"The current item is not your asset!\"\n            );\n            material[id].isCompose = 1;\n            IPMT721(PMT721).safeTransferFrom(msg.sender, address(this), id);\n        }\n\n        IPMT721(PMT721).mint();\n        uint256 currentID = IPMT721(PMT721).currentID();\n        material[currentID] = Material(currentID, 0, 0, 0, 0, msg.sender, \"\");\n        composes[currentID] = ids;\n    }\n\n    function cancelCompose(uint256 id)\n        public\n        MustUser(msg.sender)\n        MustExist(id)\n        MustOwner(msg.sender, id)\n    {\n        uint256[] memory c = composes[id];\n        uint256 len = c.length;\n        require(len > 1, \"The id no composed\");\n        for (uint256 i; i < len; i++) {\n            uint256 idd = c[i];\n            material[c[i]].isCompose = 0;\n            IPMT721(PMT721).safeTransferFrom(address(this), msg.sender, idd);\n        }\n        composes[id] = [0];\n        IPMT721(PMT721).burn(id);\n        material[id] = Material(0, 0, 0, 0, 0, address(0), \"\");\n    }\n\n    function setTime(uint256 id, uint16 time)\n        public\n        MustExist(id)\n        MustOwner(msg.sender, id)\n    {\n        material[id].time = time;\n    }\n\n    function setPosition(uint256 id, uint16 position)\n        public\n        MustExist(id)\n        MustOwner(msg.sender, id)\n    {\n        material[id].position = position;\n    }\n\n    function setZindex(uint256 id, uint16 zIndex)\n        public\n        MustExist(id)\n        MustOwner(msg.sender, id)\n    {\n        material[id].zIndex = zIndex;\n    }\n\n    function subjion(uint256 ids, uint256 id)\n        public\n        MustExist(ids)\n        MustExist(id)\n        MustOwner(msg.sender, ids)\n        MustOwner(msg.sender, id)\n    {\n        uint256[] memory c = composes[ids];\n        uint256 len = c.length;\n        require(len > 1, \"The id no composed\");\n        Material memory m = material[id];\n        require(m.isCompose == 0, \"The id subjion\");\n        material[id].isCompose = 1;\n        composes[ids].push(id);\n    }\n\n    function subtract(uint256 ids, uint256 index)\n        public\n        MustExist(ids)\n        MustOwner(msg.sender, ids)\n    {\n        uint256[] memory c = composes[ids];\n        uint256 len = c.length;\n        require(len > index, \"The id no composed\");\n        uint256 id = c[index];\n        material[id].isCompose = 0;\n        composes[ids][index] = 0;\n    }\n\n    function setPMT721(address pmt721) public {\n        require(msg.sender == _owner, \"Only Owner Can Do It!\");\n        PMT721 = IPMT721(pmt721);\n    }\n\n    function transfer(\n        address from,\n        address to,\n        uint256 tokenId\n    ) public {\n        Material memory m = material[tokenId];\n        if (to == address(0)) {\n            material[tokenId].owner = address(this);\n        }\n        if (m.owner == from && from != address(0)) {\n            material[tokenId].owner = to;\n        }\n    }\n}\n",
  "sourcePath": "/Users/xiangzhengfeng/Desktop/mine/project/pixels-metaverse/contracts/PixelsMetavers.sol",
  "compiler": {
    "name": "solc",
    "version": "0.8.0+commit.c7dfd78e.Emscripten.clang"
  },
  "schemaVersion": "3.3.4",
  "updatedAt": "2021-12-23T13:10:18.614Z",
  "networkType": "ethereum",
  "devdoc": {
    "kind": "dev",
    "methods": {},
    "version": 1
  },
  "userdoc": {
    "kind": "user",
    "methods": {},
    "version": 1
  }
}