{
  "contractName": "PixelsMetavers",
  "abi": [
    {
      "inputs": [],
      "stateMutability": "nonpayable",
      "type": "constructor"
    },
    {
      "inputs": [
        {
          "internalType": "bytes32",
          "name": "",
          "type": "bytes32"
        }
      ],
      "name": "baseInfo",
      "outputs": [
        {
          "internalType": "string",
          "name": "data",
          "type": "string"
        },
        {
          "internalType": "string",
          "name": "category",
          "type": "string"
        },
        {
          "internalType": "string",
          "name": "bg",
          "type": "string"
        },
        {
          "internalType": "string",
          "name": "decode",
          "type": "string"
        },
        {
          "internalType": "string",
          "name": "name",
          "type": "string"
        },
        {
          "internalType": "uint256",
          "name": "userId",
          "type": "uint256"
        }
      ],
      "stateMutability": "view",
      "type": "function"
    },
    {
      "inputs": [
        {
          "internalType": "uint256",
          "name": "",
          "type": "uint256"
        }
      ],
      "name": "goods",
      "outputs": [
        {
          "internalType": "uint256",
          "name": "id",
          "type": "uint256"
        },
        {
          "internalType": "uint192",
          "name": "price",
          "type": "uint192"
        },
        {
          "internalType": "uint16",
          "name": "start",
          "type": "uint16"
        },
        {
          "internalType": "uint16",
          "name": "end",
          "type": "uint16"
        },
        {
          "internalType": "uint16",
          "name": "zIndex",
          "type": "uint16"
        },
        {
          "internalType": "uint8",
          "name": "isSale",
          "type": "uint8"
        },
        {
          "internalType": "uint8",
          "name": "isOutfit",
          "type": "uint8"
        },
        {
          "internalType": "address",
          "name": "owner",
          "type": "address"
        },
        {
          "internalType": "bytes32",
          "name": "data",
          "type": "bytes32"
        }
      ],
      "stateMutability": "view",
      "type": "function"
    },
    {
      "inputs": [
        {
          "internalType": "uint256",
          "name": "",
          "type": "uint256"
        }
      ],
      "name": "goodsList",
      "outputs": [
        {
          "internalType": "uint256",
          "name": "",
          "type": "uint256"
        }
      ],
      "stateMutability": "view",
      "type": "function"
    },
    {
      "inputs": [
        {
          "internalType": "address",
          "name": "",
          "type": "address"
        }
      ],
      "name": "user",
      "outputs": [
        {
          "internalType": "uint256",
          "name": "id",
          "type": "uint256"
        },
        {
          "internalType": "string",
          "name": "name",
          "type": "string"
        },
        {
          "internalType": "string",
          "name": "role",
          "type": "string"
        },
        {
          "internalType": "string",
          "name": "other",
          "type": "string"
        }
      ],
      "stateMutability": "view",
      "type": "function"
    },
    {
      "inputs": [],
      "name": "register",
      "outputs": [],
      "stateMutability": "nonpayable",
      "type": "function"
    },
    {
      "inputs": [
        {
          "internalType": "string",
          "name": "other",
          "type": "string"
        }
      ],
      "name": "setConfig",
      "outputs": [],
      "stateMutability": "nonpayable",
      "type": "function"
    },
    {
      "inputs": [
        {
          "internalType": "string",
          "name": "name",
          "type": "string"
        },
        {
          "internalType": "string",
          "name": "role",
          "type": "string"
        }
      ],
      "name": "setRole",
      "outputs": [],
      "stateMutability": "nonpayable",
      "type": "function"
    },
    {
      "inputs": [
        {
          "internalType": "address",
          "name": "to",
          "type": "address"
        }
      ],
      "name": "resetUser",
      "outputs": [],
      "stateMutability": "nonpayable",
      "type": "function"
    },
    {
      "inputs": [],
      "name": "getGoodsList",
      "outputs": [
        {
          "internalType": "uint256[]",
          "name": "",
          "type": "uint256[]"
        }
      ],
      "stateMutability": "view",
      "type": "function"
    },
    {
      "inputs": [
        {
          "internalType": "string",
          "name": "name",
          "type": "string"
        },
        {
          "internalType": "string",
          "name": "category",
          "type": "string"
        },
        {
          "internalType": "string",
          "name": "data",
          "type": "string"
        },
        {
          "internalType": "string",
          "name": "decode",
          "type": "string"
        },
        {
          "internalType": "string",
          "name": "bg",
          "type": "string"
        },
        {
          "internalType": "uint192",
          "name": "price",
          "type": "uint192"
        },
        {
          "internalType": "uint16",
          "name": "start",
          "type": "uint16"
        },
        {
          "internalType": "uint256",
          "name": "num",
          "type": "uint256"
        }
      ],
      "name": "postGoods",
      "outputs": [],
      "stateMutability": "nonpayable",
      "type": "function"
    },
    {
      "inputs": [
        {
          "internalType": "uint256",
          "name": "id",
          "type": "uint256"
        }
      ],
      "name": "buyGoods",
      "outputs": [],
      "stateMutability": "payable",
      "type": "function"
    },
    {
      "inputs": [
        {
          "internalType": "uint256",
          "name": "id",
          "type": "uint256"
        },
        {
          "internalType": "uint8",
          "name": "isOutfit",
          "type": "uint8"
        },
        {
          "internalType": "uint16",
          "name": "end",
          "type": "uint16"
        }
      ],
      "name": "outfit",
      "outputs": [],
      "stateMutability": "nonpayable",
      "type": "function"
    },
    {
      "inputs": [
        {
          "internalType": "address",
          "name": "pmt721",
          "type": "address"
        }
      ],
      "name": "setPMT721",
      "outputs": [],
      "stateMutability": "nonpayable",
      "type": "function"
    },
    {
      "inputs": [
        {
          "internalType": "address",
          "name": "from",
          "type": "address"
        },
        {
          "internalType": "address",
          "name": "to",
          "type": "address"
        },
        {
          "internalType": "uint256",
          "name": "tokenId",
          "type": "uint256"
        }
      ],
      "name": "transfer",
      "outputs": [],
      "stateMutability": "nonpayable",
      "type": "function"
    }
  ],
  "bytecode": "0x60a060405234801561001057600080fd5b503373ffffffffffffffffffffffffffffffffffffffff1660808173ffffffffffffffffffffffffffffffffffffffff1660601b8152505060805160601c6134156100666000396000610f8901526134156000f3fe6080604052600436106100dd5760003560e01c806381e7e20e1161007f578063a683e76911610059578063a683e769146102a6578063beabacc8146102e8578063d0799bee14610311578063d11db0101461033a576100dd565b806381e7e20e1461021f57806383f8f54c1461025f5780638f4babfb1461028a576100dd565b8063343959b4116100bb578063343959b41461017b5780636b2a0fe9146101a4578063749aa937146101cd5780638085a83a146101f6576100dd565b80631aa3a008146100e257806328d27f09146100f95780632f72439414610136575b600080fd5b3480156100ee57600080fd5b506100f7610363565b005b34801561010557600080fd5b50610120600480360381019061011b91906126e6565b610493565b60405161012d9190612f79565b60405180910390f35b34801561014257600080fd5b5061015d600480360381019061015891906126e6565b6104b7565b60405161017299989796959493929190612fee565b60405180910390f35b34801561018757600080fd5b506101a2600480360381019061019d9190612445565b61058d565b005b3480156101b057600080fd5b506101cb60048036038101906101c691906125bc565b6107f2565b005b3480156101d957600080fd5b506101f460048036038101906101ef9190612445565b610f87565b005b34801561020257600080fd5b5061021d60048036038101906102189190612738565b611058565b005b34801561022b57600080fd5b5061024660048036038101906102419190612445565b611413565b6040516102569493929190612f94565b60405180910390f35b34801561026b57600080fd5b506102746115db565b6040516102819190612d53565b60405180910390f35b6102a4600480360381019061029f91906126e6565b611633565b005b3480156102b257600080fd5b506102cd60048036038101906102c891906124e6565b611b3a565b6040516102df96959493929190612d75565b60405180910390f35b3480156102f457600080fd5b5061030f600480360381019061030a919061246e565b611e1e565b005b34801561031d57600080fd5b5061033860048036038101906103339190612550565b612074565b005b34801561034657600080fd5b50610361600480360381019061035c919061250f565b6121ab565b005b6000600260003373ffffffffffffffffffffffffffffffffffffffff1673ffffffffffffffffffffffffffffffffffffffff16815260200190815260200160002060000154116103e8576040517f08c379a00000000000000000000000000000000000000000000000000000000081526004016103df90612df9565b60405180910390fd5b629c40006001541115610430576040517f08c379a000000000000000000000000000000000000000000000000000000000815260040161042790612e79565b60405180910390fd5b6001600081548092919061044390613257565b9190505550600154600260003373ffffffffffffffffffffffffffffffffffffffff1673ffffffffffffffffffffffffffffffffffffffff16815260200190815260200160002060000181905550565b600581815481106104a357600080fd5b906000526020600020016000915090505481565b60036020528060005260406000206000915090508060000154908060010160009054906101000a900477ffffffffffffffffffffffffffffffffffffffffffffffff16908060010160189054906101000a900461ffff169080600101601a9054906101000a900461ffff169080600101601c9054906101000a900461ffff169080600101601e9054906101000a900460ff169080600101601f9054906101000a900460ff16908060020160009054906101000a900473ffffffffffffffffffffffffffffffffffffffff16908060030154905089565b6000600260008373ffffffffffffffffffffffffffffffffffffffff1673ffffffffffffffffffffffffffffffffffffffff1681526020019081526020016000206000015414610612576040517f08c379a000000000000000000000000000000000000000000000000000000000815260040161060990612f59565b60405180910390fd5b600260003373ffffffffffffffffffffffffffffffffffffffff1673ffffffffffffffffffffffffffffffffffffffff168152602001908152602001600020600260008373ffffffffffffffffffffffffffffffffffffffff1673ffffffffffffffffffffffffffffffffffffffff1681526020019081526020016000206000820154816000015560018201816001019080546106ae90613225565b6106b9929190612205565b5060028201816002019080546106ce90613225565b6106d9929190612205565b5060038201816003019080546106ee90613225565b6106f9929190612205565b5090505060405180608001604052806000815260200160405180602001604052806000815250815260200160405180602001604052806000815250815260200160405180602001604052806000815250815250600260003373ffffffffffffffffffffffffffffffffffffffff1673ffffffffffffffffffffffffffffffffffffffff1681526020019081526020016000206000820151816000015560208201518160010190805190602001906107b1929190612292565b5060408201518160020190805190602001906107ce929190612292565b5060608201518160030190805190602001906107eb929190612292565b5090505050565b6000600260003373ffffffffffffffffffffffffffffffffffffffff1673ffffffffffffffffffffffffffffffffffffffff1681526020019081526020016000206040518060800160405290816000820154815260200160018201805461085890613225565b80601f016020809104026020016040519081016040528092919081815260200182805461088490613225565b80156108d15780601f106108a6576101008083540402835291602001916108d1565b820191906000526020600020905b8154815290600101906020018083116108b457829003601f168201915b505050505081526020016002820180546108ea90613225565b80601f016020809104026020016040519081016040528092919081815260200182805461091690613225565b80156109635780601f1061093857610100808354040283529160200191610963565b820191906000526020600020905b81548152906001019060200180831161094657829003601f168201915b5050505050815260200160038201805461097c90613225565b80601f01602080910402602001604051908101604052809291908181526020018280546109a890613225565b80156109f55780601f106109ca576101008083540402835291602001916109f5565b820191906000526020600020905b8154815290600101906020018083116109d857829003601f168201915b5050505050815250509050604051602001610a0f90612d07565b604051602081830303815290604052805190602001208160400151604051602001610a3a9190612cf0565b6040516020818303038152906040528051906020012014610a90576040517f08c379a0000000000000000000000000000000000000000000000000000000008152600401610a8790612e99565b60405180910390fd5b600087604051602001610aa39190612cf0565b604051602081830303815290604052805190602001209050600060046000838152602001908152602001600020600501541415610bc1576040518060c001604052808981526020018a81526020018781526020018881526020018b81526020018360000151815250600460008381526020019081526020016000206000820151816000019080519060200190610b3a929190612292565b506020820151816001019080519060200190610b57929190612292565b506040820151816002019080519060200190610b74929190612292565b506060820151816003019080519060200190610b91929190612292565b506080820151816004019080519060200190610bae929190612292565b5060a08201518160050155905050610c1e565b8160000151600460008381526020019081526020016000206005015414610c1d576040517f08c379a0000000000000000000000000000000000000000000000000000000008152600401610c1490612e99565b60405180910390fd5b5b60005b83811015610f7a5760008054906101000a900473ffffffffffffffffffffffffffffffffffffffff1673ffffffffffffffffffffffffffffffffffffffff16631249c58b6040518163ffffffff1660e01b8152600401600060405180830381600087803b158015610c9157600080fd5b505af1158015610ca5573d6000803e3d6000fd5b5050505060008060009054906101000a900473ffffffffffffffffffffffffffffffffffffffff1673ffffffffffffffffffffffffffffffffffffffff16631c75cfb46040518163ffffffff1660e01b815260040160206040518083038186803b158015610d1257600080fd5b505afa158015610d26573d6000803e3d6000fd5b505050506040513d601f19601f82011682018060405250810190610d4a919061270f565b90506040518061012001604052808281526020018877ffffffffffffffffffffffffffffffffffffffffffffffff1681526020018761ffff1681526020018761ffff168152602001600061ffff168152602001600160ff168152602001600060ff1681526020013373ffffffffffffffffffffffffffffffffffffffff16815260200184815250600360008381526020019081526020016000206000820151816000015560208201518160010160006101000a81548177ffffffffffffffffffffffffffffffffffffffffffffffff021916908377ffffffffffffffffffffffffffffffffffffffffffffffff16021790555060408201518160010160186101000a81548161ffff021916908361ffff160217905550606082015181600101601a6101000a81548161ffff021916908361ffff160217905550608082015181600101601c6101000a81548161ffff021916908361ffff16021790555060a082015181600101601e6101000a81548160ff021916908360ff16021790555060c082015181600101601f6101000a81548160ff021916908360ff16021790555060e08201518160020160006101000a81548173ffffffffffffffffffffffffffffffffffffffff021916908373ffffffffffffffffffffffffffffffffffffffff16021790555061010082015181600301559050506005819080600181540180825580915050600190039060005260206000200160009091909190915055508080610f7290613257565b915050610c21565b5050505050505050505050565b7f000000000000000000000000000000000000000000000000000000000000000073ffffffffffffffffffffffffffffffffffffffff163373ffffffffffffffffffffffffffffffffffffffff1614611015576040517f08c379a000000000000000000000000000000000000000000000000000000000815260040161100c90612ef9565b60405180910390fd5b806000806101000a81548173ffffffffffffffffffffffffffffffffffffffff021916908373ffffffffffffffffffffffffffffffffffffffff16021790555050565b8260008054906101000a900473ffffffffffffffffffffffffffffffffffffffff1673ffffffffffffffffffffffffffffffffffffffff1663342de179826040518263ffffffff1660e01b81526004016110b29190612f79565b60206040518083038186803b1580156110ca57600080fd5b505afa1580156110de573d6000803e3d6000fd5b505050506040513d601f19601f8201168201806040525081019061110291906124bd565b611141576040517f08c379a000000000000000000000000000000000000000000000000000000000815260040161113890612eb9565b60405180910390fd5b60006003600086815260200190815260200160002060405180610120016040529081600082015481526020016001820160009054906101000a900477ffffffffffffffffffffffffffffffffffffffffffffffff1677ffffffffffffffffffffffffffffffffffffffffffffffff1677ffffffffffffffffffffffffffffffffffffffffffffffff1681526020016001820160189054906101000a900461ffff1661ffff1661ffff16815260200160018201601a9054906101000a900461ffff1661ffff1661ffff16815260200160018201601c9054906101000a900461ffff1661ffff1661ffff16815260200160018201601e9054906101000a900460ff1660ff1660ff16815260200160018201601f9054906101000a900460ff1660ff1660ff1681526020016002820160009054906101000a900473ffffffffffffffffffffffffffffffffffffffff1673ffffffffffffffffffffffffffffffffffffffff1673ffffffffffffffffffffffffffffffffffffffff16815260200160038201548152505090508060e0015173ffffffffffffffffffffffffffffffffffffffff163373ffffffffffffffffffffffffffffffffffffffff161461133c576040517f08c379a000000000000000000000000000000000000000000000000000000000815260040161133390612f19565b60405180910390fd5b60008160a0015160ff1614611386576040517f08c379a000000000000000000000000000000000000000000000000000000000815260040161137d90612e39565b60405180910390fd5b8360ff168160c0015160ff16146113c7578360036000878152602001908152602001600020600101601f6101000a81548160ff021916908360ff1602179055505b806060015161ffff168361ffff161461140c578260036000878152602001908152602001600020600101601a6101000a81548161ffff021916908361ffff1602179055505b5050505050565b600260205280600052604060002060009150905080600001549080600101805461143c90613225565b80601f016020809104026020016040519081016040528092919081815260200182805461146890613225565b80156114b55780601f1061148a576101008083540402835291602001916114b5565b820191906000526020600020905b81548152906001019060200180831161149857829003601f168201915b5050505050908060020180546114ca90613225565b80601f01602080910402602001604051908101604052809291908181526020018280546114f690613225565b80156115435780601f1061151857610100808354040283529160200191611543565b820191906000526020600020905b81548152906001019060200180831161152657829003601f168201915b50505050509080600301805461155890613225565b80601f016020809104026020016040519081016040528092919081815260200182805461158490613225565b80156115d15780601f106115a6576101008083540402835291602001916115d1565b820191906000526020600020905b8154815290600101906020018083116115b457829003601f168201915b5050505050905084565b6060600580548060200260200160405190810160405280929190818152602001828054801561162957602002820191906000526020600020905b815481526020019060010190808311611615575b5050505050905090565b8060008054906101000a900473ffffffffffffffffffffffffffffffffffffffff1673ffffffffffffffffffffffffffffffffffffffff1663342de179826040518263ffffffff1660e01b815260040161168d9190612f79565b60206040518083038186803b1580156116a557600080fd5b505afa1580156116b9573d6000803e3d6000fd5b505050506040513d601f19601f820116820180604052508101906116dd91906124bd565b61171c576040517f08c379a000000000000000000000000000000000000000000000000000000000815260040161171390612eb9565b60405180910390fd5b60006003600084815260200190815260200160002060405180610120016040529081600082015481526020016001820160009054906101000a900477ffffffffffffffffffffffffffffffffffffffffffffffff1677ffffffffffffffffffffffffffffffffffffffffffffffff1677ffffffffffffffffffffffffffffffffffffffffffffffff1681526020016001820160189054906101000a900461ffff1661ffff1661ffff16815260200160018201601a9054906101000a900461ffff1661ffff1661ffff16815260200160018201601c9054906101000a900461ffff1661ffff1661ffff16815260200160018201601e9054906101000a900460ff1660ff1660ff16815260200160018201601f9054906101000a900460ff1660ff1660ff1681526020016002820160009054906101000a900473ffffffffffffffffffffffffffffffffffffffff1673ffffffffffffffffffffffffffffffffffffffff1673ffffffffffffffffffffffffffffffffffffffff1681526020016003820154815250509050806020015177ffffffffffffffffffffffffffffffffffffffffffffffff16341015611906576040517f08c379a00000000000000000000000000000000000000000000000000000000081526004016118fd90612e19565b60405180910390fd5b60008160a0015160ff1611611950576040517f08c379a000000000000000000000000000000000000000000000000000000000815260040161194790612ed9565b60405180910390fd5b60008160e0015173ffffffffffffffffffffffffffffffffffffffff1634600067ffffffffffffffff8111156119af577f4e487b7100000000000000000000000000000000000000000000000000000000600052604160045260246000fd5b6040519080825280601f01601f1916602001820160405280156119e15781602001600182028036833780820191505090505b506040516119ef9190612cd9565b60006040518083038185875af1925050503d8060008114611a2c576040519150601f19603f3d011682016040523d82523d6000602084013e611a31565b606091505b5050905080611a75576040517f08c379a0000000000000000000000000000000000000000000000000000000008152600401611a6c90612f39565b60405180910390fd5b600060036000868152602001908152602001600020600101601e6101000a81548160ff021916908360ff16021790555060008054906101000a900473ffffffffffffffffffffffffffffffffffffffff1673ffffffffffffffffffffffffffffffffffffffff166342842e0e3033876040518463ffffffff1660e01b8152600401611b0293929190612d1c565b600060405180830381600087803b158015611b1c57600080fd5b505af1158015611b30573d6000803e3d6000fd5b5050505050505050565b6004602052806000526040600020600091509050806000018054611b5d90613225565b80601f0160208091040260200160405190810160405280929190818152602001828054611b8990613225565b8015611bd65780601f10611bab57610100808354040283529160200191611bd6565b820191906000526020600020905b815481529060010190602001808311611bb957829003601f168201915b505050505090806001018054611beb90613225565b80601f0160208091040260200160405190810160405280929190818152602001828054611c1790613225565b8015611c645780601f10611c3957610100808354040283529160200191611c64565b820191906000526020600020905b815481529060010190602001808311611c4757829003601f168201915b505050505090806002018054611c7990613225565b80601f0160208091040260200160405190810160405280929190818152602001828054611ca590613225565b8015611cf25780601f10611cc757610100808354040283529160200191611cf2565b820191906000526020600020905b815481529060010190602001808311611cd557829003601f168201915b505050505090806003018054611d0790613225565b80601f0160208091040260200160405190810160405280929190818152602001828054611d3390613225565b8015611d805780601f10611d5557610100808354040283529160200191611d80565b820191906000526020600020905b815481529060010190602001808311611d6357829003601f168201915b505050505090806004018054611d9590613225565b80601f0160208091040260200160405190810160405280929190818152602001828054611dc190613225565b8015611e0e5780601f10611de357610100808354040283529160200191611e0e565b820191906000526020600020905b815481529060010190602001808311611df157829003601f168201915b5050505050908060050154905086565b60006003600083815260200190815260200160002060405180610120016040529081600082015481526020016001820160009054906101000a900477ffffffffffffffffffffffffffffffffffffffffffffffff1677ffffffffffffffffffffffffffffffffffffffffffffffff1677ffffffffffffffffffffffffffffffffffffffffffffffff1681526020016001820160189054906101000a900461ffff1661ffff1661ffff16815260200160018201601a9054906101000a900461ffff1661ffff1661ffff16815260200160018201601c9054906101000a900461ffff1661ffff1661ffff16815260200160018201601e9054906101000a900460ff1660ff1660ff16815260200160018201601f9054906101000a900460ff1660ff1660ff1681526020016002820160009054906101000a900473ffffffffffffffffffffffffffffffffffffffff1673ffffffffffffffffffffffffffffffffffffffff1673ffffffffffffffffffffffffffffffffffffffff16815260200160038201548152505090508373ffffffffffffffffffffffffffffffffffffffff168160e0015173ffffffffffffffffffffffffffffffffffffffff161480156120135750600073ffffffffffffffffffffffffffffffffffffffff168473ffffffffffffffffffffffffffffffffffffffff1614155b1561206e57826003600084815260200190815260200160002060020160006101000a81548173ffffffffffffffffffffffffffffffffffffffff021916908373ffffffffffffffffffffffffffffffffffffffff1602179055505b50505050565b6000600260003373ffffffffffffffffffffffffffffffffffffffff1673ffffffffffffffffffffffffffffffffffffffff16815260200190815260200160002060000154116120f9576040517f08c379a00000000000000000000000000000000000000000000000000000000081526004016120f090612e59565b60405180910390fd5b80600260003373ffffffffffffffffffffffffffffffffffffffff1673ffffffffffffffffffffffffffffffffffffffff168152602001908152602001600020600201908051906020019061214f929190612292565b5081600260003373ffffffffffffffffffffffffffffffffffffffff1673ffffffffffffffffffffffffffffffffffffffff16815260200190815260200160002060010190805190602001906121a6929190612292565b505050565b80600260003373ffffffffffffffffffffffffffffffffffffffff1673ffffffffffffffffffffffffffffffffffffffff1681526020019081526020016000206003019080519060200190612201929190612292565b5050565b82805461221190613225565b90600052602060002090601f0160209004810192826122335760008555612281565b82601f106122445780548555612281565b8280016001018555821561228157600052602060002091601f016020900482015b82811115612280578254825591600101919060010190612265565b5b50905061228e9190612318565b5090565b82805461229e90613225565b90600052602060002090601f0160209004810192826122c05760008555612307565b82601f106122d957805160ff1916838001178555612307565b82800160010185558215612307579182015b828111156123065782518255916020019190600101906122eb565b5b5090506123149190612318565b5090565b5b80821115612331576000816000905550600101612319565b5090565b6000612348612343846130ac565b61307b565b90508281526020810184848401111561236057600080fd5b61236b8482856131e3565b509392505050565b6000813590506123828161333e565b92915050565b60008151905061239781613355565b92915050565b6000813590506123ac8161336c565b92915050565b600082601f8301126123c357600080fd5b81356123d3848260208601612335565b91505092915050565b6000813590506123eb81613383565b92915050565b6000813590506124008161339a565b92915050565b600081359050612415816133b1565b92915050565b60008151905061242a816133b1565b92915050565b60008135905061243f816133c8565b92915050565b60006020828403121561245757600080fd5b600061246584828501612373565b91505092915050565b60008060006060848603121561248357600080fd5b600061249186828701612373565b93505060206124a286828701612373565b92505060406124b386828701612406565b9150509250925092565b6000602082840312156124cf57600080fd5b60006124dd84828501612388565b91505092915050565b6000602082840312156124f857600080fd5b60006125068482850161239d565b91505092915050565b60006020828403121561252157600080fd5b600082013567ffffffffffffffff81111561253b57600080fd5b612547848285016123b2565b91505092915050565b6000806040838503121561256357600080fd5b600083013567ffffffffffffffff81111561257d57600080fd5b612589858286016123b2565b925050602083013567ffffffffffffffff8111156125a657600080fd5b6125b2858286016123b2565b9150509250929050565b600080600080600080600080610100898b0312156125d957600080fd5b600089013567ffffffffffffffff8111156125f357600080fd5b6125ff8b828c016123b2565b985050602089013567ffffffffffffffff81111561261c57600080fd5b6126288b828c016123b2565b975050604089013567ffffffffffffffff81111561264557600080fd5b6126518b828c016123b2565b965050606089013567ffffffffffffffff81111561266e57600080fd5b61267a8b828c016123b2565b955050608089013567ffffffffffffffff81111561269757600080fd5b6126a38b828c016123b2565b94505060a06126b48b828c016123f1565b93505060c06126c58b828c016123dc565b92505060e06126d68b828c01612406565b9150509295985092959890939650565b6000602082840312156126f857600080fd5b600061270684828501612406565b91505092915050565b60006020828403121561272157600080fd5b600061272f8482850161241b565b91505092915050565b60008060006060848603121561274d57600080fd5b600061275b86828701612406565b935050602061276c86828701612430565b925050604061277d868287016123dc565b9150509250925092565b60006127938383612cac565b60208301905092915050565b6127a881613152565b82525050565b60006127b9826130ec565b6127c3818561311a565b93506127ce836130dc565b8060005b838110156127ff5781516127e68882612787565b97506127f18361310d565b9250506001810190506127d2565b5085935050505092915050565b61281581613170565b82525050565b6000612826826130f7565b612830818561312b565b93506128408185602086016131f2565b80840191505092915050565b600061285782613102565b6128618185613136565b93506128718185602086016131f2565b61287a8161332d565b840191505092915050565b600061289082613102565b61289a8185613147565b93506128aa8185602086016131f2565b80840191505092915050565b60006128c3602083613136565b91507f596f752061726520616c7265616479206120706c6174666f726d2075736572216000830152602082019050919050565b6000612903603983613136565b91507f54686520616d6f756e742070616964206973206c6f776572207468616e20746860008301527f65207072696365206f662074686520636f6d6d6f6469747921000000000000006020830152604082019050919050565b6000612969600883613147565b91507f6d65726368616e740000000000000000000000000000000000000000000000006000830152600882019050919050565b60006129a9601283613136565b91507f54686520676f6f6473206e6f2073616c652100000000000000000000000000006000830152602082019050919050565b60006129e9601483613136565b91507f4f6e6c7920557365722043616e20446f204974210000000000000000000000006000830152602082019050919050565b6000612a29603d83613136565b91507f546865206e756d626572206861732065786365656465642074686520746f746160008301527f6c20706f70756c6174696f6e206f662074686520756e697665727365210000006020830152604082019050919050565b6000612a8f601883613136565b91507f4f6e6c79204d65726368616e742043616e20446f2049742100000000000000006000830152602082019050919050565b6000612acf601b83613136565b91507f5468652070726f6475637420646f6573206e6f742065786973742100000000006000830152602082019050919050565b6000612b0f601083613136565b91507f54686520676f6f64732073616c656421000000000000000000000000000000006000830152602082019050919050565b6000612b4f601583613136565b91507f4f6e6c79204f776e65722043616e20446f2049742100000000000000000000006000830152602082019050919050565b6000612b8f602383613136565b91507f5468652063757272656e74206974656d206973206e6f7420796f75722061737360008301527f65742100000000000000000000000000000000000000000000000000000000006020830152604082019050919050565b6000612bf5601083613136565b91507f5472616e73666572206661696c65642e000000000000000000000000000000006000830152602082019050919050565b6000612c35602983613136565b91507f5468697320616464726573732061726520616c7265616479206120706c61746660008301527f6f726d20757365722100000000000000000000000000000000000000000000006020830152604082019050919050565b612c978161317a565b82525050565b612ca6816131a8565b82525050565b612cb5816131cc565b82525050565b612cc4816131cc565b82525050565b612cd3816131d6565b82525050565b6000612ce5828461281b565b915081905092915050565b6000612cfc8284612885565b915081905092915050565b6000612d128261295c565b9150819050919050565b6000606082019050612d31600083018661279f565b612d3e602083018561279f565b612d4b6040830184612cbb565b949350505050565b60006020820190508181036000830152612d6d81846127ae565b905092915050565b600060c0820190508181036000830152612d8f818961284c565b90508181036020830152612da3818861284c565b90508181036040830152612db7818761284c565b90508181036060830152612dcb818661284c565b90508181036080830152612ddf818561284c565b9050612dee60a0830184612cbb565b979650505050505050565b60006020820190508181036000830152612e12816128b6565b9050919050565b60006020820190508181036000830152612e32816128f6565b9050919050565b60006020820190508181036000830152612e528161299c565b9050919050565b60006020820190508181036000830152612e72816129dc565b9050919050565b60006020820190508181036000830152612e9281612a1c565b9050919050565b60006020820190508181036000830152612eb281612a82565b9050919050565b60006020820190508181036000830152612ed281612ac2565b9050919050565b60006020820190508181036000830152612ef281612b02565b9050919050565b60006020820190508181036000830152612f1281612b42565b9050919050565b60006020820190508181036000830152612f3281612b82565b9050919050565b60006020820190508181036000830152612f5281612be8565b9050919050565b60006020820190508181036000830152612f7281612c28565b9050919050565b6000602082019050612f8e6000830184612cbb565b92915050565b6000608082019050612fa96000830187612cbb565b8181036020830152612fbb818661284c565b90508181036040830152612fcf818561284c565b90508181036060830152612fe3818461284c565b905095945050505050565b600061012082019050613004600083018c612cbb565b613011602083018b612c9d565b61301e604083018a612c8e565b61302b6060830189612c8e565b6130386080830188612c8e565b61304560a0830187612cca565b61305260c0830186612cca565b61305f60e083018561279f565b61306d61010083018461280c565b9a9950505050505050505050565b6000604051905081810181811067ffffffffffffffff821117156130a2576130a16132fe565b5b8060405250919050565b600067ffffffffffffffff8211156130c7576130c66132fe565b5b601f19601f8301169050602081019050919050565b6000819050602082019050919050565b600081519050919050565b600081519050919050565b600081519050919050565b6000602082019050919050565b600082825260208201905092915050565b600081905092915050565b600082825260208201905092915050565b600081905092915050565b600061315d82613188565b9050919050565b60008115159050919050565b6000819050919050565b600061ffff82169050919050565b600073ffffffffffffffffffffffffffffffffffffffff82169050919050565b600077ffffffffffffffffffffffffffffffffffffffffffffffff82169050919050565b6000819050919050565b600060ff82169050919050565b82818337600083830152505050565b60005b838110156132105780820151818401526020810190506131f5565b8381111561321f576000848401525b50505050565b6000600282049050600182168061323d57607f821691505b60208210811415613251576132506132cf565b5b50919050565b6000613262826131cc565b91507fffffffffffffffffffffffffffffffffffffffffffffffffffffffffffffffff821415613295576132946132a0565b5b600182019050919050565b7f4e487b7100000000000000000000000000000000000000000000000000000000600052601160045260246000fd5b7f4e487b7100000000000000000000000000000000000000000000000000000000600052602260045260246000fd5b7f4e487b7100000000000000000000000000000000000000000000000000000000600052604160045260246000fd5b6000601f19601f8301169050919050565b61334781613152565b811461335257600080fd5b50565b61335e81613164565b811461336957600080fd5b50565b61337581613170565b811461338057600080fd5b50565b61338c8161317a565b811461339757600080fd5b50565b6133a3816131a8565b81146133ae57600080fd5b50565b6133ba816131cc565b81146133c557600080fd5b50565b6133d1816131d6565b81146133dc57600080fd5b5056fea26469706673582212202688ef26ee0aa17820dfe28ef60d386189f9ee70138a698a7eb72403ae2a4b3664736f6c63430008000033",
  "immutableReferences": {
    "207": [
      {
        "length": 32,
        "start": 3977
      }
    ]
  },
  "source": "// SPDX-License-Identifier: GPL-3.0\npragma solidity ^0.8.0;\n\nimport \"./IPMT721.sol\";\n\ncontract PixelsMetavers {\n    IPMT721 private PMT721;\n    address private immutable _owner;\n\n    uint256 amount;\n\n    struct User {\n        uint256 id;\n        string name;\n        string role;\n        string other;\n    }\n    mapping(address => User) public user;\n\n    struct Goods {\n        uint256 id;\n        uint192 price;\n        uint16 start;\n        uint16 end;\n        uint16 zIndex;\n        uint8 isSale;\n        uint8 isOutfit;\n        address owner;\n        bytes32 data;\n    }\n    mapping(uint256 => Goods) public goods;\n\n    struct BaseInfo {\n        string data;\n        string category;\n        string bg;\n        string decode;\n        string name;\n        uint256 userId;\n    }\n    mapping(bytes32 => BaseInfo) public baseInfo;\n\n    uint256[] public goodsList;\n\n    modifier MustExist(uint256 id) {\n        require(IPMT721(PMT721).exits(id), \"The product does not exist!\");\n        _;\n    }\n\n    constructor() {\n        _owner = msg.sender;\n    }\n\n    //118008 ropsten 118458 local\n    function register() public {\n        require(user[msg.sender].id > 0, \"You are already a platform user!\");\n        require(\n            amount <= 10240000,\n            \"The number has exceeded the total population of the universe!\"\n        );\n        amount++;\n        user[msg.sender].id = amount;\n    }\n\n    //65023 67528  bgColor: '#c18686', gridColor: '#472a2a', withGrid: true  132457\n    function setConfig(string memory other) public {\n        user[msg.sender].other = other;\n    }\n\n    function setRole(string memory name, string memory role) public {\n        require(user[msg.sender].id > 0, \"Only User Can Do It!\");\n        user[msg.sender].role = role;\n        user[msg.sender].name = name;\n    }\n\n    function resetUser(address to) public {\n        require(user[to].id == 0, \"This address are already a platform user!\");\n        user[to] = user[msg.sender];\n        user[msg.sender] = User(0, \"\", \"\", \"\");\n    }\n\n    function getGoodsList() public view returns (uint256[] memory) {\n        return goodsList;\n    }\n\n    function postGoods(\n        string memory name,\n        string memory category,\n        string memory data,\n        string memory decode,\n        string memory bg,\n        uint192 price,\n        uint16 start,\n        uint256 num\n    ) public {\n        User memory u = user[msg.sender];\n        require(\n            keccak256(abi.encodePacked(u.role)) ==\n                keccak256(abi.encodePacked(\"merchant\")),\n            \"Only Merchant Can Do It!\"\n        );\n        bytes32 d = keccak256(abi.encodePacked(data));\n        if (baseInfo[d].userId == 0) {\n            baseInfo[d] = BaseInfo(data, category, bg, decode, name, u.id);\n        } else {\n            require(baseInfo[d].userId == u.id, \"Only Merchant Can Do It!\");\n        }\n\n        for (uint256 i; i < num; i++) {\n            IPMT721(PMT721).mint();\n            uint256 id = IPMT721(PMT721).currentID();\n\n            goods[id] = Goods(id, price, start, start, 0, 1, 0, msg.sender, d);\n            goodsList.push(id);\n        }\n    }\n\n    // 158551\n    function buyGoods(uint256 id) public payable MustExist(id) {\n        Goods memory g = goods[id];\n        require(\n            msg.value >= g.price,\n            \"The amount paid is lower than the price of the commodity!\"\n        );\n        require(g.isSale > 0, \"The goods saled!\");\n\n        (bool success, ) = g.owner.call{value: msg.value}(new bytes(0));\n        require(success, \"Transfer failed.\");\n\n        goods[id].isSale = 0;\n        IPMT721(PMT721).safeTransferFrom(address(this), msg.sender, id);\n    }\n\n    function outfit(\n        uint256 id,\n        uint8 isOutfit,\n        uint16 end\n    ) public MustExist(id) {\n        Goods memory g = goods[id];\n        require(msg.sender == g.owner, \"The current item is not your asset!\");\n        require(g.isSale == 0, \"The goods no sale!\");\n        if (g.isOutfit != isOutfit) {\n            goods[id].isOutfit = isOutfit;\n        }\n        if (end != g.end) {\n            goods[id].end = end;\n        }\n    }\n\n    function setPMT721(address pmt721) public {\n        require(msg.sender == _owner, \"Only Owner Can Do It!\");\n        PMT721 = IPMT721(pmt721);\n    }\n\n    function transfer(\n        address from,\n        address to,\n        uint256 tokenId\n    ) public {\n        Goods memory g = goods[tokenId];\n        if (g.owner == from && from != address(0)) {\n            goods[tokenId].owner = to;\n        }\n    }\n}\n",
  "sourcePath": "/Users/xiangzhengfeng/Desktop/mine/project/pixels-metavers/contracts/PixelsMetavers.sol",
  "compiler": {
    "name": "solc",
    "version": "0.8.0+commit.c7dfd78e.Emscripten.clang"
  },
  "schemaVersion": "3.3.4",
  "updatedAt": "2021-10-27T10:40:08.290Z",
  "devdoc": {
    "kind": "dev",
    "methods": {},
    "version": 1
  },
  "userdoc": {
    "kind": "user",
    "methods": {},
    "version": 1
  }
}