{
  "contractName": "PixelsMetavers",
  "abi": [
    {
      "inputs": [],
      "stateMutability": "nonpayable",
      "type": "constructor"
    },
    {
      "anonymous": false,
      "inputs": [
        {
          "indexed": true,
          "internalType": "address",
          "name": "owner",
          "type": "address"
        },
        {
          "indexed": true,
          "internalType": "uint256",
          "name": "id",
          "type": "uint256"
        }
      ],
      "name": "CollectEvent",
      "type": "event"
    },
    {
      "anonymous": false,
      "inputs": [
        {
          "indexed": true,
          "internalType": "address",
          "name": "owner",
          "type": "address"
        },
        {
          "indexed": true,
          "internalType": "uint256",
          "name": "id",
          "type": "uint256"
        }
      ],
      "name": "ComposeEvent",
      "type": "event"
    },
    {
      "inputs": [
        {
          "internalType": "bytes32",
          "name": "",
          "type": "bytes32"
        }
      ],
      "name": "baseInfo",
      "outputs": [
        {
          "internalType": "string",
          "name": "data",
          "type": "string"
        },
        {
          "internalType": "string",
          "name": "category",
          "type": "string"
        },
        {
          "internalType": "string",
          "name": "decode",
          "type": "string"
        },
        {
          "internalType": "string",
          "name": "name",
          "type": "string"
        },
        {
          "internalType": "uint256",
          "name": "userId",
          "type": "uint256"
        }
      ],
      "stateMutability": "view",
      "type": "function",
      "constant": true
    },
    {
      "inputs": [
        {
          "internalType": "address",
          "name": "",
          "type": "address"
        },
        {
          "internalType": "uint256",
          "name": "",
          "type": "uint256"
        }
      ],
      "name": "collection",
      "outputs": [
        {
          "internalType": "uint256",
          "name": "",
          "type": "uint256"
        }
      ],
      "stateMutability": "view",
      "type": "function",
      "constant": true
    },
    {
      "inputs": [
        {
          "internalType": "uint256",
          "name": "",
          "type": "uint256"
        },
        {
          "internalType": "uint256",
          "name": "",
          "type": "uint256"
        }
      ],
      "name": "composes",
      "outputs": [
        {
          "internalType": "uint256",
          "name": "",
          "type": "uint256"
        }
      ],
      "stateMutability": "view",
      "type": "function",
      "constant": true
    },
    {
      "inputs": [
        {
          "internalType": "uint256",
          "name": "",
          "type": "uint256"
        }
      ],
      "name": "material",
      "outputs": [
        {
          "internalType": "uint256",
          "name": "id",
          "type": "uint256"
        },
        {
          "internalType": "uint256",
          "name": "compose",
          "type": "uint256"
        },
        {
          "internalType": "string",
          "name": "time",
          "type": "string"
        },
        {
          "internalType": "string",
          "name": "position",
          "type": "string"
        },
        {
          "internalType": "string",
          "name": "zIndex",
          "type": "string"
        },
        {
          "internalType": "address",
          "name": "owner",
          "type": "address"
        },
        {
          "internalType": "bytes32",
          "name": "data",
          "type": "bytes32"
        }
      ],
      "stateMutability": "view",
      "type": "function",
      "constant": true
    },
    {
      "inputs": [
        {
          "internalType": "address",
          "name": "",
          "type": "address"
        }
      ],
      "name": "user",
      "outputs": [
        {
          "internalType": "uint256",
          "name": "id",
          "type": "uint256"
        },
        {
          "internalType": "uint256",
          "name": "avater",
          "type": "uint256"
        },
        {
          "internalType": "string",
          "name": "role",
          "type": "string"
        },
        {
          "internalType": "string",
          "name": "other",
          "type": "string"
        }
      ],
      "stateMutability": "view",
      "type": "function",
      "constant": true
    },
    {
      "inputs": [],
      "name": "register",
      "outputs": [],
      "stateMutability": "nonpayable",
      "type": "function"
    },
    {
      "inputs": [
        {
          "internalType": "string",
          "name": "role",
          "type": "string"
        },
        {
          "internalType": "uint256",
          "name": "id",
          "type": "uint256"
        },
        {
          "internalType": "string",
          "name": "other",
          "type": "string"
        }
      ],
      "name": "setConfig",
      "outputs": [],
      "stateMutability": "nonpayable",
      "type": "function"
    },
    {
      "inputs": [
        {
          "internalType": "address",
          "name": "to",
          "type": "address"
        }
      ],
      "name": "resetUser",
      "outputs": [],
      "stateMutability": "nonpayable",
      "type": "function"
    },
    {
      "inputs": [
        {
          "internalType": "uint256",
          "name": "id",
          "type": "uint256"
        },
        {
          "internalType": "string",
          "name": "time",
          "type": "string"
        },
        {
          "internalType": "string",
          "name": "position",
          "type": "string"
        },
        {
          "internalType": "string",
          "name": "zIndex",
          "type": "string"
        }
      ],
      "name": "setConfigMaterial",
      "outputs": [],
      "stateMutability": "nonpayable",
      "type": "function"
    },
    {
      "inputs": [],
      "name": "getMaterialLength",
      "outputs": [
        {
          "internalType": "uint256",
          "name": "",
          "type": "uint256"
        }
      ],
      "stateMutability": "view",
      "type": "function",
      "constant": true
    },
    {
      "inputs": [
        {
          "internalType": "uint256",
          "name": "id",
          "type": "uint256"
        }
      ],
      "name": "getMaterial",
      "outputs": [
        {
          "components": [
            {
              "components": [
                {
                  "internalType": "uint256",
                  "name": "id",
                  "type": "uint256"
                },
                {
                  "internalType": "uint256",
                  "name": "compose",
                  "type": "uint256"
                },
                {
                  "internalType": "string",
                  "name": "time",
                  "type": "string"
                },
                {
                  "internalType": "string",
                  "name": "position",
                  "type": "string"
                },
                {
                  "internalType": "string",
                  "name": "zIndex",
                  "type": "string"
                },
                {
                  "internalType": "address",
                  "name": "owner",
                  "type": "address"
                },
                {
                  "internalType": "bytes32",
                  "name": "data",
                  "type": "bytes32"
                }
              ],
              "internalType": "struct PixelsMetavers.Material",
              "name": "material",
              "type": "tuple"
            },
            {
              "components": [
                {
                  "internalType": "string",
                  "name": "data",
                  "type": "string"
                },
                {
                  "internalType": "string",
                  "name": "category",
                  "type": "string"
                },
                {
                  "internalType": "string",
                  "name": "decode",
                  "type": "string"
                },
                {
                  "internalType": "string",
                  "name": "name",
                  "type": "string"
                },
                {
                  "internalType": "uint256",
                  "name": "userId",
                  "type": "uint256"
                }
              ],
              "internalType": "struct PixelsMetavers.BaseInfo",
              "name": "baseInfo",
              "type": "tuple"
            },
            {
              "internalType": "uint256[]",
              "name": "composes",
              "type": "uint256[]"
            }
          ],
          "internalType": "struct PixelsMetavers.MaterialInfo",
          "name": "",
          "type": "tuple"
        }
      ],
      "stateMutability": "view",
      "type": "function",
      "constant": true
    },
    {
      "inputs": [
        {
          "internalType": "string",
          "name": "name",
          "type": "string"
        },
        {
          "internalType": "string",
          "name": "category",
          "type": "string"
        },
        {
          "internalType": "string",
          "name": "data",
          "type": "string"
        },
        {
          "internalType": "string",
          "name": "decode",
          "type": "string"
        },
        {
          "internalType": "uint256",
          "name": "num",
          "type": "uint256"
        }
      ],
      "name": "make",
      "outputs": [],
      "stateMutability": "nonpayable",
      "type": "function"
    },
    {
      "inputs": [
        {
          "internalType": "uint256",
          "name": "id",
          "type": "uint256"
        },
        {
          "internalType": "uint256",
          "name": "num",
          "type": "uint256"
        }
      ],
      "name": "reMake",
      "outputs": [],
      "stateMutability": "nonpayable",
      "type": "function"
    },
    {
      "inputs": [
        {
          "internalType": "uint256",
          "name": "id",
          "type": "uint256"
        }
      ],
      "name": "collect",
      "outputs": [],
      "stateMutability": "nonpayable",
      "type": "function"
    },
    {
      "inputs": [
        {
          "internalType": "uint256",
          "name": "id",
          "type": "uint256"
        },
        {
          "internalType": "uint256",
          "name": "index",
          "type": "uint256"
        }
      ],
      "name": "cancelCollect",
      "outputs": [],
      "stateMutability": "nonpayable",
      "type": "function"
    },
    {
      "inputs": [
        {
          "internalType": "address",
          "name": "from",
          "type": "address"
        }
      ],
      "name": "getCollection",
      "outputs": [
        {
          "internalType": "uint256[]",
          "name": "",
          "type": "uint256[]"
        }
      ],
      "stateMutability": "view",
      "type": "function",
      "constant": true
    },
    {
      "inputs": [
        {
          "internalType": "uint256",
          "name": "id",
          "type": "uint256"
        }
      ],
      "name": "getCompose",
      "outputs": [
        {
          "internalType": "uint256[]",
          "name": "",
          "type": "uint256[]"
        }
      ],
      "stateMutability": "view",
      "type": "function",
      "constant": true
    },
    {
      "inputs": [
        {
          "internalType": "uint256[]",
          "name": "ids",
          "type": "uint256[]"
        },
        {
          "internalType": "string",
          "name": "name",
          "type": "string"
        },
        {
          "internalType": "string",
          "name": "category",
          "type": "string"
        },
        {
          "internalType": "string",
          "name": "data",
          "type": "string"
        },
        {
          "internalType": "string",
          "name": "decode",
          "type": "string"
        }
      ],
      "name": "compose",
      "outputs": [],
      "stateMutability": "nonpayable",
      "type": "function"
    },
    {
      "inputs": [
        {
          "internalType": "uint256",
          "name": "id",
          "type": "uint256"
        }
      ],
      "name": "cancelCompose",
      "outputs": [],
      "stateMutability": "nonpayable",
      "type": "function"
    },
    {
      "inputs": [
        {
          "internalType": "uint256",
          "name": "ids",
          "type": "uint256"
        },
        {
          "internalType": "uint256",
          "name": "id",
          "type": "uint256"
        }
      ],
      "name": "subjion",
      "outputs": [],
      "stateMutability": "nonpayable",
      "type": "function"
    },
    {
      "inputs": [
        {
          "internalType": "uint256",
          "name": "ids",
          "type": "uint256"
        },
        {
          "internalType": "uint256",
          "name": "id",
          "type": "uint256"
        },
        {
          "internalType": "uint256",
          "name": "index",
          "type": "uint256"
        }
      ],
      "name": "subtract",
      "outputs": [],
      "stateMutability": "nonpayable",
      "type": "function"
    },
    {
      "inputs": [
        {
          "internalType": "address",
          "name": "pmt721",
          "type": "address"
        }
      ],
      "name": "setPMT721",
      "outputs": [],
      "stateMutability": "nonpayable",
      "type": "function"
    },
    {
      "inputs": [
        {
          "internalType": "address",
          "name": "from",
          "type": "address"
        },
        {
          "internalType": "address",
          "name": "to",
          "type": "address"
        },
        {
          "internalType": "uint256",
          "name": "id",
          "type": "uint256"
        }
      ],
      "name": "handleTransfer",
      "outputs": [],
      "stateMutability": "nonpayable",
      "type": "function"
    }
  ],
  "bytecode": "0x60a060405234801561001057600080fd5b503373ffffffffffffffffffffffffffffffffffffffff1660808173ffffffffffffffffffffffffffffffffffffffff1660601b8152505060805160601c615b5862000067600039600061282d0152615b586000f3fe608060405234801561001057600080fd5b506004361061014d5760003560e01c806381e7e20e116100c3578063c8a000e11161007c578063c8a000e114610375578063ce3f865f146103ab578063cfb20619146103c7578063d095a65b146103e3578063da6d890914610413578063e40de887146104435761014d565b806381e7e20e1461028857806386ad9770146102bb578063a55c7327146102d9578063a683e76914610309578063a6f1c9801461033d578063b0934b11146103595761014d565b80633cadff09116101155780633cadff09146101e057806346197c9a146101fc57806354f79db41461021857806366008bde14610234578063749aa937146102505780637f9b8dd41461026c5761014d565b8063095c4fef146101525780630ae59f3b1461016e57806311719fed1461019e5780631aa3a008146101ba578063343959b4146101c4575b600080fd5b61016c60048036038101906101679190614d8f565b610473565b005b61018860048036038101906101839190614d53565b610b8a565b60405161019591906156b8565b60405180910390f35b6101b860048036038101906101b39190615123565b610bbb565b005b6101c26114d9565b005b6101de60048036038101906101d99190614cdb565b611603565b005b6101fa60048036038101906101f59190615123565b6119ed565b005b61021660048036038101906102119190614d04565b611cb8565b005b610232600480360381019061022d9190615026565b612129565b005b61024e60048036038101906102499190614ed0565b6125c5565b005b61026a60048036038101906102659190614cdb565b61282b565b005b6102866004803603810190610281919061515f565b6128fc565b005b6102a2600480360381019061029d9190614cdb565b612d6b565b6040516102b294939291906156d3565b60405180910390f35b6102c3612eab565b6040516102d091906156b8565b60405180910390f35b6102f360048036038101906102ee9190615123565b612f51565b60405161030091906156b8565b60405180910390f35b610323600480360381019061031e9190614ea7565b612f82565b604051610334959493929190615607565b60405180910390f35b61035760048036038101906103529190615078565b6131d8565b005b610373600480360381019061036e9190614fa7565b613522565b005b61038f600480360381019061038a9190615026565b6136a3565b6040516103a29796959493929190615726565b60405180910390f35b6103c560048036038101906103c09190615026565b61389d565b005b6103e160048036038101906103dc9190615123565b613cf4565b005b6103fd60048036038101906103f89190615026565b61409d565b60405161040a91906155e5565b60405180910390f35b61042d60048036038101906104289190615026565b614108565b60405161043a9190615696565b60405180910390f35b61045d60048036038101906104589190614cdb565b61465f565b60405161046a91906155e5565b60405180910390f35b336000600260008373ffffffffffffffffffffffffffffffffffffffff1673ffffffffffffffffffffffffffffffffffffffff16815260200190815260200160002060000154116104f9576040517f08c379a00000000000000000000000000000000000000000000000000000000081526004016104f090615676565b60405180910390fd5b60008651905060018111610542576040517f08c379a000000000000000000000000000000000000000000000000000000000815260040161053990615676565b60405180910390fd5b60008060009054906101000a900473ffffffffffffffffffffffffffffffffffffffff1673ffffffffffffffffffffffffffffffffffffffff16631c75cfb46040518163ffffffff1660e01b815260040160206040518083038186803b1580156105ab57600080fd5b505afa1580156105bf573d6000803e3d6000fd5b505050506040513d601f19601f820116820180604052508101906105e3919061504f565b905060006001826105f491906158b9565b9050600060018361060591906158b9565b60405160200161061591906155af565b6040516020818303038152906040528051906020012090506000600660008381526020019081526020016000206004015414610686576040517f08c379a000000000000000000000000000000000000000000000000000000000815260040161067d90615676565b60405180910390fd5b61068f816146f6565b60005b84811015610a145760008b82815181106106d5577f4e487b7100000000000000000000000000000000000000000000000000000000600052603260045260246000fd5b602002602001015190506000600360008381526020019081526020016000206040518060e00160405290816000820154815260200160018201548152602001600282018054610723906159a3565b80601f016020809104026020016040519081016040528092919081815260200182805461074f906159a3565b801561079c5780601f106107715761010080835404028352916020019161079c565b820191906000526020600020905b81548152906001019060200180831161077f57829003601f168201915b505050505081526020016003820180546107b5906159a3565b80601f01602080910402602001604051908101604052809291908181526020018280546107e1906159a3565b801561082e5780601f106108035761010080835404028352916020019161082e565b820191906000526020600020905b81548152906001019060200180831161081157829003601f168201915b50505050508152602001600482018054610847906159a3565b80601f0160208091040260200160405190810160405280929190818152602001828054610873906159a3565b80156108c05780601f10610895576101008083540402835291602001916108c0565b820191906000526020600020905b8154815290600101906020018083116108a357829003601f168201915b505050505081526020016005820160009054906101000a900473ffffffffffffffffffffffffffffffffffffffff1673ffffffffffffffffffffffffffffffffffffffff1673ffffffffffffffffffffffffffffffffffffffff16815260200160068201548152505090508060a0015173ffffffffffffffffffffffffffffffffffffffff163373ffffffffffffffffffffffffffffffffffffffff161461099d576040517f08c379a000000000000000000000000000000000000000000000000000000000815260040161099490615676565b60405180910390fd5b60008160200151146109e4576040517f08c379a00000000000000000000000000000000000000000000000000000000081526004016109db90615676565b60405180910390fd5b84600360008481526020019081526020016000206001018190555050508080610a0c906159d5565b915050610692565b5089600460008481526020019081526020016000209080519060200190610a3c929190614971565b506040518060a001604052808881526020018981526020018781526020018a8152602001600260003373ffffffffffffffffffffffffffffffffffffffff1673ffffffffffffffffffffffffffffffffffffffff16815260200190815260200160002060000154815250600660008381526020019081526020016000206000820151816000019080519060200190610ad59291906149be565b506020820151816001019080519060200190610af29291906149be565b506040820151816002019080519060200190610b0f9291906149be565b506060820151816003019080519060200190610b2c9291906149be565b5060808201518160040155905050813373ffffffffffffffffffffffffffffffffffffffff167f0c27b09bf948dd198249e0040f4a2ebec1aefbfa12000f76101ca8d1b4b5701060405160405180910390a350505050505050505050565b60056020528160005260406000208181548110610ba657600080fd5b90600052602060002001600091509150505481565b33826000600360008381526020019081526020016000206040518060e00160405290816000820154815260200160018201548152602001600282018054610c01906159a3565b80601f0160208091040260200160405190810160405280929190818152602001828054610c2d906159a3565b8015610c7a5780601f10610c4f57610100808354040283529160200191610c7a565b820191906000526020600020905b815481529060010190602001808311610c5d57829003601f168201915b50505050508152602001600382018054610c93906159a3565b80601f0160208091040260200160405190810160405280929190818152602001828054610cbf906159a3565b8015610d0c5780601f10610ce157610100808354040283529160200191610d0c565b820191906000526020600020905b815481529060010190602001808311610cef57829003601f168201915b50505050508152602001600482018054610d25906159a3565b80601f0160208091040260200160405190810160405280929190818152602001828054610d51906159a3565b8015610d9e5780601f10610d7357610100808354040283529160200191610d9e565b820191906000526020600020905b815481529060010190602001808311610d8157829003601f168201915b505050505081526020016005820160009054906101000a900473ffffffffffffffffffffffffffffffffffffffff1673ffffffffffffffffffffffffffffffffffffffff1673ffffffffffffffffffffffffffffffffffffffff16815260200160068201548152505090508060a0015173ffffffffffffffffffffffffffffffffffffffff168373ffffffffffffffffffffffffffffffffffffffff1614610e7b576040517f08c379a0000000000000000000000000000000000000000000000000000000008152600401610e7290615676565b60405180910390fd5b33846000600360008381526020019081526020016000206040518060e00160405290816000820154815260200160018201548152602001600282018054610ec1906159a3565b80601f0160208091040260200160405190810160405280929190818152602001828054610eed906159a3565b8015610f3a5780601f10610f0f57610100808354040283529160200191610f3a565b820191906000526020600020905b815481529060010190602001808311610f1d57829003601f168201915b50505050508152602001600382018054610f53906159a3565b80601f0160208091040260200160405190810160405280929190818152602001828054610f7f906159a3565b8015610fcc5780601f10610fa157610100808354040283529160200191610fcc565b820191906000526020600020905b815481529060010190602001808311610faf57829003601f168201915b50505050508152602001600482018054610fe5906159a3565b80601f0160208091040260200160405190810160405280929190818152602001828054611011906159a3565b801561105e5780601f106110335761010080835404028352916020019161105e565b820191906000526020600020905b81548152906001019060200180831161104157829003601f168201915b505050505081526020016005820160009054906101000a900473ffffffffffffffffffffffffffffffffffffffff1673ffffffffffffffffffffffffffffffffffffffff1673ffffffffffffffffffffffffffffffffffffffff16815260200160068201548152505090508060a0015173ffffffffffffffffffffffffffffffffffffffff168373ffffffffffffffffffffffffffffffffffffffff161461113b576040517f08c379a000000000000000000000000000000000000000000000000000000000815260040161113290615676565b60405180910390fd5b6000600460008a815260200190815260200160002080548060200260200160405190810160405280929190818152602001828054801561119a57602002820191906000526020600020905b815481526020019060010190808311611186575b5050505050905060018151116111e5576040517f08c379a00000000000000000000000000000000000000000000000000000000081526004016111dc90615676565b60405180910390fd5b6000600360008a81526020019081526020016000206040518060e00160405290816000820154815260200160018201548152602001600282018054611229906159a3565b80601f0160208091040260200160405190810160405280929190818152602001828054611255906159a3565b80156112a25780601f10611277576101008083540402835291602001916112a2565b820191906000526020600020905b81548152906001019060200180831161128557829003601f168201915b505050505081526020016003820180546112bb906159a3565b80601f01602080910402602001604051908101604052809291908181526020018280546112e7906159a3565b80156113345780601f1061130957610100808354040283529160200191611334565b820191906000526020600020905b81548152906001019060200180831161131757829003601f168201915b5050505050815260200160048201805461134d906159a3565b80601f0160208091040260200160405190810160405280929190818152602001828054611379906159a3565b80156113c65780601f1061139b576101008083540402835291602001916113c6565b820191906000526020600020905b8154815290600101906020018083116113a957829003601f168201915b505050505081526020016005820160009054906101000a900473ffffffffffffffffffffffffffffffffffffffff1673ffffffffffffffffffffffffffffffffffffffff1673ffffffffffffffffffffffffffffffffffffffff16815260200160068201548152505090506000816020015114611478576040517f08c379a000000000000000000000000000000000000000000000000000000000815260040161146f90615676565b60405180910390fd5b89600360008b815260200190815260200160002060010181905550600460008b815260200190815260200160002089908060018154018082558091505060019003906000526020600020016000909190919091505550505050505050505050565b6000600260003373ffffffffffffffffffffffffffffffffffffffff1673ffffffffffffffffffffffffffffffffffffffff168152602001908152602001600020600001541461155e576040517f08c379a000000000000000000000000000000000000000000000000000000000815260040161155590615676565b60405180910390fd5b620fa00060015411156115a6576040517f08c379a000000000000000000000000000000000000000000000000000000000815260040161159d90615676565b60405180910390fd5b6001600081546115b5906159d5565b919050819055600260003373ffffffffffffffffffffffffffffffffffffffff1673ffffffffffffffffffffffffffffffffffffffff16815260200190815260200160002060000181905550565b336000600260008373ffffffffffffffffffffffffffffffffffffffff1673ffffffffffffffffffffffffffffffffffffffff1681526020019081526020016000206000015411611689576040517f08c379a000000000000000000000000000000000000000000000000000000000815260040161168090615676565b60405180910390fd5b6000600260008473ffffffffffffffffffffffffffffffffffffffff1673ffffffffffffffffffffffffffffffffffffffff168152602001908152602001600020600001541461170e576040517f08c379a000000000000000000000000000000000000000000000000000000000815260040161170590615676565b60405180910390fd5b6000600260003373ffffffffffffffffffffffffffffffffffffffff1673ffffffffffffffffffffffffffffffffffffffff168152602001908152602001600020604051806080016040529081600082015481526020016001820154815260200160028201805461177e906159a3565b80601f01602080910402602001604051908101604052809291908181526020018280546117aa906159a3565b80156117f75780601f106117cc576101008083540402835291602001916117f7565b820191906000526020600020905b8154815290600101906020018083116117da57829003601f168201915b50505050508152602001600382018054611810906159a3565b80601f016020809104026020016040519081016040528092919081815260200182805461183c906159a3565b80156118895780601f1061185e57610100808354040283529160200191611889565b820191906000526020600020905b81548152906001019060200180831161186c57829003601f168201915b50505050508152505090508060000151600260008573ffffffffffffffffffffffffffffffffffffffff1673ffffffffffffffffffffffffffffffffffffffff168152602001908152602001600020600001819055508060400151600260008573ffffffffffffffffffffffffffffffffffffffff1673ffffffffffffffffffffffffffffffffffffffff16815260200190815260200160002060020190805190602001906119399291906149be565b506000600260003373ffffffffffffffffffffffffffffffffffffffff1673ffffffffffffffffffffffffffffffffffffffff1681526020019081526020016000206000018190555060405180602001604052806000815250600260003373ffffffffffffffffffffffffffffffffffffffff1673ffffffffffffffffffffffffffffffffffffffff16815260200190815260200160002060020190805190602001906119e79291906149be565b50505050565b8160008054906101000a900473ffffffffffffffffffffffffffffffffffffffff1673ffffffffffffffffffffffffffffffffffffffff1663342de179826040518263ffffffff1660e01b8152600401611a4791906156b8565b60206040518083038186803b158015611a5f57600080fd5b505afa158015611a73573d6000803e3d6000fd5b505050506040513d601f19601f82011682018060405250810190611a979190614e7e565b611ad6576040517f08c379a0000000000000000000000000000000000000000000000000000000008152600401611acd90615676565b60405180910390fd5b6000600560003373ffffffffffffffffffffffffffffffffffffffff1673ffffffffffffffffffffffffffffffffffffffff168152602001908152602001600020805480602002602001604051908101604052809291908181526020018280548015611b6157602002820191906000526020600020905b815481526020019060010190808311611b4d575b5050505050905080518310611bab576040517f08c379a0000000000000000000000000000000000000000000000000000000008152600401611ba290615676565b60405180910390fd5b83818481518110611be5577f4e487b7100000000000000000000000000000000000000000000000000000000600052603260045260246000fd5b602002602001015114611c2d576040517f08c379a0000000000000000000000000000000000000000000000000000000008152600401611c2490615676565b60405180910390fd5b600560003373ffffffffffffffffffffffffffffffffffffffff1673ffffffffffffffffffffffffffffffffffffffff1681526020019081526020016000208381548110611ca4577f4e487b7100000000000000000000000000000000000000000000000000000000600052603260045260246000fd5b906000526020600020016000905550505050565b60008054906101000a900473ffffffffffffffffffffffffffffffffffffffff1673ffffffffffffffffffffffffffffffffffffffff163373ffffffffffffffffffffffffffffffffffffffff1614611d46576040517f08c379a0000000000000000000000000000000000000000000000000000000008152600401611d3d90615676565b60405180910390fd5b6000600360008381526020019081526020016000206040518060e00160405290816000820154815260200160018201548152602001600282018054611d8a906159a3565b80601f0160208091040260200160405190810160405280929190818152602001828054611db6906159a3565b8015611e035780601f10611dd857610100808354040283529160200191611e03565b820191906000526020600020905b815481529060010190602001808311611de657829003601f168201915b50505050508152602001600382018054611e1c906159a3565b80601f0160208091040260200160405190810160405280929190818152602001828054611e48906159a3565b8015611e955780601f10611e6a57610100808354040283529160200191611e95565b820191906000526020600020905b815481529060010190602001808311611e7857829003601f168201915b50505050508152602001600482018054611eae906159a3565b80601f0160208091040260200160405190810160405280929190818152602001828054611eda906159a3565b8015611f275780601f10611efc57610100808354040283529160200191611f27565b820191906000526020600020905b815481529060010190602001808311611f0a57829003601f168201915b505050505081526020016005820160009054906101000a900473ffffffffffffffffffffffffffffffffffffffff1673ffffffffffffffffffffffffffffffffffffffff1673ffffffffffffffffffffffffffffffffffffffff16815260200160068201548152505090506000816020015114611fd9576040517f08c379a0000000000000000000000000000000000000000000000000000000008152600401611fd090615676565b60405180910390fd5b600073ffffffffffffffffffffffffffffffffffffffff168373ffffffffffffffffffffffffffffffffffffffff161415612098576003600083815260200190815260200160002060008082016000905560018201600090556002820160006120429190614a44565b6003820160006120529190614a44565b6004820160006120629190614a44565b6005820160006101000a81549073ffffffffffffffffffffffffffffffffffffffff021916905560068201600090555050612123565b600073ffffffffffffffffffffffffffffffffffffffff168473ffffffffffffffffffffffffffffffffffffffff161461212257826003600084815260200190815260200160002060050160006101000a81548173ffffffffffffffffffffffffffffffffffffffff021916908373ffffffffffffffffffffffffffffffffffffffff1602179055505b5b50505050565b33816000600360008381526020019081526020016000206040518060e0016040529081600082015481526020016001820154815260200160028201805461216f906159a3565b80601f016020809104026020016040519081016040528092919081815260200182805461219b906159a3565b80156121e85780601f106121bd576101008083540402835291602001916121e8565b820191906000526020600020905b8154815290600101906020018083116121cb57829003601f168201915b50505050508152602001600382018054612201906159a3565b80601f016020809104026020016040519081016040528092919081815260200182805461222d906159a3565b801561227a5780601f1061224f5761010080835404028352916020019161227a565b820191906000526020600020905b81548152906001019060200180831161225d57829003601f168201915b50505050508152602001600482018054612293906159a3565b80601f01602080910402602001604051908101604052809291908181526020018280546122bf906159a3565b801561230c5780601f106122e15761010080835404028352916020019161230c565b820191906000526020600020905b8154815290600101906020018083116122ef57829003601f168201915b505050505081526020016005820160009054906101000a900473ffffffffffffffffffffffffffffffffffffffff1673ffffffffffffffffffffffffffffffffffffffff1673ffffffffffffffffffffffffffffffffffffffff16815260200160068201548152505090508060a0015173ffffffffffffffffffffffffffffffffffffffff168373ffffffffffffffffffffffffffffffffffffffff16146123e9576040517f08c379a00000000000000000000000000000000000000000000000000000000081526004016123e090615676565b60405180910390fd5b60006004600086815260200190815260200160002080548060200260200160405190810160405280929190818152602001828054801561244857602002820191906000526020600020905b815481526020019060010190808311612434575b5050505050905060008151905060018111612498576040517f08c379a000000000000000000000000000000000000000000000000000000000815260040161248f90615676565b60405180910390fd5b60005b81811015612512576000600360008584815181106124e2577f4e487b7100000000000000000000000000000000000000000000000000000000600052603260045260246000fd5b6020026020010151815260200190815260200160002060010181905550808061250a906159d5565b91505061249b565b5060008054906101000a900473ffffffffffffffffffffffffffffffffffffffff1673ffffffffffffffffffffffffffffffffffffffff166342966c68876040518263ffffffff1660e01b815260040161256c91906156b8565b600060405180830381600087803b15801561258657600080fd5b505af115801561259a573d6000803e3d6000fd5b505050506004600087815260200190815260200160002060006125bd9190614a84565b505050505050565b336000600260008373ffffffffffffffffffffffffffffffffffffffff1673ffffffffffffffffffffffffffffffffffffffff168152602001908152602001600020600001541161264b576040517f08c379a000000000000000000000000000000000000000000000000000000000815260040161264290615676565b60405180910390fd5b60008460405160200161265e9190615583565b6040516020818303038152906040528051906020012090506040516020016126859061559a565b604051602081830303815290604052805190602001208114156126dd576040517f08c379a00000000000000000000000000000000000000000000000000000000081526004016126d490615676565b60405180910390fd5b60005b83811015612704576126f1826146f6565b80806126fc906159d5565b9150506126e0565b50600060066000838152602001908152602001600020600401541415612822576040518060a00160405280868152602001878152602001858152602001888152602001600260003373ffffffffffffffffffffffffffffffffffffffff1673ffffffffffffffffffffffffffffffffffffffff168152602001908152602001600020600001548152506006600083815260200190815260200160002060008201518160000190805190602001906127bc9291906149be565b5060208201518160010190805190602001906127d99291906149be565b5060408201518160020190805190602001906127f69291906149be565b5060608201518160030190805190602001906128139291906149be565b50608082015181600401559050505b50505050505050565b7f000000000000000000000000000000000000000000000000000000000000000073ffffffffffffffffffffffffffffffffffffffff163373ffffffffffffffffffffffffffffffffffffffff16146128b9576040517f08c379a00000000000000000000000000000000000000000000000000000000081526004016128b090615676565b60405180910390fd5b806000806101000a81548173ffffffffffffffffffffffffffffffffffffffff021916908373ffffffffffffffffffffffffffffffffffffffff16021790555050565b33836000600360008381526020019081526020016000206040518060e00160405290816000820154815260200160018201548152602001600282018054612942906159a3565b80601f016020809104026020016040519081016040528092919081815260200182805461296e906159a3565b80156129bb5780601f10612990576101008083540402835291602001916129bb565b820191906000526020600020905b81548152906001019060200180831161299e57829003601f168201915b505050505081526020016003820180546129d4906159a3565b80601f0160208091040260200160405190810160405280929190818152602001828054612a00906159a3565b8015612a4d5780601f10612a2257610100808354040283529160200191612a4d565b820191906000526020600020905b815481529060010190602001808311612a3057829003601f168201915b50505050508152602001600482018054612a66906159a3565b80601f0160208091040260200160405190810160405280929190818152602001828054612a92906159a3565b8015612adf5780601f10612ab457610100808354040283529160200191612adf565b820191906000526020600020905b815481529060010190602001808311612ac257829003601f168201915b505050505081526020016005820160009054906101000a900473ffffffffffffffffffffffffffffffffffffffff1673ffffffffffffffffffffffffffffffffffffffff1673ffffffffffffffffffffffffffffffffffffffff16815260200160068201548152505090508060a0015173ffffffffffffffffffffffffffffffffffffffff168373ffffffffffffffffffffffffffffffffffffffff1614612bbc576040517f08c379a0000000000000000000000000000000000000000000000000000000008152600401612bb390615676565b60405180910390fd5b600060046000888152602001908152602001600020805480602002602001604051908101604052809291908181526020018280548015612c1b57602002820191906000526020600020905b815481526020019060010190808311612c07575b50505050509050600081519050858111612c6a576040517f08c379a0000000000000000000000000000000000000000000000000000000008152600401612c6190615676565b60405180910390fd5b86828781518110612ca4577f4e487b7100000000000000000000000000000000000000000000000000000000600052603260045260246000fd5b602002602001015114612cec576040517f08c379a0000000000000000000000000000000000000000000000000000000008152600401612ce390615676565b60405180910390fd5b60006003600089815260200190815260200160002060010181905550600460008981526020019081526020016000208681548110612d53577f4e487b7100000000000000000000000000000000000000000000000000000000600052603260045260246000fd5b90600052602060002001600090555050505050505050565b6002602052806000526040600020600091509050806000015490806001015490806002018054612d9a906159a3565b80601f0160208091040260200160405190810160405280929190818152602001828054612dc6906159a3565b8015612e135780601f10612de857610100808354040283529160200191612e13565b820191906000526020600020905b815481529060010190602001808311612df657829003601f168201915b505050505090806003018054612e28906159a3565b80601f0160208091040260200160405190810160405280929190818152602001828054612e54906159a3565b8015612ea15780601f10612e7657610100808354040283529160200191612ea1565b820191906000526020600020905b815481529060010190602001808311612e8457829003601f168201915b5050505050905084565b60008060009054906101000a900473ffffffffffffffffffffffffffffffffffffffff1673ffffffffffffffffffffffffffffffffffffffff16631c75cfb46040518163ffffffff1660e01b815260040160206040518083038186803b158015612f1457600080fd5b505afa158015612f28573d6000803e3d6000fd5b505050506040513d601f19601f82011682018060405250810190612f4c919061504f565b905090565b60046020528160005260406000208181548110612f6d57600080fd5b90600052602060002001600091509150505481565b6006602052806000526040600020600091509050806000018054612fa5906159a3565b80601f0160208091040260200160405190810160405280929190818152602001828054612fd1906159a3565b801561301e5780601f10612ff35761010080835404028352916020019161301e565b820191906000526020600020905b81548152906001019060200180831161300157829003601f168201915b505050505090806001018054613033906159a3565b80601f016020809104026020016040519081016040528092919081815260200182805461305f906159a3565b80156130ac5780601f10613081576101008083540402835291602001916130ac565b820191906000526020600020905b81548152906001019060200180831161308f57829003601f168201915b5050505050908060020180546130c1906159a3565b80601f01602080910402602001604051908101604052809291908181526020018280546130ed906159a3565b801561313a5780601f1061310f5761010080835404028352916020019161313a565b820191906000526020600020905b81548152906001019060200180831161311d57829003601f168201915b50505050509080600301805461314f906159a3565b80601f016020809104026020016040519081016040528092919081815260200182805461317b906159a3565b80156131c85780601f1061319d576101008083540402835291602001916131c8565b820191906000526020600020905b8154815290600101906020018083116131ab57829003601f168201915b5050505050908060040154905085565b33846000600360008381526020019081526020016000206040518060e0016040529081600082015481526020016001820154815260200160028201805461321e906159a3565b80601f016020809104026020016040519081016040528092919081815260200182805461324a906159a3565b80156132975780601f1061326c57610100808354040283529160200191613297565b820191906000526020600020905b81548152906001019060200180831161327a57829003601f168201915b505050505081526020016003820180546132b0906159a3565b80601f01602080910402602001604051908101604052809291908181526020018280546132dc906159a3565b80156133295780601f106132fe57610100808354040283529160200191613329565b820191906000526020600020905b81548152906001019060200180831161330c57829003601f168201915b50505050508152602001600482018054613342906159a3565b80601f016020809104026020016040519081016040528092919081815260200182805461336e906159a3565b80156133bb5780601f10613390576101008083540402835291602001916133bb565b820191906000526020600020905b81548152906001019060200180831161339e57829003601f168201915b505050505081526020016005820160009054906101000a900473ffffffffffffffffffffffffffffffffffffffff1673ffffffffffffffffffffffffffffffffffffffff1673ffffffffffffffffffffffffffffffffffffffff16815260200160068201548152505090508060a0015173ffffffffffffffffffffffffffffffffffffffff168373ffffffffffffffffffffffffffffffffffffffff1614613498576040517f08c379a000000000000000000000000000000000000000000000000000000000815260040161348f90615676565b60405180910390fd5b856003600089815260200190815260200160002060020190805190602001906134c29291906149be565b50846003600089815260200190815260200160002060030190805190602001906134ed9291906149be565b50836003600089815260200190815260200160002060040190805190602001906135189291906149be565b5050505050505050565b336000600260008373ffffffffffffffffffffffffffffffffffffffff1673ffffffffffffffffffffffffffffffffffffffff16815260200190815260200160002060000154116135a8576040517f08c379a000000000000000000000000000000000000000000000000000000000815260040161359f90615676565b60405180910390fd5b81600260003373ffffffffffffffffffffffffffffffffffffffff1673ffffffffffffffffffffffffffffffffffffffff16815260200190815260200160002060030190805190602001906135fe9291906149be565b5083600260003373ffffffffffffffffffffffffffffffffffffffff1673ffffffffffffffffffffffffffffffffffffffff16815260200190815260200160002060020190805190602001906136559291906149be565b5082600260003373ffffffffffffffffffffffffffffffffffffffff1673ffffffffffffffffffffffffffffffffffffffff1681526020019081526020016000206001018190555050505050565b60036020528060005260406000206000915090508060000154908060010154908060020180546136d2906159a3565b80601f01602080910402602001604051908101604052809291908181526020018280546136fe906159a3565b801561374b5780601f106137205761010080835404028352916020019161374b565b820191906000526020600020905b81548152906001019060200180831161372e57829003601f168201915b505050505090806003018054613760906159a3565b80601f016020809104026020016040519081016040528092919081815260200182805461378c906159a3565b80156137d95780601f106137ae576101008083540402835291602001916137d9565b820191906000526020600020905b8154815290600101906020018083116137bc57829003601f168201915b5050505050908060040180546137ee906159a3565b80601f016020809104026020016040519081016040528092919081815260200182805461381a906159a3565b80156138675780601f1061383c57610100808354040283529160200191613867565b820191906000526020600020905b81548152906001019060200180831161384a57829003601f168201915b5050505050908060050160009054906101000a900473ffffffffffffffffffffffffffffffffffffffff16908060060154905087565b8060008054906101000a900473ffffffffffffffffffffffffffffffffffffffff1673ffffffffffffffffffffffffffffffffffffffff1663342de179826040518263ffffffff1660e01b81526004016138f791906156b8565b60206040518083038186803b15801561390f57600080fd5b505afa158015613923573d6000803e3d6000fd5b505050506040513d601f19601f820116820180604052508101906139479190614e7e565b613986576040517f08c379a000000000000000000000000000000000000000000000000000000000815260040161397d90615676565b60405180910390fd5b6000600360008481526020019081526020016000206040518060e001604052908160008201548152602001600182015481526020016002820180546139ca906159a3565b80601f01602080910402602001604051908101604052809291908181526020018280546139f6906159a3565b8015613a435780601f10613a1857610100808354040283529160200191613a43565b820191906000526020600020905b815481529060010190602001808311613a2657829003601f168201915b50505050508152602001600382018054613a5c906159a3565b80601f0160208091040260200160405190810160405280929190818152602001828054613a88906159a3565b8015613ad55780601f10613aaa57610100808354040283529160200191613ad5565b820191906000526020600020905b815481529060010190602001808311613ab857829003601f168201915b50505050508152602001600482018054613aee906159a3565b80601f0160208091040260200160405190810160405280929190818152602001828054613b1a906159a3565b8015613b675780601f10613b3c57610100808354040283529160200191613b67565b820191906000526020600020905b815481529060010190602001808311613b4a57829003601f168201915b505050505081526020016005820160009054906101000a900473ffffffffffffffffffffffffffffffffffffffff1673ffffffffffffffffffffffffffffffffffffffff1673ffffffffffffffffffffffffffffffffffffffff16815260200160068201548152505090503373ffffffffffffffffffffffffffffffffffffffff168160a0015173ffffffffffffffffffffffffffffffffffffffff161415613c45576040517f08c379a0000000000000000000000000000000000000000000000000000000008152600401613c3c90615676565b60405180910390fd5b600560003373ffffffffffffffffffffffffffffffffffffffff1673ffffffffffffffffffffffffffffffffffffffff168152602001908152602001600020839080600181540180825580915050600190039060005260206000200160009091909190915055823373ffffffffffffffffffffffffffffffffffffffff167f4d02d347db7c4f56f8adb11a39010380d25cf84a088030948f3c2b2810099ed860405160405180910390a3505050565b33826000600360008381526020019081526020016000206040518060e00160405290816000820154815260200160018201548152602001600282018054613d3a906159a3565b80601f0160208091040260200160405190810160405280929190818152602001828054613d66906159a3565b8015613db35780601f10613d8857610100808354040283529160200191613db3565b820191906000526020600020905b815481529060010190602001808311613d9657829003601f168201915b50505050508152602001600382018054613dcc906159a3565b80601f0160208091040260200160405190810160405280929190818152602001828054613df8906159a3565b8015613e455780601f10613e1a57610100808354040283529160200191613e45565b820191906000526020600020905b815481529060010190602001808311613e2857829003601f168201915b50505050508152602001600482018054613e5e906159a3565b80601f0160208091040260200160405190810160405280929190818152602001828054613e8a906159a3565b8015613ed75780601f10613eac57610100808354040283529160200191613ed7565b820191906000526020600020905b815481529060010190602001808311613eba57829003601f168201915b505050505081526020016005820160009054906101000a900473ffffffffffffffffffffffffffffffffffffffff1673ffffffffffffffffffffffffffffffffffffffff1673ffffffffffffffffffffffffffffffffffffffff16815260200160068201548152505090508060a0015173ffffffffffffffffffffffffffffffffffffffff168373ffffffffffffffffffffffffffffffffffffffff1614613fb4576040517f08c379a0000000000000000000000000000000000000000000000000000000008152600401613fab90615676565b60405180910390fd5b6000600360008781526020019081526020016000209050600260003373ffffffffffffffffffffffffffffffffffffffff1673ffffffffffffffffffffffffffffffffffffffff1681526020019081526020016000206000015460066000836006015481526020019081526020016000206004015414614069576040517f08c379a000000000000000000000000000000000000000000000000000000000815260040161406090615676565b60405180910390fd5b60005b858110156140945761408182600601546146f6565b808061408c906159d5565b91505061406c565b50505050505050565b6060600460008381526020019081526020016000208054806020026020016040519081016040528092919081815260200182805480156140fc57602002820191906000526020600020905b8154815260200190600101908083116140e8575b50505050509050919050565b614110614aa5565b6000600360008481526020019081526020016000209050600060066000836006015481526020019081526020016000206040518060a001604052908160008201805461415b906159a3565b80601f0160208091040260200160405190810160405280929190818152602001828054614187906159a3565b80156141d45780601f106141a9576101008083540402835291602001916141d4565b820191906000526020600020905b8154815290600101906020018083116141b757829003601f168201915b505050505081526020016001820180546141ed906159a3565b80601f0160208091040260200160405190810160405280929190818152602001828054614219906159a3565b80156142665780601f1061423b57610100808354040283529160200191614266565b820191906000526020600020905b81548152906001019060200180831161424957829003601f168201915b5050505050815260200160028201805461427f906159a3565b80601f01602080910402602001604051908101604052809291908181526020018280546142ab906159a3565b80156142f85780601f106142cd576101008083540402835291602001916142f8565b820191906000526020600020905b8154815290600101906020018083116142db57829003601f168201915b50505050508152602001600382018054614311906159a3565b80601f016020809104026020016040519081016040528092919081815260200182805461433d906159a3565b801561438a5780601f1061435f5761010080835404028352916020019161438a565b820191906000526020600020905b81548152906001019060200180831161436d57829003601f168201915b5050505050815260200160048201548152505090506000600460008681526020019081526020016000208054806020026020016040519081016040528092919081815260200182805480156143fe57602002820191906000526020600020905b8154815260200190600101908083116143ea575b505050505090506040518060600160405280846040518060e00160405290816000820154815260200160018201548152602001600282018054614440906159a3565b80601f016020809104026020016040519081016040528092919081815260200182805461446c906159a3565b80156144b95780601f1061448e576101008083540402835291602001916144b9565b820191906000526020600020905b81548152906001019060200180831161449c57829003601f168201915b505050505081526020016003820180546144d2906159a3565b80601f01602080910402602001604051908101604052809291908181526020018280546144fe906159a3565b801561454b5780601f106145205761010080835404028352916020019161454b565b820191906000526020600020905b81548152906001019060200180831161452e57829003601f168201915b50505050508152602001600482018054614564906159a3565b80601f0160208091040260200160405190810160405280929190818152602001828054614590906159a3565b80156145dd5780601f106145b2576101008083540402835291602001916145dd565b820191906000526020600020905b8154815290600101906020018083116145c057829003601f168201915b505050505081526020016005820160009054906101000a900473ffffffffffffffffffffffffffffffffffffffff1673ffffffffffffffffffffffffffffffffffffffff1673ffffffffffffffffffffffffffffffffffffffff1681526020016006820154815250508152602001838152602001828152509350505050919050565b6060600560008373ffffffffffffffffffffffffffffffffffffffff1673ffffffffffffffffffffffffffffffffffffffff1681526020019081526020016000208054806020026020016040519081016040528092919081815260200182805480156146ea57602002820191906000526020600020905b8154815260200190600101908083116146d6575b50505050509050919050565b60008054906101000a900473ffffffffffffffffffffffffffffffffffffffff1673ffffffffffffffffffffffffffffffffffffffff16636a627842336040518263ffffffff1660e01b815260040161474f91906155ca565b600060405180830381600087803b15801561476957600080fd5b505af115801561477d573d6000803e3d6000fd5b5050505060008060009054906101000a900473ffffffffffffffffffffffffffffffffffffffff1673ffffffffffffffffffffffffffffffffffffffff16631c75cfb46040518163ffffffff1660e01b815260040160206040518083038186803b1580156147ea57600080fd5b505afa1580156147fe573d6000803e3d6000fd5b505050506040513d601f19601f82011682018060405250810190614822919061504f565b90506040518060e00160405280828152602001600081526020016040518060200160405280600081525081526020016040518060200160405280600081525081526020016040518060200160405280600081525081526020013373ffffffffffffffffffffffffffffffffffffffff1681526020018381525060036000838152602001908152602001600020600082015181600001556020820151816001015560408201518160020190805190602001906148de9291906149be565b5060608201518160030190805190602001906148fb9291906149be565b5060808201518160040190805190602001906149189291906149be565b5060a08201518160050160006101000a81548173ffffffffffffffffffffffffffffffffffffffff021916908373ffffffffffffffffffffffffffffffffffffffff16021790555060c082015181600601559050505050565b8280548282559060005260206000209081019282156149ad579160200282015b828111156149ac578251825591602001919060010190614991565b5b5090506149ba9190614ad2565b5090565b8280546149ca906159a3565b90600052602060002090601f0160209004810192826149ec5760008555614a33565b82601f10614a0557805160ff1916838001178555614a33565b82800160010185558215614a33579182015b82811115614a32578251825591602001919060010190614a17565b5b509050614a409190614ad2565b5090565b508054614a50906159a3565b6000825580601f10614a625750614a81565b601f016020900490600052602060002090810190614a809190614ad2565b5b50565b5080546000825590600052602060002090810190614aa29190614ad2565b50565b6040518060600160405280614ab8614aef565b8152602001614ac5614b45565b8152602001606081525090565b5b80821115614aeb576000816000905550600101614ad3565b5090565b6040518060e001604052806000815260200160008152602001606081526020016060815260200160608152602001600073ffffffffffffffffffffffffffffffffffffffff168152602001600080191681525090565b6040518060a0016040528060608152602001606081526020016060815260200160608152602001600081525090565b6000614b87614b82846157db565b6157aa565b90508083825260208201905082856020860282011115614ba657600080fd5b60005b85811015614bd65781614bbc8882614cb1565b845260208401935060208301925050600181019050614ba9565b5050509392505050565b6000614bf3614bee84615807565b6157aa565b905082815260208101848484011115614c0b57600080fd5b614c16848285615961565b509392505050565b600081359050614c2d81615ac6565b92915050565b600082601f830112614c4457600080fd5b8135614c54848260208601614b74565b91505092915050565b600081519050614c6c81615add565b92915050565b600081359050614c8181615af4565b92915050565b600082601f830112614c9857600080fd5b8135614ca8848260208601614be0565b91505092915050565b600081359050614cc081615b0b565b92915050565b600081519050614cd581615b0b565b92915050565b600060208284031215614ced57600080fd5b6000614cfb84828501614c1e565b91505092915050565b600080600060608486031215614d1957600080fd5b6000614d2786828701614c1e565b9350506020614d3886828701614c1e565b9250506040614d4986828701614cb1565b9150509250925092565b60008060408385031215614d6657600080fd5b6000614d7485828601614c1e565b9250506020614d8585828601614cb1565b9150509250929050565b600080600080600060a08688031215614da757600080fd5b600086013567ffffffffffffffff811115614dc157600080fd5b614dcd88828901614c33565b955050602086013567ffffffffffffffff811115614dea57600080fd5b614df688828901614c87565b945050604086013567ffffffffffffffff811115614e1357600080fd5b614e1f88828901614c87565b935050606086013567ffffffffffffffff811115614e3c57600080fd5b614e4888828901614c87565b925050608086013567ffffffffffffffff811115614e6557600080fd5b614e7188828901614c87565b9150509295509295909350565b600060208284031215614e9057600080fd5b6000614e9e84828501614c5d565b91505092915050565b600060208284031215614eb957600080fd5b6000614ec784828501614c72565b91505092915050565b600080600080600060a08688031215614ee857600080fd5b600086013567ffffffffffffffff811115614f0257600080fd5b614f0e88828901614c87565b955050602086013567ffffffffffffffff811115614f2b57600080fd5b614f3788828901614c87565b945050604086013567ffffffffffffffff811115614f5457600080fd5b614f6088828901614c87565b935050606086013567ffffffffffffffff811115614f7d57600080fd5b614f8988828901614c87565b9250506080614f9a88828901614cb1565b9150509295509295909350565b600080600060608486031215614fbc57600080fd5b600084013567ffffffffffffffff811115614fd657600080fd5b614fe286828701614c87565b9350506020614ff386828701614cb1565b925050604084013567ffffffffffffffff81111561501057600080fd5b61501c86828701614c87565b9150509250925092565b60006020828403121561503857600080fd5b600061504684828501614cb1565b91505092915050565b60006020828403121561506157600080fd5b600061506f84828501614cc6565b91505092915050565b6000806000806080858703121561508e57600080fd5b600061509c87828801614cb1565b945050602085013567ffffffffffffffff8111156150b957600080fd5b6150c587828801614c87565b935050604085013567ffffffffffffffff8111156150e257600080fd5b6150ee87828801614c87565b925050606085013567ffffffffffffffff81111561510b57600080fd5b61511787828801614c87565b91505092959194509250565b6000806040838503121561513657600080fd5b600061514485828601614cb1565b925050602061515585828601614cb1565b9150509250929050565b60008060006060848603121561517457600080fd5b600061518286828701614cb1565b935050602061519386828701614cb1565b92505060406151a486828701614cb1565b9150509250925092565b60006151ba838361554e565b60208301905092915050565b6151cf8161590f565b82525050565b6151de8161590f565b82525050565b60006151ef82615847565b6151f9818561586a565b935061520483615837565b8060005b8381101561523557815161521c88826151ae565b97506152278361585d565b925050600181019050615208565b5085935050505092915050565b600061524d82615847565b615257818561587b565b935061526283615837565b8060005b8381101561529357815161527a88826151ae565b97506152858361585d565b925050600181019050615266565b5085935050505092915050565b6152a98161592d565b82525050565b6152b88161592d565b82525050565b60006152c982615852565b6152d3818561588c565b93506152e3818560208601615970565b6152ec81615ab5565b840191505092915050565b600061530282615852565b61530c818561589d565b935061531c818560208601615970565b61532581615ab5565b840191505092915050565b600061533b82615852565b61534581856158ae565b9350615355818560208601615970565b80840191505092915050565b600061536e60058361589d565b91507f6572726f720000000000000000000000000000000000000000000000000000006000830152602082019050919050565b60006153ae6000836158ae565b9150600082019050919050565b600060a08301600083015184820360008601526153d882826152be565b915050602083015184820360208601526153f282826152be565b9150506040830151848203604086015261540c82826152be565b9150506060830151848203606086015261542682826152be565b915050608083015161543b608086018261554e565b508091505092915050565b6000606083016000830151848203600086015261546382826154a4565b9150506020830151848203602086015261547d82826153bb565b9150506040830151848203604086015261549782826151e4565b9150508091505092915050565b600060e0830160008301516154bc600086018261554e565b5060208301516154cf602086018261554e565b50604083015184820360408601526154e782826152be565b9150506060830151848203606086015261550182826152be565b9150506080830151848203608086015261551b82826152be565b91505060a083015161553060a08601826151c6565b5060c083015161554360c08601826152a0565b508091505092915050565b61555781615957565b82525050565b61556681615957565b82525050565b61557d61557882615957565b615a1e565b82525050565b600061558f8284615330565b915081905092915050565b60006155a5826153a1565b9150819050919050565b60006155bb828461556c565b60208201915081905092915050565b60006020820190506155df60008301846151d5565b92915050565b600060208201905081810360008301526155ff8184615242565b905092915050565b600060a082019050818103600083015261562181886152f7565b9050818103602083015261563581876152f7565b9050818103604083015261564981866152f7565b9050818103606083015261565d81856152f7565b905061566c608083018461555d565b9695505050505050565b6000602082019050818103600083015261568f81615361565b9050919050565b600060208201905081810360008301526156b08184615446565b905092915050565b60006020820190506156cd600083018461555d565b92915050565b60006080820190506156e8600083018761555d565b6156f5602083018661555d565b818103604083015261570781856152f7565b9050818103606083015261571b81846152f7565b905095945050505050565b600060e08201905061573b600083018a61555d565b615748602083018961555d565b818103604083015261575a81886152f7565b9050818103606083015261576e81876152f7565b9050818103608083015261578281866152f7565b905061579160a08301856151d5565b61579e60c08301846152af565b98975050505050505050565b6000604051905081810181811067ffffffffffffffff821117156157d1576157d0615a86565b5b8060405250919050565b600067ffffffffffffffff8211156157f6576157f5615a86565b5b602082029050602081019050919050565b600067ffffffffffffffff82111561582257615821615a86565b5b601f19601f8301169050602081019050919050565b6000819050602082019050919050565b600081519050919050565b600081519050919050565b6000602082019050919050565b600082825260208201905092915050565b600082825260208201905092915050565b600082825260208201905092915050565b600082825260208201905092915050565b600081905092915050565b60006158c482615957565b91506158cf83615957565b9250827fffffffffffffffffffffffffffffffffffffffffffffffffffffffffffffffff0382111561590457615903615a28565b5b828201905092915050565b600061591a82615937565b9050919050565b60008115159050919050565b6000819050919050565b600073ffffffffffffffffffffffffffffffffffffffff82169050919050565b6000819050919050565b82818337600083830152505050565b60005b8381101561598e578082015181840152602081019050615973565b8381111561599d576000848401525b50505050565b600060028204905060018216806159bb57607f821691505b602082108114156159cf576159ce615a57565b5b50919050565b60006159e082615957565b91507fffffffffffffffffffffffffffffffffffffffffffffffffffffffffffffffff821415615a1357615a12615a28565b5b600182019050919050565b6000819050919050565b7f4e487b7100000000000000000000000000000000000000000000000000000000600052601160045260246000fd5b7f4e487b7100000000000000000000000000000000000000000000000000000000600052602260045260246000fd5b7f4e487b7100000000000000000000000000000000000000000000000000000000600052604160045260246000fd5b6000601f19601f8301169050919050565b615acf8161590f565b8114615ada57600080fd5b50565b615ae681615921565b8114615af157600080fd5b50565b615afd8161592d565b8114615b0857600080fd5b50565b615b1481615957565b8114615b1f57600080fd5b5056fea2646970667358221220bca1f1a9a2f6a7449a04c03f1136675f7df3cb05bea15df8bf809b72ccc6971c64736f6c63430008000033",
  "immutableReferences": {
    "36": [
      {
        "length": 32,
        "start": 10285
      }
    ]
  },
  "source": "// SPDX-License-Identifier: GPL-3.0\npragma solidity ^0.8.0;\n\nimport \"./IPMT721.sol\";\n\ncontract PixelsMetavers {\n    IPMT721 private PMT721;\n    address private immutable _owner;\n\n    uint256 amount;\n\n    struct User {\n        uint256 id;\n        uint256 avater;\n        string role;\n        string other;\n    }\n    mapping(address => User) public user;\n\n    struct Material {\n        uint256 id;\n        uint256 compose;\n        string time;\n        string position;\n        string zIndex;\n        address owner;\n        bytes32 data;\n    }\n    mapping(uint256 => Material) public material;\n    mapping(uint256 => uint256[]) public composes;\n    mapping(address => uint256[]) public collection;\n\n    struct BaseInfo {\n        string data;\n        string category;\n        string decode;\n        string name;\n        uint256 userId;\n    }\n    mapping(bytes32 => BaseInfo) public baseInfo;\n\n    struct MaterialInfo {\n        Material material;\n        BaseInfo baseInfo;\n        uint256[] composes;\n    }\n\n    event ComposeEvent(address indexed owner, uint256 indexed id);\n    event CollectEvent(address indexed owner, uint256 indexed id);\n\n    modifier MustExist(uint256 id) {\n        require(IPMT721(PMT721).exits(id), \"error\");\n        _;\n    }\n\n    modifier MustUser(address u) {\n        require(user[u].id > 0, \"error\");\n        _;\n    }\n\n    modifier MustOwner(address sender, uint256 id) {\n        Material memory m = material[id];\n        require(sender == m.owner, \"error\");\n        _;\n    }\n\n    constructor() {\n        _owner = msg.sender;\n    }\n\n    function register() public {\n        require(user[msg.sender].id == 0, \"error\");\n        require(amount <= 1024000, \"error\");\n        user[msg.sender].id = ++amount;\n    }\n\n    function setConfig(\n        string memory role,\n        uint256 id,\n        string memory other\n    ) public MustUser(msg.sender) {\n        user[msg.sender].other = other;\n        user[msg.sender].role = role;\n        user[msg.sender].avater = id;\n    }\n\n    function resetUser(address to) public MustUser(msg.sender) {\n        require(user[to].id == 0, \"error\");\n        User memory u = user[msg.sender];\n        user[to].id = u.id;\n        user[to].role = u.role;\n        user[msg.sender].id = 0;\n        user[msg.sender].role = \"\";\n    }\n\n    function setConfigMaterial(\n        uint256 id,\n        string memory time,\n        string memory position,\n        string memory zIndex\n    ) public MustOwner(msg.sender, id) {\n        material[id].time = time;\n        material[id].position = position;\n        material[id].zIndex = zIndex;\n    }\n\n    function getMaterialLength() public view returns (uint256) {\n        return IPMT721(PMT721).currentID();\n    }\n\n    function getMaterial(uint256 id) public view returns (MaterialInfo memory) {\n        Material storage m = material[id];\n        BaseInfo memory b = baseInfo[m.data];\n        uint256[] memory c = composes[id];\n        return MaterialInfo(m, b, c);\n    }\n\n    function make(\n        string memory name,\n        string memory category,\n        string memory data,\n        string memory decode,\n        uint256 num\n    ) public MustUser(msg.sender) {\n        bytes32 d = keccak256(abi.encodePacked(data));\n        require(d != keccak256(abi.encodePacked(\"\")), \"error\");\n\n        for (uint256 i; i < num; i++) {\n            _make(d);\n        }\n\n        if (baseInfo[d].userId == 0) {\n            baseInfo[d] = BaseInfo(\n                data,\n                category,\n                decode,\n                name,\n                user[msg.sender].id\n            );\n        }\n    }\n\n    function reMake(uint256 id, uint256 num) public MustOwner(msg.sender, id) {\n        Material storage m = material[id];\n        require(baseInfo[m.data].userId == user[msg.sender].id, \"error\");\n        for (uint256 i; i < num; i++) {\n            _make(m.data);\n        }\n    }\n\n    function _make(bytes32 data) private {\n        IPMT721(PMT721).mint(msg.sender);\n        uint256 id = IPMT721(PMT721).currentID();\n        material[id] = Material(id, 0, \"\", \"\", \"\", msg.sender, data);\n    }\n\n    function collect(uint256 id) public MustExist(id) {\n        Material memory m = material[id];\n        require(m.owner != msg.sender, \"error\");\n        collection[msg.sender].push(id);\n        emit CollectEvent(msg.sender, id);\n    }\n\n    function cancelCollect(uint256 id, uint256 index) public MustExist(id) {\n        uint256[] memory c = collection[msg.sender];\n        require(index < c.length, \"error\");\n        require(c[index] == id, \"error\");\n        delete collection[msg.sender][index];\n    }\n\n    function getCollection(address from)\n        public\n        view\n        returns (uint256[] memory)\n    {\n        return collection[from];\n    }\n\n    function getCompose(uint256 id) public view returns (uint256[] memory) {\n        return composes[id];\n    }\n\n    function compose(\n        uint256[] memory ids,\n        string memory name,\n        string memory category,\n        string memory data,\n        string memory decode\n    ) public MustUser(msg.sender) {\n        uint256 len = ids.length;\n        require(len > 1, \"error\");\n        uint256 curID = IPMT721(PMT721).currentID();\n        uint256 nextID = curID + 1;\n        bytes32 d = keccak256(abi.encodePacked(curID + 1));\n        require(baseInfo[d].userId == 0, \"error\");\n        _make(d);\n        for (uint256 i; i < len; i++) {\n            uint256 id = ids[i];\n            Material memory m = material[id];\n            require(msg.sender == m.owner, \"error\");\n            require(m.compose == 0, \"error\");\n            material[id].compose = nextID;\n        }\n        composes[nextID] = ids;\n        baseInfo[d] = BaseInfo(\n            data,\n            category,\n            decode,\n            name,\n            user[msg.sender].id\n        );\n        emit ComposeEvent(msg.sender, nextID);\n    }\n\n    function cancelCompose(uint256 id) public MustOwner(msg.sender, id) {\n        uint256[] memory c = composes[id];\n        uint256 len = c.length;\n        require(len > 1, \"error\");\n        for (uint256 i; i < len; i++) {\n            material[c[i]].compose = 0;\n        }\n        IPMT721(PMT721).burn(id);\n        delete composes[id];\n    }\n\n    function subjion(uint256 ids, uint256 id)\n        public\n        MustOwner(msg.sender, ids)\n        MustOwner(msg.sender, id)\n    {\n        uint256[] memory c = composes[ids];\n        require(c.length > 1, \"error\");\n        Material memory m = material[id];\n        require(m.compose == 0, \"error\");\n        material[id].compose = ids;\n        composes[ids].push(id);\n    }\n\n    function subtract(\n        uint256 ids,\n        uint256 id,\n        uint256 index\n    ) public MustOwner(msg.sender, ids) {\n        uint256[] memory c = composes[ids];\n        uint256 len = c.length;\n        require(len > index, \"error\");\n        require(c[index] == id, \"error\");\n        material[id].compose = 0;\n        delete composes[ids][index];\n    }\n\n    function setPMT721(address pmt721) public {\n        require(msg.sender == _owner, \"error\");\n        PMT721 = IPMT721(pmt721);\n    }\n\n    function handleTransfer(\n        address from,\n        address to,\n        uint256 id\n    ) public {\n        require(msg.sender == address(PMT721), \"error\");\n        Material memory m = material[id];\n        require(m.compose == 0, \"error\");\n        if (to == address(0)) {\n            delete material[id];\n        } else if (from != address(0)) {\n            material[id].owner = to;\n        }\n    }\n}\n",
  "sourcePath": "/Users/xiangzhengfeng/Desktop/mine/project/pixels-metaverse/contracts/PixelsMetavers.sol",
  "compiler": {
    "name": "solc",
    "version": "0.8.0+commit.c7dfd78e.Emscripten.clang"
  },
  "schemaVersion": "3.3.4",
  "updatedAt": "2021-12-31T02:46:21.235Z",
  "networkType": "ethereum",
  "devdoc": {
    "kind": "dev",
    "methods": {},
    "version": 1
  },
  "userdoc": {
    "kind": "user",
    "methods": {},
    "version": 1
  }
}