{
  "contractName": "PMT721",
  "abi": [
    {
      "inputs": [],
      "stateMutability": "nonpayable",
      "type": "constructor"
    },
    {
      "anonymous": false,
      "inputs": [
        {
          "indexed": true,
          "internalType": "address",
          "name": "owner",
          "type": "address"
        },
        {
          "indexed": true,
          "internalType": "address",
          "name": "approved",
          "type": "address"
        },
        {
          "indexed": true,
          "internalType": "uint256",
          "name": "tokenId",
          "type": "uint256"
        }
      ],
      "name": "Approval",
      "type": "event"
    },
    {
      "anonymous": false,
      "inputs": [
        {
          "indexed": true,
          "internalType": "address",
          "name": "owner",
          "type": "address"
        },
        {
          "indexed": true,
          "internalType": "address",
          "name": "operator",
          "type": "address"
        },
        {
          "indexed": false,
          "internalType": "bool",
          "name": "approved",
          "type": "bool"
        }
      ],
      "name": "ApprovalForAll",
      "type": "event"
    },
    {
      "anonymous": false,
      "inputs": [
        {
          "indexed": true,
          "internalType": "address",
          "name": "from",
          "type": "address"
        },
        {
          "indexed": true,
          "internalType": "address",
          "name": "to",
          "type": "address"
        },
        {
          "indexed": true,
          "internalType": "uint256",
          "name": "tokenId",
          "type": "uint256"
        }
      ],
      "name": "Transfer",
      "type": "event"
    },
    {
      "inputs": [
        {
          "internalType": "address",
          "name": "to",
          "type": "address"
        },
        {
          "internalType": "uint256",
          "name": "tokenId",
          "type": "uint256"
        }
      ],
      "name": "approve",
      "outputs": [],
      "stateMutability": "nonpayable",
      "type": "function"
    },
    {
      "inputs": [
        {
          "internalType": "address",
          "name": "owner",
          "type": "address"
        }
      ],
      "name": "balanceOf",
      "outputs": [
        {
          "internalType": "uint256",
          "name": "",
          "type": "uint256"
        }
      ],
      "stateMutability": "view",
      "type": "function",
      "constant": true
    },
    {
      "inputs": [
        {
          "internalType": "uint256",
          "name": "tokenId",
          "type": "uint256"
        }
      ],
      "name": "getApproved",
      "outputs": [
        {
          "internalType": "address",
          "name": "",
          "type": "address"
        }
      ],
      "stateMutability": "view",
      "type": "function",
      "constant": true
    },
    {
      "inputs": [
        {
          "internalType": "address",
          "name": "owner",
          "type": "address"
        },
        {
          "internalType": "address",
          "name": "operator",
          "type": "address"
        }
      ],
      "name": "isApprovedForAll",
      "outputs": [
        {
          "internalType": "bool",
          "name": "",
          "type": "bool"
        }
      ],
      "stateMutability": "view",
      "type": "function",
      "constant": true
    },
    {
      "inputs": [],
      "name": "name",
      "outputs": [
        {
          "internalType": "string",
          "name": "",
          "type": "string"
        }
      ],
      "stateMutability": "view",
      "type": "function",
      "constant": true
    },
    {
      "inputs": [
        {
          "internalType": "uint256",
          "name": "tokenId",
          "type": "uint256"
        }
      ],
      "name": "ownerOf",
      "outputs": [
        {
          "internalType": "address",
          "name": "",
          "type": "address"
        }
      ],
      "stateMutability": "view",
      "type": "function",
      "constant": true
    },
    {
      "inputs": [
        {
          "internalType": "address",
          "name": "from",
          "type": "address"
        },
        {
          "internalType": "address",
          "name": "to",
          "type": "address"
        },
        {
          "internalType": "uint256",
          "name": "tokenId",
          "type": "uint256"
        }
      ],
      "name": "safeTransferFrom",
      "outputs": [],
      "stateMutability": "nonpayable",
      "type": "function"
    },
    {
      "inputs": [
        {
          "internalType": "address",
          "name": "from",
          "type": "address"
        },
        {
          "internalType": "address",
          "name": "to",
          "type": "address"
        },
        {
          "internalType": "uint256",
          "name": "tokenId",
          "type": "uint256"
        },
        {
          "internalType": "bytes",
          "name": "_data",
          "type": "bytes"
        }
      ],
      "name": "safeTransferFrom",
      "outputs": [],
      "stateMutability": "nonpayable",
      "type": "function"
    },
    {
      "inputs": [
        {
          "internalType": "address",
          "name": "operator",
          "type": "address"
        },
        {
          "internalType": "bool",
          "name": "approved",
          "type": "bool"
        }
      ],
      "name": "setApprovalForAll",
      "outputs": [],
      "stateMutability": "nonpayable",
      "type": "function"
    },
    {
      "inputs": [
        {
          "internalType": "bytes4",
          "name": "interfaceId",
          "type": "bytes4"
        }
      ],
      "name": "supportsInterface",
      "outputs": [
        {
          "internalType": "bool",
          "name": "",
          "type": "bool"
        }
      ],
      "stateMutability": "view",
      "type": "function",
      "constant": true
    },
    {
      "inputs": [],
      "name": "symbol",
      "outputs": [
        {
          "internalType": "string",
          "name": "",
          "type": "string"
        }
      ],
      "stateMutability": "view",
      "type": "function",
      "constant": true
    },
    {
      "inputs": [
        {
          "internalType": "uint256",
          "name": "tokenId",
          "type": "uint256"
        }
      ],
      "name": "tokenURI",
      "outputs": [
        {
          "internalType": "string",
          "name": "",
          "type": "string"
        }
      ],
      "stateMutability": "view",
      "type": "function",
      "constant": true
    },
    {
      "inputs": [
        {
          "internalType": "address",
          "name": "from",
          "type": "address"
        },
        {
          "internalType": "address",
          "name": "to",
          "type": "address"
        },
        {
          "internalType": "uint256",
          "name": "tokenId",
          "type": "uint256"
        }
      ],
      "name": "transferFrom",
      "outputs": [],
      "stateMutability": "nonpayable",
      "type": "function"
    },
    {
      "inputs": [
        {
          "internalType": "address",
          "name": "to",
          "type": "address"
        }
      ],
      "name": "mint",
      "outputs": [],
      "stateMutability": "nonpayable",
      "type": "function"
    },
    {
      "inputs": [
        {
          "internalType": "uint256",
          "name": "id",
          "type": "uint256"
        }
      ],
      "name": "burn",
      "outputs": [],
      "stateMutability": "nonpayable",
      "type": "function"
    },
    {
      "inputs": [
        {
          "internalType": "uint256",
          "name": "id",
          "type": "uint256"
        }
      ],
      "name": "exits",
      "outputs": [
        {
          "internalType": "bool",
          "name": "",
          "type": "bool"
        }
      ],
      "stateMutability": "view",
      "type": "function",
      "constant": true
    },
    {
      "inputs": [
        {
          "internalType": "address",
          "name": "minter",
          "type": "address"
        }
      ],
      "name": "setMinter",
      "outputs": [],
      "stateMutability": "nonpayable",
      "type": "function"
    },
    {
      "inputs": [],
      "name": "getMinter",
      "outputs": [
        {
          "internalType": "address",
          "name": "",
          "type": "address"
        }
      ],
      "stateMutability": "view",
      "type": "function",
      "constant": true
    },
    {
      "inputs": [],
      "name": "currentID",
      "outputs": [
        {
          "internalType": "uint256",
          "name": "",
          "type": "uint256"
        }
      ],
      "stateMutability": "view",
      "type": "function",
      "constant": true
    }
  ],
  "bytecode": "0x60806040523480156200001157600080fd5b506040518060400160405280600e81526020017f506978656c734d657461766572730000000000000000000000000000000000008152506040518060400160405280600381526020017f504d54000000000000000000000000000000000000000000000000000000000081525081600090805190602001906200009692919062000110565b508060019080519060200190620000af92919062000110565b505050620000c26200010860201b60201c565b600760006101000a81548173ffffffffffffffffffffffffffffffffffffffff021916908373ffffffffffffffffffffffffffffffffffffffff16021790555062000225565b600033905090565b8280546200011e90620001c0565b90600052602060002090601f0160209004810192826200014257600085556200018e565b82601f106200015d57805160ff19168380011785556200018e565b828001600101855582156200018e579182015b828111156200018d57825182559160200191906001019062000170565b5b5090506200019d9190620001a1565b5090565b5b80821115620001bc576000816000905550600101620001a2565b5090565b60006002820490506001821680620001d957607f821691505b60208210811415620001f057620001ef620001f6565b5b50919050565b7f4e487b7100000000000000000000000000000000000000000000000000000000600052602260045260246000fd5b612bd880620002356000396000f3fe608060405234801561001057600080fd5b50600436106101215760003560e01c80636352211e116100ad578063b88d4fde11610071578063b88d4fde14610318578063c87b56dd14610334578063e985e9c514610364578063f366751714610394578063fca3b5aa146103b257610121565b80636352211e146102625780636a6278421461029257806370a08231146102ae57806395d89b41146102de578063a22cb465146102fc57610121565b80631c75cfb4116100f45780631c75cfb4146101c057806323b872dd146101de578063342de179146101fa57806342842e0e1461022a57806342966c681461024657610121565b806301ffc9a71461012657806306fdde0314610156578063081812fc14610174578063095ea7b3146101a4575b600080fd5b610140600480360381019061013b9190611db1565b6103ce565b60405161014d9190612560565b60405180910390f35b61015e6104b0565b60405161016b919061257b565b60405180910390f35b61018e60048036038101906101899190611e03565b610542565b60405161019b91906124c2565b60405180910390f35b6101be60048036038101906101b99190611d75565b6105c7565b005b6101c86106df565b6040516101d5919061279d565b60405180910390f35b6101f860048036038101906101f39190611c6f565b6106e9565b005b610214600480360381019061020f9190611e03565b610749565b6040516102219190612560565b60405180910390f35b610244600480360381019061023f9190611c6f565b61075b565b005b610260600480360381019061025b9190611e03565b61077b565b005b61027c60048036038101906102779190611e03565b610820565b60405161028991906124c2565b60405180910390f35b6102ac60048036038101906102a79190611c0a565b6108d2565b005b6102c860048036038101906102c39190611c0a565b6109ba565b6040516102d5919061279d565b60405180910390f35b6102e6610a72565b6040516102f3919061257b565b60405180910390f35b61031660048036038101906103119190611d39565b610b04565b005b610332600480360381019061032d9190611cbe565b610c85565b005b61034e60048036038101906103499190611e03565b610ce7565b60405161035b919061257b565b60405180910390f35b61037e60048036038101906103799190611c33565b610d8e565b60405161038b9190612560565b60405180910390f35b61039c610e22565b6040516103a991906124c2565b60405180910390f35b6103cc60048036038101906103c79190611c0a565b610e4c565b005b60007f80ac58cd000000000000000000000000000000000000000000000000000000007bffffffffffffffffffffffffffffffffffffffffffffffffffffffff1916827bffffffffffffffffffffffffffffffffffffffffffffffffffffffff1916148061049957507f5b5e139f000000000000000000000000000000000000000000000000000000007bffffffffffffffffffffffffffffffffffffffffffffffffffffffff1916827bffffffffffffffffffffffffffffffffffffffffffffffffffffffff1916145b806104a957506104a882610f29565b5b9050919050565b6060600080546104bf906129cd565b80601f01602080910402602001604051908101604052809291908181526020018280546104eb906129cd565b80156105385780601f1061050d57610100808354040283529160200191610538565b820191906000526020600020905b81548152906001019060200180831161051b57829003601f168201915b5050505050905090565b600061054d82610f93565b61058c576040517f08c379a0000000000000000000000000000000000000000000000000000000008152600401610583906126dd565b60405180910390fd5b6004600083815260200190815260200160002060009054906101000a900473ffffffffffffffffffffffffffffffffffffffff169050919050565b60006105d282610820565b90508073ffffffffffffffffffffffffffffffffffffffff168373ffffffffffffffffffffffffffffffffffffffff161415610643576040517f08c379a000000000000000000000000000000000000000000000000000000000815260040161063a9061275d565b60405180910390fd5b8073ffffffffffffffffffffffffffffffffffffffff16610662610fff565b73ffffffffffffffffffffffffffffffffffffffff16148061069157506106908161068b610fff565b610d8e565b5b6106d0576040517f08c379a00000000000000000000000000000000000000000000000000000000081526004016106c79061265d565b60405180910390fd5b6106da8383611007565b505050565b6000600654905090565b6106fa6106f4610fff565b826110c0565b610739576040517f08c379a00000000000000000000000000000000000000000000000000000000081526004016107309061277d565b60405180910390fd5b61074483838361119e565b505050565b600061075482610f93565b9050919050565b61077683838360405180602001604052806000815250610c85565b505050565b610783610fff565b600860009054906101000a900473ffffffffffffffffffffffffffffffffffffffff1673ffffffffffffffffffffffffffffffffffffffff168173ffffffffffffffffffffffffffffffffffffffff1614610813576040517f08c379a000000000000000000000000000000000000000000000000000000000815260040161080a906125bd565b60405180910390fd5b61081c826113fa565b5050565b6000806002600084815260200190815260200160002060009054906101000a900473ffffffffffffffffffffffffffffffffffffffff169050600073ffffffffffffffffffffffffffffffffffffffff168173ffffffffffffffffffffffffffffffffffffffff1614156108c9576040517f08c379a00000000000000000000000000000000000000000000000000000000081526004016108c09061269d565b60405180910390fd5b80915050919050565b6108da610fff565b600860009054906101000a900473ffffffffffffffffffffffffffffffffffffffff1673ffffffffffffffffffffffffffffffffffffffff168173ffffffffffffffffffffffffffffffffffffffff161461096a576040517f08c379a0000000000000000000000000000000000000000000000000000000008152600401610961906125bd565b60405180910390fd5b6109888260066000815461097d906129ff565b91905081905561150b565b6109b6600860009054906101000a900473ffffffffffffffffffffffffffffffffffffffff16600654611007565b5050565b60008073ffffffffffffffffffffffffffffffffffffffff168273ffffffffffffffffffffffffffffffffffffffff161415610a2b576040517f08c379a0000000000000000000000000000000000000000000000000000000008152600401610a229061267d565b60405180910390fd5b600360008373ffffffffffffffffffffffffffffffffffffffff1673ffffffffffffffffffffffffffffffffffffffff168152602001908152602001600020549050919050565b606060018054610a81906129cd565b80601f0160208091040260200160405190810160405280929190818152602001828054610aad906129cd565b8015610afa5780601f10610acf57610100808354040283529160200191610afa565b820191906000526020600020905b815481529060010190602001808311610add57829003601f168201915b5050505050905090565b610b0c610fff565b73ffffffffffffffffffffffffffffffffffffffff168273ffffffffffffffffffffffffffffffffffffffff161415610b7a576040517f08c379a0000000000000000000000000000000000000000000000000000000008152600401610b719061261d565b60405180910390fd5b8060056000610b87610fff565b73ffffffffffffffffffffffffffffffffffffffff1673ffffffffffffffffffffffffffffffffffffffff16815260200190815260200160002060008473ffffffffffffffffffffffffffffffffffffffff1673ffffffffffffffffffffffffffffffffffffffff16815260200190815260200160002060006101000a81548160ff0219169083151502179055508173ffffffffffffffffffffffffffffffffffffffff16610c34610fff565b73ffffffffffffffffffffffffffffffffffffffff167f17307eab39ab6107e8899845ad3d59bd9653f200f220920489ca2b5937696c3183604051610c799190612560565b60405180910390a35050565b610c96610c90610fff565b836110c0565b610cd5576040517f08c379a0000000000000000000000000000000000000000000000000000000008152600401610ccc9061277d565b60405180910390fd5b610ce1848484846116d9565b50505050565b6060610cf282610f93565b610d31576040517f08c379a0000000000000000000000000000000000000000000000000000000008152600401610d289061271d565b60405180910390fd5b6000610d3b611735565b90506000815111610d5b5760405180602001604052806000815250610d86565b80610d658461174c565b604051602001610d7692919061249e565b6040516020818303038152906040525b915050919050565b6000600560008473ffffffffffffffffffffffffffffffffffffffff1673ffffffffffffffffffffffffffffffffffffffff16815260200190815260200160002060008373ffffffffffffffffffffffffffffffffffffffff1673ffffffffffffffffffffffffffffffffffffffff16815260200190815260200160002060009054906101000a900460ff16905092915050565b6000600860009054906101000a900473ffffffffffffffffffffffffffffffffffffffff16905090565b610e54610fff565b600760009054906101000a900473ffffffffffffffffffffffffffffffffffffffff1673ffffffffffffffffffffffffffffffffffffffff168173ffffffffffffffffffffffffffffffffffffffff1614610ee4576040517f08c379a0000000000000000000000000000000000000000000000000000000008152600401610edb9061273d565b60405180910390fd5b81600860006101000a81548173ffffffffffffffffffffffffffffffffffffffff021916908373ffffffffffffffffffffffffffffffffffffffff1602179055505050565b60007f01ffc9a7000000000000000000000000000000000000000000000000000000007bffffffffffffffffffffffffffffffffffffffffffffffffffffffff1916827bffffffffffffffffffffffffffffffffffffffffffffffffffffffff1916149050919050565b60008073ffffffffffffffffffffffffffffffffffffffff166002600084815260200190815260200160002060009054906101000a900473ffffffffffffffffffffffffffffffffffffffff1673ffffffffffffffffffffffffffffffffffffffff1614159050919050565b600033905090565b816004600083815260200190815260200160002060006101000a81548173ffffffffffffffffffffffffffffffffffffffff021916908373ffffffffffffffffffffffffffffffffffffffff160217905550808273ffffffffffffffffffffffffffffffffffffffff1661107a83610820565b73ffffffffffffffffffffffffffffffffffffffff167f8c5be1e5ebec7d5bd14f71427d1e84f3dd0314c0f7b2291e5b200ac8c7c3b92560405160405180910390a45050565b60006110cb82610f93565b61110a576040517f08c379a00000000000000000000000000000000000000000000000000000000081526004016111019061263d565b60405180910390fd5b600061111583610820565b90508073ffffffffffffffffffffffffffffffffffffffff168473ffffffffffffffffffffffffffffffffffffffff16148061118457508373ffffffffffffffffffffffffffffffffffffffff1661116c84610542565b73ffffffffffffffffffffffffffffffffffffffff16145b8061119557506111948185610d8e565b5b91505092915050565b8273ffffffffffffffffffffffffffffffffffffffff166111be82610820565b73ffffffffffffffffffffffffffffffffffffffff1614611214576040517f08c379a000000000000000000000000000000000000000000000000000000000815260040161120b906126fd565b60405180910390fd5b600073ffffffffffffffffffffffffffffffffffffffff168273ffffffffffffffffffffffffffffffffffffffff161415611284576040517f08c379a000000000000000000000000000000000000000000000000000000000815260040161127b906125fd565b60405180910390fd5b61128f8383836118f9565b61129a600082611007565b6001600360008573ffffffffffffffffffffffffffffffffffffffff1673ffffffffffffffffffffffffffffffffffffffff16815260200190815260200160002060008282546112ea91906128e3565b925050819055506001600360008473ffffffffffffffffffffffffffffffffffffffff1673ffffffffffffffffffffffffffffffffffffffff1681526020019081526020016000206000828254611341919061285c565b92505081905550816002600083815260200190815260200160002060006101000a81548173ffffffffffffffffffffffffffffffffffffffff021916908373ffffffffffffffffffffffffffffffffffffffff160217905550808273ffffffffffffffffffffffffffffffffffffffff168473ffffffffffffffffffffffffffffffffffffffff167fddf252ad1be2c89b69c2b068fc378daa952ba7f163c4a11628f55a4df523b3ef60405160405180910390a4505050565b600061140582610820565b9050611413816000846118f9565b61141e600083611007565b6001600360008373ffffffffffffffffffffffffffffffffffffffff1673ffffffffffffffffffffffffffffffffffffffff168152602001908152602001600020600082825461146e91906128e3565b925050819055506002600083815260200190815260200160002060006101000a81549073ffffffffffffffffffffffffffffffffffffffff021916905581600073ffffffffffffffffffffffffffffffffffffffff168273ffffffffffffffffffffffffffffffffffffffff167fddf252ad1be2c89b69c2b068fc378daa952ba7f163c4a11628f55a4df523b3ef60405160405180910390a45050565b600073ffffffffffffffffffffffffffffffffffffffff168273ffffffffffffffffffffffffffffffffffffffff16141561157b576040517f08c379a0000000000000000000000000000000000000000000000000000000008152600401611572906126bd565b60405180910390fd5b61158481610f93565b156115c4576040517f08c379a00000000000000000000000000000000000000000000000000000000081526004016115bb906125dd565b60405180910390fd5b6115d0600083836118f9565b6001600360008473ffffffffffffffffffffffffffffffffffffffff1673ffffffffffffffffffffffffffffffffffffffff1681526020019081526020016000206000828254611620919061285c565b92505081905550816002600083815260200190815260200160002060006101000a81548173ffffffffffffffffffffffffffffffffffffffff021916908373ffffffffffffffffffffffffffffffffffffffff160217905550808273ffffffffffffffffffffffffffffffffffffffff16600073ffffffffffffffffffffffffffffffffffffffff167fddf252ad1be2c89b69c2b068fc378daa952ba7f163c4a11628f55a4df523b3ef60405160405180910390a45050565b6116e484848461119e565b6116f08484848461198f565b61172f576040517f08c379a00000000000000000000000000000000000000000000000000000000081526004016117269061259d565b60405180910390fd5b50505050565b606060405180602001604052806000815250905090565b60606000821415611794576040518060400160405280600181526020017f300000000000000000000000000000000000000000000000000000000000000081525090506118f4565b600082905060005b600082146117c65780806117af906129ff565b915050600a826117bf91906128b2565b915061179c565b60008167ffffffffffffffff811115611808577f4e487b7100000000000000000000000000000000000000000000000000000000600052604160045260246000fd5b6040519080825280601f01601f19166020018201604052801561183a5781602001600182028036833780820191505090505b5090505b600085146118ed5760018261185391906128e3565b9150600a856118629190612a48565b603061186e919061285c565b60f81b8183815181106118aa577f4e487b7100000000000000000000000000000000000000000000000000000000600052603260045260246000fd5b60200101907effffffffffffffffffffffffffffffffffffffffffffffffffffffffffffff1916908160001a905350600a856118e691906128b2565b945061183e565b8093505050505b919050565b600860009054906101000a900473ffffffffffffffffffffffffffffffffffffffff1673ffffffffffffffffffffffffffffffffffffffff166346197c9a8484846040518463ffffffff1660e01b8152600401611958939291906124dd565b600060405180830381600087803b15801561197257600080fd5b505af1158015611986573d6000803e3d6000fd5b50505050505050565b60006119b08473ffffffffffffffffffffffffffffffffffffffff16611b26565b15611b19578373ffffffffffffffffffffffffffffffffffffffff1663150b7a026119d9610fff565b8786866040518563ffffffff1660e01b81526004016119fb9493929190612514565b602060405180830381600087803b158015611a1557600080fd5b505af1925050508015611a4657506040513d601f19601f82011682018060405250810190611a439190611dda565b60015b611ac9573d8060008114611a76576040519150601f19603f3d011682016040523d82523d6000602084013e611a7b565b606091505b50600081511415611ac1576040517f08c379a0000000000000000000000000000000000000000000000000000000008152600401611ab89061259d565b60405180910390fd5b805181602001fd5b63150b7a0260e01b7bffffffffffffffffffffffffffffffffffffffffffffffffffffffff1916817bffffffffffffffffffffffffffffffffffffffffffffffffffffffff191614915050611b1e565b600190505b949350505050565b600080823b905060008111915050919050565b6000611b4c611b47846127e9565b6127b8565b905082815260208101848484011115611b6457600080fd5b611b6f84828561298b565b509392505050565b600081359050611b8681612b46565b92915050565b600081359050611b9b81612b5d565b92915050565b600081359050611bb081612b74565b92915050565b600081519050611bc581612b74565b92915050565b600082601f830112611bdc57600080fd5b8135611bec848260208601611b39565b91505092915050565b600081359050611c0481612b8b565b92915050565b600060208284031215611c1c57600080fd5b6000611c2a84828501611b77565b91505092915050565b60008060408385031215611c4657600080fd5b6000611c5485828601611b77565b9250506020611c6585828601611b77565b9150509250929050565b600080600060608486031215611c8457600080fd5b6000611c9286828701611b77565b9350506020611ca386828701611b77565b9250506040611cb486828701611bf5565b9150509250925092565b60008060008060808587031215611cd457600080fd5b6000611ce287828801611b77565b9450506020611cf387828801611b77565b9350506040611d0487828801611bf5565b925050606085013567ffffffffffffffff811115611d2157600080fd5b611d2d87828801611bcb565b91505092959194509250565b60008060408385031215611d4c57600080fd5b6000611d5a85828601611b77565b9250506020611d6b85828601611b8c565b9150509250929050565b60008060408385031215611d8857600080fd5b6000611d9685828601611b77565b9250506020611da785828601611bf5565b9150509250929050565b600060208284031215611dc357600080fd5b6000611dd184828501611ba1565b91505092915050565b600060208284031215611dec57600080fd5b6000611dfa84828501611bb6565b91505092915050565b600060208284031215611e1557600080fd5b6000611e2384828501611bf5565b91505092915050565b611e3581612917565b82525050565b611e4481612929565b82525050565b6000611e5582612819565b611e5f818561282f565b9350611e6f81856020860161299a565b611e7881612b35565b840191505092915050565b6000611e8e82612824565b611e988185612840565b9350611ea881856020860161299a565b611eb181612b35565b840191505092915050565b6000611ec782612824565b611ed18185612851565b9350611ee181856020860161299a565b80840191505092915050565b6000611efa603283612840565b91507f4552433732313a207472616e7366657220746f206e6f6e20455243373231526560008301527f63656976657220696d706c656d656e74657200000000000000000000000000006020830152604082019050919050565b6000611f60601683612840565b91507f4f6e6c79204d696e7465722043616e20446f20497421000000000000000000006000830152602082019050919050565b6000611fa0601c83612840565b91507f4552433732313a20746f6b656e20616c7265616479206d696e746564000000006000830152602082019050919050565b6000611fe0602483612840565b91507f4552433732313a207472616e7366657220746f20746865207a65726f2061646460008301527f72657373000000000000000000000000000000000000000000000000000000006020830152604082019050919050565b6000612046601983612840565b91507f4552433732313a20617070726f766520746f2063616c6c6572000000000000006000830152602082019050919050565b6000612086602c83612840565b91507f4552433732313a206f70657261746f7220717565727920666f72206e6f6e657860008301527f697374656e7420746f6b656e00000000000000000000000000000000000000006020830152604082019050919050565b60006120ec603883612840565b91507f4552433732313a20617070726f76652063616c6c6572206973206e6f74206f7760008301527f6e6572206e6f7220617070726f76656420666f7220616c6c00000000000000006020830152604082019050919050565b6000612152602a83612840565b91507f4552433732313a2062616c616e636520717565727920666f7220746865207a6560008301527f726f2061646472657373000000000000000000000000000000000000000000006020830152604082019050919050565b60006121b8602983612840565b91507f4552433732313a206f776e657220717565727920666f72206e6f6e657869737460008301527f656e7420746f6b656e00000000000000000000000000000000000000000000006020830152604082019050919050565b600061221e602083612840565b91507f4552433732313a206d696e7420746f20746865207a65726f20616464726573736000830152602082019050919050565b600061225e602c83612840565b91507f4552433732313a20617070726f76656420717565727920666f72206e6f6e657860008301527f697374656e7420746f6b656e00000000000000000000000000000000000000006020830152604082019050919050565b60006122c4602983612840565b91507f4552433732313a207472616e73666572206f6620746f6b656e2074686174206960008301527f73206e6f74206f776e00000000000000000000000000000000000000000000006020830152604082019050919050565b600061232a602f83612840565b91507f4552433732314d657461646174613a2055524920717565727920666f72206e6f60008301527f6e6578697374656e7420746f6b656e00000000000000000000000000000000006020830152604082019050919050565b6000612390601583612840565b91507f4f6e6c79204f776e65722043616e20446f2049742100000000000000000000006000830152602082019050919050565b60006123d0602183612840565b91507f4552433732313a20617070726f76616c20746f2063757272656e74206f776e6560008301527f72000000000000000000000000000000000000000000000000000000000000006020830152604082019050919050565b6000612436603183612840565b91507f4552433732313a207472616e736665722063616c6c6572206973206e6f74206f60008301527f776e6572206e6f7220617070726f7665640000000000000000000000000000006020830152604082019050919050565b61249881612981565b82525050565b60006124aa8285611ebc565b91506124b68284611ebc565b91508190509392505050565b60006020820190506124d76000830184611e2c565b92915050565b60006060820190506124f26000830186611e2c565b6124ff6020830185611e2c565b61250c604083018461248f565b949350505050565b60006080820190506125296000830187611e2c565b6125366020830186611e2c565b612543604083018561248f565b81810360608301526125558184611e4a565b905095945050505050565b60006020820190506125756000830184611e3b565b92915050565b600060208201905081810360008301526125958184611e83565b905092915050565b600060208201905081810360008301526125b681611eed565b9050919050565b600060208201905081810360008301526125d681611f53565b9050919050565b600060208201905081810360008301526125f681611f93565b9050919050565b6000602082019050818103600083015261261681611fd3565b9050919050565b6000602082019050818103600083015261263681612039565b9050919050565b6000602082019050818103600083015261265681612079565b9050919050565b60006020820190508181036000830152612676816120df565b9050919050565b6000602082019050818103600083015261269681612145565b9050919050565b600060208201905081810360008301526126b6816121ab565b9050919050565b600060208201905081810360008301526126d681612211565b9050919050565b600060208201905081810360008301526126f681612251565b9050919050565b60006020820190508181036000830152612716816122b7565b9050919050565b600060208201905081810360008301526127368161231d565b9050919050565b6000602082019050818103600083015261275681612383565b9050919050565b60006020820190508181036000830152612776816123c3565b9050919050565b6000602082019050818103600083015261279681612429565b9050919050565b60006020820190506127b2600083018461248f565b92915050565b6000604051905081810181811067ffffffffffffffff821117156127df576127de612b06565b5b8060405250919050565b600067ffffffffffffffff82111561280457612803612b06565b5b601f19601f8301169050602081019050919050565b600081519050919050565b600081519050919050565b600082825260208201905092915050565b600082825260208201905092915050565b600081905092915050565b600061286782612981565b915061287283612981565b9250827fffffffffffffffffffffffffffffffffffffffffffffffffffffffffffffffff038211156128a7576128a6612a79565b5b828201905092915050565b60006128bd82612981565b91506128c883612981565b9250826128d8576128d7612aa8565b5b828204905092915050565b60006128ee82612981565b91506128f983612981565b92508282101561290c5761290b612a79565b5b828203905092915050565b600061292282612961565b9050919050565b60008115159050919050565b60007fffffffff0000000000000000000000000000000000000000000000000000000082169050919050565b600073ffffffffffffffffffffffffffffffffffffffff82169050919050565b6000819050919050565b82818337600083830152505050565b60005b838110156129b857808201518184015260208101905061299d565b838111156129c7576000848401525b50505050565b600060028204905060018216806129e557607f821691505b602082108114156129f9576129f8612ad7565b5b50919050565b6000612a0a82612981565b91507fffffffffffffffffffffffffffffffffffffffffffffffffffffffffffffffff821415612a3d57612a3c612a79565b5b600182019050919050565b6000612a5382612981565b9150612a5e83612981565b925082612a6e57612a6d612aa8565b5b828206905092915050565b7f4e487b7100000000000000000000000000000000000000000000000000000000600052601160045260246000fd5b7f4e487b7100000000000000000000000000000000000000000000000000000000600052601260045260246000fd5b7f4e487b7100000000000000000000000000000000000000000000000000000000600052602260045260246000fd5b7f4e487b7100000000000000000000000000000000000000000000000000000000600052604160045260246000fd5b6000601f19601f8301169050919050565b612b4f81612917565b8114612b5a57600080fd5b50565b612b6681612929565b8114612b7157600080fd5b50565b612b7d81612935565b8114612b8857600080fd5b50565b612b9481612981565b8114612b9f57600080fd5b5056fea26469706673582212202f3bf9941d7ed3a7d6eddb452678b56bb0cc7bccca3a9160af650af0b554800f64736f6c63430008000033",
  "immutableReferences": {},
  "source": "// SPDX-License-Identifier: GPL-3.0\npragma solidity ^0.8.0;\n\nimport \"@openzeppelin/contracts/token/ERC721/ERC721.sol\";\nimport \"./IPixelsMetavers.sol\";\n\ncontract PMT721 is ERC721 {\n    uint256 private _tokenId;\n    address _owner;\n    address _minter;\n\n    modifier MustMinter(address from) {\n        require(from == _minter, \"Only Minter Can Do It!\");\n        _;\n    }\n\n    modifier MustOwner(address from) {\n        require(from == _owner, \"Only Owner Can Do It!\");\n        _;\n    }\n\n    constructor() ERC721(\"PixelsMetavers\", \"PMT\") {\n        _owner = _msgSender();\n    }\n\n    function mint(address to) public MustMinter(_msgSender()) {\n        _mint(to, ++_tokenId);\n        _approve(_minter, _tokenId);\n    }\n\n    function burn(uint256 id) public MustMinter(_msgSender()) {\n        _burn(id);\n    }\n\n    function exits(uint256 id) public view returns (bool) {\n        return _exists(id);\n    }\n\n    function setMinter(address minter) public MustOwner(_msgSender()) {\n        _minter = minter;\n    }\n\n    function getMinter() public view returns (address) {\n        return _minter;\n    }\n\n    function currentID() public view returns (uint256) {\n        return _tokenId;\n    }\n\n    function _beforeTokenTransfer(\n        address from,\n        address to,\n        uint256 tokenId\n    ) internal virtual override {\n        IPixelsMetavers(_minter).handleTransfer(from, to, tokenId);\n    }\n}\n",
  "sourcePath": "/Users/xiangzhengfeng/Desktop/mine/project/pixels-metaverse-main/contracts/PMT721.sol",
  "compiler": {
    "name": "solc",
    "version": "0.8.0+commit.c7dfd78e.Emscripten.clang"
  },
  "schemaVersion": "3.3.4",
  "updatedAt": "2022-01-09T08:47:11.159Z",
  "networkType": "ethereum",
  "devdoc": {
    "kind": "dev",
    "methods": {
      "approve(address,uint256)": {
        "details": "See {IERC721-approve}."
      },
      "balanceOf(address)": {
        "details": "See {IERC721-balanceOf}."
      },
      "getApproved(uint256)": {
        "details": "See {IERC721-getApproved}."
      },
      "isApprovedForAll(address,address)": {
        "details": "See {IERC721-isApprovedForAll}."
      },
      "name()": {
        "details": "See {IERC721Metadata-name}."
      },
      "ownerOf(uint256)": {
        "details": "See {IERC721-ownerOf}."
      },
      "safeTransferFrom(address,address,uint256)": {
        "details": "See {IERC721-safeTransferFrom}."
      },
      "safeTransferFrom(address,address,uint256,bytes)": {
        "details": "See {IERC721-safeTransferFrom}."
      },
      "setApprovalForAll(address,bool)": {
        "details": "See {IERC721-setApprovalForAll}."
      },
      "supportsInterface(bytes4)": {
        "details": "See {IERC165-supportsInterface}."
      },
      "symbol()": {
        "details": "See {IERC721Metadata-symbol}."
      },
      "tokenURI(uint256)": {
        "details": "See {IERC721Metadata-tokenURI}."
      },
      "transferFrom(address,address,uint256)": {
        "details": "See {IERC721-transferFrom}."
      }
    },
    "version": 1
  },
  "userdoc": {
    "kind": "user",
    "methods": {},
    "version": 1
  }
}