{
  "contractName": "PMT721",
  "abi": [
    {
      "inputs": [],
      "stateMutability": "nonpayable",
      "type": "constructor"
    },
    {
      "anonymous": false,
      "inputs": [
        {
          "indexed": true,
          "internalType": "address",
          "name": "owner",
          "type": "address"
        },
        {
          "indexed": true,
          "internalType": "address",
          "name": "approved",
          "type": "address"
        },
        {
          "indexed": true,
          "internalType": "uint256",
          "name": "tokenId",
          "type": "uint256"
        }
      ],
      "name": "Approval",
      "type": "event"
    },
    {
      "anonymous": false,
      "inputs": [
        {
          "indexed": true,
          "internalType": "address",
          "name": "owner",
          "type": "address"
        },
        {
          "indexed": true,
          "internalType": "address",
          "name": "operator",
          "type": "address"
        },
        {
          "indexed": false,
          "internalType": "bool",
          "name": "approved",
          "type": "bool"
        }
      ],
      "name": "ApprovalForAll",
      "type": "event"
    },
    {
      "anonymous": false,
      "inputs": [
        {
          "indexed": true,
          "internalType": "address",
          "name": "from",
          "type": "address"
        },
        {
          "indexed": true,
          "internalType": "address",
          "name": "to",
          "type": "address"
        },
        {
          "indexed": true,
          "internalType": "uint256",
          "name": "tokenId",
          "type": "uint256"
        }
      ],
      "name": "Transfer",
      "type": "event"
    },
    {
      "inputs": [
        {
          "internalType": "address",
          "name": "to",
          "type": "address"
        },
        {
          "internalType": "uint256",
          "name": "tokenId",
          "type": "uint256"
        }
      ],
      "name": "approve",
      "outputs": [],
      "stateMutability": "nonpayable",
      "type": "function"
    },
    {
      "inputs": [
        {
          "internalType": "address",
          "name": "owner",
          "type": "address"
        }
      ],
      "name": "balanceOf",
      "outputs": [
        {
          "internalType": "uint256",
          "name": "",
          "type": "uint256"
        }
      ],
      "stateMutability": "view",
      "type": "function",
      "constant": true
    },
    {
      "inputs": [
        {
          "internalType": "uint256",
          "name": "tokenId",
          "type": "uint256"
        }
      ],
      "name": "getApproved",
      "outputs": [
        {
          "internalType": "address",
          "name": "",
          "type": "address"
        }
      ],
      "stateMutability": "view",
      "type": "function",
      "constant": true
    },
    {
      "inputs": [
        {
          "internalType": "address",
          "name": "owner",
          "type": "address"
        },
        {
          "internalType": "address",
          "name": "operator",
          "type": "address"
        }
      ],
      "name": "isApprovedForAll",
      "outputs": [
        {
          "internalType": "bool",
          "name": "",
          "type": "bool"
        }
      ],
      "stateMutability": "view",
      "type": "function",
      "constant": true
    },
    {
      "inputs": [],
      "name": "name",
      "outputs": [
        {
          "internalType": "string",
          "name": "",
          "type": "string"
        }
      ],
      "stateMutability": "view",
      "type": "function",
      "constant": true
    },
    {
      "inputs": [
        {
          "internalType": "uint256",
          "name": "tokenId",
          "type": "uint256"
        }
      ],
      "name": "ownerOf",
      "outputs": [
        {
          "internalType": "address",
          "name": "",
          "type": "address"
        }
      ],
      "stateMutability": "view",
      "type": "function",
      "constant": true
    },
    {
      "inputs": [
        {
          "internalType": "address",
          "name": "from",
          "type": "address"
        },
        {
          "internalType": "address",
          "name": "to",
          "type": "address"
        },
        {
          "internalType": "uint256",
          "name": "tokenId",
          "type": "uint256"
        }
      ],
      "name": "safeTransferFrom",
      "outputs": [],
      "stateMutability": "nonpayable",
      "type": "function"
    },
    {
      "inputs": [
        {
          "internalType": "address",
          "name": "from",
          "type": "address"
        },
        {
          "internalType": "address",
          "name": "to",
          "type": "address"
        },
        {
          "internalType": "uint256",
          "name": "tokenId",
          "type": "uint256"
        },
        {
          "internalType": "bytes",
          "name": "_data",
          "type": "bytes"
        }
      ],
      "name": "safeTransferFrom",
      "outputs": [],
      "stateMutability": "nonpayable",
      "type": "function"
    },
    {
      "inputs": [
        {
          "internalType": "address",
          "name": "operator",
          "type": "address"
        },
        {
          "internalType": "bool",
          "name": "approved",
          "type": "bool"
        }
      ],
      "name": "setApprovalForAll",
      "outputs": [],
      "stateMutability": "nonpayable",
      "type": "function"
    },
    {
      "inputs": [
        {
          "internalType": "bytes4",
          "name": "interfaceId",
          "type": "bytes4"
        }
      ],
      "name": "supportsInterface",
      "outputs": [
        {
          "internalType": "bool",
          "name": "",
          "type": "bool"
        }
      ],
      "stateMutability": "view",
      "type": "function",
      "constant": true
    },
    {
      "inputs": [],
      "name": "symbol",
      "outputs": [
        {
          "internalType": "string",
          "name": "",
          "type": "string"
        }
      ],
      "stateMutability": "view",
      "type": "function",
      "constant": true
    },
    {
      "inputs": [
        {
          "internalType": "uint256",
          "name": "tokenId",
          "type": "uint256"
        }
      ],
      "name": "tokenURI",
      "outputs": [
        {
          "internalType": "string",
          "name": "",
          "type": "string"
        }
      ],
      "stateMutability": "view",
      "type": "function",
      "constant": true
    },
    {
      "inputs": [
        {
          "internalType": "address",
          "name": "from",
          "type": "address"
        },
        {
          "internalType": "address",
          "name": "to",
          "type": "address"
        },
        {
          "internalType": "uint256",
          "name": "tokenId",
          "type": "uint256"
        }
      ],
      "name": "transferFrom",
      "outputs": [],
      "stateMutability": "nonpayable",
      "type": "function"
    },
    {
      "inputs": [],
      "name": "mint",
      "outputs": [],
      "stateMutability": "nonpayable",
      "type": "function"
    },
    {
      "inputs": [
        {
          "internalType": "uint256",
          "name": "id",
          "type": "uint256"
        }
      ],
      "name": "burn",
      "outputs": [],
      "stateMutability": "nonpayable",
      "type": "function"
    },
    {
      "inputs": [
        {
          "internalType": "uint256",
          "name": "id",
          "type": "uint256"
        }
      ],
      "name": "exits",
      "outputs": [
        {
          "internalType": "bool",
          "name": "",
          "type": "bool"
        }
      ],
      "stateMutability": "view",
      "type": "function",
      "constant": true
    },
    {
      "inputs": [
        {
          "internalType": "address",
          "name": "minter",
          "type": "address"
        }
      ],
      "name": "setMinter",
      "outputs": [],
      "stateMutability": "nonpayable",
      "type": "function"
    },
    {
      "inputs": [],
      "name": "getMinter",
      "outputs": [
        {
          "internalType": "address",
          "name": "",
          "type": "address"
        }
      ],
      "stateMutability": "view",
      "type": "function",
      "constant": true
    },
    {
      "inputs": [],
      "name": "currentID",
      "outputs": [
        {
          "internalType": "uint256",
          "name": "",
          "type": "uint256"
        }
      ],
      "stateMutability": "view",
      "type": "function",
      "constant": true
    }
  ],
  "bytecode": "0x60806040523480156200001157600080fd5b506040518060400160405280600e81526020017f506978656c734d657461766572730000000000000000000000000000000000008152506040518060400160405280600381526020017f504d540000000000000000000000000000000000000000000000000000000000815250816000908051906020019062000096929190620000f9565b508060019080519060200190620000af929190620000f9565b50505033600760006101000a81548173ffffffffffffffffffffffffffffffffffffffff021916908373ffffffffffffffffffffffffffffffffffffffff1602179055506200020e565b8280546200010790620001a9565b90600052602060002090601f0160209004810192826200012b576000855562000177565b82601f106200014657805160ff191683800117855562000177565b8280016001018555821562000177579182015b828111156200017657825182559160200191906001019062000159565b5b5090506200018691906200018a565b5090565b5b80821115620001a55760008160009055506001016200018b565b5090565b60006002820490506001821680620001c257607f821691505b60208210811415620001d957620001d8620001df565b5b50919050565b7f4e487b7100000000000000000000000000000000000000000000000000000000600052602260045260246000fd5b612b82806200021e6000396000f3fe608060405234801561001057600080fd5b50600436106101215760003560e01c806342966c68116100ad578063b88d4fde11610071578063b88d4fde14610306578063c87b56dd14610322578063e985e9c514610352578063f366751714610382578063fca3b5aa146103a057610121565b806342966c68146102505780636352211e1461026c57806370a082311461029c57806395d89b41146102cc578063a22cb465146102ea57610121565b80631249c58b116100f45780631249c58b146101c05780631c75cfb4146101ca57806323b872dd146101e8578063342de1791461020457806342842e0e1461023457610121565b806301ffc9a71461012657806306fdde0314610156578063081812fc14610174578063095ea7b3146101a4575b600080fd5b610140600480360381019061013b9190611d5b565b6103bc565b60405161014d919061250a565b60405180910390f35b61015e61049e565b60405161016b9190612525565b60405180910390f35b61018e60048036038101906101899190611dad565b610530565b60405161019b919061246c565b60405180910390f35b6101be60048036038101906101b99190611d1f565b6105b5565b005b6101c86106cd565b005b6101d261077f565b6040516101df9190612747565b60405180910390f35b61020260048036038101906101fd9190611c19565b610789565b005b61021e60048036038101906102199190611dad565b6107e9565b60405161022b919061250a565b60405180910390f35b61024e60048036038101906102499190611c19565b6107fb565b005b61026a60048036038101906102659190611dad565b61081b565b005b61028660048036038101906102819190611dad565b6108b9565b604051610293919061246c565b60405180910390f35b6102b660048036038101906102b19190611bb4565b61096b565b6040516102c39190612747565b60405180910390f35b6102d4610a23565b6040516102e19190612525565b60405180910390f35b61030460048036038101906102ff9190611ce3565b610ab5565b005b610320600480360381019061031b9190611c68565b610c36565b005b61033c60048036038101906103379190611dad565b610c98565b6040516103499190612525565b60405180910390f35b61036c60048036038101906103679190611bdd565b610d3f565b604051610379919061250a565b60405180910390f35b61038a610dd3565b604051610397919061246c565b60405180910390f35b6103ba60048036038101906103b59190611bb4565b610dfd565b005b60007f80ac58cd000000000000000000000000000000000000000000000000000000007bffffffffffffffffffffffffffffffffffffffffffffffffffffffff1916827bffffffffffffffffffffffffffffffffffffffffffffffffffffffff1916148061048757507f5b5e139f000000000000000000000000000000000000000000000000000000007bffffffffffffffffffffffffffffffffffffffffffffffffffffffff1916827bffffffffffffffffffffffffffffffffffffffffffffffffffffffff1916145b80610497575061049682610ed3565b5b9050919050565b6060600080546104ad90612977565b80601f01602080910402602001604051908101604052809291908181526020018280546104d990612977565b80156105265780601f106104fb57610100808354040283529160200191610526565b820191906000526020600020905b81548152906001019060200180831161050957829003601f168201915b5050505050905090565b600061053b82610f3d565b61057a576040517f08c379a000000000000000000000000000000000000000000000000000000000815260040161057190612687565b60405180910390fd5b6004600083815260200190815260200160002060009054906101000a900473ffffffffffffffffffffffffffffffffffffffff169050919050565b60006105c0826108b9565b90508073ffffffffffffffffffffffffffffffffffffffff168373ffffffffffffffffffffffffffffffffffffffff161415610631576040517f08c379a000000000000000000000000000000000000000000000000000000000815260040161062890612707565b60405180910390fd5b8073ffffffffffffffffffffffffffffffffffffffff16610650610fa9565b73ffffffffffffffffffffffffffffffffffffffff16148061067f575061067e81610679610fa9565b610d3f565b5b6106be576040517f08c379a00000000000000000000000000000000000000000000000000000000081526004016106b590612607565b60405180910390fd5b6106c88383610fb1565b505050565b33600860009054906101000a900473ffffffffffffffffffffffffffffffffffffffff1673ffffffffffffffffffffffffffffffffffffffff168173ffffffffffffffffffffffffffffffffffffffff161461075e576040517f08c379a000000000000000000000000000000000000000000000000000000000815260040161075590612567565b60405180910390fd5b61077c33600660008154610771906129a9565b91905081905561106a565b50565b6000600654905090565b61079a610794610fa9565b82611238565b6107d9576040517f08c379a00000000000000000000000000000000000000000000000000000000081526004016107d090612727565b60405180910390fd5b6107e4838383611316565b505050565b60006107f482610f3d565b9050919050565b61081683838360405180602001604052806000815250610c36565b505050565b33600860009054906101000a900473ffffffffffffffffffffffffffffffffffffffff1673ffffffffffffffffffffffffffffffffffffffff168173ffffffffffffffffffffffffffffffffffffffff16146108ac576040517f08c379a00000000000000000000000000000000000000000000000000000000081526004016108a390612567565b60405180910390fd5b6108b582611572565b5050565b6000806002600084815260200190815260200160002060009054906101000a900473ffffffffffffffffffffffffffffffffffffffff169050600073ffffffffffffffffffffffffffffffffffffffff168173ffffffffffffffffffffffffffffffffffffffff161415610962576040517f08c379a000000000000000000000000000000000000000000000000000000000815260040161095990612647565b60405180910390fd5b80915050919050565b60008073ffffffffffffffffffffffffffffffffffffffff168273ffffffffffffffffffffffffffffffffffffffff1614156109dc576040517f08c379a00000000000000000000000000000000000000000000000000000000081526004016109d390612627565b60405180910390fd5b600360008373ffffffffffffffffffffffffffffffffffffffff1673ffffffffffffffffffffffffffffffffffffffff168152602001908152602001600020549050919050565b606060018054610a3290612977565b80601f0160208091040260200160405190810160405280929190818152602001828054610a5e90612977565b8015610aab5780601f10610a8057610100808354040283529160200191610aab565b820191906000526020600020905b815481529060010190602001808311610a8e57829003601f168201915b5050505050905090565b610abd610fa9565b73ffffffffffffffffffffffffffffffffffffffff168273ffffffffffffffffffffffffffffffffffffffff161415610b2b576040517f08c379a0000000000000000000000000000000000000000000000000000000008152600401610b22906125c7565b60405180910390fd5b8060056000610b38610fa9565b73ffffffffffffffffffffffffffffffffffffffff1673ffffffffffffffffffffffffffffffffffffffff16815260200190815260200160002060008473ffffffffffffffffffffffffffffffffffffffff1673ffffffffffffffffffffffffffffffffffffffff16815260200190815260200160002060006101000a81548160ff0219169083151502179055508173ffffffffffffffffffffffffffffffffffffffff16610be5610fa9565b73ffffffffffffffffffffffffffffffffffffffff167f17307eab39ab6107e8899845ad3d59bd9653f200f220920489ca2b5937696c3183604051610c2a919061250a565b60405180910390a35050565b610c47610c41610fa9565b83611238565b610c86576040517f08c379a0000000000000000000000000000000000000000000000000000000008152600401610c7d90612727565b60405180910390fd5b610c9284848484611683565b50505050565b6060610ca382610f3d565b610ce2576040517f08c379a0000000000000000000000000000000000000000000000000000000008152600401610cd9906126c7565b60405180910390fd5b6000610cec6116df565b90506000815111610d0c5760405180602001604052806000815250610d37565b80610d16846116f6565b604051602001610d27929190612448565b6040516020818303038152906040525b915050919050565b6000600560008473ffffffffffffffffffffffffffffffffffffffff1673ffffffffffffffffffffffffffffffffffffffff16815260200190815260200160002060008373ffffffffffffffffffffffffffffffffffffffff1673ffffffffffffffffffffffffffffffffffffffff16815260200190815260200160002060009054906101000a900460ff16905092915050565b6000600860009054906101000a900473ffffffffffffffffffffffffffffffffffffffff16905090565b33600760009054906101000a900473ffffffffffffffffffffffffffffffffffffffff1673ffffffffffffffffffffffffffffffffffffffff168173ffffffffffffffffffffffffffffffffffffffff1614610e8e576040517f08c379a0000000000000000000000000000000000000000000000000000000008152600401610e85906126e7565b60405180910390fd5b81600860006101000a81548173ffffffffffffffffffffffffffffffffffffffff021916908373ffffffffffffffffffffffffffffffffffffffff1602179055505050565b60007f01ffc9a7000000000000000000000000000000000000000000000000000000007bffffffffffffffffffffffffffffffffffffffffffffffffffffffff1916827bffffffffffffffffffffffffffffffffffffffffffffffffffffffff1916149050919050565b60008073ffffffffffffffffffffffffffffffffffffffff166002600084815260200190815260200160002060009054906101000a900473ffffffffffffffffffffffffffffffffffffffff1673ffffffffffffffffffffffffffffffffffffffff1614159050919050565b600033905090565b816004600083815260200190815260200160002060006101000a81548173ffffffffffffffffffffffffffffffffffffffff021916908373ffffffffffffffffffffffffffffffffffffffff160217905550808273ffffffffffffffffffffffffffffffffffffffff16611024836108b9565b73ffffffffffffffffffffffffffffffffffffffff167f8c5be1e5ebec7d5bd14f71427d1e84f3dd0314c0f7b2291e5b200ac8c7c3b92560405160405180910390a45050565b600073ffffffffffffffffffffffffffffffffffffffff168273ffffffffffffffffffffffffffffffffffffffff1614156110da576040517f08c379a00000000000000000000000000000000000000000000000000000000081526004016110d190612667565b60405180910390fd5b6110e381610f3d565b15611123576040517f08c379a000000000000000000000000000000000000000000000000000000000815260040161111a90612587565b60405180910390fd5b61112f600083836118a3565b6001600360008473ffffffffffffffffffffffffffffffffffffffff1673ffffffffffffffffffffffffffffffffffffffff168152602001908152602001600020600082825461117f9190612806565b92505081905550816002600083815260200190815260200160002060006101000a81548173ffffffffffffffffffffffffffffffffffffffff021916908373ffffffffffffffffffffffffffffffffffffffff160217905550808273ffffffffffffffffffffffffffffffffffffffff16600073ffffffffffffffffffffffffffffffffffffffff167fddf252ad1be2c89b69c2b068fc378daa952ba7f163c4a11628f55a4df523b3ef60405160405180910390a45050565b600061124382610f3d565b611282576040517f08c379a0000000000000000000000000000000000000000000000000000000008152600401611279906125e7565b60405180910390fd5b600061128d836108b9565b90508073ffffffffffffffffffffffffffffffffffffffff168473ffffffffffffffffffffffffffffffffffffffff1614806112fc57508373ffffffffffffffffffffffffffffffffffffffff166112e484610530565b73ffffffffffffffffffffffffffffffffffffffff16145b8061130d575061130c8185610d3f565b5b91505092915050565b8273ffffffffffffffffffffffffffffffffffffffff16611336826108b9565b73ffffffffffffffffffffffffffffffffffffffff161461138c576040517f08c379a0000000000000000000000000000000000000000000000000000000008152600401611383906126a7565b60405180910390fd5b600073ffffffffffffffffffffffffffffffffffffffff168273ffffffffffffffffffffffffffffffffffffffff1614156113fc576040517f08c379a00000000000000000000000000000000000000000000000000000000081526004016113f3906125a7565b60405180910390fd5b6114078383836118a3565b611412600082610fb1565b6001600360008573ffffffffffffffffffffffffffffffffffffffff1673ffffffffffffffffffffffffffffffffffffffff1681526020019081526020016000206000828254611462919061288d565b925050819055506001600360008473ffffffffffffffffffffffffffffffffffffffff1673ffffffffffffffffffffffffffffffffffffffff16815260200190815260200160002060008282546114b99190612806565b92505081905550816002600083815260200190815260200160002060006101000a81548173ffffffffffffffffffffffffffffffffffffffff021916908373ffffffffffffffffffffffffffffffffffffffff160217905550808273ffffffffffffffffffffffffffffffffffffffff168473ffffffffffffffffffffffffffffffffffffffff167fddf252ad1be2c89b69c2b068fc378daa952ba7f163c4a11628f55a4df523b3ef60405160405180910390a4505050565b600061157d826108b9565b905061158b816000846118a3565b611596600083610fb1565b6001600360008373ffffffffffffffffffffffffffffffffffffffff1673ffffffffffffffffffffffffffffffffffffffff16815260200190815260200160002060008282546115e6919061288d565b925050819055506002600083815260200190815260200160002060006101000a81549073ffffffffffffffffffffffffffffffffffffffff021916905581600073ffffffffffffffffffffffffffffffffffffffff168273ffffffffffffffffffffffffffffffffffffffff167fddf252ad1be2c89b69c2b068fc378daa952ba7f163c4a11628f55a4df523b3ef60405160405180910390a45050565b61168e848484611316565b61169a84848484611939565b6116d9576040517f08c379a00000000000000000000000000000000000000000000000000000000081526004016116d090612547565b60405180910390fd5b50505050565b606060405180602001604052806000815250905090565b6060600082141561173e576040518060400160405280600181526020017f3000000000000000000000000000000000000000000000000000000000000000815250905061189e565b600082905060005b60008214611770578080611759906129a9565b915050600a82611769919061285c565b9150611746565b60008167ffffffffffffffff8111156117b2577f4e487b7100000000000000000000000000000000000000000000000000000000600052604160045260246000fd5b6040519080825280601f01601f1916602001820160405280156117e45781602001600182028036833780820191505090505b5090505b60008514611897576001826117fd919061288d565b9150600a8561180c91906129f2565b60306118189190612806565b60f81b818381518110611854577f4e487b7100000000000000000000000000000000000000000000000000000000600052603260045260246000fd5b60200101907effffffffffffffffffffffffffffffffffffffffffffffffffffffffffffff1916908160001a905350600a85611890919061285c565b94506117e8565b8093505050505b919050565b600860009054906101000a900473ffffffffffffffffffffffffffffffffffffffff1673ffffffffffffffffffffffffffffffffffffffff1663beabacc88484846040518463ffffffff1660e01b815260040161190293929190612487565b600060405180830381600087803b15801561191c57600080fd5b505af1158015611930573d6000803e3d6000fd5b50505050505050565b600061195a8473ffffffffffffffffffffffffffffffffffffffff16611ad0565b15611ac3578373ffffffffffffffffffffffffffffffffffffffff1663150b7a02611983610fa9565b8786866040518563ffffffff1660e01b81526004016119a594939291906124be565b602060405180830381600087803b1580156119bf57600080fd5b505af19250505080156119f057506040513d601f19601f820116820180604052508101906119ed9190611d84565b60015b611a73573d8060008114611a20576040519150601f19603f3d011682016040523d82523d6000602084013e611a25565b606091505b50600081511415611a6b576040517f08c379a0000000000000000000000000000000000000000000000000000000008152600401611a6290612547565b60405180910390fd5b805181602001fd5b63150b7a0260e01b7bffffffffffffffffffffffffffffffffffffffffffffffffffffffff1916817bffffffffffffffffffffffffffffffffffffffffffffffffffffffff191614915050611ac8565b600190505b949350505050565b600080823b905060008111915050919050565b6000611af6611af184612793565b612762565b905082815260208101848484011115611b0e57600080fd5b611b19848285612935565b509392505050565b600081359050611b3081612af0565b92915050565b600081359050611b4581612b07565b92915050565b600081359050611b5a81612b1e565b92915050565b600081519050611b6f81612b1e565b92915050565b600082601f830112611b8657600080fd5b8135611b96848260208601611ae3565b91505092915050565b600081359050611bae81612b35565b92915050565b600060208284031215611bc657600080fd5b6000611bd484828501611b21565b91505092915050565b60008060408385031215611bf057600080fd5b6000611bfe85828601611b21565b9250506020611c0f85828601611b21565b9150509250929050565b600080600060608486031215611c2e57600080fd5b6000611c3c86828701611b21565b9350506020611c4d86828701611b21565b9250506040611c5e86828701611b9f565b9150509250925092565b60008060008060808587031215611c7e57600080fd5b6000611c8c87828801611b21565b9450506020611c9d87828801611b21565b9350506040611cae87828801611b9f565b925050606085013567ffffffffffffffff811115611ccb57600080fd5b611cd787828801611b75565b91505092959194509250565b60008060408385031215611cf657600080fd5b6000611d0485828601611b21565b9250506020611d1585828601611b36565b9150509250929050565b60008060408385031215611d3257600080fd5b6000611d4085828601611b21565b9250506020611d5185828601611b9f565b9150509250929050565b600060208284031215611d6d57600080fd5b6000611d7b84828501611b4b565b91505092915050565b600060208284031215611d9657600080fd5b6000611da484828501611b60565b91505092915050565b600060208284031215611dbf57600080fd5b6000611dcd84828501611b9f565b91505092915050565b611ddf816128c1565b82525050565b611dee816128d3565b82525050565b6000611dff826127c3565b611e0981856127d9565b9350611e19818560208601612944565b611e2281612adf565b840191505092915050565b6000611e38826127ce565b611e4281856127ea565b9350611e52818560208601612944565b611e5b81612adf565b840191505092915050565b6000611e71826127ce565b611e7b81856127fb565b9350611e8b818560208601612944565b80840191505092915050565b6000611ea46032836127ea565b91507f4552433732313a207472616e7366657220746f206e6f6e20455243373231526560008301527f63656976657220696d706c656d656e74657200000000000000000000000000006020830152604082019050919050565b6000611f0a6016836127ea565b91507f4f6e6c79204d696e7465722043616e20446f20497421000000000000000000006000830152602082019050919050565b6000611f4a601c836127ea565b91507f4552433732313a20746f6b656e20616c7265616479206d696e746564000000006000830152602082019050919050565b6000611f8a6024836127ea565b91507f4552433732313a207472616e7366657220746f20746865207a65726f2061646460008301527f72657373000000000000000000000000000000000000000000000000000000006020830152604082019050919050565b6000611ff06019836127ea565b91507f4552433732313a20617070726f766520746f2063616c6c6572000000000000006000830152602082019050919050565b6000612030602c836127ea565b91507f4552433732313a206f70657261746f7220717565727920666f72206e6f6e657860008301527f697374656e7420746f6b656e00000000000000000000000000000000000000006020830152604082019050919050565b60006120966038836127ea565b91507f4552433732313a20617070726f76652063616c6c6572206973206e6f74206f7760008301527f6e6572206e6f7220617070726f76656420666f7220616c6c00000000000000006020830152604082019050919050565b60006120fc602a836127ea565b91507f4552433732313a2062616c616e636520717565727920666f7220746865207a6560008301527f726f2061646472657373000000000000000000000000000000000000000000006020830152604082019050919050565b60006121626029836127ea565b91507f4552433732313a206f776e657220717565727920666f72206e6f6e657869737460008301527f656e7420746f6b656e00000000000000000000000000000000000000000000006020830152604082019050919050565b60006121c86020836127ea565b91507f4552433732313a206d696e7420746f20746865207a65726f20616464726573736000830152602082019050919050565b6000612208602c836127ea565b91507f4552433732313a20617070726f76656420717565727920666f72206e6f6e657860008301527f697374656e7420746f6b656e00000000000000000000000000000000000000006020830152604082019050919050565b600061226e6029836127ea565b91507f4552433732313a207472616e73666572206f6620746f6b656e2074686174206960008301527f73206e6f74206f776e00000000000000000000000000000000000000000000006020830152604082019050919050565b60006122d4602f836127ea565b91507f4552433732314d657461646174613a2055524920717565727920666f72206e6f60008301527f6e6578697374656e7420746f6b656e00000000000000000000000000000000006020830152604082019050919050565b600061233a6015836127ea565b91507f4f6e6c79204f776e65722043616e20446f2049742100000000000000000000006000830152602082019050919050565b600061237a6021836127ea565b91507f4552433732313a20617070726f76616c20746f2063757272656e74206f776e6560008301527f72000000000000000000000000000000000000000000000000000000000000006020830152604082019050919050565b60006123e06031836127ea565b91507f4552433732313a207472616e736665722063616c6c6572206973206e6f74206f60008301527f776e6572206e6f7220617070726f7665640000000000000000000000000000006020830152604082019050919050565b6124428161292b565b82525050565b60006124548285611e66565b91506124608284611e66565b91508190509392505050565b60006020820190506124816000830184611dd6565b92915050565b600060608201905061249c6000830186611dd6565b6124a96020830185611dd6565b6124b66040830184612439565b949350505050565b60006080820190506124d36000830187611dd6565b6124e06020830186611dd6565b6124ed6040830185612439565b81810360608301526124ff8184611df4565b905095945050505050565b600060208201905061251f6000830184611de5565b92915050565b6000602082019050818103600083015261253f8184611e2d565b905092915050565b6000602082019050818103600083015261256081611e97565b9050919050565b6000602082019050818103600083015261258081611efd565b9050919050565b600060208201905081810360008301526125a081611f3d565b9050919050565b600060208201905081810360008301526125c081611f7d565b9050919050565b600060208201905081810360008301526125e081611fe3565b9050919050565b6000602082019050818103600083015261260081612023565b9050919050565b6000602082019050818103600083015261262081612089565b9050919050565b60006020820190508181036000830152612640816120ef565b9050919050565b6000602082019050818103600083015261266081612155565b9050919050565b60006020820190508181036000830152612680816121bb565b9050919050565b600060208201905081810360008301526126a0816121fb565b9050919050565b600060208201905081810360008301526126c081612261565b9050919050565b600060208201905081810360008301526126e0816122c7565b9050919050565b600060208201905081810360008301526127008161232d565b9050919050565b600060208201905081810360008301526127208161236d565b9050919050565b60006020820190508181036000830152612740816123d3565b9050919050565b600060208201905061275c6000830184612439565b92915050565b6000604051905081810181811067ffffffffffffffff8211171561278957612788612ab0565b5b8060405250919050565b600067ffffffffffffffff8211156127ae576127ad612ab0565b5b601f19601f8301169050602081019050919050565b600081519050919050565b600081519050919050565b600082825260208201905092915050565b600082825260208201905092915050565b600081905092915050565b60006128118261292b565b915061281c8361292b565b9250827fffffffffffffffffffffffffffffffffffffffffffffffffffffffffffffffff0382111561285157612850612a23565b5b828201905092915050565b60006128678261292b565b91506128728361292b565b92508261288257612881612a52565b5b828204905092915050565b60006128988261292b565b91506128a38361292b565b9250828210156128b6576128b5612a23565b5b828203905092915050565b60006128cc8261290b565b9050919050565b60008115159050919050565b60007fffffffff0000000000000000000000000000000000000000000000000000000082169050919050565b600073ffffffffffffffffffffffffffffffffffffffff82169050919050565b6000819050919050565b82818337600083830152505050565b60005b83811015612962578082015181840152602081019050612947565b83811115612971576000848401525b50505050565b6000600282049050600182168061298f57607f821691505b602082108114156129a3576129a2612a81565b5b50919050565b60006129b48261292b565b91507fffffffffffffffffffffffffffffffffffffffffffffffffffffffffffffffff8214156129e7576129e6612a23565b5b600182019050919050565b60006129fd8261292b565b9150612a088361292b565b925082612a1857612a17612a52565b5b828206905092915050565b7f4e487b7100000000000000000000000000000000000000000000000000000000600052601160045260246000fd5b7f4e487b7100000000000000000000000000000000000000000000000000000000600052601260045260246000fd5b7f4e487b7100000000000000000000000000000000000000000000000000000000600052602260045260246000fd5b7f4e487b7100000000000000000000000000000000000000000000000000000000600052604160045260246000fd5b6000601f19601f8301169050919050565b612af9816128c1565b8114612b0457600080fd5b50565b612b10816128d3565b8114612b1b57600080fd5b50565b612b27816128df565b8114612b3257600080fd5b50565b612b3e8161292b565b8114612b4957600080fd5b5056fea2646970667358221220478a4d51838aaeeb8974c1fd52e0abfa65ce4ae5100c0dce3b36865db50ace4c64736f6c63430008000033",
  "immutableReferences": {},
  "source": "// SPDX-License-Identifier: GPL-3.0\npragma solidity ^0.8.0;\n\nimport \"@openzeppelin/contracts/token/ERC721/ERC721.sol\";\nimport \"./IPixelsMetavers.sol\";\n\ncontract PMT721 is ERC721 {\n    uint256 private _tokenId;\n    address _owner;\n    address _minter;\n\n    modifier MustMinter(address from) {\n        require(from == _minter, \"Only Minter Can Do It!\");\n        _;\n    }\n\n    modifier MustOwner(address from) {\n        require(from == _owner, \"Only Owner Can Do It!\");\n        _;\n    }\n\n    constructor() ERC721(\"PixelsMetavers\", \"PMT\") {\n        _owner = msg.sender;\n    }\n\n    function mint() public MustMinter(msg.sender) {\n        _mint(msg.sender, ++_tokenId);\n    }\n\n    function burn(uint256 id) public MustMinter(msg.sender) {\n        _burn(id);\n    }\n\n    function exits(uint256 id) public view returns (bool) {\n        return _exists(id);\n    }\n\n    function setMinter(address minter) public MustOwner(msg.sender) {\n        _minter = minter;\n    }\n\n    function getMinter() public view returns (address) {\n        return _minter;\n    }\n\n    function currentID() public view returns (uint256) {\n        return _tokenId;\n    }\n\n    function _beforeTokenTransfer(\n        address from,\n        address to,\n        uint256 tokenId\n    ) internal virtual override {\n        IPixelsMetavers(_minter).transfer(from, to, tokenId);\n    }\n}\n",
  "sourcePath": "/Users/xiangzhengfeng/Desktop/mine/project/pixels-metaverse/contracts/PMT721.sol",
  "compiler": {
    "name": "solc",
    "version": "0.8.0+commit.c7dfd78e.Emscripten.clang"
  },
  "schemaVersion": "3.3.4",
  "updatedAt": "2021-12-23T13:05:31.530Z",
  "networkType": "ethereum",
  "devdoc": {
    "kind": "dev",
    "methods": {
      "approve(address,uint256)": {
        "details": "See {IERC721-approve}."
      },
      "balanceOf(address)": {
        "details": "See {IERC721-balanceOf}."
      },
      "getApproved(uint256)": {
        "details": "See {IERC721-getApproved}."
      },
      "isApprovedForAll(address,address)": {
        "details": "See {IERC721-isApprovedForAll}."
      },
      "name()": {
        "details": "See {IERC721Metadata-name}."
      },
      "ownerOf(uint256)": {
        "details": "See {IERC721-ownerOf}."
      },
      "safeTransferFrom(address,address,uint256)": {
        "details": "See {IERC721-safeTransferFrom}."
      },
      "safeTransferFrom(address,address,uint256,bytes)": {
        "details": "See {IERC721-safeTransferFrom}."
      },
      "setApprovalForAll(address,bool)": {
        "details": "See {IERC721-setApprovalForAll}."
      },
      "supportsInterface(bytes4)": {
        "details": "See {IERC165-supportsInterface}."
      },
      "symbol()": {
        "details": "See {IERC721Metadata-symbol}."
      },
      "tokenURI(uint256)": {
        "details": "See {IERC721Metadata-tokenURI}."
      },
      "transferFrom(address,address,uint256)": {
        "details": "See {IERC721-transferFrom}."
      }
    },
    "version": 1
  },
  "userdoc": {
    "kind": "user",
    "methods": {},
    "version": 1
  }
}